:020000040800F2
:109000000040002021D7000851D6000857D600089C
:109010000000000000000000000000000000000050
:109020000000000000000000000000007D73010847
:109030000000000000000000A17401085DD60008D7
:1090400071D7000871D7000871D7000871D70008E0
:1090500071D7000871D7000871D7000871D70008D0
:1090600071D7000871D7000871D7000871D70008C0
:1090700071D7000871D7000871D7000871D70008B0
:1090800071D7000871D7000871D7000871D70008A0
:1090900071D7000871D7000871D7000871D7000890
:1090A00071D7000871D7000871D7000871D7000880
:1090B00079D6000871D7000871D7000891D600084A
:1090C00010B5064C2378002B07D1054B002B02D09E
:1090D000044800E000BF0123237010BDB802002047
:1090E00000000000308D0108044B10B5002B03D0A8
:1090F0000349044800E000BF10BDC0460000000066
:10910000BC020020308D010802780B78002A03D0C1
:10911000013001319A42F7D0D01A70470023C25C67
:109120000133002AFBD1581E7047000003B471467A
:10913000490840004900095E49008E4403BC70475D
:10914000002243088B4274D303098B425FD3030A86
:109150008B4244D3030B8B4228D3030C8B420DD399
:10916000FF22090212BA030C8B4202D31212090227
:1091700065D0030B8B4219D300E0090AC30B8B4265
:1091800001D3CB03C01A5241830B8B4201D38B0313
:10919000C01A5241430B8B4201D34B03C01A5241B8
:1091A000030B8B4201D30B03C01A5241C30A8B42FB
:1091B00001D3CB02C01A5241830A8B4201D38B02E6
:1091C000C01A5241430A8B4201D34B02C01A52418A
:1091D000030A8B4201D30B02C01A5241CDD2C309FC
:1091E0008B4201D3CB01C01A524183098B4201D378
:1091F0008B01C01A524143098B4201D34B01C01A63
:10920000524103098B4201D30B01C01A5241C308DA
:109210008B4201D3CB00C01A524183088B4201D349
:109220008B00C01A524143088B4201D34B00C01A35
:109230005241411A00D20146524110467047FFE7A1
:1092400001B5002000F006F802BDC0460029F7D0A5
:1092500076E770477047C04680B500AFBFF34F8FC9
:10926000C046044B044ADA60BFF34F8FC046C04685
:10927000FDE7C04600ED00E00400FA05B0B500AF20
:109280006F4B180001F08CF96E4AA0235B001E2181
:10929000D1506D4A6D4B1000190005231A000FF0D4
:1092A00045F8694A6A4B1000190005231A000FF0AF
:1092B0003DF8654A674B1000190005231A000FF0AE
:1092C00035F8604B644A13CA13C303CA03C3127848
:1092D0001A705C4B614A13CA13C3118819809278C3
:1092E0009A705F4B00221A605E4B00221A805E4922
:1092F0005E4B1422180008F0C1FA5C4B1B681A6818
:109300005A4B1B68902149000A431A60584B0122AE
:109310000821180004F08AFD564B0022DA61494BFF
:1093200000229A67524B01220821180004F07EFDAA
:10933000444AB2235B000021D150424AB4235B006F
:109340000021D1503F4AB6235B000021D1503D4A55
:10935000B8235B000021D1503A4ABA235B0046494A
:10936000D150384ABC235B000021D150354ABE237E
:109370005B000121D150414B00221A60404B00227A
:109380001A603F4B1B68180037490A230A2203F072
:10939000D5FE3C4A3C4B100019000E231A000EF07B
:1093A000C5FF314A374B110018000EF0F1FF354B65
:1093B0001800FFF7B3FE03001A00324BD218334BEC
:1093C0001000190003231A000EF0B0FF2D4B1800F7
:1093D00001F0E6F82B4A2E4B100019000C231A005E
:1093E0000EF0A4FF174ABA235B00D0581E490A2387
:1093F0000A2203F0A3FE1C4A224B110018000EF0B3
:10940000C7FF204B1800FFF789FE03001A001D4B11
:10941000D2181E4B1000190003231A000EF086FF0D
:10942000184B180001F0BCF8064AC4235B00002169
:10943000D150184B01221A70C046BD46B0BDC0467F
:10944000488D0108A8190020C6190020548D010874
:109450005C8D0108648D01086C8D0108848D010804
:10946000EC020020D402002024220020E425002069
:1094700000040048C414002048EE000078180020C2
:10948000C4000020A0210020948D0108A48D0108B3
:10949000A88D0108D000002090B5C7B000AFF04BF8
:1094A0001868F0490A230A2203F048FEDC243B191D
:1094B0001800FFF733FE03001A003B199A18EA4B15
:1094C0001000190002231A000EF030FFE54A3B1984
:1094D000110018000EF05CFFE44B1B78372B01D90C
:1094E00000F0CDFE9A00E24BD3181B689F46E14B7B
:1094F0001B88022B0ED880231B02DF480022190094
:1095000004F094FCDB4B1B8801339AB2D94B1A80D0
:1095100000F0FDFED94B00220421180004F086FC67
:10952000D24B02221A7000F0F2FED54B180001F067
:1095300037F880231B02D0480122190004F076FC82
:10954000CC4B00221A80C94B03221A7000F0DFFEB8
:10955000CC4B180001F024F8C64B1B88032B11D804
:10956000C64B01220421180004F060FCC14B1B888B
:1095700001339AB2BF4B1A80C34B180001F010F8A8
:1095800000F0C5FEBD4B00220421180004F04EFC83
:10959000B64B04221A70BD4B180001F001F800F020
:1095A000B6FEBB4B180000F0A9FFB04B05221A70A5
:1095B00000F0ADFEB74B180000F0A0FFAB4B00224F
:1095C0001A7000F0A4FEB44B180000F0E9FFB34B92
:1095D000180000F093FFB24B01225A60B04B0122F9
:1095E0001A60A24B07221A7000F091FEAD4B1800D2
:1095F00000F084FF9D4B08221A7000F088FEAA4BF1
:10960000180000F07BFFA94AA8235B000521D15078
:10961000964B09221A70954B0A221A7000F077FEB9
:10962000A34B180000F06AFF904B0A221A708F4B70
:1096300011221A7000F06BFE9E4B180000F05EFFC6
:109640008A4B20221A70894B22221A7000F05FFE8A
:10965000994B180000F0A4FF02F0B0FB974B1800E4
:1096600000F04CFF814B24221A70804B00221A70AC
:109670007E4B22221A7000F04AFE914B180000F037
:109680003DFF7A4B0C221A70784B0E221A7000F0B4
:109690003EFE8C498C4B072218000EF08EFE031EF6
:1096A00004D18A4B180000F029FF0BE08849864B53
:1096B000032218000EF081FE031E03D1854B180013
:1096C00000F01CFF794A9A235B000021D150774AB1
:1096D0009C235B000121D150644B00221A7000F0E2
:1096E00016FE7D4B180000F009FF7C4BF82200218C
:1096F00099505E4B18221A7000F009FE784B180042
:1097000000F0FCFE594B00221A70684A9A235B0055
:10971000D358012B01D000F0F9FD544B0C221A70E4
:1097200000F0F4FD5E4B01229A606E4B180000F0D1
:1097300037FF02F0E9F9031E08D16B4B6B4A03CAED
:1097400003C31188198092789A7005E0684A664BC5
:10975000110018000EF029FE634B644A03CA03C3CC
:109760001188198092789A70624B180000F018FFE7
:109770005D4B180000F014FF5F4B180000F010FF65
:109780005E4A5A4B1100180002F086F8474A9A23A5
:109790005B000121D150354B00221A7000F0B7FD5B
:1097A000574B180000F0FCFE564ADC243B19110010
:1097B00018000EF0FAFD3B191800FFF7AFFC03008C
:1097C0001A003B199A18504B1000190003231A0075
:1097D0000EF0ACFD3B19180000F090FE304B00225B
:1097E0005A62224B00221A7000F091FD474B18007C
:1097F00000F084FE1D4B00221A701C4B0A221A70C6
:1098000000F085FD424B180000F078FE244B012249
:109810009A61264B00229A67144B13221A7000F0AB
:1098200076FD3C4B180000F069FE104B00221A70C8
:1098300000F06DFD012004F001F8374B180000F036
:109840005DFE1A4B00229A67154B0022DA61174B16
:10985000802200219950054B00221A7000F057FD1C
:109860008018002024220020B48D0108C0000020B0
:10987000DC9F0108D40200200008004800040048D2
:10988000B88D0108C48D0108D48D0108E48D01084C
:10989000F08D0108FC8D0108088E0108148E010866
:1098A000C4140020208E01082C8E0108A819002065
:1098B000388E0108448E0108648E0108708E0108FC
:1098C000808E01088C8E01087D1A0020948E01087C
:1098D000A88E0108AC8E0108C08E0108A8160020D1
:1098E000D08E0108DC8E0108AC160020E88E01083D
:1098F0005A1A0020F48E0108A48D0108A417002034
:10990000FC8E0108CC160020048F0108088F010886
:10991000188F0108288F0108388F0108784B002222
:109920001A70784B8022012199503B00764A13CA65
:1099300013C303CA03C33B00744A13CA13C3116899
:10994000196092889A806F4A3B00110018000EF04F
:109950001FFD3B001800FFF7E1FB03001A003B006E
:109960009A186B4B1000190003231A000EF0DEFC4E
:10997000684A3B00110018000EF00AFD3B00180079
:10998000FFF7CCFB03001A003B009A18624B100053
:10999000190003231A000EF0C9FC604B180000F0F8
:1099A000FFFD584B9B6F002B0DD15D4B180000F055
:1099B000F7FD3B00180000F0F3FD3B00180000F03D
:1099C0009DFD00F0A4FC4E4B16221A7000F09FFC87
:1099D000544B180000F0E4FD534B180000F08EFDCE
:1099E000484B802200219950454B00221A7000F00C
:1099F0008EFC3B004D4A03CA03C312781A704C4ACE
:109A00003B00110018000EF0C3FC3B001800FFF7EC
:109A100085FB03001A003B009A183F4B1000190009
:109A200003231A000EF082FC3B00180000F066FDD4
:109A3000404B00221A62324B00221A7000F067FC81
:109A4000304AAA235B000121D1503B4B180000F0A3
:109A5000A7FD2C4ABE235B00D358002B00D09BE10E
:109A6000284BDB6F002B79D1344B180000F098FDA8
:109A7000334A344B1000190006231A000EF056FC2E
:109A8000314A2F4B110018000EF082FC2F4B186842
:109A9000C82439190A230A2203F050FB284B180066
:109AA000FFF73CFB03001A00254BD218284B10008F
:109AB000190004231A000EF039FC3A19204B11004A
:109AC00018000EF065FC234B186839190A230A2286
:109AD00003F034FB1A4B1800FFF720FB03001A00B9
:109AE000174BD2181C4B1000190004231A000EF05B
:109AF0001DFC3A19124B110018000EF049FC3BE016
:109B0000C0000020A8190020488F01085C8F0108C0
:109B1000708F0108C6190020A48D0108748F0108F8
:109B2000848F0108948F0108A48F0108B48F010865
:109B3000A8160020C4140020C08F0108D08F01088F
:109B40004C180020E08F0108CC190020801800205C
:109B5000E88F0108201C0020EC8F0108EB4AEC4B39
:109B60001000190006231A000EF0E0FBE94AE74B4B
:109B7000110018000EF00CFCE74B84229B58012BBF
:109B800024D1E54B842200219950E04AE34B100098
:109B9000190002231A000EF0C9FBDC4B1800FFF776
:109BA000BDFA03001A00D94BD218D94B1000190086
:109BB00006231A000EF0BAFBD64AD44B1100180047
:109BC0000EF0E6FBD14B180002F072FAD24B88225D
:109BD0009B58012B24D1D04B882200219950CB4A8D
:109BE000CE4B1000190002231A000EF09FFBC74B4A
:109BF0001800FFF793FA03001A00C44BD218C84BA1
:109C00001000190008231A000EF090FBC54ABF4B44
:109C1000110018000EF0BCFBBC4B180002F048FA13
:109C2000BD4B8C229B58012B24D1BB4B8C22002195
:109C30009950B64AB94B1000190002231A000EF0D1
:109C400075FBB24B1800FFF769FA03001A00AF4B1F
:109C5000D218B54B100019000A231A000EF066FB4B
:109C6000B24AAA4B110018000EF092FBA74B180045
:109C700002F01EFAA84A8C235B00D358012B1FD197
:109C8000A54A8C235B000021D150A04AA34B1000B1
:109C9000190002231A000EF049FB9C4B1800FFF735
:109CA0003DFA03001A00994BD218A14B100019007D
:109CB00007231A000EF03AFB944B180002F0F8F953
:109CC000954A8A235B00D358012B25D1924A8A23D7
:109CD0005B000021D1508D4A904B100019000223E7
:109CE0001A000EF023FB894B1800FFF717FA030048
:109CF0001A00864BD2188F4B1000190005231A004A
:109D00000EF014FB8C4A814B110018000EF040FB42
:109D10007E4B180002F0CCF97F4A8E235B00D358AB
:109D2000012B25D17C4A8E235B000021D150774A3C
:109D30007A4B1000190002231A000EF0F7FA734B49
:109D40001800FFF7EBF903001A00704BD2187B4B99
:109D50001000190006231A000EF0E8FA784A6B4B3F
:109D6000110018000EF014FB684B180002F0A0F967
:109D7000664B1800FFF7D2F903001A00634BD218A4
:109D8000704B1000190003231A000EF0CFFA5F4B3E
:109D9000180000F0B3FB4AE06B4B180000F000FC29
:109DA0006A4B1B78052B3BD89A00694BD3181B686C
:109DB0009F46684B180000F0F3FB00F079FD664BFE
:109DC00000221A602CE0654B180000F0E9FB00F05F
:109DD000B7FD25E0624A634B1000190005231A0005
:109DE0000EF0A4FA604B186860490A230A2203F0B7
:109DF000A5F95E4A5A4B110018000EF0C9FA584BEB
:109E0000180000F0D7FD584B1B685A1C564B1A60BF
:109E100006E0574B180000F0C3FB00F059FEC046A7
:109E2000544B180000F0BCFB534B01221A60534BFB
:109E300000221A706BE2524B180000F0B1FB514B3C
:109E4000180000F05BFB4D4B00221A705FE2324BB2
:109E50009B6F012B10D14C4B180000F0A1FB4B4B1A
:109E6000180000F04BFB2C4AAA235B000021D150C4
:109E7000424B00221A704AE2404B14221A7046E20A
:109E8000434B180000F03AFB41E2424B180000F04F
:109E900035FB3CE2404B180000F082FB3F4B1800C2
:109EA00000F02CFB33E23E4B180000F079FB3D4BF9
:109EB000180000F023FB314B23221A7027E23A4BA3
:109EC000180000F06DFB394B180000F017FB2B4B0E
:109ED0002A221A70294B00221A7018E2344B1800FB
:109EE00000F05EFB334B180000F008FB234B2B22E5
:109EF0001A700CE2304B180000F052FB2F4B180088
:109F000000F0FCFA1D4B27221A7000E24C180020CA
:109F1000F08F01083C1A0020A8190020B48D010818
:109F2000F88F01085A1A0020009001086E1A0020CC
:109F30000C90010814900108AC1A00201C90010834
:109F4000F4190020048F010824900108D00000209B
:109F5000BCA0010834900108741800204490010846
:109F600094160020589001087C180020A0190020A9
:109F70006090010870900108F8020020C0000020E5
:109F800078900108889001088C900108A090010841
:109F9000AC900108B4900108BC900108C890010879
:109FA000D0900108E0900108FC9001081091010890
:109FB0002891010838910108509101086091010829
:109FC000B04B180000F0ECFAAF4B180000F096FA16
:109FD000AE4AB2235B000121D150AD4B25221A704D
:109FE00095E1AC4B180000F0DBFAAB4B180000F029
:109FF00085FAA74B00221A7089E1A84B180000F0DF
:10A00000CFFAA74B180000F079FAA14B29221A7059
:10A010009F4B2A221A707AE1A24B180000F0C0FA76
:10A02000A14B180000F06AFA994B00221A706EE1F9
:10A030009E4B180000F0B4FA9D4B180000F05EFA39
:10A04000934B00221A7062E19A4B180000F0A8FAB4
:10A05000994B180000F052FA8D4B2D221A708C4B40
:10A0600000221A7053E1954B180000F099FA944BB6
:10A07000180000F043FA864B00221A7047E1834A29
:10A08000B8235B000021D1508E4B180000F036FA47
:10A090007F4B00221A703AE18B4B180000F02EFA29
:10A0A0007B4B00221A7032E1884B180000F026FA30
:10A0B000774B00221A702AE1854B180000F01EFA37
:10A0C000734B00221A7022E1824B180000F068FAEC
:10A0D0003B00814A03CA03C31188198092789A70A1
:10A0E0007E4A3B00110018000EF052F93B001800A8
:10A0F000FFF714F803001A003B009A18784B100081
:10A10000190002231A000EF011F9764B1B68180093
:10A1100075490A230B2203F011F8734A3B00110022
:10A1200018000EF035F93B001800FEF7F7FF0300AA
:10A130001A003B009A186D4B1000190003231A00F7
:10A140000EF0F4F83B00180000F0D8F94F4AB423A1
:10A150005B000121D1504E4B00221A70D7E03B002A
:10A16000634A03CA03C31188198092789A705B4AC4
:10A170003B00110018000EF00BF93B001800FEF731
:10A18000CDFF03001A003B009A18554B1000190030
:10A1900002231A000EF0CAF8564B1B6818005249E9
:10A1A0000A230A2202F0CAFF4F4A3B00110018009E
:10A1B0000EF0EEF83B001800FEF7B0FF03001A00A7
:10A1C0003B009A18494B1000190003231A000EF0A7
:10A1D000ADF83B00180000F091F9474B01221A70CE
:10A1E0002B4B00221A702A4B30221A703D4B1A68F2
:10A1F000404B1B68D2183B4B1A6088E03F4B18005D
:10A2000000F0CEF93B003E4A13CA13C3334A3B0069
:10A21000110018000EF0BCF83B001800FEF77EFF9E
:10A2200003001A003B009A18304B1000190003235A
:10A230001A000EF07BF83B00180000F0B1F93B006B
:10A24000180000F05BF9274B00221A600F4ABC236C
:10A250005B000021D1500E4B34221A7057E0294B7D
:10A26000180000F09DF9284B180000F099F9084BF0
:10A2700026221A704BE0064B00221A7047E0C046B7
:10A2800045E0C0467491010880910108A81900209A
:10A29000C0000020A4910108B4910108C4910108F4
:10A2A000D0910108EC910108F89101080892010889
:10A2B000149201083C920108489201086892010832
:10A2C000749201088492010898920108AC920108E6
:10A2D000CC920108E8920108F49201080C1C0020BD
:10A2E000B48D0108C400002024220020A48D0108A0
:10A2F00000930108CC000020041C00200C930108EE
:10A300001C930108289301083C930108C0466D4B3B
:10A310009B6F002B04D16C4B1B685A1C6A4B1A6054
:10A320006A4B5B78012B04D1694B1B6E5A1C684B3E
:10A330001A66674B1B6E1E2B12DD624AC0235B0040
:10A34000D358002B0CD1624B00221A66614B0322BA
:10A350001A70614B1C221A70604B180000F020F933
:10A36000594B1B68132B19DD5D4B5B68012B15D115
:10A37000544AB2235B00D358002B0FD1524B00221A
:10A380001A60584B180000F00BF9534B0C221A704E
:10A39000514B0E221A70504B18221A70504BDB6929
:10A3A000002B0CD14E4B1B68012B08D1454A9E2334
:10A3B0005B00D358591C434A9E235B00D150414A4D
:10A3C0009E235B00D2583F49A0235B00CB589A42A2
:10A3D0002DDB414B1B78002B29D1414B9B68002B77
:10A3E00025D13F4B1B68012B21D1364AB2235B009C
:10A3F000D358002B1BD1334A9E235B000021D15040
:10A40000374BDB69002B03D1334B12221A700EE05D
:10A41000334BDB69012B03D12F4B15221A7006E059
:10A420002F4B9B69012B02D12B4B14221A70254A0A
:10A43000B0235B00D3583B2B09DD224AB0235B00DD
:10A440000021D150FEF71AFF234B01221A70264B30
:10A450001A68E1231B019A4219DB1F4B1B78002B62
:10A4600015D1184B9B6F002B11D11D4B1B68012B75
:10A470000DD11D4B00221A601C4B1D4A116819603A
:10A4800012791A7101F09AFC134B0F221A700D4ABF
:10A490009E235B00D3581D2B06DD114B1B68002B40
:10A4A00002D1144B0A221A60134B1B68012B04D1F2
:10A4B000104B1B685A1C0F4B1A60C046BD4647B074
:10A4C00090BDC046A81900207818002098190020D7
:10A4D00020160020D0000020C00000204493010876
:10A4E000C414002050930108081C0020A417002069
:10A4F00058930108F0020020F402002080B584B0D7
:10A5000000AF78600523FB607B681800FEF706FE4D
:10A510000300BB60BB689AB279680A4B180007F069
:10A520002DF90949074B3222180007F0A7F9074B0C
:10A5300000221A60064B01221A60C046BD4604B0D4
:10A5400080BDC046E4250020341B0020F00200201E
:10A55000F402002080B584B000AF78603960052334
:10A56000FB603B689AB27968094B180007F006F95E
:10A570000849074B3222180007F080F9064B0022E9
:10A580001A60064B01221A60C046BD4604B080BD69
:10A59000E4250020341B0020F0020020F4020020FB
:10A5A00080B584B000AF78601923FB607B68180029
:10A5B000FEF7B4FD0300BB60BB689AB2FB68796824
:10A5C000034807F031F8C046BD4604B080BDC04620
:10A5D0005C25002080B500AF80239B01A04A1900B4
:10A5E000100003F040FC9F4B1A689F4B1B689A4277
:10A5F00000D132E19D4B00221A609B4B1A689C4BA4
:10A600001B689C49895C9C4AD154974B1B685A1C17
:10A61000954B1A60944B1A6896235B009A4202DDB0
:10A62000914B00221A60924B1B685A1C904B1A6087
:10A630008F4B1B68642B02DD8D4B00221A608C4B04
:10A640001B68013B8C4AD35C3E2B0AD18B4B9B6F22
:10A65000012B03D18A4B1B221A7002E0884B102277
:10A660001A70834B1B68013B834AD35C902B16D135
:10A67000844B1800FFF794FF834B00221A607F4A37
:10A68000C0235B000121D1507C4AC4235B0001211F
:10A69000D1507E4B01225A707D4B03221A70744BAD
:10A6A0001B68013B744AD35C312B12D1774B5B782A
:10A6B000012B0ED1754BDB79002B0AD16F4AC023D9
:10A6C0005B000121D150704B00221A606F4B0122B8
:10A6D000DA71674B1B68013B674AD35C302B12D1A0
:10A6E0006A4B5B78012B0ED1684BDB79002B0AD1CA
:10A6F000624AC0235B000121D150634B00221A60E3
:10A70000624B0122DA715D4AC0235B00D358012BF2
:10A7100000D083E0564B1B685A1E5B4B1B685649A2
:10A72000895C5C4AD154584B18685B490A230A2259
:10A7300002F004FD594B1800FFF732FF564B18008A
:10A74000FFF72EFF504B1B68524AD35C180052494A
:10A750000A230A2202F0F2FC514B1800FFF720FFF7
:10A760004D4B1800FFF71CFF4E4B1800FFF718FF6A
:10A77000454B1B68474AD35C022B0CD1434BDB781B
:10A78000022B08D1424B02221A70404B0322DA708E
:10A790003B4B1C221A703C4B1B68012B08D13A4BD7
:10A7A0001B683C4AD35C1900344AC2235B00D15079
:10A7B000354B1B68042B17D13B4B1800FFF7F0FEFD
:10A7C000344B5B781E2B03D8324BDB781E2B0BD916
:10A7D000364B1800FFF7E4FE284AC0235B00002137
:10A7E000D150294B00221A60274B1B685A1C264B5C
:10A7F0001A60224AC2235B00D3585A1C224B1B68A2
:10A800009A420BDA204B00221A60204B0022DA71A8
:10A810001E4B5B78012B01D100F07EF9144B1B68B5
:10A82000013B154AD35C0A2B09D1114B1B68124A14
:10A830000021D1540E4B00221A6000F0E5FA0C4BB7
:10A840001B68013B0C4AD35C0D2B06D180239B0176
:10A85000034A1900100003F006FBC046BD4680BD48
:10A8600000080048D8020020DC020020F40200208A
:10A87000E0020020F41400209C180020A8190020F9
:10A88000C000002064930108E40200209819002011
:10A89000D000002000190020242200207893010815
:10A8A00080930108A48D0108849301089C930108FA
:10A8B00080B500AF204B10221A701F4B0E225A7029
:10A8C0001D4B00229A701C4B0422DA701A4B4D2249
:10A8D0001A71194B51225A71174B54229A71164B07
:10A8E0005422DA71144B04221A72134B02225A7248
:10A8F000114B0A229A72104B7822DA720E4B002208
:10A900001A730D4B02225A730B4B50229A730A4B47
:10A910003222DA73084B1A221A74074B0D225A742A
:10A92000054B12211800FFF715FE044B0122DA70C7
:10A93000C046BD4680BDC0464C1800209819002076
:10A9400080B500AF1A4B82221A70194B0A225A7036
:10A95000174B00229A70164B0022DA70144B00221B
:10A960001A71134B05225A71114B68229A71104BC0
:10A970006F22DA710E4B75221A720D4B73225A72C6
:10A980000B4B65229A720A4B0022DA72084B0022A6
:10A990001A73074B1A225A73054B0D229A73044BF4
:10A9A0000F211800FFF7D6FDC046BD4680BDC0464A
:10A9B0004C18002080B584B000AF78603D4B180083
:10A9C000FFF7EEFD7B681800FFF7EAFD3A4B180031
:10A9D000FFF7E6FD394B30221A70384B0A225A70C5
:10A9E000364B00229A70354B0522DA70334B6822C1
:10A9F0001A71324B6F225A71304B75229A712F4B5C
:10AA00007322DA712D4B65221A722C4B6F225A7207
:10AA10002A4B66229A72294B6622DA720923FB605E
:10AA20000BE07B685A1C7A601978244AFB68D318BB
:10AA30000A1C1A70FB680133FB607B681B78002BD3
:10AA4000EFD11F49F8680A230A2202F077FB1D4B59
:10AA50001800FFF7A5FD1A4B1800FFF7A1FD164BD4
:10AA60001800FFF79DFD154AFB68D3181A221A70CB
:10AA7000FB680133FB60114AFB68D3180D221A7082
:10AA8000FB680133FB60104BFA689A60FB68DBB22D
:10AA9000043BDAB2094B5A70FA68084B11001800EF
:10AAA000FFF758FD094B1800FFF77AFDC046BD4679
:10AAB00004B080BDCC930108A48D01084C1800207F
:10AAC00024220020DC93010820160020EC930108CA
:10AAD00080B500AF0D4B1800FFF762FD0C4BC02294
:10AAE0001A700B4B00225A700A4B02229A60084BD4
:10AAF0001A229A70064B0D22DA70054B04211800B9
:10AB0000FFF728FDC046BD4680BDC046FC93010846
:10AB10004C1800202016002080B58AB002AFA14B4F
:10AB20001800FFF73DFD0423BB610023FB6122E019
:10AB3000391DF8690A230A2202F000FB9A4AFB69D0
:10AB4000D3181B78180099490A230A2202F0F6FA52
:10AB50003B1D1800FFF724FD954B1800FFF720FD63
:10AB6000924B1800FFF71CFD924B1800FFF718FDE1
:10AB7000FB690133FB61904AC2235B00D358FA6939
:10AB80009A42D5DB8C4AC2235B00D3587B61BB69F8
:10AB9000DAB27B69DBB28549834801F019FE874B45
:10ABA0001800FFF7FDFC814B1800FFF7F9FC844B00
:10ABB0001800FFF7F5FC7C4B5B781A00814BDA60DC
:10ABC000804BD86880490A230A2202F0B7FA7F4BEB
:10ABD0001800FFF7E5FC7C4B1800FFF7E1FC784B11
:10ABE0001800FFF7DDFC704BDB781A00754B1A611B
:10ABF000744B186974490A230A2202F09FFA744BB5
:10AC00001800FFF7CDFC704B1800FFF7C9FC6C4B28
:10AC10001800FFF7C5FC6B4BDA686A4B1B69D31A47
:10AC2000981E69490A230A2202F088FA694B180023
:10AC3000FFF7B6FC644B1800FFF7B2FC604B18003E
:10AC4000FFF7AEFC5F4B00221A765E4B36220021E6
:10AC500099545C4B4A22002199545F4B5B78012B3D
:10AC600000D096E0574BDB68DBB20133DBB25B49C7
:10AC70004D48042201F0ACFD524B1B69DBB203339B
:10AC8000DBB257494848042201F0A2FD4D4B1B6935
:10AC9000DBB20433DAB24B4BDB68DBB20133DBB23D
:10ACA0005049414801F094FD4C4B1800FFF778FCE7
:10ACB0004D4B1800FFF774FC494B1800FFF770FC70
:10ACC000494B1800FFF76CFC464B1800FFF768FC77
:10ACD0003B4B1800FFF764FC4449424B0322180029
:10ACE0000DF06BFB031E03D1414B1800FFF758FC1E
:10ACF00040493C4B032218000DF05FFB314BDA68F2
:10AD0000304B1B69D31A023B3B613B49354B022256
:10AD100018000DF052FB031E29D13A6931492A4B24
:10AD200018000DF05BFB21492748012300932C23D9
:10AD30000A2202F06EF91D4B1800FFF731FC204B80
:10AD40001800FFF72DFC2D49184B022218000DF0BA
:10AD500034FB031E01D101F00FFD2949134B0322DF
:10AD600018000DF02AFB031E01D101F01BFD25493F
:10AD70001C4B032218000DF020FB1C49194B032229
:10AD800018000DF01AFB1949164B032218000DF09C
:10AD900014FB094AC0235B000021D150C046BD46C8
:10ADA00008B080BD1094010800190020A0210020E7
:10ADB0002094010880930108A81900202494010818
:10ADC000A48D0108201600202422002030940108C0
:10ADD000409401084C94010898190020381600206E
:10ADE000561600206A160020589401085C94010849
:10ADF000609401086C940108749401087894010827
:10AE00007C9401088094010890B585B002AFDC4ABB
:10AE1000DC4B1000190005231A000DF087FADA4AFE
:10AE2000D74B110018000DF0B3FAD54B1800FFF7FF
:10AE3000B7FBD54B1B78022B03D1D44B1800FFF77F
:10AE4000AFFBFB1D00221A70D14B1B69012B11D1E6
:10AE5000CF4B00221A61CE4B01221A62CA4ACD4B57
:10AE6000110018000DF0A1FACB4B1800FFF798FB6A
:10AE700000F0D0FBC94AA8235B00D358012B19DD91
:10AE8000C74B1800FFF78CFBBF4B1800FEF746F9C5
:10AE900003003B603B68082B01DD00F053FDBF4A17
:10AEA000A8235B00D358591EBC4AA8235B00D1508D
:10AEB00000F0B0FBB94AB8235B00D358012B00D097
:10AEC00081E0B84B1B781800AD490A230A2202F032
:10AED00035F9B54B1800FFF763FBA94B1800FFF7D6
:10AEE0005FFBB24B1800FFF75BFBAE4B5B781800C3
:10AEF000A3490A230A2202F021F9AD4B1800FFF7FB
:10AF00004FFB9F4B1800FFF74BFBA84B1800FFF7B8
:10AF100047FB31E0A14ABA235B00D058A54B1A6821
:10AF2000A04B190001F07EFF9C4ABA235B00D05869
:10AF3000A04B1A68924B190001F0CAFF9D4B1B6889
:10AF4000984A0021D1549B4B1B688D4A0021D15453
:10AF50008B4A944B11001800FEF7D6F80100FB1D38
:10AF6000FA1D12781A70002906D1934B1800FFF7CA
:10AF700017FBFB1D01221A70FB1D1B78002BC9D08B
:10AF8000FB1D00221A70854ABA235B00D3581A00B1
:10AF9000884B1B68D3181900804ABA235B00D15034
:10AFA0007E4ABC235B00D3581A00824B1B68D3181F
:10AFB00019007A4ABC235B00D150784AB8235B0061
:10AFC0000021D15026E3754AB8235B00D358022BE9
:10AFD00039D16D4B1B783A2B35D1784B1800FFF7E0
:10AFE000DFFA694B1800FEF799F803001A00664B68
:10AFF000D2186E4B1000190003231A000DF096F9B9
:10B00000664ABA235B00D4585F4B1800FEF786F8F7
:10B0100002005D4B1900200001F004FF5F4ABA23D3
:10B020005B00D3581C00584B1800FEF777F803005C
:10B03000E3181900594ABA235B00D150604B002233
:10B040001A60C046E6E25F494F4B072218000DF038
:10B05000B4F9031E05D1514AA8235B000521D15044
:10B06000D8E24E4AAC235B00D358012B02D101F049
:10B0700041F8CFE2494AAC235B00D358012B09DDEC
:10B08000464AAC235B00D358591E444AAC235B00AC
:10B09000D150BFE24C493C4B0A2218000DF08DF90B
:10B0A000031E03D1494B06221A70B3E24849364BBE
:10B0B000082218000DF081F9031E03D1434B06222C
:10B0C0001A70A7E24349304B092218000DF075F9B8
:10B0D000031E04D1404B1800FFF762FA9AE23F4981
:10B0E000294B042218000DF068F9031E02D100F06C
:10B0F00071FC8FE23A49244B062218000DF05DF9ED
:10B10000031E03D1224B00229A6083E235491E4B75
:10B11000062218000DF051F9031E02D100F048FC80
:10B1200078E2314A184B11001800FDF7EDFF031EBD
:10B1300002D100F057FF6DE22C49134B0822180092
:10B140000DF03BF9031E02D100F0D8FE62E228495F
:10B150000D4B062218000DF030F9031E00D0B2E0AE
:10B16000094B1800FDF7DAFF0300062B42D80B4B02
:10B17000802200219950094B01229A674AE2C04679
:10B18000A0210020889401089C18002090940108B8
:10B19000C4140020CC160020AC940108A81900208B
:10B1A000C0940108681B0020CC940108A48D0108FC
:10B1B000DC940108001C0020EC940108FC940108B8
:10B1C000C80000200C95010814950108C00000205B
:10B1D000209501082C950108389501084C95010827
:10B1E000549501085C95010864950108689501086B
:10B1F00074950108CA4B1B78012B3FD1C94B002223
:10B200001A60C94B00221A70C849C948012300932B
:10B2100020230A2201F0FDFEC44B18000DF056F861
:10B2200003001A00C34B1A60C34AB8235B00012114
:10B23000D15000F001FAC14B1A68BE4B1B689A420C
:10B240002FD9BF4BBF480222190001F0EBFDBE4BC6
:10B250001800FFF7A5F9B84AB6235B000021D150CA
:10B26000AF4B00221A70B94B33221A70B24ABA237C
:10B270005B00FA218900D150FDF7EEFFAE4B802232
:10B2800000219950AC4B01229A67B04B1C221A70D6
:10B29000AF4B1800FFF784F9A74AB8235B000221DF
:10B2A000D150A54ABE235B00D358012B00D0B1E199
:10B2B000A84B1800FFF774F9A44B1C221A70A64B78
:10B2C00001221A70A6E1A549994B0F2218000DF032
:10B2D00074F8031E06D19D4B16221A70964B00225D
:10B2E0009A6797E19E4A924B11001800FDF70CFFF8
:10B2F000031E03D1954B14221A708BE1994A8C4B93
:10B3000011001800FDF700FF031E0ED18A4B8022AA
:10B3100000219950884B01229A678C4B1C221A708D
:10B32000914B1800FFF73CF974E19049804B0722DC
:10B3300018000DF042F8031E0DD17F4AC0235B00B8
:10B340000121D1508A4BDB78012B00D062E1884B80
:10B350000222DA705EE18749754B062218000DF073
:10B360002CF8031E10D1744B00229A67824B0022E6
:10B370001A60824B1800FFF713F9744B14221A70ED
:10B38000724B00221A7045E17D49694B0822180072
:10B390000DF013F8031E10D1674B00229A67764B0D
:10B3A00000221A60774B1800FFF7FAF8674B142257
:10B3B0001A70664B00221A702CE173495C4B0A220A
:10B3C00018000CF0FAFF031E02D100F0F5F921E19C
:10B3D0006E49574B0A2218000CF0EFFF031E02D1F2
:10B3E00000F02AFA16E16A49514B092218000CF0C4
:10B3F000E4FF031E03D1554B2A221A700AE1654966
:10B400004B4B082218000CF0D8FF031E03D14F4B02
:10B410002D221A70FEE06049454B062218000CF000
:10B42000CCFF031E03D1494B2E221A70F2E05B4978
:10B430003F4B062218000CF0C0FF031E02D100F0A3
:10B4400045F9E7E056493A4B072218000CF0B5FFE2
:10B45000031E02D100F082F9DCE05249344B06228F
:10B4600018000CF0AAFF031E03D1384B26221A70D5
:10B47000D0E04D492E4B092218000CF09EFF031E10
:10B4800003D1324B26221A70C4E04849284B0A22C5
:10B4900018000CF092FF031E08D1274AB2235B006C
:10B4A0000021D150294B14221A70B3E03E49204BA1
:10B4B000092218000CF081FF031E03D1234B272221
:10B4C0001A70A7E03A491A4B092218000CF075FFD0
:10B4D000031E03D11D4B14221A709BE03549144BF7
:10B4E000082218000CF069FF031E03D1174B142229
:10B4F0001A708FE030490E4B052218000CF05DFFEA
:10B50000031E02D100F03EFD84E02C49084B1022BE
:10B5100018000CF052FF031E52D1FDF7AFFE79E088
:10B52000041C0020C8000020241C0020A0210020B2
:10B530009C180020001C0020A8190020CC0000202E
:10B540007C950108E4ED000080950108C000002012
:10B5500094950108A4950108D0000020B895010831
:10B56000C8950108D8950108E4950108F0950108EF
:10B5700098190020F8950108781800200096010815
:10B58000109601081C96010834960108409601089F
:10B590004C96010858960108649601086C960108BB
:10B5A000749601087C96010884960108909601081B
:10B5B0009C960108A8960108B4960108BC9601085B
:10B5C0001649174B052218000CF0F7FE031E17D181
:10B5D000144B00221A80144B00225A60124B002296
:10B5E000DA61124A9C235B00D358012B12D10F4A17
:10B5F0009C235B000021D1500D4B00221A7009E002
:10B600000A4AAC235B00D358012B03D1094B180025
:10B61000FEF7C6FFC046BD4603B090BDD0960108F8
:10B620009C180020D4020020C4140020A819002077
:10B63000C00000201C96010880B500AF2AE01B4B1B
:10B640001A681B4B1B689A4224D01A4B00221A60BE
:10B65000174B1A68184B1B681849895C184AD15453
:10B66000134B1B685A1C124B1A60164B1B78012B8C
:10B6700004D1114B1B685A1C0F4B1A600C4B1A68F3
:10B6800096235B009A4202DD094B00221A600D4BA3
:10B6900001221A70084B1B681A000B4B1B689A4258
:10B6A000CDD3C046C046BD4680BDC046D8020020AE
:10B6B000DC020020F4020020C8000020F414002066
:10B6C000681B0020241C0020CC00002080B582B024
:10B6D00002AF1A4B32221A7019491A4801230093FB
:10B6E0002C230A2201F095FC154B1800FDF716FDDE
:10B6F00003005A1C124B1448190001F093FB104B25
:10B7000018000CF0E3FD03001A00104B1A600F4BF9
:10B710001B6818000E490A230A2201F00FFD0D4B89
:10B720001800FEF73DFF0A4B1800FEF739FF0A4BE1
:10B730001800FEF735FFC046BD4680BDC0000020A2
:10B74000A02100209C180020EEED000084180020AD
:10B7500024220020E8960108A48D010880B582B05B
:10B7600002AF0F490F480123009320231E2201F04E
:10B7700050FC0B4B1800FEF713FF0B4B1800FEF7A5
:10B780000FFF0A4B30221A70094B01221A70094A26
:10B79000B6235B000121D150C046BD4680BDC046E6
:10B7A0000C1C00209C180020F4960108C00000200A
:10B7B000041C0020A819002080B588B002AF390011
:10B7C0001748012300933A231E2201F022FC154B57
:10B7D0001800FEF7E5FE3B001800FEF7E1FE124BF5
:10B7E0001800FEF7DDFE3B001800FDF797FC030094
:10B7F0007B617B69012B07DC0C4B1800FEF7D0FE48
:10B800000B4B2C221A7006E00A4B1800FEF7C8FEFC
:10B81000074B26221A70C046BD4606B080BDC04602
:10B820009C18002000970108A48D010810970108BA
:10B83000C00000202097010880B588B002AF124BED
:10B840001800FEF7ADFE39001048012300932023B5
:10B850001E2201F0DEFB3B001800FEF7A1FE0C4BA0
:10B860001800FEF79DFE3B001800FDF757FC030093
:10B870007B617B69062B02D1064B2C221A70C046D5
:10B88000BD4606B080BDC046349701089C18002014
:10B89000A48D0108C000002080B582B000AF7860A0
:10B8A0003960214B1B68002B35D01F4B5B68002B88
:10B8B00033D01E4A80235B00D358012B2FD01C4B62
:10B8C0001800FEF76DFE1B4A1B4B100019000A23DF
:10B8D0001A000CF02BFD7A68164B110018000CF0C2
:10B8E00057FD144B1800FDF719FC03001A00114B0B
:10B8F000D218124B1000190004231A000CF016FD88
:10B900000C4B1800FEF7FAFD3A680D4B11001800B9
:10B910000CF04BFD04E0C04602E0C04600E0C0462B
:10B92000BD4602B080BDC046C4140020A819002046
:10B93000DC8E0108A02100204897010854970108D7
:10B94000CC16002080B500AF124A134B110018002E
:10B950000CF02BFD1149104B072218000CF02DFDA7
:10B96000031E02D10E4B08221A700E4B1800FEF770
:10B9700017FE094B1800FEF713FE0B4B1800FEF7DD
:10B980000FFE0A4AA8235B000021D150C046BD46E5
:10B9900080BDC0469C180020CC1900200C950108E1
:10B9A000C000002058970108A48D0108A8190020A4
:10B9B00080B582B002AF05490548012300932023DA
:10B9C0001E2201F026FBC046BD4680BDF4190020B2
:10B9D0009C18002080B584B002AF0F490F480123A6
:10B9E00000932023032201F014FB0B4B18000CF0F2
:10B9F0006DFC03007B607B685B007B607B68712271
:10BA0000D31A3B603A680649034B18000CF0A0FCBF
:10BA1000C046BD4602B080BD881800209C1800209A
:10BA20006097010890B589B000AF2B4B2B4A13CA21
:10BA300013C31168196012791A71294A29493B0008
:10BA400018000CF085FC3A00234B110018000CF094
:10BA50009FFC254A25493B0018000CF079FC3A0070
:10BA60001D4B110018000CF093FC1B4B1800FDF748
:10BA700055FB03001A00184BD2181D4B100019007B
:10BA800006231A000CF052FC1A4A134B110018003E
:10BA90000CF07EFC104B1800FDF740FB03001A0071
:10BAA0000D4BD218144B1000190002231A000CF091
:10BAB0003DFC124A084B110018000CF069FC064AC4
:10BAC0000F4B110018000CF070FC0E4B01225A6253
:10BAD000C046BD4609B090BDCC160020F0970108C5
:10BAE0003C1A0020049801085A1A002010980108F6
:10BAF0001C980108A819002020940108C6190020EC
:10BB0000A4170020C414002080B500AF114B18000A
:10BB1000FEF746FD104B1800FDF700FB0300012B5C
:10BB200001D8002312E00C490C4B102218000CF035
:10BB300044FC031E05D10A4B1800FEF731FD01231A
:10BB400004E0084B1800FEF72BFD00231800BD464B
:10BB500080BDC046249801085A1A0020AC16002067
:10BB6000349801084498010890B58FB000AF794B24
:10BB70001800FEF715FD784B784A13CA13C33A1D17
:10BB8000774910243B1918000CF0E2FB3A19724B6C
:10BB9000110018000CF009FC724A73493B19180097
:10BBA0000CF0D6FB3A196C4B110018000CF0F0FBAE
:10BBB0006E4A98235B00D358012B0ED1664B1800B8
:10BBC000FDF7ACFA03001A00634BD218684B100063
:10BBD000190015231A000CF0A9FB644A94235B009A
:10BBE000D358012B0FD15C4B1800FDF797FA0300D7
:10BBF0001A00594BD2185F4B100019000D231A0080
:10BC00000CF094FB0EE0544B1800FDF787FA03008C
:10BC10001A00514BD218584B100019000E231A006D
:10BC20000CF084FB514A90235B00D358012B0FD1B9
:10BC3000494B1800FDF772FA03001A00464BD21860
:10BC40004E4B1000190010231A000CF06FFB0EE091
:10BC5000414B1800FDF762FA03001A003E4BD21860
:10BC6000474B1000190014231A000CF05FFB454AE3
:10BC7000454910243B1918000CF06AFB3A19364B61
:10BC8000110018000CF084FB404A41493B19180090
:10BC90000CF05EFB3A19304B110018000CF078FBE9
:10BCA0003C4A3D493B1918000CF052FB3A192A4B0B
:10BCB000110018000CF06CFB384B20221A70374A28
:10BCC00037493B1918000CF043FB3A19224B11007D
:10BCD00018000CF05DFB204B1800FDF71FFA030065
:10BCE0001A001D4BD2182F4B1000190006231A0002
:10BCF0000CF01CFB1D4A184B110018000CF048FBFF
:10BD0000154B1800FDF70AFA03001A00124BD2185F
:10BD1000254B1000190002231A000CF007FB234AE0
:10BD20000D4B110018000CF033FB0B4A204B110097
:10BD300018000CF03AFB1E4B1800FEF731FC1D4BAF
:10BD40001800FEF72DFC1C4B01225A62C046BD466E
:10BD50000FB090BDA0980108CC160020B49801083F
:10BD6000C0980108AC1A0020C8980108A819002042
:10BD7000D8980108F0980108009901081099010865
:10BD800020990108961A0020349901083C1A0020D5
:10BD9000049801085A1A00201098010888180020F9
:10BDA000449901081C98010820940108C619002034
:10BDB000A4170020A48D0108C414002080B586B00B
:10BDC00000AF454B1868391D0A230A2201F0B6F965
:10BDD000424B434A03CA03C31188198092789A7070
:10BDE0003E4B1800FDF79AF903001A003B4BD2189E
:10BDF0003C4B1000190007231A000CF097FA3A4A3E
:10BE0000364B110018000CF0C3FA344B1800FDF744
:10BE100085F903001A00314BD218344B1000190079
:10BE200002231A000CF082FA2C4B1800FDF776F969
:10BE300003001A00294BD2182D4B100019000923BA
:10BE40001A000CF073FA3A1D244B110018000CF084
:10BE50009FFA224B1800FDF761F903001A001F4BEF
:10BE6000D218224B1000190002231A000CF05EFABF
:10BE7000204B1868391D0A230A2201F05FF9174B7D
:10BE80001800FDF74BF903001A00144BD2181A4B97
:10BE90001000190009231A000CF048FA3A1D0F4B44
:10BEA000110018000CF074FA0C4B1800FDF736F96D
:10BEB00003001A00094BD2180C4B10001900022382
:10BEC0001A000CF033FA054B1800FEF769FBC04668
:10BED000BD4606B080BDC04680180020A4170020D3
:10BEE000509901085C990108CC1900206499010857
:10BEF00068990108201C00207499010880B582B05F
:10BF000002AF194919480123009322230F2201F09F
:10BF100080F8154B1800FDF701F90300032B15D924
:10BF2000134B0122DA61124B00229A61114B152248
:10BF30001A70114B1800FEF733FB0B4B1800FEF77D
:10BF40002FFB0E4B1800FEF72BFB0AE0084B0022DC
:10BF5000DA610B4B90229B58012B02D1054B0F222B
:10BF60001A70C046BD4680BD801700209C18002076
:10BF7000C4140020C000002080990108A48D01088D
:10BF8000A819002080B586B002AF124B5B6A012B66
:10BF90001BD039001048002300932C230A2201F003
:10BFA00038F80E493800012300932023032201F0C2
:10BFB00030F80B490848032300932223142201F090
:10BFC00028F8044B01221A6100E0C046BD4604B0C7
:10BFD00080BDC046C41400209C180020A816002074
:10BFE000AC16002080B500AF2B4B00221A602B4B03
:10BFF00000221A602A4B5B6A012B0AD1284B5B682E
:10C00000012B06D1264BDB69002B02D1254B0F22D9
:10C010001A70244B1B780A2B02D1214B01225A6142
:10C020001F4B1B6A012B02D11E4B17221A701D4B8E
:10C030001B781F2B02D11B4B04221A70194B1B7843
:10C040001D2B02D1174B1E221A70174AB4235B0016
:10C05000D358012B0DD1144AB6235B00D358012BC2
:10C0600007D1114AB4235B000021D1500D4B31227E
:10C070001A700E4B1B78012B0BD10B4AB6235B00B9
:10C08000D358012B05D1094B00221A70054B3022E1
:10C090001A70C046BD4680BDE80200207818002016
:10C0A000C4140020C0000020A8190020041C002097
:10C0B00080B584B000AF78607B681800FDF72EF87B
:10C0C0000300FB607B681800FEF76AFA074B180054
:10C0D000FEF766FA7B681800FEF710FA044B0022A0
:10C0E0001A70C046BD4604B080BDC04684990108A0
:10C0F0008C160020B0B5F8B002AFD84B1800FEF790
:10C100004FFAD74B1800FEF74BFAD64B1800FEF744
:10C1100047FA0023EA2464003A1913600023E82256
:10C120005200BA1813600023E6225200BA181360B6
:10C13000CB4A2C257B19110018000CF036F93B195D
:10C140001B68DBB28C225200B918781900933B238C
:10C15000A02200F05EFF6FE28C2464003B191800FF
:10C16000FEF71EFABF4B1800FEF71AFABE493B193C
:10C17000042218000CF021F9031E2BD1E4257919B3
:10C180003819012300933A23282200F042FFB749CF
:10C190007819002300932C231E2200F03AFFB449A3
:10C1A0007819012300932C231E2200F032FFAF4B9D
:10C1B0001800FEF7F5F9AF4B1800FEF7F1F9AC4B9C
:10C1C0001800FEF7EDF9A74B1800FEF7E9F9AA4BA6
:10C1D0000122DA67A9498C235B00FB1805221800AD
:10C1E0000CF0EBF8031E1BD1242439192C23F8186A
:10C1F000012300933A23042200F00BFFA0493B19CE
:10C20000022218000CF0D9F89E493B1903221800AD
:10C210000CF0D3F8031E03D19B4B1800FEF7C0F9B6
:10C220009A498C2464003B19042218000CF0C5F8CC
:10C23000031E30D1964B1800FEF7B2F9E4257919A8
:10C240003819012300933A23282200F0E2FE914995
:10C250007B19052218000CF0B0F8031E04D1864AA1
:10C2600094235B000021D1508B49E423FB18052265
:10C2700018000CF0A2F8031E04D17F4A94235B003F
:10C280000121D150E423FB181800FEF789F9754B02
:10C290001800FEF785F981498C2464003B190422BB
:10C2A00018000CF08AF8031E22D1391D3819012319
:10C2B00000933A23282200F0ACFE391D784B192256
:10C2C00018000CF07AF8031E09D1764B1800FEF71F
:10C2D00067F9694A98235B000021D15008E0724B4E
:10C2E0001800FEF75DF9644A98235B000121D150E4
:10C2F0006E498C2464003B19062218000CF05DF88E
:10C300006B493B19042218000CF057F8031E2ED17C
:10C31000594A8A235B00D358002B20D1654B180063
:10C32000FEF73EF964493819012300933A230522A8
:10C3300000F06FFE604B0A21180000F0F7FF0100CB
:10C340004D4A88235B00D1504B4A88235B00D35869
:10C3500064225A431100484A88235B00D150564B4F
:10C360001800FEF71DF93F4B1800FEF719F9534A64
:10C37000534B11001800FCF7C7FE031E1CD14E4999
:10C380004F48012300933A23042200F042FE4A4B17
:10C390000A21180000F0CAFF0100374A88235B0019
:10C3A000D150354A88235B00D35864225A43110088
:10C3B000314A88235B00D15034498C2464003B19F6
:10C3C000042218000BF0F9FF38493B190522180028
:10C3D0000BF0F3FF031E21D1E4257919381901234D
:10C3E00000933A23042200F014FE7B191A78354B8F
:10C3F0001B78D31A09D1344B1800FEF7D1F81E4A26
:10C4000090235B000121D15008E01B4A90235B0080
:10C410000021D1502D4B1800FEF7C2F82C498C2476
:10C4200064003B19032218000BF0C7FF031E57D10D
:10C43000E42579193819012300933A23042200F0E6
:10C44000E8FD7B191A781F4B1B78D31A44D1214B76
:10C450001800FEF7A5F8FFF787FB41E0B099010847
:10C460009C180020A48D0108BC9901083C1A0020EA
:10C470005A1A002058940108A8190020C4990108EC
:10C480009097010894970108CC990108D499010864
:10C49000DC990108EC990108F4990108FC9901085C
:10C4A000F4190020049A0108109A0108209A010842
:10C4B000289A0108309A0108AC1A0020409A010815
:10C4C000CC16002090990108449A0108549A01085A
:10C4D000689A01086C9A01086A4B1800FEF760F828
:10C4E00069498C2464003B19042218000BF065FF95
:10C4F000031E17D1E42579193819012300933A2333
:10C50000042200F086FD7B191A78604B1B78D31A41
:10C5100004D15F4B1800FEF743F803E05D4B1800B1
:10C52000FEF73EF85C498C2464003B190722180092
:10C530000BF043FF031E21D1E4257919381901239B
:10C5400000933A23042200F064FD7B191A784F4BC4
:10C550001B78D31A09D1514B1800FEF721F8504A25
:10C5600096235B000121D15008E04E4B1800FEF7E6
:10C5700017F84B4A96235B000021D1504A498C237F
:10C580005B00FB18052218000BF017FF031E09D1F2
:10C59000464B1800FEF704F8FFF744FA444B180026
:10C5A000FDF7FEFF43498C2464003B190322180069
:10C5B0000BF003FF031E1ED13F49381901230093DE
:10C5C0003A23142200F025FD3B4B0A21180000F00D
:10C5D000ADFE0100324AA0235B00D150304AA023B7
:10C5E0005B00D25813001B019B1A9B0019002C4AB8
:10C5F000A0235B00D15031498C235B00FB1807223C
:10C6000018000BF0DAFE031E02D1254B0022DA6778
:10C61000EA225200BB181B680133B9180B60BB1823
:10C620001B68DBB28C225200B9182C22B818009378
:10C630003B23A02200F0EDFC8C235B00FB181800CC
:10C64000FCF76CFD0300012B00D985E5144A922309
:10C650005B000021D1501A4BEC2252009446BC449E
:10C66000634400221A70174B16221A700C4AAC232E
:10C670005B000021D150134B00221A70C046BD460A
:10C6800076B0B0BD7C9A01086C94010890990108BD
:10C69000449A0108549A0108909A0108989A01084E
:10C6A000A8190020AC9A0108C49A0108CC9A010884
:10C6B000E89A0108089B0108EC1A00200C9B01086D
:10C6C00054FEFFFFC000002080B582B000AF020022
:10C6D000FB1D1A708023DB01204A1900100001F0B5
:10C6E000C2FB1F4AB0235B000021D1501D4B1B68C9
:10C6F0003B2B11DC1B4B1B681B4AF91D0978D154DD
:10C70000184B1B685A1C174B1A6080235B00174A92
:10C710001900100001F0A7FBFB1D1B783E2B04D174
:10C720000F4AAE235B000121D150114B1B68114A07
:10C73000F91D0978D1540E4B1B685A1C0C4B1A601A
:10C740000B4B1A6896235B009A4202DD084B0022CD
:10C750001A60C046BD4602B080BDC0460008004811
:10C76000A8190020C8000020681B00200004004811
:10C77000D8020020F414002080B500AF084B01223D
:10C780002021180001F052FB322001F057F8044B31
:10C7900000222021180001F049FBC046BD4680BDA3
:10C7A0000004004880B500AF084B0122102118009A
:10C7B00001F03CFB322001F041F8044B0022102133
:10C7C000180001F033FBC046BD4680BD00040048A0
:10C7D00080B588B000AFF860B9601900FB1D1A7011
:10C7E000BB1D0A1C1A7001235B42BB61FA1DBB1DF5
:10C7F00012781B789A4206D9234B1800FDF7D0FE19
:10C8000001235B423BE0BA1DFB1D12781B78D31A53
:10C81000DAB21723FB1801321A70FB1D1B78FA6875
:10C82000D318FB60FB683B61FB1D1B783A69D3188A
:10C830003B611F23FB1800221A700FE0FB681A7877
:10C84000BB681A70BB680133BB60FB680133FB60D7
:10C850001F217B181A787B1801321A701F23FA18CF
:10C860001723FB1812781B789A42E7D3BB68013371
:10C87000BB60BB6800221A700123BB61BB69180052
:10C88000BD4608B080BDC046949E010880B584B006
:10C8900000AFF860B9607A60FB68064A1A60BB684E
:10C8A000054A1A607B6880221A60C046BD4604B003
:10C8B00080BDC046FC02002050030020B0B58EB001
:10C8C00000AF00F0D7F900F055FF00F047F800F096
:10C8D0003FF900F09FF800F0DBF800F009F9802341
:10C8E00059009023DB050122180001F09FFAFCF7A4
:10C8F000C5FC8023DB0114480122190001F096FADF
:10C900001C217B18114A31CA31C331CA31C31268A4
:10C910001A607B180021180009F027FF02000C4B59
:10C920001A603B000B4A13CA13C313CA13C312681D
:10C930001A603B000021180009F017FF0200064BA7
:10C940001A6009F00AFFFEE700080048DC9E0108B3
:10C95000F4240020F89E0108E025002090B599B04D
:10C9600000AF2C243B19180034231A0000210BF0CF
:10C97000E6FC1C23FB18180010231A0000210BF002
:10C98000DEFC3B0018001C231A0000210BF0D7FC32
:10C990003B1920221A603B1901221A623B1900221E
:10C9A0005A623B19180003F0EBF8031E01D000F0A7
:10C9B0002BFB1C217B1807221A607B1803225A606C
:10C9C0007B1800229A607B188022D200DA607B18E4
:10C9D0000121180003F05AFC031E01D000F014FBE3
:10C9E0003B000B4A1A603B0000229A603B00002289
:10C9F000DA603B0000229A613B00180003F0C0FDA2
:10CA0000031E01D000F000FBC046BD4619B090BD2A
:10CA10000300020080B500AF1B4B1C4A1A601A4B82
:10CA2000822252005A60184B00229A60164BE02274
:10CA3000D200DA60144B00221A61134B00225A61B3
:10CA4000114B802292009A610F4B2022DA610E4B2B
:10CA500000221A620C4B00225A620B4B00229A628F
:10CA6000094B0722DA62084B00221A63064B0822A0
:10CA70005A63054B180003F081FE031E01D000F03D
:10CA8000C3FAC046BD4680BDF824002000380040EF
:10CA900080B500AF144B154A1A60134BE1225202C5
:10CAA0005A60114B00229A600F4B0022DA600E4B45
:10CAB00000221A610C4B0C225A610B4B00229A6126
:10CAC000094B0022DA61084B00221A62064B002251
:10CAD0005A62054B180004F053FD031E01D000F00C
:10CAE00093FAC046BD4680BD5C2500200038014059
:10CAF00080B500AF144B154A1A60134BE122520265
:10CB00005A60114B00229A600F4B0022DA600E4BE4
:10CB100000221A610C4B0C225A610B4B00229A61C5
:10CB2000094B0022DA61084B00221A62064B0022F0
:10CB30005A62054B180004F023FD031E01D000F0DB
:10CB400063FAC046BD4680BDE42500200044004095
:10CB500090B589B000AF0C243B19180014231A00BB
:10CB600000210BF0ECFB404B5A693F4B802109033D
:10CB70000A435A613C4B5A6980231B031340BB6034
:10CB8000BB68394B5A69384B802189020A435A6184
:10CB9000354B5A6980239B0213407B607B68324B84
:10CBA0005A69314B8021C9020A435A612E4B5A6996
:10CBB0008023DB0213403B603B68E0231B022B48D1
:10CBC0000022190001F032F9CF239B0028480022EF
:10CBD000190001F02BF9802359009023DB05002276
:10CBE000180001F023F93B19E02212021A603B19E8
:10CBF00001225A603B1900229A603B190022DA6038
:10CC00003B191A4A1900100000F098FF21007B1808
:10CC1000CF2292001A600C003B1901225A603B1986
:10CC200000229A603B190022DA603B19104A190071
:10CC3000100000F083FF21007B18802252001A6050
:10CC40007B1801225A607B1800229A607B18002210
:10CC5000DA607A189023DB051100180000F06EFFEF
:10CC6000C046BD4609B090BD001002400008004813
:10CC70000004004880B584B000AF80239B05BB60F2
:10CC80000023FB600023FB600EE0FB689B001C4A56
:10CC9000944663441A00FB689B00B968CB1812687D
:10CCA0001A60FB680133FB60FB682F2BEDD9154B35
:10CCB000012252429A62134B9A69124B01210A4394
:10CCC0009A61104B9B69012213407B607B680D4B7E
:10CCD00000229A620C4B1A680B4B03218A431A609C
:10CCE000094B1A68084B03210A431A6062B6C04612
:10CCF000064B1800FDF754FCC046BD4604B080BD8D
:10CD0000009000080010024000000140149F01083C
:10CD100090B58DB000AFF860B9607A603C4B1800F8
:10CD2000FDF73EFC3B4B1800FDF73AFC1024391987
:10CD3000F8680A230A2200F001FA3B191800FDF7EF
:10CD40002FFC354B1800FDF72BFC391978680A23A6
:10CD50000A2200F0F3F93B191800FDF721FC2F4BD4
:10CD60001800FDF71DFC00F0F1F880235900902316
:10CD7000DB050022180001F059F83B1906221A7051
:10CD8000391927486423012203F0B0FD802359009C
:10CD90009023DB050122180001F048F8012000F083
:10CDA0004DFD802359009023DB050022180001F07F
:10CDB0003DF83B1902221A70FB681B0CDAB23B19D2
:10CDC0005A70FB681B0ADAB23B199A70FB68DAB238
:10CDD0003B19DA70391912486423042203F086FDE6
:10CDE0003B1944221A707B689AB2B9680C486423D4
:10CDF00003F07CFD802359009023DB0501221800FD
:10CE000001F014F800F0A2F8C046BD460DB090BD88
:10CE1000349F0108449F01084C9F0108509F01085E
:10CE2000F824002090B587B000AFF860B960BB1D52
:10CE30001A801423FB18BA1D12881A80FB689BB253
:10CE4000FF2213409AB21623FB18802149008A1A48
:10CE50001A8032E01423FA1816217B1812881B88D6
:10CE60009A4205D91223FB187A1812881A8005E015
:10CE70001223FB181422BA1812881A8012243B19A4
:10CE80001A88B968FB681800FFF742FF1422BB1824
:10CE9000B9183A19098812888A1A1A803B191B880E
:10CEA000BA68D318BB603B191B88FA68D318FB60BB
:10CEB0001623FB18802252001A801423FB181B88AB
:10CEC000002BC7D1C046C046BD4607B090BD00008C
:10CED00080B58AB000AFF860B9607A6000F036F8CB
:10CEE000802359009023DB050022180000F09EFFEC
:10CEF00014217B1803221A70FB681B0CDAB27B1812
:10CF00005A70FB681B0ADAB27B189A70FB68DAB2B7
:10CF10007B18DA7079180C486423042203F0E6FCCD
:10CF20007B689AB2B9680848642303F037FE80230F
:10CF300059009023DB050122180000F077FFC0465E
:10CF4000BD460AB080BDC046F824002080B586B03A
:10CF500000AF3B1D05221A70802359009023DB058A
:10CF60000022180000F062FF391D124864230122DC
:10CF700003F0BCFC391D0F486423012203F00EFEB0
:10CF800005E0391D0B486423012203F007FE3B1D19
:10CF90001B781A0001231340F3D1802359009023FA
:10CFA000DB050122180000F041FFC046BD4606B077
:10CFB00080BDC046F824002080B582B000AF786004
:10CFC0000AF074FCFA239B00180009F01BFC074BC5
:10CFD0001B68012B06D1054B00221A60044B180078
:10CFE000FDF7DEFAFCF758FAECE7C046F80200203D
:10CFF000549F010880B582B000AF7860322009F0FC
:10D0000001FCFDF7E7FAF9E780B500AF72B6C0465C
:10D01000FEE780B586B000AFF860B9601900FB1D6F
:10D020001A70BB1D0A1C1A701623FB1800221A80E6
:10D030001423FB1800221A801323FB1800221A70F5
:10D04000FB1D1A78FB1D013A1A704AE01623FB18E3
:10D0500000229B5EFA68D3181B78BA1D12789A4298
:10D0600011D113217A182023FB1812781B789A42C9
:10D0700041D07B181A787B1801321A701423FB18E0
:10D0800000221A8024E016217B1800229B5EFA6899
:10D09000D3181B781F2B1BD97B1800229B5EFA68C4
:10D0A000D21814203B1800215B5EB968CB181278A7
:10D0B0001A703B1800229A5EFB1D1B789A4207DA11
:10D0C0003B1800229B5E9BB201339AB23B181A8038
:10D0D00016217B1800229B5E9BB201339AB27B180B
:10D0E0001A801623FB1800229B5EFA68D3181B785F
:10D0F000002BABD100E0C0461323FA182023FB1805
:10D1000012781B789A4208D01423FB1800221A8048
:10D110001623FB18012252421A801423FB18002206
:10D120009B5EBA68D31800221A701623FB180022DF
:10D130009B5E1800BD4606B080BD000080B586B07D
:10D1400000AFF860B9601900BB1D1A807B1D0A1C76
:10D150001A7012217B1800221A801123FB18012259
:10D160001A707B1D1B780A2B5FD16F4B7B61FB68AC
:10D17000002B56DAFB685B42FB607B1800229B5E4B
:10D18000BA68D3182D221A707B1800229B5E9BB2BE
:10D1900001339AB27B181A8043E0FB687969180062
:10D1A000FBF7CEFF03001A0010217B181A707B18C2
:10D1B0001B78002B03D01123FB1800221A701123B7
:10D1C000FB181B78002B13D112217B1800229B5EC9
:10D1D000BA68D3181022BA1812783032D2B21A7044
:10D1E0007B1800229B5E9BB201339AB27B181A8097
:10D1F000FA681023FB181B7879694B43D31AFB603C
:10D200007B690A211800FBF79BFF03007B61122357
:10D21000FB1800229A5EBB1D00215B5E013B9A4217
:10D220005DDA7B69002BB8D15CE07B1D1B78102B8D
:10D2300058D120237B614EE07B69043BFA681A4198
:10D240001300DAB210203B180F210A401A703B1865
:10D250001B78002B03D01123FB1800221A70112316
:10D26000FB181B78002B29D110217B181B78092B68
:10D270000BD81223FB1800229B5EBA68D3187A18C9
:10D2800012783032D2B21A700FE010217B181B785E
:10D29000092B0AD91223FB1800229B5EBA68D31807
:10D2A0007A1812783732D2B21A7012217B18002203
:10D2B0009B5E9BB201339AB27B181A807B69043B58
:10D2C0007B611223FB1800229A5EBB1D00215B5E6E
:10D2D000013B9A4205DA7B69002BADD102E0C046E2
:10D2E00000E0C0461123FB181B78012B0FD112213F
:10D2F0007B1800229B5EBA68D31830221A707B1804
:10D3000000229B5E9BB201339AB27B181A801223D3
:10D31000FB1800229B5EBA68D31800221A70BB6803
:10D320001800BD4606B080BD00CA9A3B80B584B0E7
:10D3300000AF78600A00FB1C1A700023FB60FB1C26
:10D340001B780A2B20D11AE07B681B782F2B0FD972
:10D350007B681B78392B0BD8FA6813009B009B184D
:10D360005B00FB607B681B78303BFA68D318FB607E
:10D370007B681B782D2B02D97B6801337B607B682F
:10D380001B78002BE0D13EE0FB1C1B78102B3AD120
:10D3900035E07B681B782F2B2ED9FB681B01FB60C7
:10D3A0007B681B782F2B0AD97B681B78392B06D812
:10D3B0007B681B78303BFA681343FB601CE07B689A
:10D3C0001B78602B0AD97B681B78662B06D87B6894
:10D3D0001B78573BFA681343FB600DE07B681B78B2
:10D3E000402B09D97B681B78462B05D87B681B78B6
:10D3F000373BFA681343FB607B6801337B607B68D3
:10D400001B78002BC5D1FB681800BD4604B080BD59
:10D4100080B582B000AF124B9A69114B01210A43CB
:10D420009A610F4B9B69012213407B607B680C4B18
:10D43000DA690B4B802149050A43DA61084BDA6946
:10D4400080235B0513403B603B6802235B42002264
:10D450000321180000F0C2FAC046BD4602B080BDEC
:10D460000010024090B58BB000AF786014243B19D7
:10D47000180014231A0000210AF061FF7B681B6862
:10D480001C4A934232D11C4BDA691B4B8021C901E3
:10D490000A43DA61184BDA698023DB0113403B61F0
:10D4A0003B69154B5A69144B8021C9020A435A61E2
:10D4B000114B5A698023DB021340FB60FB683B1968
:10D4C000E02212021A6021007B1802225A607B18A7
:10D4D00000229A607B180322DA607B1800221A610E
:10D4E0007B18064A1900100000F028FBC046BD4614
:10D4F0000BB090BD0038004000100240000400480E
:10D5000090B58DB000AF78601C243B19180014232F
:10D510001A0000210AF013FF7B681B68494A9342F6
:10D5200034D1494B9A69484B8021C9010A439A6119
:10D53000454B9A698023DB011340BB61BB69424BB9
:10D540005A69414B802189020A435A613E4B5A690C
:10D5500080239B0213407B617B693B19C022D20070
:10D560001A6021007B1802225A607B1800229A6000
:10D570007B180322DA607B1801221A617A18902343
:10D58000DB051100180000F0D9FA56E07B681B6833
:10D590002E4A934251D12C4BDA692B4B80218902C0
:10D5A0000A43DA61284BDA6980239B0213403B610E
:10D5B0003B69254B5A69244B802189020A435A61F1
:10D5C000214B5A6980239B021340FB60FB681C249B
:10D5D0003B1904221A603B1902225A603B190022AF
:10D5E0009A603B190322DA603B1901221A613A1949
:10D5F0009023DB051100180000F0A0FA21007B1831
:10D6000008221A607B1802225A607B1801229A6055
:10D610007B180322DA607B1801221A617A189023A2
:10D62000DB051100180000F089FA002203211C20FC
:10D6300000F0D4F91C2000F0E6F9C046BD460DB05C
:10D6400090BDC04600380140001002400044004038
:10D6500080B500AFFEE780B500AFFEE780B500AF54
:10D6600000F0D0F809F0D8FD0300012B01D009F03B
:10D670003BFFC046BD4680BD80B500AF034B1800E0
:10D6800004F05EF9C046BD4680BDC046E4250020DA
:10D6900080B500AF034B180000F036FDC046BD4614
:10D6A00080BDC0460033002080B586B000AF7860F2
:10D6B000144A154BD31A7B617B693B61134B1B6882
:10D6C000002B02D1114B124A1A60104B1A687B686A
:10D6D000D3183A699A4207D20AF0FEFD03000C22E1
:10D6E0001A6001235B4209E0084B1B68FB60074B93
:10D6F0001A687B68D218054B1A60FB681800BD4693
:10D7000006B080BD0040002000040000500500204D
:10D710000836002080B500AFC046BD4680BD000081
:10D720000D4885460D480E490E4A002302E0D458A4
:10D73000C4500433C4188C42F9D30B4A0B4C002359
:10D7400001E013600432A242FBD3FFF7E3FF0AF0CB
:10D75000C9FDFFF7B3F8FEE700400020C00000203D
:10D76000B802002018A30108B802002004360020E7
:10D77000FEE7000080B500AF074B1A68064B10218A
:10D780000A431A60032000F009F8FFF741FE002366
:10D790001800BD4680BDC0460020024090B583B051
:10D7A00000AF7860144B1C68144B1B781900FA23E7
:10D7B0009800FBF7C5FC030019002000FBF7C0FC34
:10D7C0000300180000F02FF9031E01D001230FE021
:10D7D0007B68032B0BD8796801235B420022180079
:10D7E00000F0FCF8064B7A681A60002300E0012381
:10D7F0001800BD4603B090BDD4000020DC0000201E
:10D80000D800002080B500AF054B1B781A00054BEF
:10D810001B68D218034B1A60C046BD4680BDC04687
:10D82000DC0000206826002080B500AF024B1B689A
:10D830001800BD4680BDC0466826002080B584B073
:10D8400000AF7860FFF7F0FF0300BB607B68FB6010
:10D85000FB68013305D00A4B1B781A00FB689B1844
:10D86000FB60C046FFF7E0FF0200BB68D31AFA680E
:10D870009A42F7D8C046C046BD4604B080BDC046F7
:10D88000DC00002080B582B000AF0200FB1D1A70E2
:10D89000FB1D1B787F2B09D8FB1D1B781A001F234B
:10D8A0001A40044B012191400A001A60C046BD464F
:10D8B00002B080BD00E100E090B583B000AF02008F
:10D8C0003960FB1D1A70FB1D1B787F2B28D82F4A4F
:10D8D000FB1D1B785BB29B08C0339B009B58FA1D55
:10D8E0001278110003220A40D200FF2191400A0061
:10D8F000D2431A4011003B689B01FF221A40FB1DD6
:10D900001B78180003230340DB009A401F48FB1DCF
:10D910001B785BB29B080A43C0339B001A5031E06E
:10D920001B4AFB1D1B7819000F230B40083B9B086B
:10D9300006339B00D31804331B68FA1D12781100BC
:10D9400003220A40D200FF2191400A00D2431A402C
:10D9500011003B689B01FF221A40FB1D1B78180039
:10D9600003230340DB009A400948FB1D1B781C0081
:10D970000F232340083B9B080A4306339B00C31830
:10D9800004331A60C046BD4603B090BD00E100E01C
:10D9900000ED00E080B582B000AF78607B685A1E71
:10D9A00080235B049A4201D3012310E00A4B7A687A
:10D9B000013A5A6001235B4203211800FFF77CFF04
:10D9C000054B00229A60044B07221A6000231800BE
:10D9D000BD4602B080BDC04610E000E080B584B016
:10D9E00000AFB9607A600F217B18021C1A70BA6808
:10D9F0007B181B785BB211001800FFF75DFFC04673
:10DA0000BD4604B080BD80B582B000AF0200FB1DF2
:10DA10001A70FB1D1B785BB21800FFF733FFC0467E
:10DA2000BD4602B080BD80B582B000AF78607B6833
:10DA30001800FFF7AFFF03001800BD4602B080BD1D
:10DA400080B582B000AF78607B6821229B5CDBB23E
:10DA5000022B08D07B6804229A637B682022002175
:10DA60009954012320E07B681B681A687B681B6857
:10DA70000E218A431A607B681B681A687B681B68E2
:10DA800001218A431A607B681A6C7B68DB6B012179
:10DA900091400A005A607B682122012199547B68D9
:10DAA00020220021995400231800BD4602B080BDF9
:10DAB00080B584B000AF78600F217B1800221A7007
:10DAC0007B6821229B5CDBB2022B06D07B680422A0
:10DAD0009A637B1801221A7028E07B681B681A6819
:10DAE0007B681B680E218A431A607B681B681A6872
:10DAF0007B681B6801218A431A607B681A6C7B680B
:10DB0000DB6B012191400A005A607B6821220121D0
:10DB100099547B682022002199547B685B6B002B11
:10DB200004D07B685B6B7A68100098470F23FB1862
:10DB30001B781800BD4604B080BD000080B586B0DB
:10DB400000AF7860396000237B6155E13B681B685A
:10DB500001217A6991400A001340FB60FB68002BA9
:10DB600000D146E13B685B6803221340012B05D0DE
:10DB70003B685B6803221340022B30D17B689B68B3
:10DB80003B617B695B0003229A401300DA433B69E7
:10DB900013403B613B68DA687B695B009A40130085
:10DBA0003A6913433B617B683A699A607B685B68BA
:10DBB0003B6101227B699A401300DA433B691340C1
:10DBC0003B613B685B681B0901221A407B699A40F4
:10DBD00013003A6913433B617B683A695A603B68BA
:10DBE0005B6803221340032B17D07B68DB683B6123
:10DBF0007B695B0003229A401300DA433B691340C0
:10DC00003B613B689A687B695B009A4013003A6904
:10DC100013433B617B683A69DA603B685B680322C7
:10DC20001340022B23D17B69DA087B68083292000B
:10DC3000D3583B617B69072213409B000F229A4017
:10DC40001300DA433B6913403B613B681A697B6907
:10DC500007210B409B009A4013003A6913433B6134
:10DC60007B69DA087B68083292003969D1507B6899
:10DC70001B683B617B695B0003229A401300DA4317
:10DC80003B6913403B613B685B6803221A407B6938
:10DC90005B009A4013003A6913433B617B683A6921
:10DCA0001A603B685A68C0239B02134000D1A0E071
:10DCB000574B9A69564B01210A439A61544B9B6911
:10DCC00001221340BB60BB68524A7B699B08023348
:10DCD0009B009B583B617B69032213409B000F22F2
:10DCE0009A401300DA433B6913403B617A68902302
:10DCF000DB059A4219D07B68474A934213D07B6870
:10DD0000464A93420DD07B68454A934207D07B68D0
:10DD1000444A934201D1042308E0052306E003238B
:10DD200004E0022302E0012300E000237A690321DA
:10DD30000A40920093403A6913433B6135497B693D
:10DD40009B0802339B003A695A50374B1B683B6172
:10DD5000FB68DA433B6913403B613B685A688023A8
:10DD60005B02134003D03A69FB6813433B612E4BBF
:10DD70003A691A602C4B5B683B61FB68DA433B698C
:10DD800013403B613B685A6880239B02134003D0D9
:10DD90003A69FB6813433B61234B3A695A60224B53
:10DDA0009B683B61FB68DA433B6913403B613B681E
:10DDB0005A6880235B03134003D03A69FB6813431E
:10DDC0003B61194B3A699A60174BDB683B61FB6812
:10DDD000DA433B6913403B613B685A6880239B03ED
:10DDE000134003D03A69FB6813433B610E4B3A6919
:10DDF000DA607B6901337B613B681A687B69DA40D2
:10DE0000131E00D0A2E6C046C046BD4606B080BD87
:10DE100000100240000001400004004800080048D3
:10DE2000000C0048001000480004014080B582B09A
:10DE300000AF786008001100BB1C021C1A807B1C1C
:10DE40000A1C1A707B1C1B78002B04D0BB1C1A8880
:10DE50007B689A6103E0BB1C1A887B689A62C046A3
:10DE6000BD4602B080BD80B584B000AF78600A00C6
:10DE7000BB1C1A807B685B69FB60BB1C1B88FA6853
:10DE800013401A04FB68DB43B91C09880B401A4392
:10DE90007B689A61C046BD4604B080BDF0B58BB0CA
:10DEA00006AF78607B68002B01D10123FFE07B681F
:10DEB000814A9B5CDBB2002B08D17A68AA239B00C5
:10DEC0000021D1547B68180009F0A2FE7B687A4AD1
:10DED000032199547B681B68180004F00BFF0F2383
:10DEE000FB1800221A7058E00F203B181B78796845
:10DEF0005A1C13009B009B18DB00CB180133012236
:10DF00001A703B181B7879685A1C13009B009B18E9
:10DF1000DB003A1812785A5404003B181A783B195F
:10DF20001B7898B2796813009B009B18DB00CB1814
:10DF30003633021C1A803B191B7879685A1C13006F
:10DF40009B009B18DB00CB18033300221A703B198F
:10DF50001A78796813009B009B18DB00CB183833C4
:10DF600000221A603B191A78796813009B009B18ED
:10DF7000DB00CB183C3300221A603B191A78796811
:10DF800013009B009B18DB00CB18403300221A6063
:10DF90003B191A783B1901321A700F217B181A7835
:10DFA0007B685B689A429FD37B1800221A7056E008
:10DFB0000F243B191A7878686A23FF33190013007D
:10DFC0009B009B18DB00C3185B1800221A703B19DA
:10DFD0001A787868B423590013009B009B18DB0063
:10DFE000C3185B183A1912781A703B191A787868B6
:10DFF0006C23FF33190013009B009B18DB00C31830
:10E000005B1800221A703B191A787868BC235900F3
:10E0100013009B009B18DB00C3185B1800221A60DA
:10E020003B191A787868BE23590013009B009B188F
:10E03000DB00C3185B1800221A603B191A78786855
:10E04000C023590013009B009B18DB00C3185B180A
:10E0500000221A603B191A783B1901321A700F23FB
:10E06000FB181A787B685B689A42A1D37B681868B2
:10E070007B686A4611001A00103270CA70C130CA3B
:10E0800030C159689A68DB6804F04EFE7B68242230
:10E09000002199547B68084A012199547B68DB6907
:10E0A000012B03D17B68180001F034FD0023180018
:10E0B000BD4605B0F0BDC046A902000080B582B0E3
:10E0C00000AF78607A68AA239B00D35C012B01D152
:10E0D000022314E07A68AA239B000121D1547B68B3
:10E0E0001B68180004F0F0FD7B681B68180006F040
:10E0F0004BFD7A68AA239B000021D154002318000D
:10E10000BD4602B080BD000080B582B000AF78602F
:10E110007B681B68180006F04DFD020080231B027F
:10E120001A4080231B029A4203D17B68180000F03A
:10E13000BBFB7B681B68180006F03CFD02008023D7
:10E14000DB001A408023DB009A4214D17B681B68F5
:10E1500044229B5A9AB27B681B68A2490A4091B23A
:10E16000442299527B68180009F0DDFD7B6800218C
:10E17000180000F045F97B681B68180006F01AFDCE
:10E1800002008023DB011A408023DB019A420BD17D
:10E190007B681B6844229B5A9AB27B681B68924931
:10E1A0000A4091B2442299527B681B68180006F01D
:10E1B00001FD020080239B011A4080239B019A42AB
:10E1C0000BD17B681B6844229B5A9AB27B681B6800
:10E1D00086490A4091B2442299527B681B68180014
:10E1E00006F0E8FC020080235B011A4080235B01FB
:10E1F0009A4237D17B681B6840229B5A9AB27B684F
:10E200001B6804218A4391B2402299527B681B68A3
:10E2100040229B5A9AB27B681B6808218A4391B2BC
:10E22000402299527A68B8239B00D35C012B09D114
:10E230007A68B8239B000021D1547B680021180024
:10E2400001F092FC7B68180009F0AEFD7B681B684A
:10E2500044229B5A9AB27B681B6865490A4091B276
:10E26000442299527B681B68180006F0A3FC020048
:10E2700080231B011A4080231B019A4227D17B680F
:10E280001B6840229B5A9AB27B681B6808210A438C
:10E2900091B2402299527B681B6844229B5A9AB2E1
:10E2A0007B681B6853490A4091B2442299527B68AB
:10E2B0001B6840229B5A9AB27B681B6804210A4360
:10E2C00091B2402299527B68180009F051FD7B6899
:10E2D0001B68180006F06EFC030080221340802BA0
:10E2E00045D17B681B6844229B5A9AB27B681B68A5
:10E2F00080218A4391B2442299527A68B8239B00C4
:10E30000D35C002B2FD17B681B6840229B5A9AB2AA
:10E310007B681B6804210A4391B2402299527B68B2
:10E320001B6840229B5A9AB27B681B6808210A43EB
:10E3300091B2402299527A68B8239B000121D154AE
:10E340007B681B6854229B5A9BB29B083C2213405B
:10E3500019007A68B9239B00D1507B68012118000D
:10E3600001F002FC03E07B68180009F001FD7B6806
:10E370001B68180006F01EFC020080239B001A4058
:10E3800080239B009A420FD17B681B6844229B5AD2
:10E390009AB27B681B6818490A4091B2442299528C
:10E3A0007B68180009F0B0FC7B681B68180006F059
:10E3B00001FC020080235B001A4080235B009A422C
:10E3C0000BD17B681B6844229B5A9AB27B681B68FE
:10E3D0000A490A4091B244229952C046BD4602B051
:10E3E00080BDC046FFFBFFFFFFBFFFFFFFDFFFFF5A
:10E3F000FFEFFFFFFFF7FFFFFFFDFFFFFFFEFFFF48
:10E4000080B582B000AF78600A00FB1C1A707A6891
:10E41000AA239B00D35C012B01D1022317E07A6869
:10E42000AA239B000121D1547B68FA1C2421127875
:10E430005A547B681A68FB1C1B781900100006F000
:10E440008FFB7A68AA239B000021D1540023180077
:10E45000BD4602B080BD90B585B000AF78600C00BD
:10E4600010001900FB1C221C1A703B00021C1A80B1
:10E47000BB1C0A1C1A700B23FB1800221A70FB1C11
:10E480001B785BB2002B0FDAFB1C1B7807221340B2
:10E490005A1C13009B009B18DB007A68D318FB60A2
:10E4A000FB6801225A700FE0FB1C1B7807221A4000
:10E4B00013009B009B18DB006933FF337A68D31885
:10E4C000FB60FB6800225A70FB1C1B78072213407C
:10E4D000DAB2FB681A703B001A88FB681A61FB68A5
:10E4E000BA1C1278DA70FB685B78002B04D0FB68EA
:10E4F0001B789AB2FB68DA81BB1C1B78022B02D115
:10E50000FB6800221A717A68AA239B00D35C012B56
:10E5100001D1022313E07A68AA239B000121D15480
:10E520007B681B68FA681100180004F029FC7A68FF
:10E53000AA239B000021D1540B23FB181B78180041
:10E54000BD4605B090BD80B584B000AF78600A00CC
:10E55000FB1C1A70FB1C1B785BB2002B0FDAFB1C38
:10E560001B78072213405A1C13009B009B18DB00EA
:10E570007A68D318FB60FB6801225A700FE0FB1C1D
:10E580001B7807221A4013009B009B18DB0069339D
:10E59000FF337A68D318FB60FB6800225A70FB1CBB
:10E5A0001B7807221340DAB2FB681A707A68AA2334
:10E5B0009B00D35C012B01D1022311E07A68AA23CE
:10E5C0009B000121D1547B681B68FA681100180078
:10E5D00004F04AFF7A68AA239B000021D15400234B
:10E5E0001800BD4604B080BD80B586B000AFF860AD
:10E5F0007A603B600B203B180A1C1A7001007B18E4
:10E600001B7807221A4013009B009B18DB0069331C
:10E61000FF33FA68D3187B617B697A685A617B693A
:10E620003A689A617B690022DA617B6900225A703C
:10E630007B181B7807221340DAB27B691A707B18AB
:10E640001B780722134007D1FB681B687A69110009
:10E65000180005F0C9F806E0FB681B687A6911002C
:10E66000180005F0C1F800231800BD4606B080BDB3
:10E6700080B582B000AF78600A00FB1C1A70FB1CEA
:10E680001B7807221A407868C223590013009B00A8
:10E690009B18DB00C3185B181B681800BD4602B04E
:10E6A00080BD80B586B000AFF8607A603B600B201B
:10E6B0003B180A1C1A703B181B78072213405A1C7F
:10E6C00013009B009B18DB00FA68D3187B617B6901
:10E6D0007A685A617B693A689A617B6924220121D0
:10E6E00099547B693A681A627B690022DA617B6916
:10E6F00001225A703B181B7807221340DAB27B695B
:10E700001A703B181B780722134007D1FB681B685F
:10E710007A691100180005F067F806E0FB681B68CD
:10E720007A691100180005F05FF800231800BD4653
:10E7300006B080BD80B584B000AF78600A00FB1CD5
:10E740001A70FB1C1B7807221A407B685B689A4290
:10E7500001D9012346E0FB1C1B785BB2002B0FDACA
:10E76000FB1C1B78072213405A1C13009B009B18AC
:10E77000DB007A68D318FB60FB6801225A700DE059
:10E78000FB1C1A7813009B009B18DB006933FF33D6
:10E790007A68D318FB60FB6800225A70FB6801227C
:10E7A0009A70FB1C1B7807221340DAB2FB681A70C0
:10E7B0007A68AA239B00D35C012B01D1022311E0CC
:10E7C0007A68AA239B000121D1547B681B68FA68F0
:10E7D0001100180006F0C2F87A68AA239B000021F5
:10E7E000D15400231800BD4604B080BD80B584B06C
:10E7F00000AF78600A00FB1C1A70FB1C1B780F220C
:10E800001A407B685B689A4201D9012348E0FB1CEF
:10E810001B785BB2002B0FDAFB1C1B78072213401E
:10E820005A1C13009B009B18DB007A68D318FB600E
:10E83000FB6801225A700FE0FB1C1B7807221A406C
:10E8400013009B009B18DB006933FF337A68D318F1
:10E85000FB60FB6800225A70FB6800229A70FB1C68
:10E860001B7807221340DAB2FB681A707A68AA2371
:10E870009B00D35C012B01D1022311E07A68AA230B
:10E880009B000121D1547B681B68FA6811001800B5
:10E8900006F0B4F87A68AA239B000021D154002323
:10E8A0001800BD4604B080BDB0B596B000AF78602A
:10E8B00000F0D8FB7B681A6856203B184421525A56
:10E8C0001A803B181B88DAB255243B190F210A40E5
:10E8D0001A703B191B78002B00D079E13B181B887C
:10E8E0001022134054D17B681B681B889AB20E20FB
:10E8F0003B18AF490A401A807B681B683A18128897
:10E90000AC490A4392B21A807B682833FB647B6867
:10E910001B6850229B5A9BB21A00FB6C1B78DB00D1
:10E92000D2187B681B68D318A34A944663441B889B
:10E930009B059A0DFB6CDA61FB6C5A69FB6CDB6919
:10E94000D218FB6C5A617B680021180009F0BEF9EF
:10E950007B6824229B5CDBB2002B01D100F082FBA0
:10E96000FB6C9B69002B01D000F07CFB7B682422B0
:10E970009B5CDBB2802252421343DAB27B681B6895
:10E9800091B24C2299527B6824220021995469E368
:10E990007B686933FF33FB647B681A6852217B18FC
:10E9A00012881A807B181A8880231B01134037D0E5
:10E9B0007B681B6850229B5A9BB21A00FB6C1B7829
:10E9C000DB00D2187B681B68D3187C4A94466344EA
:10E9D0001B889B059A0DFB6CDA617B6818687B6865
:10E9E000AC2292009918FB6CDA88FB6CDB699BB255
:10E9F00006F032F97B681B681B889AB210203B181E
:10EA00006F490A401A807B681B683A181288802177
:10EA10000A4392B21A807B68180009F021F921E3B9
:10EA20005223FB1800229B5E002B00DB1AE37B685D
:10EA30001B681B889AB21E203B1861490A401A8045
:10EA40007B681B683A18128880210A4392B21A80A8
:10EA50007B681B6850229B5A9BB21A00FB6C1B7888
:10EA6000DB00D2187B681B68D318544A9446634471
:10EA70001B889B059A0DFB6CDA61FB6CDB69002B34
:10EA80001AD0FB6C5B69002B16D07B681868FB6C96
:10EA90005969FB6CDA88FB6CDB699BB206F0DCF829
:10EAA000FB6C5A69FB6CDB69D218FB6C5A617B68A2
:10EAB0000021180009F0E9F87B681B681B889BB2ED
:10EAC0001A0080231B01134000D0CBE27B681B6837
:10EAD000BB617B681B6850229B5A9BB21A00BB69C2
