:020000040800F2
:109000000040002031AF000879AE00087FAE0008B4
:109010000000000000000000000000000000000050
:10902000000000000000000000000000D9E7000878
:10903000000000000000000001E9000885AE000803
:1090400081AF000881AF000881AF000881AF000840
:1090500081AF000881AF000881AF000881AF000830
:1090600081AF000881AF000881AF000881AF000820
:1090700081AF000881AF000881AF000881AF000810
:1090800081AF000881AF000881AF000881AF000800
:1090900081AF000881AF000881AF000881AF0008F0
:1090A00081AF000881AF000881AF000881AF0008E0
:1090B000A1AE000881AF000881AF000881AF0008B1
:1090C00010B5064C2378002B07D1054B002B02D09E
:1090D000044800E000BF0123237010BDD001002030
:1090E0000000000008F60008044B10B5002B03D068
:1090F0000349044800E000BF10BDC0460000000066
:10910000D401002008F600080023C25C0133002AC5
:10911000FBD1581E7047000003B471464908400057
:109120004900095E49008E4403BC70470022430891
:109130008B4274D303098B425FD3030A8B4244D31F
:10914000030B8B4228D3030C8B420DD3FF22090261
:1091500012BA030C8B4202D31212090265D0030B20
:109160008B4219D300E0090AC30B8B4201D3CB0316
:10917000C01A5241830B8B4201D38B03C01A524158
:10918000430B8B4201D34B03C01A5241030B8B425A
:1091900001D30B03C01A5241C30A8B4201D3CB0245
:1091A000C01A5241830A8B4201D38B02C01A52412A
:1091B000430A8B4201D34B02C01A5241030A8B422D
:1091C00001D30B02C01A5241CDD2C3098B4201D345
:1091D000CB01C01A524183098B4201D38B01C01AC3
:1091E000524143098B4201D34B01C01A524103093A
:1091F0008B4201D30B01C01A5241C3088B4201D3E9
:10920000CB00C01A524183088B4201D38B00C01A95
:10921000524143088B4201D34B00C01A5241411ABC
:1092200000D20146524110467047FFE701B50020C9
:1092300000F006F802BDC0460029F7D076E7704777
:109240007047C04680B584B000AF786039600523B0
:10925000FB603B689AB27968094B180003F0DAF9B1
:109260000849074B3222180003F054FA064B00223B
:109270001A60064B01221A60C046BD4604B080BD8C
:109280008C240020B0180020F0010020F401002000
:1092900080B584B000AF78601923FB607B6818004C
:1092A000FFF732FF0300BB60BB689AB2FB687968C6
:1092B000034803F005F9C046BD4604B080BDC04672
:1092C0000424002080B582B000AF0200FB1D1A709C
:1092D0008023DB01204A1900100002F0CCF91F4A5C
:1092E000B0235B000021D1501D4B1B683B2B11DCD0
:1092F0001B4B1B681B4AF91D0978D154184B1B687E
:109300005A1C174B1A6080235B00174A1900100083
:1093100002F0B1F9FB1D1B783E2B04D10F4AAE239E
:109320005B000121D150114B1B68114AF91D0978CE
:10933000D1540E4B1B685A1C0C4B1A600B4B1A680D
:1093400096235B009A4202DD084B00221A60C04659
:10935000BD4602B080BDC04600080048241700206A
:10936000C0000020E418002000040048EC010020A8
:10937000D811002080B500AF80239B001E4800223A
:10938000190002F05BF91C4B01220821180002F0C1
:1093900055F91A4B1800FFF77BFF1949194B282282
:1093A000180003F0B7F9FA239B00180001F04EFEF5
:1093B000154B00221A70144B00225A70124B0022D7
:1093C0009A70114B0122DA700F4B00221A710F4B69
:1093D0001800FFF75DFF80239B000748012219005A
:1093E00002F02CF90A4B01229A700A4B0022DA652E
:1093F000C046BD4680BDC0460004004820F60008B7
:10940000B01800208C240020902300202CF60008A7
:10941000C0220020081A002080B500AFDC4B1B786A
:10942000112B00D91FE29A00DA4BD3181B689F4614
:10943000D94B180000F03AFAD54B02221A70D44BDF
:1094400000221A700FE2D54B180000F02FFAD04B13
:1094500003221A70CE4B05221A70CD4B0A221A70C5
:10946000CB4B00221A70FEE1CD4B180000F01EFA23
:10947000C74B05221A70F6E1CA4B180000F016FA25
:10948000C94B01225A70EEE1C84B180000F00EFAE9
:10949000C54B0022DA70BE4B09221A70E3E1C44BBF
:1094A000180000F003FABA4B00221A70DBE1C14A3F
:1094B000C14B100019000A231A0005F051FCBD4BE6
:1094C0001800FFF721FE03001A00BA4BD218BB4B5D
:1094D0001000190002231A0005F042FCB84AB54BEF
:1094E0001100180005F06EFCB24B1800FFF70CFEDF
:1094F00003001A00AF4BD218B24B1000190004231E
:109500001A0005F02DFCB04AAA4B1100180005F016
:1095100059FCA84B1800FFF7F7FD03001A00A54BF4
:10952000D218A64B1000190002231A0005F018FCEF
:10953000A04B1800FFF7E8FD03001A009D4BD2185E
:10954000A24B1000190003231A0005F009FC994BE7
:10955000180000F0ABF98E4B00221A7083E18F4B9C
:10956000180000F0A3F98A4B00221A707BE1984B97
:10957000180000F09BF976E1964B180000F096F980
:10958000834B0B221A70824B0D221A70864B1B796B
:10959000002B03D17E4B0D221A7064E17C4B0B2211
:1095A0001A7060E18C4B180000F080F98B4B0022A0
:1095B0000821180002F042F8754B00221A7052E19F
:1095C000874B180000F072F9714B00221A704AE1C3
:1095D000844B180000F06AF96D4B00221A7042E1CA
:1095E000814B1800FFF790FD03001A007F4B1A60B3
:1095F0007F4B9B78012B03D17E4B9A687B4B1A6083
:109600007A4B18686B490A230A2201F0ABF97A4BAE
:109610001800FFF73DFE674B1800FFF739FE6B4B54
:109620001800FFF735FE634A744B100019000E2333
:109630001A0005F095FB724A5E4B1100180005F008
:10964000C1FB5C4B1800FFF75FFD03001A00594B8C
:10965000D2186C4B1000190002231A0005F080FB91
:10966000624B186868490A230A2201F07BF9664AAE
:10967000504B1100180005F0A5FB4E4B1800FFF7EA
:1096800043FD03001A004B4BD218504B1000190039
:1096900003231A0005F064FB464B180000F006F99E
:1096A0003B4B00221A70DEE0584B1800FFF7F0FD2C
:1096B0004F4B9B78012B07D14E4B9A68544B1100AE
:1096C0001800FFF7BFFD1CE0474A514B110018007E
:1096D00005F085FB4E4B1800FFF716FD03001A003E
:1096E0004B4BD218394B1000190003231A0005F018
:1096F00037FB474B1800FFF7CBFD454B180000F038
:10970000D5F8444B1800FFF7C3FD214B00221A7017
:10971000A9E0284A404B100019000F231A0005F059
:109720001FFB374A234B1100180005F04BFB214B60
:109730001800FFF7E9FC03001A001E4BD218314B4A
:109740001000190002231A0005F00AFB274B1868C5
:109750002F490A230A2201F005F92D4A154B110061
:10976000180005F02FFB134B1800FFF7CDFC03008A
:109770001A00104BD218154B1000190003231A00C1
:1097800005F0EEFA0B4B180000F090F86BE0C046C5
:10979000C400002024FA000834F6000840F600084F
:1097A00048F6000858F600089023002064F60008E8
:1097B00070F600087C1F00207CF6000888F6000880
:1097C000C80000208CF60008E800002090F6000891
:1097D00094F60008A4F60008B4F600080004004857
:1097E000CCF60008E0F600080801002098230020CD
:1097F000C0220020081A00200CF7000824F70008F7
:10980000BC22002034F70008B018002038F7000808
:109810000020002044F7000858F700081C4A1D4BA0
:10982000100019000D231A0005F09AFA1A4A184B75
:109830001100180005F0C6FA154B1800FFF764FC7C
:1098400003001A00124BD218144B10001900032306
:109850001A0005F085FA0E4B180000F027F8104B9F
:1098600000221A70C0460F4B5B78022B04D10E4BBE
:10987000DB6D5A1C0C4BDA650B4BDB6D5A2B04D19C
:1098800000F020FA084B0022DA65C046BD4680BDD4
:109890007C1F002068F70008BC22002090F600081A
:1098A000C4000020C0220020081A002080B584B027
:1098B00000AF78601923FB607B681800FFF724FC79
:1098C0000300BB60BB689AB2FB687968064802F087
:1098D000F7FD0649044B8C22180002F01BFFC0461E
:1098E000BD4604B080BDC0468C240020B0180020C6
:1098F00080B500AF934B1A68934B1B689A4200D116
:109900001CE1914B1A68914B1B689149895C914A03
:10991000D1548D4B1B685A1C8B4B1A608A4B1B68A9
:109920008D4A934202DD884B00221A60874B1B68E8
:109930005A1C864B1A60854B1B68C82B02DD834B73
:1099400000221A60814B1B685A1E844B5B68814958
:10995000895C834AD154834BDB78012B0ED17F4B3A
:109960005B687F4AD35C022B08D17F4B1800FFF75E
:109970008FFC7C4B0222DA7000F05EF9794B5B7849
:10998000012B0ED1754B5B68754AD35C902B08D1C7
:10999000764B1800FFF77CFC724B02225A7000F0E5
:1099A00091F9704B5B78022B0CD16C4B5B686C4A65
:1099B000D35C302B06D16E4B1800FFF769FC6D4B62
:1099C00002221A70674B5B78022B0CD1634B5B68E9
:1099D000634AD35C312B06D1674B1800FFF758FC64
:1099E000644B02221A705D4B5B685D4AD35C092BA5
:1099F00010D8564B1B68013B564AD35C102B09D03C
:109A0000564B5B68564AD35C18005C4910230A2207
:109A100000F0A8FF534B1B78012B72D14B4B1B68F6
:109A20005A1E4E4B5B684B49895C4D4AD1544B4B97
:109A3000586852490A230A2200F094FF504B18003C
:109A4000FFF726FC4D4B1800FFF722FC4D4B18008A
:109A5000FFF71EFC414B5B68414AD35C1800474945
:109A60000A230A2200F07EFF474B1800FFF710FC84
:109A7000424B1800FFF70CFC424B1800FFF708FCA4
:109A8000364B5B68364AD35C022B03D13F4B180040
:109A9000FFF7FEFB314B5B68012B1CD12F4B5B6842
:109AA0002F4AD25C2D4B1A702C4B08221A702B4B6C
:109AB0001B78180031490A230A2200F053FF344B67
:109AC0001800FFF7E5FB2D4B1800FFF7E1FB2D4BCE
:109AD0001800FFF7DDFB214B5B685A1C1F4B5A60D7
:109AE0001E4B5A681D4B1B7801339A4209DD1D4BF2
:109AF00000221A70194B00225A60264B1800FFF7FB
:109B0000C7FB124B1B68013B124AD35C3E2B02D1B0
:109B1000184B0F221A700D4B1B68013B0D4AD35C8A
:109B20000A2B0BD1094B1B680A4A0021D154074B61
:109B300000221A60074B180000F00AF9C046BD4623
:109B400080BDC046F8010020FC010020000200207A
:109B5000681A0020C822002014050000081A0020FE
:109B60008C160020C022002078F7000888F7000833
:109B700098F70008C4000020A8F700087C1F002008
:109B8000B8F7000890F60008C0F70008C8F700080A
:109B9000D4F70008DCF7000880B500AF214B1800AF
:109BA000FFF776FB204B10221A701F4B0E225A70C3
:109BB0001D4B00229A701C4B0422DA701A4B4D2266
:109BC0001A71194B51225A71174B54229A71164B24
:109BD0005422DA71144B04221A72134B02225A7265
:109BE000114B00229A72104B7822DA720E4B00222F
:109BF0001A730D4B02225A730B4B50229A730A4B65
:109C00003222DA73094B10229A60094B0E221A7025
:109C1000084B0122DA70074B01221A71C046BD467B
:109C200080BDC046E8F7000800200020081A002088
:109C3000C4000020C022002080B500AF1C4B1800DB
:109C4000FFF726FB1B4B82221A701A4B0A225A700E
:109C5000184B00229A70174B0022DA70154B002225
:109C60001A71144B05225A71124B68229A71114BCA
:109C70006F22DA710F4B75221A720E4B73225A72D1
:109C80000C4B65229A720B4B0022DA72094B0022B0
:109C90001A73094B0D229A60084B0E221A70084B5A
:109CA00001225A70064B01221A71C046BD4680BD82
:109CB000FCF7000800200020081A0020C400002043
:109CC000C022002080B500AF1C4B1800FFF7E0FA5F
:109CD0001B4B30221A701A4B0B225A70184B002261
:109CE0009A70174B0522DA70154B68221A71144BC3
:109CF0006F225A71124B75229A71114B7322DA71CD
:109D00000F4B65221A720E4B6F225A720C4B662251
:109D10009A720B4B6622DA72094B31221A73094B85
:109D20000D229A60084B0E221A70084B01229A717C
:109D3000064B01221A71C046BD4680BD14F80008CA
:109D400000200020081A0020C4000020C0220020AB
:109D500090B58FB002AF7860764A774B100019004B
:109D600004231A0004F0FCFF7A68724B11001800FB
:109D700005F028F86F4B1800FFF78AFA6D496F4815
:109D8000012300932C231E2200F057FD6C49694BE0
:109D90000722180005F02BF8031E17D16949674800
:109DA000002300932C231E2200F047FD654A6649DC
:109DB000604B180004F0E6FF5E4B1800FFF768FAEE
:109DC000624B1B79002B01D1FFF7E6FE60495B4B2C
:109DD0000A22180005F00BF8031E06D18023DB01D0
:109DE0005C4A1900100001F046FC5B49534B02220B
:109DF000180004F0FCFF031E01D100F055FA57498A
:109E00004E4B0A22180004F0F2FF031E02D1544BFD
:109E100004221A705349494B0922180004F0E7FF45
:109E2000031E02D14E4B00221A704F49434B0722AA
:109E3000180004F0DCFF031E12D13E493F48012305
:109E4000009322231E2200F0F8FC4849394B0522DA
:109E5000180004F0CCFF031E02D1414B04221A70FB
:109E60004349364B0C22180004F0C1FF031E0DD1EC
:109E7000404932480123009322231E2200F0DDFCDA
:109E8000324B0122DA70314B01229A703A492B4B46
:109E90000322180004F0ABFF031E00D048E1374B4B
:109EA0001800FFF7F5F90923FB6218243919234834
:109EB000022300932C231E2200F0BFFC2200BB18BB
:109EC0005B783A2B03D1BB1800225A7005E01823A7
:109ED000FB1800229A700A23FB621823FB180A2140
:109EE000180000F037FE03007B62254B9B78002BA7
:109EF00008D110491148012300933A231E2200F093
:109F00009CFC0CE0FB6ADCB2FB6ADAB27B6ADBB277
:109F1000D318DBB207490948220000F067F9094964
:109F20000648012300932C231E2200F086FC002308
:109F3000BB624BE07C1F002028F80008C8220020EC
:109F40002CF80008BC22002034F8000890230020E0
:109F500048F800080008004854F8000858F80008BD
:109F6000C400002064F8000870F80008C800002051
:109F700078F80008A419002088F8000890F8000874
:109F8000C02200200C243919B86A0A230A2200F0E2
:109F9000E9FC7C4ABB6AD3181B7818007A490A236B
:109FA0000A2200F0DFFC3B191800FFF771F9774B2C
:109FB0001800FFF76DF9744B1800FFF769F9744B3F
:109FC0001800FFF765F9BB6A0133BB62BA6A7B6AA6
:109FD0009A42D7DB6B4B1B78302B03D16D4B1800AB
:109FE000FFF756F9674B1B78312B03D16A4B1800EA
:109FF000FFF74EF9634B5B781A00684BDA60674BEA
:10A00000D86861490A230A2200F0ACFC644B1800AE
:10A01000FFF73EF95C4B1800FFF73AF9614B180067
:10A02000FFF736F9574BDB781A005C4B1A615B4B34
:10A03000186955490A230A2200F094FC5A4B18006B
:10A04000FFF726F9504B1800FFF722F9554B18007F
:10A05000FFF71EF9514B00221A75504B3222002196
:10A0600099544E4B462200219954504B5B78022B59
:10A0700021D14A4BDB68DBB20133DBB24C494148AA
:10A08000042200F0B3F8454B1B69DBB20333DBB2AB
:10A0900048493C48042200F0A9F8404B1B69DBB258
:10A0A0000433DAB23D4BDB68DBB20133DBB2424949
:10A0B000344800F09BF83E4B1800FFF7E9F83F4B9F
:10A0C0001800FFF7E5F83B4B1800FFF7E1F83B4BB2
:10A0D0001800FFF7DDF8384B1800FFF7D9F8314BBF
:10A0E0001800FFF7D5F827493548012300932023AE
:10A0F0001E2200F0A2FB3349224B0222180004F07A
:10A1000076FE031E0AD1304B1800FFF7C1F88023FA
:10A110005B002E4A1900100001F0ADFA2C4B18001C
:10A12000FFF7B6F82B4B0022DA70204B00225A7151
:10A130002949234B0622180004F059FE254B012221
:10A14000DA7026491E4B0722180004F050FE031E49
:10A1500014D1234B1800FFF79BF8144B1B79012BEC
:10A160000CD1204B1800FFF793F81F4B02221A70F6
:10A170000E4B00221A710D4B01225A71C046BD468A
:10A180000DB090BD7C1F0020B01800209CF8000886
:10A19000A0F80008A4F80008B0F80008081A002089
:10A1A000C0F8000890F60008D0F80008C02200208F
:10A1B0001C1A00203A1A00204E1A0020DCF8000871
:10A1C000C8220020E0F80008E4F800080004004875
:10A1D000F0F800089023002000F9000808F90008B2
:10A1E00010F900082CF90008C400002080B588B0E0
:10A1F00000AFF860B9601900FB1D1A70BB1D0A1C86
:10A200001A7001235B42BB61FA1DBB1D12781B78DB
:10A210009A4206D3234B1800FFF73AF801235B421A
:10A220003BE0BA1DFB1D12781B78D31ADAB2172354
:10A23000FB1801321A70FB1D1B78FA68D318FB60FB
:10A24000FB683B61FB1D1B783A69D3183B611F23F8
:10A25000FB1800221A700FE0FB681A78BB681A70AE
:10A26000BB680133BB60FB680133FB601F217B18B7
:10A270001A787B1801321A701F23FA181723FB185B
:10A2800012781B789A42E7D3BB680133BB60BB6886
:10A2900000221A700123BB61BB691800BD4608B0DB
:10A2A00080BDC0463CF9000880B582B002AF1C4BAF
:10A2B0005B78012B05D11A4B00225A70194B0422EE
:10A2C0001A70174B9B78012B27D1154B00229A70DF
:10A2D000154B1800FEF7DCFF144B1800FEF7D8FFF3
:10A2E00013491148002300932E231E2200F0A5FAE3
:10A2F0000F4B1A780F4B1B78D31A0AD0084B022247
:10A300009A70084B09221A700B4B1800FEF7C0FF19
:10A3100003E00A4B1800FEF7BBFFC046BD4680BDF8
:10A3200090230020C4000020A419002090F600080B
:10A330007C1F00204CF9000850F900085CF9000867
:10A3400080B582B000AF0200FB1D1A700B4B1B687A
:10A350000B4AF91D0978D154084B1B685A1C074B4E
:10A360001A60064B1B68074A934202DD034B00222A
:10A370001A60C046BD4602B080BDC046F80100204C
:10A38000681A00201405000080B584B000AFF860A2
:10A39000B9607A60FB68064A1A60BB68054A1A60B1
:10A3A0007B6880221A60C046BD4604B080BDC046AE
:10A3B0000402002058020020B0B58EB000AF00F0BB
:10A3C000D3F900F0DFFD00F047F800F03BF900F0B2
:10A3D0009BF800F0D7F800F005F98023590090238E
:10A3E000DB050122180001F029F9FEF7C3FF8023E5
:10A3F000DB0114480122190001F020F91C217B180F
:10A40000114A31CA31C331CA31C312681A607B188C
:10A410000021180003F0D7FB02000C4B1A603B0030
:10A420000B4A13CA13C313CA13C312681A603B0042
:10A430000021180003F0C7FB0200064B1A6003F06E
:10A44000BAFBFEE70008004884F900089C230020BE
:10A45000A0F900088824002090B599B000AF2C2402
:10A460003B19180034231A00002104F082FC1C233D
:10A47000FB18180010231A00002104F07AFC3B009E
:10A4800018001C231A00002104F073FC3B19202241
:10A490001A603B1901221A623B1900225A623B19C9
:10A4A000180001F003F9031E01D000F0C1F91C21CE
:10A4B0007B1807221A607B1803225A607B1800223F
:10A4C0009A607B188022D200DA607B180121180084
:10A4D00001F072FC031E01D000F0AAF93B00032238
:10A4E0001A603B0000229A603B000022DA603B00C9
:10A4F000180001F0DBFD031E01D000F099F9C04601
:10A50000BD4619B090BD000080B500AF1B4B1C4A82
:10A510001A601A4B822252005A60184B00229A602D
:10A52000164BE022D200DA60144B00221A61134B62
:10A5300000225A61114B802292009A610F4B202217
:10A54000DA610E4B00221A620C4B00225A620B4B4E
:10A5500000229A62094B0722DA62084B00221A6332
:10A56000064B08225A63054B180001F09DFE031E9E
:10A5700001D000F05DF9C046BD4680BDA02300209B
:10A580000038004080B500AF144B154A1A60134BD9
:10A59000E12252025A60114B00229A600F4B0022B6
:10A5A000DA600E4B00221A610C4B0C225A610B4BE5
:10A5B00000229A61094B0022DA61084B00221A62DC
:10A5C000064B00225A62054B180001F025FF031EBE
:10A5D00001D000F02DF9C046BD4680BD0424002006
:10A5E0000038014080B500AF144B154A1A60134B78
:10A5F000E12252025A60114B00229A600F4B002256
:10A60000DA600E4B00221A610C4B0C225A610B4B84
:10A6100000229A61094B0022DA61084B00221A627B
:10A62000064B00225A62054B180001F0F5FE031E8E
:10A6300001D000F0FDF8C046BD4680BD8C2400204E
:10A640000044004090B589B000AF0C243B191800BD
:10A6500014231A00002104F08CFB404B5A693F4B35
:10A66000802109030A435A613C4B5A6980231B032A
:10A670001340BB60BB68394B5A69384B8021890253
:10A680000A435A61354B5A6980239B0213407B6011
:10A690007B68324B5A69314B8021C9020A435A61A7
:10A6A0002E4B5A698023DB0213403B603B68E0235A
:10A6B0001B022B480022190000F0C0FFC3239B009F
:10A6C00028480022190000F0B9FF80235900902388
:10A6D000DB050022180000F0B1FF3B19E022120256
:10A6E0001A603B1901225A603B1900229A603B19FB
:10A6F0000022DA603B191A4A1900100000F026FE09
:10A7000021007B18C32292001A600C003B19012221
:10A710005A603B1900229A603B190022DA603B190B
:10A72000104A1900100000F011FE21007B18802251
:10A7300052001A607B1801225A607B1800229A602E
:10A740007B180022DA607A189023DB0511001800CC
:10A7500000F0FCFDC046BD4609B090BD00100240AF
:10A76000000800480004004880B584B000AF802392
:10A770009B05BB600023FB600023FB600EE0FB68D1
:10A780009B001C4A944663441A00FB689B00B9680E
:10A79000CB1812681A60FB680133FB60FB682F2B33
:10A7A000EDD9154B012252429A62134B9A69124B12
:10A7B00001210A439A61104B9B69012213407B607F
:10A7C0007B680D4B00229A620C4B1A680B4B0321DD
:10A7D0008A431A60094B1A68084B03210A431A601E
:10A7E00062B6C046064B1800FEF752FDC046BD4695
:10A7F00004B080BD0090000800100240000001403D
:10A80000BCF9000880B582B000AF7860FA239B00E5
:10A81000180003F025FAFEF7FFFDF7E780B582B0D8
:10A8200000AF7860052003F01BFAFFF761F8F9E745
:10A8300080B500AF72B6C046FEE780B586B000AF07
:10A84000F860B9601900FB1D1A70BB1D0A1C1A7054
:10A850001623FB1800221A801423FB1800221A80EA
:10A860001323FB1800221A70FB1D1A78FB1D013AF6
:10A870001A704AE01623FB1800229B5EFA68D31870
:10A880001B78BA1D12789A4211D113217A1820230D
:10A89000FB1812781B789A4241D07B181A787B18E3
:10A8A00001321A701423FB1800221A8024E01621AA
:10A8B0007B1800229B5EFA68D3181B781F2B1BD9CC
:10A8C0007B1800229B5EFA68D21814203B180021E6
:10A8D0005B5EB968CB1812781A703B1800229A5E3A
:10A8E000FB1D1B789A4207DA3B1800229B5E9BB245
:10A8F00001339AB23B181A8016217B1800229B5E06
:10A900009BB201339AB27B181A801623FB180022DF
:10A910009B5EFA68D3181B78002BABD100E0C046D1
:10A920001323FA182023FB1812781B789A4208D0B8
:10A930001423FB1800221A801623FB18012252420E
:10A940001A801423FB1800229B5EBA68D3180022D9
:10A950001A701623FB1800229B5E1800BD4606B035
:10A9600080BD000080B586B000AFF860B960190006
:10A97000BB1D1A807B1D0A1C1A7012217B18002235
:10A980001A801123FB1801221A707B1D1B780A2BD9
:10A990005FD16F4B7B61FB68002B56DAFB685B4233
:10A9A000FB607B1800229B5EBA68D3182D221A70B8
:10A9B0007B1800229B5E9BB201339AB27B181A80EF
:10A9C00043E0FB6879691800FEF7B0FB03001A004A
:10A9D00010217B181A707B181B78002B03D01123D1
:10A9E000FB1800221A701123FB181B78002B13D1BF
:10A9F00012217B1800229B5EBA68D3181022BA1865
:10AA000012783032D2B21A707B1800229B5E9BB251
:10AA100001339AB27B181A80FA681023FB181B784E
:10AA200079694B43D31AFB607B690A211800FEF752
:10AA30007DFB03007B611223FB1800229A5EBB1D85
:10AA400000215B5E013B9A425DDA7B69002BB8D145
:10AA50005CE07B1D1B78102B58D120237B614EE0DE
:10AA60007B69043BFA681A411300DAB210203B18E4
:10AA70000F210A401A703B181B78002B03D01123BA
:10AA8000FB1800221A701123FB181B78002B29D108
:10AA900010217B181B78092B0BD81223FB180022DE
:10AAA0009B5EBA68D3187A1812783032D2B21A7014
:10AAB0000FE010217B181B78092B0AD91223FB18F1
:10AAC00000229B5EBA68D3187A1812783732D2B255
:10AAD0001A7012217B1800229B5E9BB201339AB23E
:10AAE0007B181A807B69043B7B611223FB180022D0
:10AAF0009A5EBB1D00215B5E013B9A4205DA7B69D1
:10AB0000002BADD102E0C04600E0C0461123FB1887
:10AB10001B78012B0FD112217B1800229B5EBA6893
:10AB2000D31830221A707B1800229B5E9BB201332F
:10AB30009AB27B181A801223FB1800229B5EBA6817
:10AB4000D31800221A70BB681800BD4606B080BD3D
:10AB500000CA9A3B80B584B000AF78600A00FB1C45
:10AB60001A700023FB60FB1C1B780A2B20D11AE013
:10AB70007B681B782F2B0FD97B681B78392B0BD860
:10AB8000FA6813009B009B185B00FB607B681B78D6
:10AB9000303BFA68D318FB607B681B782D2B02D9F9
:10ABA0007B6801337B607B681B78002BE0D13EE043
:10ABB000FB1C1B78102B3AD135E07B681B782F2BC0
:10ABC0002ED9FB681B01FB607B681B782F2B0AD9F1
:10ABD0007B681B78392B06D87B681B78303BFA687A
:10ABE0001343FB601CE07B681B78602B0AD97B68F1
:10ABF0001B78662B06D87B681B78573BFA68134393
:10AC0000FB600DE07B681B78402B09D97B681B78C3
:10AC1000462B05D87B681B78373BFA681343FB60EB
:10AC20007B6801337B607B681B78002BC5D1FB6898
:10AC30001800BD4604B080BD80B582B000AF124B95
:10AC40009A69114B01210A439A610F4B9B690122BA
:10AC500013407B607B680C4BDA690B4B8021490504
:10AC60000A43DA61084BDA6980235B0513403B60D5
:10AC70003B6802235B4200220321180000F0B6FA71
:10AC8000C046BD4602B080BD0010024090B58BB0FA
:10AC900000AF786014243B19180014231A00002117
:10ACA00004F067F87B681B681C4A934232D11C4B46
:10ACB000DA691B4B8021C9010A43DA61184BDA6952
:10ACC0008023DB0113403B613B69154B5A69144BF0
:10ACD0008021C9020A435A61114B5A698023DB0261
:10ACE0001340FB60FB683B19E02212021A6021004E
:10ACF0007B1802225A607B1800229A607B1803227C
:10AD0000DA607B1800221A617B18064A19001000CD
:10AD100000F01CFBC046BD460BB090BD00380040A3
:10AD2000001002400004004890B58DB000AF78607C
:10AD30001C243B19180014231A00002104F019F8F0
:10AD40007B681B68494A934234D1494B9A69484B06
:10AD50008021C9010A439A61454B9A698023DB012E
:10AD60001340BB61BB69424B5A69414B8021890248
:10AD70000A435A613E4B5A6980239B0213407B6110
:10AD80007B693B19C022D2001A6021007B18022285
:10AD90005A607B1800229A607B180322DA607B18C5
:10ADA00001221A617A189023DB051100180000F0C7
:10ADB000CDFA56E07B681B682E4A934251D12C4B4A
:10ADC000DA692B4B802189020A43DA61284BDA6960
:10ADD00080239B0213403B613B69254B5A69244BFE
:10ADE000802189020A435A61214B5A6980239B02C0
:10ADF0001340FB60FB681C243B1904221A603B19BA
:10AE000002225A603B1900229A603B190322DA6041
:10AE10003B1901221A613A199023DB051100180031
:10AE200000F094FA21007B1808221A607B18022295
:10AE30005A607B1801229A607B180322DA607B1823
:10AE400001221A617A189023DB051100180000F026
:10AE50007DFA002203211C2000F0C8F91C2000F01C
:10AE6000DAF9C046BD460DB090BDC046003801407D
:10AE7000001002400044004080B500AFFEE780B5FE
:10AE800000AFFEE780B500AF00F0C4F803F0F2FBBE
:10AE90000300012B01D003F057FDC046BD4680BD25
:10AEA00080B500AF034B180001F096FCC046BD46CC
:10AEB00080BDC0468C24002080B586B000AF78608D
:10AEC000144A154BD31A7B617B693B61134B1B689A
:10AED000002B02D1114B124A1A60104B1A687B6882
:10AEE000D3183A699A4207D203F010FF03000C22EC
:10AEF0001A6001235B4209E0084B1B68FB60074BAB
:10AF00001A687B68D218054B1A60FB681800BD46AA
:10AF100006B080BD0040002000040000580400205E
:10AF20002825002080B500AFC046BD4680BD00008A
:10AF30000D4885460D480E490E4A002302E0D458BC
:10AF4000C4500433C4188C42F9D30B4A0B4C002371
:10AF500001E013600432A242FBD3FFF7E3FF03F0EA
:10AF6000DBFEFFF729FAFEE700400020C0000020CA
:10AF7000D0010020C0FA0008D001002024250020C4
:10AF8000FEE7000080B500AF074B1A68064B1021A2
:10AF90000A431A60032000F009F8FFF74DFE002372
:10AFA0001800BD4680BDC0460020024090B583B069
:10AFB00000AF7860144B1C68144B1B781900FA23FF
:10AFC0009800FEF7B3F8030019002000FEF7AEF872
:10AFD0000300180000F02FF9031E01D001230FE039
:10AFE0007B68032B0BD8796801235B420022180091
:10AFF00000F0FCF8064B7A681A60002300E0012399
:10B000001800BD4603B090BD5C0100206401002023
:10B010006001002080B500AF054B1B781A00054B7E
:10B020001B68D218034B1A60C046BD4680BDC0469F
:10B03000640100201025002080B500AF024B1B6882
:10B040001800BD4680BDC0461025002080B584B0E4
:10B0500000AF7860FFF7F0FF0300BB607B68FB6028
:10B06000FB68013305D00A4B1B781A00FB689B185C
:10B07000FB60C046FFF7E0FF0200BB68D31AFA6826
:10B080009A42F7D8C046C046BD4604B080BDC0460F
:10B090006401002080B582B000AF0200FB1D1A7071
:10B0A000FB1D1B787F2B09D8FB1D1B781A001F2363
:10B0B0001A40044B012191400A001A60C046BD4667
:10B0C00002B080BD00E100E090B583B000AF0200A7
:10B0D0003960FB1D1A70FB1D1B787F2B28D82F4A67
:10B0E000FB1D1B785BB29B08C0339B009B58FA1D6D
:10B0F0001278110003220A40D200FF2191400A0079
:10B10000D2431A4011003B689B01FF221A40FB1DED
:10B110001B78180003230340DB009A401F48FB1DE7
:10B120001B785BB29B080A43C0339B001A5031E086
:10B130001B4AFB1D1B7819000F230B40083B9B0883
:10B1400006339B00D31804331B68FA1D12781100D4
:10B1500003220A40D200FF2191400A00D2431A4044
:10B1600011003B689B01FF221A40FB1D1B78180051
:10B1700003230340DB009A400948FB1D1B781C0099
:10B180000F232340083B9B080A4306339B00C31848
:10B1900004331A60C046BD4603B090BD00E100E034
:10B1A00000ED00E080B582B000AF78607B685A1E89
:10B1B00080235B049A4201D3012310E00A4B7A6892
:10B1C000013A5A6001235B4203211800FFF77CFF1C
:10B1D000054B00229A60044B07221A6000231800D6
:10B1E000BD4602B080BDC04610E000E080B584B02E
:10B1F00000AFB9607A600F217B18021C1A70BA6820
:10B200007B181B785BB211001800FFF75DFFC0468A
:10B21000BD4604B080BD80B582B000AF0200FB1D0A
:10B220001A70FB1D1B785BB21800FFF733FFC04696
:10B23000BD4602B080BD80B582B000AF78607B684B
:10B240001800FFF7AFFF03001800BD4602B080BD35
:10B2500080B582B000AF78607B6821229B5CDBB256
:10B26000022B08D07B6804229A637B68202200218D
:10B270009954012320E07B681B681A687B681B686F
:10B280000E218A431A607B681B681A687B681B68FA
:10B2900001218A431A607B681A6C7B68DB6B012191
:10B2A00091400A005A607B682122012199547B68F1
:10B2B00020220021995400231800BD4602B080BD11
:10B2C00080B584B000AF78600F217B1800221A701F
:10B2D0007B6821229B5CDBB2022B06D07B680422B8
:10B2E0009A637B1801221A7028E07B681B681A6831
:10B2F0007B681B680E218A431A607B681B681A688A
:10B300007B681B6801218A431A607B681A6C7B6822
:10B31000DB6B012191400A005A607B6821220121E8
:10B3200099547B682022002199547B685B6B002B29
:10B3300004D07B685B6B7A68100098470F23FB187A
:10B340001B781800BD4604B080BD000080B586B0F3
:10B3500000AF7860396000237B6155E13B681B6872
:10B3600001217A6991400A001340FB60FB68002BC1
:10B3700000D146E13B685B6803221340012B05D0F6
:10B380003B685B6803221340022B30D17B689B68CB
:10B390003B617B695B0003229A401300DA433B69FF
:10B3A00013403B613B68DA687B695B009A4013009D
:10B3B0003A6913433B617B683A699A607B685B68D2
:10B3C0003B6101227B699A401300DA433B691340D9
:10B3D0003B613B685B681B0901221A407B699A400C
:10B3E00013003A6913433B617B683A695A603B68D2
:10B3F0005B6803221340032B17D07B68DB683B613B
:10B400007B695B0003229A401300DA433B691340D7
:10B410003B613B689A687B695B009A4013003A691C
:10B4200013433B617B683A69DA603B685B680322DF
:10B430001340022B23D17B69DA087B680832920023
:10B44000D3583B617B69072213409B000F229A402F
:10B450001300DA433B6913403B613B681A697B691F
:10B4600007210B409B009A4013003A6913433B614C
:10B470007B69DA087B68083292003969D1507B68B1
:10B480001B683B617B695B0003229A401300DA432F
:10B490003B6913403B613B685B6803221A407B6950
:10B4A0005B009A4013003A6913433B617B683A6939
:10B4B0001A603B685A68C0239B02134000D1A0E089
:10B4C000574B9A69564B01210A439A61544B9B6929
:10B4D00001221340BB60BB68524A7B699B08023360
:10B4E0009B009B583B617B69032213409B000F220A
:10B4F0009A401300DA433B6913403B617A6890231A
:10B50000DB059A4219D07B68474A934213D07B6887
:10B51000464A93420DD07B68454A934207D07B68E8
:10B52000444A934201D1042308E0052306E00323A3
:10B5300004E0022302E0012300E000237A690321F2
:10B540000A40920093403A6913433B6135497B6955
:10B550009B0802339B003A695A50374B1B683B618A
:10B56000FB68DA433B6913403B613B685A688023C0
:10B570005B02134003D03A69FB6813433B612E4BD7
:10B580003A691A602C4B5B683B61FB68DA433B69A4
:10B5900013403B613B685A6880239B02134003D0F1
:10B5A0003A69FB6813433B61234B3A695A60224B6B
:10B5B0009B683B61FB68DA433B6913403B613B6836
:10B5C0005A6880235B03134003D03A69FB68134336
:10B5D0003B61194B3A699A60174BDB683B61FB682A
:10B5E000DA433B6913403B613B685A6880239B0305
:10B5F000134003D03A69FB6813433B610E4B3A6931
:10B60000DA607B6901337B613B681A687B69DA40E9
:10B61000131E00D0A2E6C046C046BD4606B080BD9F
:10B6200000100240000001400004004800080048EB
:10B63000000C0048001000480004014080B582B0B2
:10B6400000AF786008001100BB1C021C1A807B1C34
:10B650000A1C1A707B1C1B78002B04D0BB1C1A8898
:10B660007B689A6103E0BB1C1A887B689A62C046BB
:10B67000BD4602B080BD80B584B000AF78600A00DE
:10B68000BB1C1A807B685B69FB60BB1C1B88FA686B
:10B6900013401A04FB68DB43B91C09880B401A43AA
:10B6A0007B689A61C046BD4604B080BD80B588B055
:10B6B00000AF78607B68002B02D1012300F076FB9D
:10B6C0007B681B680122134000D18EE0C54B5B688C
:10B6D0000C221340042B0ED0C24B5B680C2213408B
:10B6E000082B17D1BF4B5A68C0235B021A40802336
:10B6F0005B029A420ED1BB4B1A6880239B02134017
:10B7000000D171E07B685B68002B00D06CE0012306
:10B7100000F04CFB7B685B68012B07D1B14B1A68CA
:10B72000B04B802149020A431A602FE07B685B68B6
:10B73000002B0CD1AB4B1A68AA4BAB490A401A60DC
:10B74000A84B1A68A74BA9490A401A601EE07B68FB
:10B750005B68052B0ED1A34B1A68A24B8021C9024E
:10B760000A431A609F4B1A689E4B802149020A4384
:10B770001A600BE09B4B1A689A4B9B490A401A606F
:10B78000984B1A68974B99490A401A607B685B6826
:10B79000002B14D0FFF750FC0300BB6108E0FFF75B
:10B7A0004BFC0200BB69D31A642B01D90323FDE2D1
:10B7B0008C4B1A6880239B021340F0D015E0FFF7F2
:10B7C0003BFC0300BB6108E0FFF736FC0200BB69ED
:10B7D000D31A642B01D90323E8E2824B1A68802331
:10B7E0009B021340F0D100E0C0467B681B68022238
:10B7F000134000D16CE07B4B5B680C2213400ED0F1
:10B80000784B5B680C221340082B1FD1754B5A688C
:10B81000C0235B021A4080231B029A4216D1714B4F
:10B820001B680222134005D07B68DB68012B01D026
:10B830000123BBE26B4B1B68F822934319007B6822
:10B840001B69DA00674B0A431A6041E07B68DB68DA
:10B85000002B24D0634B1A68624B01210A431A6003
:10B86000FFF7EAFB0300BB6108E0FFF7E5FB02001E
:10B87000BB69D31A022B01D9032397E2594B1B68EA
:10B8800002221340F1D0574B1B68F8229343190052
:10B890007B681B69DA00534B0A431A6018E0514B6E
:10B8A0001A68504B01218A431A60FFF7C5FB030059
:10B8B000BB6108E0FFF7C0FB0200BB69D31A022B93
:10B8C00001D9032372E2474B1B6802221340F1D1D6
:10B8D0007B681B680822134036D07B68DB69002B2D
:10B8E00019D0404B5A6A3F4B01210A435A62FFF775
:10B8F000A3FB0300BB6108E0FFF79EFB0200BB69EE
:10B90000D31A022B01D9032350E2364B5B6A022281
:10B910001340F1D018E0334B5A6A324B01218A436D
:10B920005A62FFF789FB0300BB6108E0FFF784FB65
:10B930000200BB69D31A022B01D9032336E2294B3B
:10B940005B6A02221340F1D17B681B68042213401A
:10B9500000D1B5E01F203B1800221A70214BDA6994
:10B9600080235B05134010D11E4BDA691D4B8021EB
:10B9700049050A43DA611B4BDA6980235B051340F2
:10B98000FB60FB683B1801221A70194B1A68802370
:10B990005B0013401AD1164B1A68154B80214900E1
:10B9A0000A431A60FFF748FB0300BB6108E0FFF79A
:10B9B00043FB0200BB69D31A642B01D90323F5E1D1
:10B9C0000B4B1A6880235B001340F0D07B689B68A8
:10B9D000012B0FD1034B1A6A024B01210A431A6251
:10B9E00036E0C04600100240FFFFFEFFFFFFFBFFF6
:10B9F000007000407B689B68002B0CD1CA4B1A6A10
:10BA0000C94B01218A431A62C74B1A6AC64B0421EB
:10BA10008A431A621CE07B689B68052B0CD1C24BE1
:10BA20001A6AC14B04210A431A62BF4B1A6ABE4B01
:10BA300001210A431A620BE0BB4B1A6ABA4B01217F
:10BA40008A431A62B84B1A6AB74B04218A431A62B6
:10BA50007B689B68002B14D0FFF7EEFA0300BB61F4
:10BA600009E0FFF7E9FA0200BB69D31AAF4A934233
:10BA700001D903239AE1AC4B1B6A02221340F0D098
:10BA800013E0FFF7D9FA0300BB6109E0FFF7D4FA2E
:10BA90000200BB69D31AA54A934201D9032385E169
:10BAA000A14B1B6A02221340F0D11F23FB181B7805
:10BAB000012B05D19C4BDA699B4B9D490A40DA6109
:10BAC0007B681B681022134063D07B685B69012B85
:10BAD0002AD1954B5A6B944B04210A435A63924BDB
:10BAE0005A6B914B01210A435A63FFF7A5FA0300F1
:10BAF000BB6108E0FFF7A0FA0200BB69D31A022B72
:10BB000001D9032352E1884B5B6B02221340F1D031
:10BB1000854B5B6BF822934319007B689B69DA00C5
:10BB2000814B0A435A6334E07B685B69053311D16A
:10BB30007D4B5A6B7C4B04218A435A637A4B5B6B77
:10BB4000F822934319007B689B69DA00764B0A431D
:10BB50005A631EE0744B5A6B734B04210A435A63B9
:10BB6000714B5A6B704B01218A435A63FFF764FA99
:10BB70000300BB6108E0FFF75FFA0200BB69D31A5C
:10BB8000022B01D9032311E1674B5B6B02221340A7
:10BB9000F1D17B681B68202213405CD0624B5B684C
:10BBA0000C2213400C2B0ED05F4B5B680C22134011
:10BBB000082B14D15C4B5A68C0235B021A40C02387
:10BBC0005B029A420BD1584B5A6B80235B021340A5
:10BBD00040D07B681B6A012B3CD00123E6E07B68E8
:10BBE0001B6A002B1BD0504B5A6B4F4B80214902D4
:10BBF0000A435A63FFF720FA0300BB6108E0FFF72E
:10BC00001BFA0200BB69D31A022B01D90323CDE032
:10BC1000454B5A6B80235B021340F0D01BE0424B34
:10BC20005A6B414B43490A405A63FFF705FA030038
:10BC3000BB6108E0FFF700FA0200BB69D31A022BD0
:10BC400001D90323B2E0384B5A6B80235B021340C7
:10BC5000F0D100E0C0467B685B6A002B00D1A4E015
:10BC6000314B5B680C221340082B00D178E07B68D5
:10BC70005B6A022B4CD12C4B1A682B4B2E490A4085
:10BC80001A60FFF7D9F90300BB6108E0FFF7D4F9A8
:10BC90000200BB69D31A022B01D9032386E0224B91
:10BCA0001A6880239B041340F0D11F4BDB6A0F22DC
:10BCB000934319007B681A6B1B4B0A43DA621A4BD9
:10BCC0005B681E4A134019007B68DA6A7B689B6ACE
:10BCD0001A43154B0A435A60134B1A68124B8021C2
:10BCE00049040A431A60FFF7A7F90300BB6108E0A3
:10BCF000FFF7A2F90200BB69D31A022B01D9032373
:10BD000054E0094B1A6880239B041340F0D04CE0A8
:10BD1000054B1A68044B08490A401A60FFF78CF972
:10BD20000300BB6115E0C04600100240881300000C
:10BD3000FFFFFFEFFFFFFEFFFFFFFFFEFF7FC2FFE2
:10BD4000FFF77AF90200BB69D31A022B01D903234A
:10BD50002CE0184B1A6880239B041340F0D124E098
:10BD60007B685B6A012B01D101231FE0114B5B68EB
:10BD70007B61104BDB6A3B617A69C0235B021A402E
:10BD80007B689B6A9A420ED13B690F221A407B68FE
:10BD90001B6B9A4207D17A69F0239B031A407B6898
:10BDA000DB6A9A4201D0012300E000231800BD465F
:10BDB00008B080BD0010024080B584B000AF78604C
:10BDC00039607B68002B01D10123BFE0614B1B6808
:10BDD000012213403A689A4211D95E4B1B68012236
:10BDE000934319005B4B3A680A431A60594B1B682E
:10BDF000012213403A689A4201D00123A6E07B68F1
:10BE00001B680222134015D07B681B680422134074
:10BE100006D0514B5A68504BE021C9000A435A6082
:10BE20004D4B5B68F022934319007B689A684A4B3C
:10BE30000A435A607B681B68012213404CD07B6820
:10BE40005B68012B07D1444B1A6880239B02134087
:10BE500020D101237AE07B685B68022B07D13E4B3F
:10BE60001A6880239B04134014D101236EE07B6881
:10BE70005B68032B07D1384B5A6B80235B0213405E
:10BE800008D1012362E0344B1B680222134001D128
:10BE900001235BE0304B5B680322934319007B680E
:10BEA0005A682D4B0A435A60FFF7C6F80300FB603F
:10BEB00009E0FFF7C1F80200FB68D31A274A934252
:10BEC00001D9032342E0244B5B680C221A407B68B3
:10BED0005B689B009A42ECD11E4B1B680122134009
:10BEE0003A689A4211D21B4B1B68012293431900F6
:10BEF000184B3A680A431A60164B1B68012213401C
:10BF00003A689A4201D0012320E07B681B68042232
:10BF1000134009D0104B5B68114A134019007B682D
:10BF2000DA680D4B0A435A6000F020F801000A4B12
:10BF30005B681B090F2213400A4AD35C0A00DA40EF
:10BF4000094B1A600320FFF731F800231800BD46A3
:10BF500004B080BD002002400010024088130000A1
:10BF6000FFF8FFFF6CFA00085C01002090B58FB06D
:10BF700000AF1423FB18384A13CA13C312681A609F
:10BF80003B1D364A13CA13C312681A600023FB62B2
:10BF90000023BB6200237B6300237B6200233B639F
:10BFA0002F4B5B68FB62FB6A0C2213400C2B47D0C3
:10BFB00049D8042B02D0082B03D044E0294B3B6323
:10BFC00044E0FB6A9B0C0F2213401422BA18D35C86
:10BFD0007B62234BDB6A0F2213403A1DD35CBB62AA
:10BFE000FA6AC0235B021A4080235B029A4209D19D
:10BFF000B96A1C48FDF79AF803001A007B6A53439C
:10C000007B631AE0FA6AC0235B021A40C0235B021A
:10C010009A4209D1B96A1448FDF788F803001A005A
:10C020007B6A53437B6308E0B96A0E48FDF77EF8EC
:10C0300003001A007B6A53437B637B6B3B6305E021
:10C04000094B3B6302E0074B3B63C0463B6B180068
:10C05000BD460FB090BDC046FCF900080CFA0008C0
:10C060000010024000127A00006CDC0280B500AFC4
:10C07000024B1B681800BD4680BDC0465C01002015
:10C0800080B500AFFFF7F2FF0100064B5B681B0AAB
:10C0900007221340044AD35CD9400B001800BD4668
:10C0A00080BDC046001002407CFA000880B586B012
:10C0B00000AF786000233B610023FB607B681A6857
:10C0C00080235B02134000D18EE017203B18002232
:10C0D0001A706E4BDA6980235B05134010D16B4BED
:10C0E000DA696A4B802149050A43DA61674BDA69EC
:10C0F00080235B051340BB60BB683B1801221A70AC
:10C10000634B1A6880235B0013401AD1604B1A6896
:10C110005F4B802149000A431A60FEF78DFF030040
:10C120003B6108E0FEF788FF02003B69D31A642BED
:10C1300001D90323A6E0564B1A6880235B00134005
:10C14000F0D0524B1A6AC0239B001340FB60FB687F
:10C15000002B34D07B685A68C0239B001340FA68D8
:10C160009A422CD0494B1B6A4A4A1340FB60474B0A
:10C170001A6A464B802149020A431A62434B1A6AE3
:10C18000424B45490A401A62404BFA681A62FB6802
:10C190000122134013D0FEF74FFF03003B6109E07B
:10C1A000FEF74AFF02003B69D31A3C4A934201D989
:10C1B000032367E0354B1B6A02221340F0D0334B58
:10C1C0001B6A344A134019007B685A682F4B0A4394
:10C1D0001A621723FB181B78012B05D12B4BDA6948
:10C1E0002A4B2F490A40DA617B681B680122134001
:10C1F00009D0264B1B6B0322934319007B689A6876
:10C20000224B0A431A637B681B680222134009D041
:10C210001E4B1B6B234A134019007B68DA681B4BCB
:10C220000A431A637B681B682022134009D0174B0E
:10C230001B6B1022934319007B681A69134B0A4346
:10C240001A637B681A6880239B02134009D00F4B46
:10C250001B6B8022934319007B689A690B4B0A433E
:10C260001A637B681A688023DB00134009D0074BF0
:10C270001B6B4022934319007B685A69034B0A43A6
:10C280001A6300231800BD4606B080BD00100240AE
:10C2900000700040FFFCFFFFFFFFFEFF881300005F
:10C2A000FFFFFFEFFFFFFCFF80B584B000AF7860B9
:10C2B0007B68002B01D10123A8E07B685B6A002B1F
:10C2C00009D17B685A6882235B009A4209D07B6857
:10C2D0000022DA6105E07B6800221A617B68002297
:10C2E0005A617B6800229A627B685D229B5CDBB2AC
:10C2F000002B07D17B685C22002199547B681800D1
:10C30000FEF7C4FC7B685D22022199547B681B68A0
:10C310001A687B681B6840218A431A607B68DA6868
:10C32000E023DB009A4202D90023FB6002E0802375
:10C330005B01FB607B68DA68F0231B019A4208D03E
:10C340007B68DA68E023DB009A4202D07B68002237
:10C350009A627B685A6882235B001A407B689968FE
:10C3600084231B020B401A437B681B6902210B408C
:10C370001A437B685B6901210B401A437B6899690A
:10C3800080239B000B401A437B68DB6938210B40FC
:10C390001A437B681B6A80210B401A4311007B689B
:10C3A0009A6A80239B011A407B681B680A431A60C3
:10C3B0007B689B691B0C04221A407B685B6A102116
:10C3C0000B401A437B685B6B08210B401A437B6868
:10C3D000D968F0231B010B401A431100FA6880232F
:10C3E0005B011A407B681B680A435A607B681B68C4
:10C3F000DA697B681B6807490A40DA617B680022BA
:10C400001A667B685D220121995400231800BD46FD
:10C4100004B080BDFFF7FFFF80B582B000AF786049
:10C420007B68002B01D1012344E07B689B6F002BCC
:10C4300007D17B687422002199547B681800FEF7AD
:10C4400073FC7B6824229A677B681B681A687B6888
:10C450001B6801218A431A607B68180000F0B8FC51
:10C460000300012B01D1012324E07B685B6A002BD0
:10C4700003D07B68180000F033FE7B681B685A68A5
:10C480007B681B680D490A405A607B681B689A6884
:10C490007B681B682A218A439A607B681B681A683C
:10C4A0007B681B6801210A431A607B68180000F052
:10C4B000CBFE03001800BD4602B080BDFFB7FFFFF2
:10C4C00080B58AB002AFF860B9603B60BB1D1A80CE
:10C4D000FB689B6F202B00D096E0BB68002B03D03D
:10C4E000BB1D1B88002B01D101238EE0FB689A68DD
:10C4F00080235B019A4209D1FB681B69002B05D19F
:10C50000BB680122134001D001237EE0FB68742246
:10C510009B5C012B01D1022377E0FB68742201218F
:10C520009954FB68802200219950FB6821229A6768
:10C53000FEF782FD03007B61FB68BA1D5021128863
:10C540005A52FB68BA1D522112885A52FB689A68E7
:10C5500080235B019A4208D1FB681B69002B04D140
:10C560000023FB61BB68BB6103E0BB68FB61002388
:10C57000BB61FB687422002199542DE07A69F86848
:10C580003B68009313000022802100F0A5FE031EEB
:10C5900001D0032339E0FB69002B0BD1BB691A885A
:10C5A000FB681B68D205D20D92B21A85BB690233B3
:10C5B000BB6108E0FB691A78FB681B6892B21A85B8
:10C5C000FB690133FB61FB6852229B5A9BB2013B22
:10C5D00099B2FB6852229952FB6852229B5A9BB235
:10C5E000002BCBD17A69F8683B68009313000022D6
:10C5F000402100F071FE031E01D0032305E0FB681B
:10C6000020229A67002300E002231800BD4608B0EC
:10C6100080BD000080B588B000AFF860B960BB1D78
:10C620001A80FB689B6F202B00D06AE0BB68002B50
:10C6300003D0BB1D1B88002B01D1012362E0FB68E6
:10C640009A6880235B019A4209D1FB681B69002B21
:10C6500005D1BB680122134001D0012352E0FB68E1
:10C6600074229B5C012B01D102234BE0FB687422F6
:10C6700001219954FB68BA68DA64FB68BA1D50213D
:10C6800012885A52FB68BA1D522112885A52FB680E
:10C6900000229A66FB68802200219950FB682122C3
:10C6A0009A67FB689A6880235B019A4207D1FB680E
:10C6B0001B69002B03D1FB68144A9A6602E0FB68F1
:10C6C000134A9A66FB68742200219954EFF3108391
:10C6D0003B613B69FB6101237B617B6983F31088CC
:10C6E000C046FB681B681A68FB681B6880210A4308
:10C6F0001A60FB69BB61BB6983F31088C0460023E5
:10C7000000E002231800BD4608B080BD67D70008CE
:10C71000B3D6000880B588B000AFF860B960BB1D23
:10C720001A80FB68DB6F202B50D1BB68002B03D035
:10C73000BB1D1B88002B01D1012348E0FB689A68D0
:10C7400080235B019A4209D1FB681B69002B05D14C
:10C75000BB680122134001D0012338E0FB6874223A
:10C760009B5C012B01D1022331E0FB687422012183
:10C770009954FB6800221A66FB681B685A6880237C
:10C780001B04134019D0EFF310833B613B69FB613D
:10C7900001237B617B6983F31088C046FB681B68BB
:10C7A0001A68FB681B688021C9040A431A60FB6988
:10C7B000BB61BB6983F31088C046BB1D1A88B9688A
:10C7C000FB68180000F04CFE030000E00223180094
:10C7D000BD4608B080BD000090B5ABB000AF78603A
:10C7E0007B681B68DB69A422B9180B607B681B6837
:10C7F0001B68A02039180B607B681B689B689C2114
:10C8000079180B601100BB181B68994A13409822D5
:10C81000BC182360BB181B68002B14D17B181B6845
:10C82000202213400FD03B181B68202213400AD04F
:10C830007B685B6E002B00D196E27B685B6E7A684A
:10C840001000984790E29823FB181B68002B00D13A
:10C8500014E19C23FB181B680122134006D1A0237E
:10C86000FB181B68834A134000D107E1A423FB187F
:10C870001B680122134012D0A023FB181A688023E2
:10C880005B0013400BD07B681B6801221A627B6837
:10C8900080229B5801221A437B6880215A50A4238E
:10C8A000FB181B680222134011D09C23FB181B6845
:10C8B000012213400BD07B681B6802221A627B683E
:10C8C00080229B5804221A437B6880215A50A4235B
:10C8D000FB181B680422134011D09C23FB181B6813
:10C8E000012213400BD07B681B6804221A627B680C
:10C8F00080229B5802221A437B6880215A50A4232D
:10C90000FB181B680822134017D0A023FB181B68D4
:10C910002022134005D19C23FB181B6801221340E1
:10C920000BD07B681B6808221A627B6880229B58A8
:10C9300008221A437B6880215A50A423FB181A68E6
:10C9400080231B01134013D0A023FB181A688023F7
:10C95000DB0413400CD07B681B68802212011A6232
:10C960007B6880229B5820221A437B6880215A5082
:10C970007B6880229B58002B00D1F7E1A423FB1891
:10C980001B68202213400ED0A023FB181B68202216
:10C99000134008D07B685B6E002B04D07B685B6E15
:10C9A0007A68100098477B6880229B5894217A18F7
:10C9B00013607B681B689B6840221340402B04D0A7
:10C9C0007B181B682822134047D07B68180000F0B2
:10C9D000F7FD7B681B689B6840221340402B37D1D2
:10C9E000EFF310833B663B6E90203A1813600123EF
:10C9F0007B667B6E83F31088C0467B681B689A68F1
:10CA00007B681B6840218A439A603B181B68BB66A1
:10CA1000BB6E83F31088C0467B681B6F002B12D05F
:10CA20007B681B6F144A5A637B681B6F1800FEF704
:10CA300047FC031E1AD07B681B6F5A6B7B681B6F09
:10CA40001800904712E07B68180000F0ADF90DE087
:10CA50007B68180000F0A8F908E07B68180000F077
:10CA6000A3F97B688022002199507FE1C0467DE1D7
:10CA70000F0800002001000485D600087B681B6EAB
:10CA8000012B00D031E1A423FB181B6810221340B6
:10CA900000D12AE1A023FB181B681022134000D10B
:10CAA00023E17B681B6810221A627B681B689B6805
:10CAB00040221340402B00D09BE07B681B6F1B681B
:10CAC0005A687E217B181A807B181B88002B00D1A6
:10CAD0004EE17B6858229B5A7A1812889A4200D3FA
:10CAE00046E17B687A185A2112885A527B681B6F7C
:10CAF0009B69202B6ED0EFF310833B633B6BBB67CE
:10CB000001237B637B6B83F31088C0467B681B68C3
:10CB10001A687B681B689A490A401A60BB6FBB633E
:10CB2000BB6B83F31088C046EFF31083FB63FB6B92
:10CB30007B6701233B643B6C83F31088C0467B68B2
:10CB40001B689A687B681B6801218A439A607B6F27
:10CB50007B647B6C83F31088C046EFF31083BB6467
:10CB6000BB6C3B670123FB64FB6C83F31088C046FE
:10CB70007B681B689A687B681B6840218A439A60BF
:10CB80003B6F3B653B6D83F31088C0467B6820227A
:10CB9000DA677B6800221A66EFF310837B657B6D92
:10CBA000FB660123BB65BB6D83F31088C0467B68C1
:10CBB0001B681A687B681B6810218A431A60FB6E29
:10CBC000FB65FB6D83F31088C0467B681B6F180004
:10CBD000FEF73EFB7B6858229A5A7B685A215B5AC3
:10CBE0009BB2D31A9AB27B681100180000F0E4F8E7
:10CBF000BEE07B685822995A7B685A229B5A9AB2A7
:10CC00008E203B188A1A1A807B685A229B5A9BB244
:10CC1000002B00D1AEE03B181B88002B00D1A9E00F
:10CC2000EFF31083FB60FB6888243A19136001233B
:10CC30003B613B6983F31088C0467B681B681A68B8
:10CC40007B681B684F490A401A603B191B687B616F
:10CC50007B6983F31088C046EFF31083BB61BB6927
:10CC600084243A1913600123FB61FB6983F3108864
:10CC7000C0467B681B689A687B681B6801218A43F1
:10CC80009A603B191B683B623B6A83F31088C0467D
:10CC90007B682022DA677B6800221A667B680022A4
:10CCA0005A66EFF310837B627B6A80243A19136023
:10CCB0000123BB62BB6A83F31088C0467B681B6894
:10CCC0001A687B681B6810218A431A603B191B682D
:10CCD000FB62FB6A83F31088C0463B181A887B68A6
:10CCE0001100180000F068F844E0A423FB181A684B
:10CCF00080235B03134010D09C23FB181A68802309
:10CD0000DB03134009D07B681B68802252031A6240
:10CD10007B68180000F02EFF2FE0A423FB181B688F
:10CD2000802213400FD0A023FB181B6880221340E1
:10CD300009D07B689B6E002B1ED07B689B6E7A6847
:10CD40001000984718E0A423FB181B6840221340EA
:10CD500013D0A023FB181B68402213400DD07B6822
:10CD6000180000F05EFD08E0C04606E0C04604E0A2
:10CD7000C04602E0C04600E0C046BD462BB090BDB4
:10CD8000FFFEFFFFDFFEFFFF80B582B000AF7860DF
:10CD9000C046BD4602B080BD80B582B000AF7860AD
:10CDA000C046BD4602B080BD80B582B000AF78609D
:10CDB000C046BD4602B080BD80B582B000AF78608D
:10CDC0000A00BB1C1A80C046BD4602B080BD0000F0
:10CDD00080B588B000AF78601E23FB1800221A705F
:10CDE0007B689A687B681B691A437B685B691A4396
:10CDF0007B68DB6913437B617B681B681B68AF4AF8
:10CE0000134019007B681B687A690A431A607B68C3
:10CE10001B685B68AA4A134019007B68DA687B6864
:10CE20001B680A435A607B689B697B617B681B6A4D
:10CE30007A6913437B617B681B689B68A14A134036
:10CE400019007B681B687A690A439A607B681B68D3
:10CE50009D4A934227D19D4B1B6B03221340032B0A
:10CE60000DD01BD8022B14D018D8002B02D0012BC8
:10CE70000AD013E01F23FB1800221A7065E01F235D
:10CE8000FB1802221A7060E01F23FB1804221A709C
:10CE90005BE01F23FB1808221A7056E01F23FB18C3
:10CEA00010221A7051E07B681B68894A934234D182
:10CEB000864B1A6BC0239B021340C02292029342FE
:10CEC00017D0C0229202934222D88022920293422B
:10CED00019D08022920293421AD8002B04D08022CB
:10CEE000520293420AD013E01F23FB1800221A704B
:10CEF0002BE01F23FB1802221A7026E01F23FB18C9
:10CF000004221A7021E01F23FB1808221A701CE06B
:10CF10001F23FB1810221A7017E07B681B686D4AEC
:10CF2000934204D11F23FB1800221A700DE07B6886
:10CF30001B68694A934204D11F23FB1800221A7010
:10CF400003E01F23FB1810221A707B68DA69802324
:10CF50001B029A425DD11F23FB181B78082B15D0AA
:10CF600018DC042B0DD015DC002B02D0022B05D0D1
:10CF700010E0FFF785F80300BB6112E0574BBB617F
:10CF80000FE0FEF7F3FF0300BB610AE080231B0202
:10CF9000BB6106E00023BB611E23FB1801221A704F
:10CFA000C046BB69002B00D17BE0BB695A007B689F
:10CFB0005B685B08D2187B685B6819001000FCF79F
:10CFC000B5F803009BB23B613B690F2B1CD93A6952
:10CFD00080235B029A4217D23B699AB20E203B181B
:10CFE0000F218A431A803B695B089BB207221340DA
:10CFF00099B23B183A1812880A431A807B681B685A
:10D000003A181288DA604CE01E23FB1801221A70CD
:10D0100047E01F23FB181B78082B15D018DC042BC6
:10D020000DD015DC002B02D0022B05D010E0FFF74D
:10D0300027F80300BB6112E0284BBB610FE0FEF74D
:10D0400095FF0300BB610AE080231B02BB6106E081
:10D050000023BB611E23FB1801221A70C046BB6966
:10D06000002B1ED07B685B685A08BB69D2187B68AE
:10D070005B6819001000FCF759F803009BB23B6194
:10D080003B690F2B09D93A6980235B029A4204D28B
:10D090007B681B683A69DA6003E01E23FB180122F3
:10D0A0001A707B6800225A667B6800229A661E23EB
:10D0B000FB181B781800BD4608B080BDF369FFEF70
:10D0C000FFCFFFFFFFF4FFFF0038014000100240D8
:10D0D0000044004000480040004C004000127A002C
:10D0E00080B582B000AF78607B685B6A0122134034
:10D0F0000BD07B681B685B684A4A134019007B6849
:10D100009A6A7B681B680A435A607B685B6A0222E2
:10D1100013400BD07B681B685B68434A13401900BF
:10D120007B68DA6A7B681B680A435A607B685B6AC3
:10D13000042213400BD07B681B685B683B4A13409A
:10D1400019007B681A6B7B681B680A435A607B680E
:10D150005B6A082213400BD07B681B685B68344A0B
:10D16000134019007B685A6B7B681B680A435A603E
:10D170007B685B6A102213400BD07B681B689B683E
:10D180002C4A134019007B689A6B7B681B680A4322
:10D190009A607B685B6A202213400BD07B681B6817
:10D1A0009B68254A134019007B68DA6B7B681B6813
:10D1B0000A439A607B685B6A402213401DD07B68FB
:10D1C0001B685B681D4A134019007B681A6C7B68FA
:10D1D0001B680A435A607B681A6C80235B039A427F
:10D1E0000BD17B681B685B68154A134019007B688C
:10D1F0005A6C7B681B680A435A607B685B6A8022B2
:10D2000013400BD07B681B685B680E4A1340190003
:10D210007B689A6C7B681B680A435A60C046BD46AF
:10D2200002B080BDFFFFFDFFFFFFFEFFFFFFFBFF22
:10D23000FF7FFFFFFFEFFFFFFFDFFFFFFFFFEFFFBE
:10D24000FFFF9FFFFFFFF7FF80B586B002AF78605A
:10D250007B68802200219950FDF7EEFE0300FB6001
:10D260007B681B681B6808221340082B0CD1FB68E5
:10D27000802291037868174A0092002200F02CF86F
:10D28000031E01D0032321E07B681B681B68042276
:10D290001340042B0CD1FB688022D10378680D4A1F
:10D2A0000092002200F018F8031E01D003230DE0C5
:10D2B0007B6820229A677B682022DA677B680022DD
:10D2C0001A667B6874220021995400231800BD4619
:10D2D00004B080BDFFFFFF0180B594B000AFF860DF
:10D2E000B9603B60FB1D1A70A3E0BB6D013300D138
:10D2F0009FE0FDF7A1FE02003B68D31ABA6D9A4287
:10D3000002D3BB6D002B3DD1EFF31083BB62BB6A30
:10D310007B640123FB62FB6A83F31088C046FB68D1
:10D320001B681A68FB681B684C490A401A607B6CD2
:10D330003B633B6B83F31088C046EFF310837B6342
:10D340007B6B3B640123BB63BB6B83F31088C046DC
:10D35000FB681B689A68FB681B6801218A439A6016
:10D360003B6CFB63FB6B83F31088C046FB68202299
:10D370009A67FB682022DA67FB68742200219954BF
:10D38000032367E0FB681B681B680422134050D02E
:10D39000FB681B68DA6980231B011A4080231B018C
:10D3A0009A4246D1FB681B68802212011A62EFF391
:10D3B00010833B613B69FB6401237B617B6983F3E1
:10D3C0001088C046FB681B681A68FB681B68234905
:10D3D0000A401A60FB6CBB61BB6983F31088C046CE
:10D3E000EFF31083FB61FB69BB6401233B623B6A83
:10D3F00083F31088C046FB681B689A68FB681B684B
:10D4000001218A439A60BB6C7B627B6A83F310883C
:10D41000C046FB6820229A67FB682022DA67FB6817
:10D42000802220219950FB68742200219954032303
:10D4300010E0FB681B68DB69BA681340BA68D31A4E
:10D440005A425341DBB21A00FB1D1B789A4200D1AD
:10D450004BE700231800BD4614B080BD5FFEFFFF00
:10D4600080B58CB000AFF860B960BB1D1A80FB6856
:10D47000BA685A65FB68BA1D582112885A52FB686F
:10D48000BA1D5A2112885A52FB6800225A66FB685C
:10D490009A6880235B019A420DD1FB681B69002BBF
:10D4A00004D1FB685C22434999522EE0FB685C2260
:10D4B000FF21995229E0FB689B68002B0DD1FB6886
:10D4C0001B69002B04D1FB685C22FF2199521CE0F0
:10D4D000FB685C227F21995217E0FB689A688023E1
:10D4E0005B059A420DD1FB681B69002B04D1FB68D8
:10D4F0005C227F21995208E0FB685C223F2199520F
:10D5000003E0FB685C2200219952FB688022002125
:10D510009950FB682222DA67EFF31083FB61FB6905
:10D52000FB6201233B623B6A83F31088C046FB68C1
:10D530001B689A68FB681B6801210A439A60FB6AB2
:10D540007B627B6A83F31088C046FB689A688023FD
:10D550005B019A4207D1FB681B69002B03D1FB6872
:10D56000154A5A6602E0FB68144A5A66FB68742240
:10D5700000219954EFF310833B613B69BB620123A7
:10D580007B617B6983F31088C046FB681B681A685F
:10D59000FB681B68902149000A431A60BB6ABB61A3
:10D5A000BB6983F31088C04600231800BD460CB049
:10D5B00080BDC046FF0100000DDA000879D80008E0
:10D5C00080B58EB000AF7860EFF310837B617B692C
:10D5D0007B630123BB61BB6983F31088C0467B6812
:10D5E0001B681A687B681B6825490A401A607B6BB8
:10D5F000FB61FB6983F31088C046EFF310833B6245
:10D600003B6A3B6301237B627B6A83F31088C046DD
:10D610007B681B689A687B681B6801218A439A6053
:10D620003B6BBB62BB6A83F31088C0467B681B6E92
:10D63000012B18D1EFF31083BB60BB68FB620123A1
:10D64000FB60FB6883F31088C0467B681B681A6820
:10D650007B681B6810218A431A60FB6A3B613B6947
:10D6600083F31088C0467B682022DA677B6800223B
:10D670001A667B6800225A66C046BD460EB080BD61
:10D68000DFFEFFFF80B584B000AF78607B685B6A27
:10D69000FB60FB685A2200219952FB68522200214C
:10D6A0009952FB681800FFF77FFBC046BD4604B0E7
:10D6B00080BD80B58AB000AF78607B689B6F212BFE
:10D6C0004DD17B6852229B5A9BB2002B32D1EFF393
:10D6D0001083BB60BB687B620123FB60FB6883F344
:10D6E0001088C0467B681B681A687B681B688021AD
:10D6F0008A431A607B6A3B613B6983F31088C046AA
:10D70000EFF310837B617B693B620123BB61BB69E3
:10D7100083F31088C0467B681B681A687B681B68A7
:10D7200040210A431A603B6AFB61FB6983F310885E
:10D73000C04614E07B68DB6C1A787B681B6892B289
:10D740001A857B68DB6C5A1C7B68DA647B68522222
:10D750009B5A9BB2013B99B27B6852229952C046B8
:10D76000BD460AB080BD80B58CB000AF78607B68E4
:10D770009B6F212B51D17B6852229B5A9BB2002B6D
:10D7800032D1EFF31083FB60FB68BB6201233B6186
:10D790003B6983F31088C0467B681B681A687B6806
:10D7A0001B6880218A431A60BB6A7B617B6983F3B3
:10D7B0001088C046EFF31083BB61BB697B62012315
:10D7C000FB61FB6983F31088C0467B681B681A689D
:10D7D0007B681B6840210A431A607B6A3B623B6A94
:10D7E00083F31088C04618E07B68DB6CFB62FB6A41
:10D7F0001A887B681B68D205D20D92B21A857B68A5
:10D80000DB6C9A1C7B68DA647B6852229B5A9BB261
:10D81000013B99B27B6852229952C046BD460CB07A
:10D8200080BD80B586B000AF7860EFF31083BB6039
:10D83000BB687B610123FB60FB6883F31088C046F3
:10D840007B681B681A687B681B6840218A431A60E2
:10D850007B693B613B6983F31088C0467B6820226B
:10D860009A677B6800229A667B681800FFF78CFA3B
:10D87000C046BD4606B080BD90B591B000AF78609F
:10D880003E203B187A685C21525A1A807B68DB6F15
:10D89000222B00D0A9E07B681A683C243B19928CAB
:10D8A0001A803B191B88DAB23B181B88D9B27B68F7
:10D8B0005B6D0A40D2B21A707B681B68514A934272
:10D8C0000AD13B191B88DBB23A181288D2B2134036
:10D8D000DBB21800FBF7F6FC7B681B68494A9342F1
:10D8E0000CD13C23FB181B88DBB23E22BA181288ED
:10D8F000D2B21340DBB21800FCF722FD7B685A223B
:10D900009B5A9BB2002B78D1EFF31083BB61BB69AC
:10D91000BB630123FB61FB6983F31088C0467B680E
:10D920001B681A687B681B6837490A401A60BB6B22
:10D930003B623B6A83F31088C046EFF310837B623F
:10D940007B6A7B630123BB62BB6A83F31088C0469A
:10D950007B681B689A687B681B6801218A439A6010
:10D960007B6BFB62FB6A83F31088C0467B682022D6
:10D97000DA677B6800225A667B681B6E012B2FD109
:10D980007B6800221A66EFF31083FB60FB683B6341
:10D9900001233B613B6983F31088C0467B681B68A9
:10D9A0001A687B681B6810218A431A603B6B7B6195
:10D9B0007B6983F31088C0467B681B68DB69102293
:10D9C0001340102B03D17B681B6810221A627B68FE
:10D9D00058229A5A7B6811001800FFF7EDF90CE005
:10D9E0007B681800FFF7D8F907E07B681B689A6925
:10D9F0007B681B6808210A439A61C046BD4611B086
:10DA000090BDC04600440040DFFEFFFF80B590B0EF
:10DA100000AF78603E203B187A685C21525A1A8029
:10DA20007B68DB6F222B00D095E07B681A683C2175
:10DA30007B18928C1A807B685B6DBB637B183A18ED
:10DA40001B88128813409AB2BB6B1A807B685B6D8F
:10DA50009A1C7B685A657B685A229B5A9BB2013B91
:10DA600099B27B685A2299527B685A229B5A9BB280
:10DA7000002B78D1EFF310837B617B697B630123FB
:10DA8000BB61BB6983F31088C0467B681B681A685A
:10DA90007B681B6836490A401A607B6BFB61FB6937
:10DAA00083F31088C046EFF310833B623B6A3B630D
:10DAB00001237B627B6A83F31088C0467B681B6806
:10DAC0009A687B681B6801218A439A603B6BBB6242
:10DAD000BB6A83F31088C0467B682022DA677B68C4
:10DAE00000225A667B681B6E012B2FD17B680022B7
:10DAF0001A66EFF31083BB60BB68FB620123FB6017
:10DB0000FB6883F31088C0467B681B681A687B68D3
:10DB10001B6810218A431A60FB6A3B613B6983F3EF
:10DB20001088C0467B681B68DB6910221340102BED
:10DB300003D17B681B6810221A627B6858229A5AAC
:10DB40007B6811001800FFF737F90CE07B681800BC
:10DB5000FFF722F907E07B681B689A697B681B68FE
:10DB600008210A439A61C046BD4610B080BDC04638
:10DB7000DFFEFFFF80B582B000AF7860C046BD46D3
:10DB800002B080BD80B584B000AF0200BB1D1A801A
:10DB90000023FB60BB1D00229B5E842B06D0BB1DB7
:10DBA00000229A5EFB68D3180333FB60FB68180001
:10DBB000BD4604B080BD80B500AF00F0A1FA0023DF
:10DBC0001800BD4680BDF0B589B004AF78603960FB
:10DBD0007B685B69002B20D07B689B69002B1CD085
:10DBE0007B685C687B681D687B681E697B680822AF
:10DBF0009B5E1800FFF7C6FF7B685A697B689B69CC
:10DC000039680293019200900B0032002900200035
:10DC100000F0E3F80300FB601DE07B685C687B6854
:10DC20001D687B681B699EB27B6808229B5E18009A
:10DC3000FFF7A8FF01003A680C23FB18019300913D
:10DC4000130032002900200000F00AF90300012B24
:10DC500001D0002300E0FB681800BD4605B0F0BD10
:10DC600080B584B000AF78607B68FB60FB68002BF8
:10DC700001D0FB6800E00123180000F01BFA00232C
:10DC80001800BD4604B080BD80B582B000AF78609A
:10DC90007B6808331A007B685A607B680122524215
:10DCA0009A607B6808331A007B68DA607B68083307
:10DCB0001A007B681A617B6800221A60C046BD4664
:10DCC00002B080BD80B582B000AF78607B68002272
:10DCD0001A61C046BD4602B080BD80B584B000AFB9
:10DCE000786039607B685B68FB603B68FA685A6003
:10DCF000FB689A683B689A60FB689B683A685A6060
:10DD0000FB683A689A603B687A681A617B681B68AE
:10DD10005A1C7B681A60C046BD4604B080BD80B501
:10DD200084B000AF786039603B681B68BB60BB683B
:10DD3000013303D17B681B69FB600CE07B6808330F
:10DD4000FB6002E0FB685B68FB60FB685B681B686C
:10DD5000BA689A42F6D2FB685A683B685A603B68D8
:10DD60005B683A689A603B68FA689A60FB683A6850
:10DD70005A603B687A681A617B681B685A1C7B682A
:10DD80001A60C046BD4604B080BD80B584B000AF07
:10DD900078607B681B69FB607B685B687A68926867
:10DDA0009A607B689B687A6852685A60FB685B6817
:10DDB0007A689A4203D17B689A68FB685A607B68EC
:10DDC00000221A61FB681B685A1EFB681A60FB6818
:10DDD0001B681800BD4604B080BD90B58DB004AF7F
:10DDE000F860B9607A603B607B6B002B01D172B642
:10DDF000FEE7BB6B002B01D172B6FEE754237B61BB
:10DE00007B69542B01D072B6FEE7BB6B002B20D090
:10DE10007B6B002B1DD0BB6BFB61FB697A6B1A63BC
:10DE2000FB695122022199543C687A68B968F86804
:10DE300000230393FB6902931823FB1801933B6BA8
:10DE40000093230000F058F8FB69180000F0CEF8AA
:10DE500001E00023BB61BB691800BD4609B090BD5D
:10DE600090B58DB004AFF860B9603B60BB1D1A80FF
:10DE7000BB1D1B889B00180000F0A2FD03007B6106
:10DE80007B69002B10D0542000F09AFD0300FB6149
:10DE9000FB69002B03D0FB697A691A6306E07B6992
:10DEA000180000F033FE01E00023FB61FB69002B4A
:10DEB0001AD0FB69512200219954BB1D1A883C6875
:10DEC000B968F86800230393FB6902937B6B0193A5
:10DED0003B6B0093230000F00FF8FB69180000F083
:10DEE00085F80123BB6102E001235B42BB61BB6992
:10DEF0001800BD4609B090BD80B586B000AFF8608F
:10DF0000B9607A603B60BB6A1A6B7B6836498C46A5
:10DF100063449B00D3183B613B69072293433B61F9
:10DF20003B690722134001D072B6FEE700237B61F4
:10DF300013E0BA687B69D3181878BA6A34217B6910
:10DF4000D3185B18021C1A70BA687B69D3181B7847
:10DF5000002B06D07B6901337B617B690F2BE8D9ED
:10DF600000E0C046BB6A4322002199543B6A062B5D
:10DF700001D906233B62BB6A3A6ADA62BB6A3A6A33
:10DF80005A64BB6A00229A64BB6A04331800FFF724
:10DF900099FEBB6A18331800FFF794FEBB6ABA6A91
:10DFA0001A613B6A0722D21ABB6A9A61BB6ABA6AD3
:10DFB0005A62BB6A0022DA64BB6A5022002199547B
:10DFC0003A68F9683B69180000F0C4FB0200BB6ABC
:10DFD0001A607B6A002B02D07B6ABA6A1A60C0465C
:10DFE000BD4606B080BDC046FFFFFF3F80B582B092
:10DFF00000AF786000F04CFC284B1B685A1C274B84
:10E000001A60274B1B68002B09D1254B7A681A60D0
:10E01000224B1B68012B10D100F06EFA0DE0214B52
:10E020001B68002B09D11E4B1B68DA6A7B68DB6A10
:10E030009A4202D81A4B7A681A601B4B1B685A1C0A
:10E04000194B1A607B68DA6A184B1B689A4203D92D
:10E050007B68DA6A154B1A607B68DA6A13009B00EA
:10E060009B189B00124A9A187B6804331900100011
:10E07000FFF733FE00F01EFC0A4B1B68002B08D094
:10E08000074B1B68DA6A7B68DB6A9A4201D200F0B0
:10E09000EFFBC046BD4602B080BDC0465C05002017
:10E0A0005C0400206805002078050020640500203D
:10E0B0006004002080B584B000AF78600023FB606E
:10E0C0007B68002B10D00D4B1B68002B01D072B663
:10E0D000FEE700F063F87B680021180000F0E6FA24
:10E0E00000F068F80300FB60FB68002B01D100F032
:10E0F000BFFBC046BD4604B080BDC04684050020BD
:10E1000090B589B004AF0023BB6000237B603A0068
:10E11000391D0823FB181800FCF736F93C687B68AA
:10E12000BA6818491848029201930023009300230B
:10E130002200FFF752FE0200144B1A60134B1B68BB
:10E14000002B02D00123FB6001E00023FB60FB6891
:10E15000012B0DD172B60E4B012252421A600D4BAB
:10E1600001221A600C4B00221A6000F05DFB04E0F3
:10E17000FB68013301D172B6FEE7C046BD4605B06B
:10E1800090BDC0461CFA0008D9E4000880050020B4
:10E190007C050020680500206005002080B500AFE8
:10E1A000034B1B685A1C024B1A60C046BD4680BD1B
:10E1B0008405002080B584B000AF0023FB600023FD
:10E1C000BB603A4B1B68002B01D172B6FEE700F032
:10E1D0005FFB364B1B685A1E344B1A60334B1B686F
:10E1E000002B5BD1324B1B68002B57D02FE0314BFB
:10E1F000DB68DB68FB60FB6818331800FFF7C5FDC0
:10E20000FB6804331800FFF7C0FDFB68DA6A2A4B8D
:10E210001B689A4203D9FB68DA6A274B1A60FB68CD
:10E22000DA6A13009B009B189B00244A9A18FB682B
:10E23000043319001000FFF750FDFB68DA6A204B29
:10E240001B68DB6A9A4202D31E4B01221A60194BEB
:10E250001B68002BCBD1FB68002B01D000F0E6F946
:10E26000194B1B687B607B68002B0FD000F02EF8E9
:10E27000031E02D0134B01221A607B68013B7B60B6
:10E280007B68002BF2D1104B00221A600D4B1B68EB
:10E29000002B03D00123BB6000F0EAFA00F00AFB78
:10E2A000BB681800BD4604B080BDC0468405002090
:10E2B0005C0500201C05002064050020600400208F
:10E2C0005C040020700500206C05002080B586B03D
:10E2D00000AF00237B614C4B1B68002B00D083E018
:10E2E0004A4B1B6801333B61484B3A691A603B69F2
:10E2F000002B17D1464B1B681B68002B01D072B650
:10E30000FEE7434B1B68FB60424B1A68404B1A60A8
:10E31000404BFA681A60404B1B685A1C3E4B1A600F
:10E3200000F084F93D4B1B683A699A424ED3384B52
:10E330001B681B68002B01D1012300E00023002B88
:10E3400004D0364B012252421A603FE0304B1B682A
:10E35000DB68DB68BB60BB685B687B603A697B68D5
:10E360009A4203D22D4B7A681A602FE0BB680433BF
:10E370001800FFF70AFDBB689B6A002B04D0BB683E
:10E3800018331800FFF701FDBB68DA6A244B1B68DD
:10E390009A4203D9BB68DA6A214B1A60BB68DA6A11
:10E3A00013009B009B189B001E4A9A18BB680433FD
:10E3B00019001000FFF791FCBB68DA6A1A4B1B6862
:10E3C000DB6A9A42B3D301237B61B0E7164B1B682B
:10E3D000DA6A144913009B009B189B005B58012BC1
:10E3E00007D901237B6104E0104B1B685A1C0F4BBB
:10E3F0001A600F4B1B68002B01D001237B617B69E6
:10E400001800BD4606B080BD8405002060050020D0
:10E410001405002018050020740500207C0500204C
:10E4200064050020600400205C0400206C050020CE
:10E430007005002080B582B000AF224B1B68002B16
:10E4400003D0214B01221A6037E01F4B00221A60D3
:10E450001E4B1B687B6007E07B68002B01D172B606
:10E46000FEE77B68013B7B6019497A6813009B00DB
:10E470009B189B005B58002BEED07A6813009B0022
:10E480009B189B00124A9B183B603B685B685A686C
:10E490003B685A603B685A683B6808339A4204D12B
:10E4A0003B685B685A683B685A603B685B68DA683F
:10E4B000084B1A60054B7A681A60C046BD4602B028
:10E4C00080BDC04684050020700500206405002042
:10E4D000600400205C04002080B582B000AF78604A
:10E4E00000F04EF8034B1B68012BF9D900F0C0F97E
:10E4F000F6E7C0466004002080B582B000AF00237C
:10E500007B600CE07A6813009B009B189B00144A08
:10E510009B181800FFF7B8FB7B6801337B607B68B2
:10E52000062BEFD90F4B1800FFF7AEFB0E4B180070
:10E53000FFF7AAFB0D4B1800FFF7A6FB0C4B1800CA
:10E54000FFF7A2FB0B4B1800FFF79EFB0A4B054A97
:10E550001A600A4B044A1A60C046BD4602B080BD2C
:10E5600060040020EC040020000500201C050020B1
:10E570003005002048050020140500201805002063
:10E5800080B582B000AF1AE000F082F9104BDB6872
:10E59000DB687B607B6804331800FFF7F6FB0D4BEC
:10E5A0001B685A1E0B4B1A600B4B1B685A1E0A4BFA
:10E5B0001A6000F07FF97B68180000F00FF8064B36
:10E5C0001B68002BE0D1C046C046BD4602B080BDEE
:10E5D000300500205C0500204405002080B582B095
:10E5E00000AF78607B6851229B5C002B09D17B686F
:10E5F0001B6B180000F08AFA7B68180000F086FA9E
:10E6000010E07B6851229B5C012B04D17B681800D1
:10E6100000F07CFA06E07B6851229B5C022B01D063
:10E6200072B6FEE7C046BD4602B080BD80B582B07E
:10E6300000AF0E4B1B681B68002B01D1012300E0CB
:10E640000023002B04D00A4B012252421A6008E03A
:10E65000064B1B68DB68DB687B607B685A68044B91
:10E660001A60C046BD4602B080BDC04614050020F9
:10E670007C05002080B582B000AF0A4B1B68002BE0
:10E6800002D101237B6008E0074B1B68002B02D1FD
:10E6900002237B6001E000237B607B681800BD469D
:10E6A00002B080BD680500208405002080B584B0DC
:10E6B00000AF78603960214B1B68FB60204B1B6802
:10E6C00004331800FFF761FB7B6801330BD13B6813
:10E6D000002B08D01A4B1B681A1D1A4B110018008A
:10E6E000FFF7FBFA26E0FA687B68D318BB60144B8F
:10E6F0001B68BA685A60BA68FB689A4209D2124B22
:10E700001A680F4B1B68043319001000FFF707FB52
:10E7100010E00E4B1A680A4B1B68043319001000F6
:10E72000FFF7FDFA0A4B1B68BA689A4202D2084BFF
:10E73000BA681A60C046BD4604B080BD60050020BE
:10E740005C04002048050020180500201405002066
:10E750007C05002080B584B000AFF860B9607A60B5
:10E76000FB68043BFB60FB68802252041A60FB6874
:10E77000043BFB60BA68FB681A60FB68043BFB6003
:10E78000084AFB681A60FB68143BFB607A68FB6808
:10E790001A60FB68203BFB60FB681800BD4604B0B4
:10E7A00080BDC046A9E7000880B582B000AF002355
:10E7B0007B60084B1B68013301D072B6FEE772B66E
:10E7C000C0467B68002BFCD0C046C046BD4602B0A8
:10E7D00080BDC0466801002080B500AFC046BD4680
:10E7E00080BD0000000000000000000000000000EC
:10E7F0000B4A13681868203080F30988022080F3E0
:10E800001488BFF36F8F3FBCAE4608BC04BC62B631
:10E810001847C046C046C046C046C046C046C0466F
:10E820005C040020C046C04680B500AF0E4B1A689D
:10E830000D4BFF2109040A431A600B4B1A680A4B5F
:10E84000FF2109060A431A6000F098F8074B0022DE
:10E850001A60FFF7CDFFFFF7EDFDFFF7A5FF0023DF
:10E860001800BD4680BDC04620ED00E068010020D4
:10E8700080B500AF054B802252051A60BFF34F8F61
:10E88000BFF36F8FC046BD4680BDC04604ED00E0BB
:10E8900080B500AF72B6064B1B685A1C044B1A6059
:10E8A000BFF34F8FBFF36F8FC046BD4680BDC046DC
:10E8B0006801002080B500AF094B1B68002B01D117
:10E8C00072B6FEE7064B1B685A1E054B1A60044BD6
:10E8D0001B68002B00D162B6C046BD4680BDC04655
:10E8E00068010020EFF3108072B67047C046180030
:10E8F00080F310887047C046000000000000000050
:10E90000EFF309800E4B1A6820381060F0C04446BF
:10E910004D4656465F46F0C008B572B6FFF78AFD11
:10E9200062B60CBC116808681030F0C8A046A94651
:10E93000B246BB4680F309882038F0C81847C04665
:10E940005C040020C046C04680B582B000AFFFF72F
:10E95000C9FF03007B60FFF7B9FC031E03D0064B21
:10E96000802252051A607B681800FFF7C1FFC0467D
:10E97000BD4602B080BDC04604ED00E080B500AFEA
:10E980000B4B00221A600B4B00221A600A4B1B68CB
:10E99000FA2291001800FAF7C9FB03001A00074B8E
:10E9A000013A1A60024B07221A60C046BD4680BD7C
:10E9B00010E000E018E000E05C01002014E000E05E
:10E9C00080B586B000AF78600023FB60FFF7E6FB00
:10E9D000494B1B68002B01D100F0E0F8474B1B6846
:10E9E0007A68134000D079E07B68002B12D00822AF
:10E9F0007B689B187B607B68072213400AD07B688A
:10EA00000722934308337B607B680722134001D0C1
:10EA100072B6FEE77B68002B60D0394B1B687A68C2
:10EA20009A425BD8374B3B61364B1B687B6104E0F5
:10EA30007B693B617B691B687B617B695B687A688A
:10EA40009A4203D97B691B68002BF1D12A4B1B68C2
:10EA50007A699A4242D03B691B6808229B18FB6086
:10EA60007B691A683B691A607B695A687B68D21AAD
:10EA700008235B009A4216D97A697B68D318BB6079
:10EA8000BB680722134001D072B6FEE77B695A6863
:10EA90007B68D21ABB685A607B697A685A60BB6827
:10EAA000180000F0DBF8164B1A687B695B68D21A15
:10EAB000134B1A60124B1A68134B1B689A4203D20D
:10EAC0000F4B1A68104B1A607B695A680B4B1B6816
:10EAD0001A437B695A607B6900221A60FFF76AFB60
