:020000040800F2
:109000000040002045DA00088DD9000893D90008F7
:109010000000000000000000000000000000000050
:10902000000000000000000000000000C51F010853
:109030000000000000000000E120010899D90008AC
:1090400095DA000895DA000895DA000895DA000844
:1090500095DA000895DA000895DA000895DA000834
:1090600095DA000895DA000895DA000895DA000824
:1090700095DA000895DA000895DA000895DA000814
:1090800095DA000895DA000895DA000895DA000804
:1090900095DA000895DA000895DA000895DA0008F4
:1090A00095DA000895DA000895DA000895DA0008E4
:1090B000B5D9000895DA000895DA000895DA0008B5
:1090C00010B5064C2378002B07D1054B002B02D09E
:1090D000044800E000BF0123237010BD48010020B8
:1090E00000000000502F0108044B10B5002B03D0E6
:1090F0000349044800E000BF10BDC0460000000066
:109100004C010020502F010802780B78002A03D070
:10911000013001319A42F7D0D01A70470023C25C67
:109120000133002AFBD1581E7047000003B471467A
:10913000490840004900095E49008E4403BC70475D
:10914000002243088B4274D303098B425FD3030A86
:109150008B4244D3030B8B4228D3030C8B420DD399
:10916000FF22090212BA030C8B4202D31212090227
:1091700065D0030B8B4219D300E0090AC30B8B4265
:1091800001D3CB03C01A5241830B8B4201D38B0313
:10919000C01A5241430B8B4201D34B03C01A5241B8
:1091A000030B8B4201D30B03C01A5241C30A8B42FB
:1091B00001D3CB02C01A5241830A8B4201D38B02E6
:1091C000C01A5241430A8B4201D34B02C01A52418A
:1091D000030A8B4201D30B02C01A5241CDD2C309FC
:1091E0008B4201D3CB01C01A524183098B4201D378
:1091F0008B01C01A524143098B4201D34B01C01A63
:10920000524103098B4201D30B01C01A5241C308DA
:109210008B4201D3CB00C01A524183088B4201D349
:109220008B00C01A524143088B4201D34B00C01A35
:109230005241411A00D20146524110467047FFE7A1
:1092400001B5002000F006F802BDC0460029F7D0A5
:1092500076E770477047C04680B500AFBFF34F8FC9
:10926000C046044B044ADA60BFF34F8FC046C04685
:10927000FDE7C04600ED00E00400FA05B0B500AF20
:109280006F4B180001F07AF96E4AA0235B001E2193
:10929000D1506D4A6D4B1000190005231A0009F0DA
:1092A00055F9694A6A4B1000190005231A0009F0A4
:1092B0004DF9654A674B1000190005231A0009F0A3
:1092C00045F9604B644A13CA13C303CA03C3127837
:1092D0001A705C4B614A13CA13C3118819809278C3
:1092E0009A705F4B00221A605E4B00221A805E4922
:1092F0005E4B1422180006F0E1FD5C4B1B681A68F7
:109300005A4B1B68902149000A431A60584B0122AE
:109310000821180004F01CFF564B0022DA61494B6B
:1093200000229A67524B01220821180004F010FF16
:10933000444AB2235B000021D150424AB4235B006F
:109340000021D1503F4AB6235B000021D1503D4A55
:10935000B8235B000021D1503A4ABA235B0046494A
:10936000D150384ABC235B000021D150354ABE237E
:109370005B000121D150414B00221A60404B00227A
:109380001A603F4B1B68180037490A230A2204F071
:1093900053F83C4A3C4B100019000E231A0009F008
:1093A000D5F8314A374B1100180009F001F9354B57
:1093B0001800FFF7B3FE03001A00324BD218334BEC
:1093C0001000190003231A0009F0C0F82D4B1800F3
:1093D00001F0D4F82B4A2E4B100019000C231A0070
:1093E00009F0B4F8174ABA235B00D0581E490A2383
:1093F0000A2204F021F81C4A224B1100180009F03F
:10940000D7F8204B1800FFF789FE03001A001D4B08
:10941000D2181E4B1000190003231A0009F096F809
:10942000184B180001F0AAF8064AC4235B0000217B
:10943000D150184B01221A70C046BD46B0BDC0467F
:10944000682F01082816002046160020742F0108F6
:109450007C2F0108842F01088C2F0108A42F0108FC
:109460007801002064010020A81E00207C2200203A
:10947000000400482C11002048EE0000F4140020E5
:10948000C4000020241E0020B42F0108C42F0108AE
:10949000C82F0108D000002090B5C7B000AFF04B36
:1094A0001868F0490A230A2203F0C6FFDC243B199E
:1094B0001800FFF733FE03001A003B199A18EA4B15
:1094C0001000190002231A0009F040F8E54A3B1980
:1094D0001100180009F06CF8E44B1B78372B01D908
:1094E00000F0C1FE9A00E24BD3181B689F46E14B87
:1094F0001B88022B0ED880231B02DF480022190094
:1095000004F026FEDB4B1B8801339AB2D94B1A803C
:1095100000F0F1FED94B00220421180004F018FEDF
:10952000D24B02221A7000F0E6FED54B180001F073
:1095300025F880231B02D0480122190004F008FE00
:10954000CC4B00221A80C94B03221A7000F0D3FEC4
:10955000CC4B180001F012F8C64B1B88032B11D816
:10956000C64B01220421180004F0F2FDC14B1B88F8
:1095700001339AB2BF4B1A80C34B180000F0FEFFB4
:1095800000F0B9FEBD4B00220421180004F0E0FDFC
:10959000B64B04221A70BD4B180000F0EFFF00F02C
:1095A000AAFEBB4B180000F097FFB04B05221A70C3
:1095B00000F0A1FEB74B180000F08EFFAB4B00226D
:1095C0001A7000F098FEB44B180000F0D7FFB34BB0
:1095D000180000F081FFB24B01225A60B04B01220B
:1095E0001A60A24B07221A7000F085FEAD4B1800DE
:1095F00000F072FF9D4B08221A7000F07CFEAA4B0F
:10960000180000F069FFA94AA8235B000521D1508A
:10961000964B09221A70954B0A221A7000F06BFEC5
:10962000A34B180000F058FF904B0A221A708F4B82
:1096300011221A7000F05FFE9E4B180000F04CFFE4
:109640008A4B20221A70894B22221A7000F053FE96
:10965000994B180000F092FF02F01AF8974B18008F
:1096600000F03AFF814B24221A70804B00221A70BE
:109670007E4B22221A7000F03EFE914B180000F043
:109680002BFF7A4B0C221A70784B0E221A7000F0C6
:1096900032FE8C498C4B0722180008F09EFF031EF7
:1096A00004D18A4B180000F017FF0BE08849864B65
:1096B0000322180008F091FF031E03D1854B180008
:1096C00000F00AFF794A9A235B000021D150774AC3
:1096D0009C235B000121D150644B00221A7000F0E2
:1096E0000AFE7D4B180000F0F7FE7C4BF8220021AB
:1096F00099505E4B18221A7000F0FDFD784B18004F
:1097000000F0EAFE594B00221A70684A9A235B0067
:10971000D358012B01D000F0EDFD544B0C221A70F0
:1097200000F0E8FD5E4B01229A606E4B180000F0DD
:1097300025FF01F053FE031E08D16B4B6B4A03CA91
:1097400003C31188198092789A7005E0684A664BC5
:109750001100180008F039FF634B644A03CA03C3C1
:109760001188198092789A70624B180000F006FFF9
:109770005D4B180000F002FF5F4B180000F0FEFE8A
:109780005E4A5A4B1100180001F0F0FC474A9A2338
:109790005B000121D150354B00221A7000F0ABFD67
:1097A000574B180000F0EAFE564ADC243B19110022
:1097B000180008F00AFF3B191800FFF7AFFC030080
:1097C0001A003B199A18504B1000190003231A0075
:1097D00008F0BCFE3B19180000F07EFE304B002262
:1097E0005A62224B00221A7000F085FD474B180088
:1097F00000F072FE1D4B00221A701C4B0A221A70D8
:1098000000F079FD424B180000F066FE244B012267
:109810009A61264B00229A67144B13221A7000F0AB
:109820006AFD3C4B180000F057FE104B00221A70E6
:1098300000F061FD012004F093F9374B180000F0AF
:109840004BFE1A4B00229A67154B0022DA61174B28
:10985000802200219950054B00221A7000F04BFD28
:10986000FC140020A81E0020D42F0108C0000020F6
:10987000D8410108640100200008004800040048A5
:10988000D82F0108E42F0108F42F01080430010843
:10989000103001081C30010828300108343001085C
:1098A0002C110020403001084C30010828160020FF
:1098B00058300108643001088430010890300108F4
:1098C000A0300108AC300108FD160020B4300108BA
:1098D000C8300108CC300108E03001082413002012
:1098E000F0300108FC30010828130020083101087D
:1098F000DA16002014310108C42F010820140020BA
:109900001C310108481300202431010828310108C6
:10991000383101084831010858310108764B0022DE
:109920001A70764B8022012199503B00744A13CA69
:1099300013C303CA03C33B00724A13CA13C311689B
:10994000196092889A806D4A3B001100180008F057
:109950002FFE3B001800FFF7E1FB03001A003B005D
:109960009A18694B1000190003231A0008F0EEFD45
:10997000664A3B001100180008F01AFE3B00180070
:10998000FFF7CCFB03001A003B009A18604B100055
:10999000190003231A0008F0D9FD5E4B180000F0EF
:1099A000EDFD564B9B6F002B0DD15B4B180000F06B
:1099B000E5FD3B00180000F0E1FD3B00180000F061
:1099C0008BFD00F098FC4C4B16221A7000F093FCB3
:1099D000524B180000F0D2FD514B180000F07CFDF6
:1099E000464B802200219950434B00221A7000F010
:1099F00082FC3B004B4A03CA03C312781A704A4ADE
:109A00003B001100180008F0D3FD3B001800FFF7E1
:109A100085FB03001A003B009A183D4B100019000B
:109A200003231A0008F092FD3B00180000F054FDDB
:109A30003E4B00221A62304B00221A7000F05BFC91
:109A40002E4AAA235B000121D1502C4ABE235B0081
:109A5000D358002B00D099E1284BDB6F002B77D136
:109A6000334B180000F08AFD324A334B10001900C6
:109A700006231A0008F06AFD304A2E4B1100180028
:109A800008F096FD2E4B1868C82439190A230A22BB
:109A900003F0D2FC274B1800FFF740FB03001A002D
:109AA000244BD218274B1000190004231A0008F089
:109AB0004DFD3A191F4B1100180008F079FD224B9B
:109AC000186839190A230A2203F0B6FC194B18004A
:109AD000FFF724FB03001A00164BD2181B4B100093
:109AE000190004231A0008F031FD3A19114B110036
:109AF000180008F05DFD39E0C000002028160020A5
:109B0000683101087C3101089031010846160020B7
:109B1000C42F010894310108A4310108B4310108AF
:109B2000C4310108D4310108241300202C11002075
:109B3000E0310108C8140020F03101084C16002063
:109B4000FC140020F8310108A4180020FC310108A1
:109B5000E94AEA4B1000190006231A0008F0F6FC47
:109B6000E74AE54B1100180008F022FDE54B84227E
:109B70009B58012B24D1E34B842200219950DE4ACB
:109B8000E14B1000190002231A0008F0DFFCDA4B49
:109B90001800FFF7C3FA03001A00D74BD218D74BAF
:109BA0001000190006231A0008F0D0FCD44AD24B4A
:109BB0001100180008F0FCFCCF4B180001F0E2FE89
:109BC000D04B88229B58012B24D1CE4B88220021D8
:109BD0009950C94ACC4B1000190002231A0008F012
:109BE000B5FCC54B1800FFF799FA03001A00C24BE9
:109BF000D218C64B1000190008231A0008F0A6FC62
:109C0000C34ABD4B1100180008F0D2FCBA4B180033
:109C100001F0B8FEBB4B8C229B58012B24D1B94BD1
:109C20008C2200219950B44AB74B1000190002232E
:109C30001A0008F08BFCB04B1800FFF76FFA030016
:109C40001A00AD4BD218B34B100019000A231A00AA
:109C500008F07CFCB04AA84B1100180008F0A8FCE2
:109C6000A54B180001F08EFEA64A8C235B00D3584A
:109C7000012B1FD1A34A8C235B000021D1509E4AA7
:109C8000A14B1000190002231A0008F05FFC9A4B48
:109C90001800FFF743FA03001A00974BD2189F4BA6
:109CA0001000190007231A0008F050FC924B18000E
:109CB00001F068FE934A8A235B00D358012B25D11B
:109CC000904A8A235B000021D1508B4A8E4B1000B2
:109CD000190002231A0008F039FC874B1800FFF71F
:109CE0001DFA03001A00844BD2188D4B1000190086
:109CF00005231A0008F02AFC8A4A7F4B110018003D
:109D000008F056FC7C4B180001F03CFE7D4A8E2387
:109D10005B00D358012B25D17A4A8E235B000021AA
:109D2000D150754A784B1000190002231A0008F030
:109D30000DFC714B1800FFF7F1F903001A006E4B90
:109D4000D218794B1000190006231A0008F0FEFB08
:109D5000764A694B1100180008F02AFC664B18007F
:109D600001F010FE644B1800FFF7D8F903001A0049
:109D7000614BD2186E4B1000190003231A0008F033
:109D8000E5FB5D4B180000F0A7FB46E0694B1B7834
:109D9000052B3BD89A00684BD3181B689F46674B2E
:109DA000180000F0EBFB02F019FD654B00221A6071
:109DB0002CE0644B180000F0E1FB02F057FD25E0B9
:109DC000614A624B1000190006231A0008F0BEFB1E
:109DD0005F4B18685F490A230A2203F02DFB5D4A96
:109DE000594B1100180008F0E3FB574B180002F024
:109DF00077FD574B1B685A1C554B1A6006E0564BB3
:109E0000180000F0BBFB02F0EBFDC046534B1800FE
:109E100000F0B4FB524B01221A60524B00221A7020
:109E200069E2514B180000F0A9FB504B180000F0FC
:109E300053FB4C4B00221A705DE2324B9B6F012B9F
:109E400010D14B4B180000F099FB4A4B180000F062
:109E500043FB2C4AAA235B000021D150414B002236
:109E60001A7048E23F4B14221A7044E2424B180029
:109E700000F032FB3FE2414B180000F02DFB3AE2CC
:109E80003F4B180000F07AFB3E4B180000F024FB1B
:109E900031E23D4B180000F071FB3C4B180000F024
:109EA0001BFB304B23221A7025E2394B180000F0BF
:109EB00065FB384B180000F00FFB2A4B2A221A7062
:109EC000284B00221A7016E2334B180000F056FBA4
:109ED000324B180000F000FB224B2B221A700AE2D2
:109EE0002F4B180000F04AFB2E4B180000F0F4FA3C
:109EF0001C4B27221A70FEE1C81400200032010812
:109F0000BC16002028160020D42F010808320108B2
:109F1000DA16002010320108EE1600201C3201086B
:109F2000243201082C1700202C320108741600205E
:109F300024310108D0000020B84201083432010861
:109F4000F014002044320108101300205832010898
:109F5000F814002020160020603201087032010839
:109F600084010020C00000207832010888320108F6
:109F70008C320108A0320108AC320108B432010869
:109F8000BC320108C8320108D0320108E0320108B1
:109F9000FC32010810330108283301083833010866
:109FA0005033010860330108B04B180000F0E6FAA6
:109FB000AF4B180000F090FAAE4AB2235B000121CB
:109FC000D150AD4B25221A7095E1AC4B180000F032
:109FD000D5FAAB4B180000F07FFAA74B00221A709D
:109FE00089E1A84B180000F0C9FAA74B180000F04F
:109FF00073FAA14B29221A709F4B2A221A707AE118
:10A00000A24B180000F0BAFAA14B180000F064FA55
:10A01000994B00221A706EE19E4B180000F0AEFAC8
:10A020009D4B180000F058FA934B00221A7062E121
:10A030009A4B180000F0A2FA994B180000F04CFA65
:10A040008D4B2D221A708C4B00221A7053E1954BC8
:10A05000180000F093FA944B180000F03DFA864B7C
:10A0600000221A7047E1834AB8235B000021D150D7
:10A070008E4B180000F030FA7F4B00221A703AE144
:10A080008B4B180000F028FA7B4B00221A7032E14B
:10A09000884B180000F020FA774B00221A702AE152
:10A0A000854B180000F018FA734B00221A7022E159
:10A0B000824B180000F062FA3B00814A03CA03C3D6
:10A0C0001188198092789A707E4A3B00110018001E
:10A0D00008F06EFA3B001800FFF720F803001A00A2
:10A0E0003B009A18784B1000190002231A0008F060
:10A0F0002DFA764B1B68180075490A230B2203F0D2
:10A100009BF9734A3B001100180008F051FA3B001C
:10A110001800FFF703F803001A003B009A186D4B74
:10A120001000190003231A0008F010FA3B00180071
:10A1300000F0D2F94F4AB4235B000121D1504E4BBD
:10A1400000221A70D7E03B00634A03CA03C3118898
:10A15000198092789A705B4A3B001100180008F051
:10A1600027FA3B001800FEF7D9FF03001A003B0056
:10A170009A18554B1000190002231A0008F0E6F94E
:10A18000564B1B68180052490A230A2203F054F95F
:10A190004F4A3B001100180008F00AFA3B00180073
:10A1A000FEF7BCFF03001A003B009A18494B100051
:10A1B000190003231A0008F0C9F93B00180000F049
:10A1C0008BF9474B01221A702B4B00221A702A4B35
:10A1D00030221A703D4B1A68404B1B68D2183B4B1B
:10A1E0001A6088E03F4B180000F0C8F93B003E4A77
:10A1F00013CA13C3334A3B001100180008F0D8F902
:10A200003B001800FEF78AFF03001A003B009A1873
:10A21000304B1000190003231A0008F097F93B0097
:10A22000180000F0ABF93B00180000F055F9274B7F
:10A2300000221A600F4ABC235B000021D1500E4B54
:10A2400034221A7057E0294B180000F097F9284B78
:10A25000180000F093F9084B26221A704BE0064BC9
:10A2600000221A7047E0C04645E0C046743301083A
:10A270008033010828160020C0000020A433010804
:10A28000B4330108C4330108D0330108EC330108AA
:10A29000F833010808340108143401083C3401087B
:10A2A0004834010868340108743401088434010812
:10A2B00098340108AC340108CC340108E8340108B2
:10A2C000F434010890180020D42F0108C4000020A5
:10A2D000A81E0020C42F010800350108CC00002072
:10A2E000881800200C3501081C35010828350108A4
:10A2F0003C350108C0466A4B9B6F002B04D1694B6B
:10A300001B685A1C674B1A60674B5B78012B04D1A2
:10A31000664B5B6F5A1C654B5A67644B5B6F1E2B19
:10A320000CDD624B00225A67614B03221A70614BAD
:10A330001C221A70604B180000F020F9594B1B6862
:10A34000132B19DD5D4B5B68012B15D1544AB223E9
:10A350005B00D358002B0FD1524B00221A60584B90
:10A36000180000F00BF9534B0C221A70514B0E22BF
:10A370001A70504B18221A70504BDB69002B0CD10D
:10A380004E4B1B68012B08D1454A9E235B00D358D6
:10A39000591C434A9E235B00D150414A9E235B00D7
:10A3A000D2583F49A0235B00CB589A422DDB414B4A
:10A3B0001B78002B29D1414B9B68002B25D13F4BAB
:10A3C0001B68012B21D1364AB2235B00D358002BE6
:10A3D0001BD1334A9E235B000021D150374BDB69F0
:10A3E000002B03D1334B12221A700EE0334BDB6982
:10A3F000012B03D12F4B15221A7006E02F4B9B69BE
:10A40000012B02D12B4B14221A70254AB0235B007A
:10A41000D3583B2B09DD224AB0235B000021D150E9
:10A42000FEF72CFF234B01221A70264B1A68E123FA
:10A430001B019A4219DB1F4B1B78002B15D1184BBF
:10A440009B6F002B11D11D4B1B68012B0DD11D4B98
:10A4500000221A601C4B1D4A1168196012791A718A
:10A4600001F016F9134B0F221A700D4A9E235B0060
:10A47000D3581D2B06DD114B1B68002B02D1144B4A
:10A480000A221A60134B1B68012B04D1104B1B6866
:10A490005A1C0F4B1A60C046BD4647B090BDC0461F
:10A4A00028160020F4140020141600208812002022
:10A4B000D0000020C0000020443501082C110020ED
:10A4C000503501088C180020201400205835010850
:10A4D0007C0100208001002080B584B000AF78604E
:10A4E0000523FB607B681800FEF718FE0300BB60C5
:10A4F000BB689AB279680A4B180005F05FFC0949FD
:10A50000074B3222180005F0D9FC074B00221A60D5
:10A51000064B01221A60C046BD4604B080BDC0464D
:10A520007C220020B81700207C0100208001002040
:10A5300080B584B000AF786039600523FB603B686C
:10A540009AB27968094B180005F038FC0849074BA6
:10A550003222180005F0B2FC064B00221A60064BAE
:10A5600001221A60C046BD4604B080BD7C22002096
:10A57000B81700207C0100208001002080B584B045
:10A5800000AF78601923FB607B681800FEF7C6FDFA
:10A590000300BB60BB689AB2FB687968034805F0AA
:10A5A00063FBC046BD4604B080BDC046E02100202C
:10A5B00080B500AF80239B00384A1900100003F0DB
:10A5C000E4FD374B1A68374B1B689A4262D0364B12
:10A5D00000221A60334B1A68344B1B683449895C7B
:10A5E000344AD1542F4B1B685A1C2E4B1A602D4BEA
:10A5F0001A6896235B009A4202DD2A4B00221A60F9
:10A600002A4B1B685A1C294B1A60284B1B68642B69
:10A6100002DD264B00221A60244B1B68013B254AB1
:10A62000D35C3E2B0AD1244B9B6F012B03D1234BD0
:10A630001B221A7002E0214B10221A701B4B1B6860
:10A64000013B1C4AD25C1E4B1B781900100001F024
:10A65000F3FC02001B4B1A601A4B1B681B79012B81
:10A6600007D1164B1C221A70164B1B681A7A144B12
:10A670001A700E4B1B68013B0E4AD35C0A2B09D1A2
:10A680000A4B1B680B4A0021D154084B00221A6068
:10A6900000F01AF8C046BD4680BDC0460004004820
:10A6A000680100206C010020800100207001002062
:10A6B0005C1100201815002028160020C000002082
:10A6C000D0000020B417002090B585B002AFDC4A5E
:10A6D000DC4B1000190005231A0007F037FFDA4A97
:10A6E000D74B1100180007F063FFD54B1800FFF798
:10A6F00045FFD54B1B78022B03D1D44B1800FFF735
:10A700003DFFFB1D00221A70D14B1B69012B11D19B
:10A71000CF4B00221A61CE4B01221A62CA4ACD4B9E
:10A720001100180007F051FFCB4B1800FFF726FF70
:10A7300000F0DAFBC94AA8235B00D358012B19DDCE
:10A74000C74B1800FFF71AFFBF4B1800FEF7E6FCD7
:10A7500003003B603B68082B01DD00F05DFDBF4A54
:10A76000A8235B00D358591EBC4AA8235B00D150D4
:10A7700000F0BAFBB94AB8235B00D358012B00D0D4
:10A7800081E0B84B1B781800AD490A230A2202F079
:10A7900053FEB54B1800FFF7F1FEA94B1800FFF769
:10A7A000EDFEB24B1800FFF7E9FEAE4B5B781800E8
:10A7B000A3490A230A2202F03FFEAD4B1800FFF71F
:10A7C000DDFE9F4B1800FFF7D9FEA84B1800FFF7DE
:10A7D000D5FE31E0A14ABA235B00D058A54B1A68D8
:10A7E000A04B190002F0A4FC9C4ABA235B00D0588D
:10A7F000A04B1A68924B190002F0F0FC9D4B1B68AD
:10A80000984A0021D1549B4B1B688D4A0021D1549A
:10A810008B4A944B11001800FEF776FC0100FB1DDB
:10A82000FA1D12781A70002906D1934B1800FFF711
:10A83000A5FEFB1D01221A70FB1D1B78002BC9D041
:10A84000FB1D00221A70854ABA235B00D3581A00F8
:10A85000884B1B68D3181900804ABA235B00D1507B
:10A860007E4ABC235B00D3581A00824B1B68D31866
:10A8700019007A4ABC235B00D150784AB8235B00A8
:10A880000021D15030E3754AB8235B00D358022B26
:10A8900039D16D4B1B783A2B35D1784B1800FFF727
:10A8A0006DFE694B1800FEF739FC03001A00664B79
:10A8B000D2186E4B1000190003231A0007F046FE51
:10A8C000664ABA235B00D4585F4B1800FEF726FC9B
:10A8D00002005D4B1900200002F02AFC5F4ABA23F7
:10A8E0005B00D3581C00584B1800FEF717FC030000
:10A8F000E3181900594ABA235B00D150604B00227B
:10A900001A60C046F0E25F494F4B0722180007F07B
:10A9100064FE031E05D1514AA8235B000521D150D6
:10A92000E2E24E4AAC235B00D358012B02D101F086
:10A930004BF8D9E2494AAC235B00D358012B09DD1F
:10A94000464AAC235B00D358591E444AAC235B00F3
:10A95000D150C9E24C493C4B0A22180007F03DFE99
:10A96000031E03D1494B06221A70BDE24849364BFB
:10A970000822180007F031FE031E03D1434B0622C4
:10A980001A70B1E24349304B0922180007F025FE46
:10A99000031E04D1404B1800FFF7F0FDA4E23F492D
:10A9A000294B0422180007F018FE031E02D100F004
:10A9B0007BFC99E23A49244B0622180007F00DFE71
:10A9C000031E03D1224B00229A608DE235491E4BB3
:10A9D0000622180007F001FE031E02D100F052FC0F
:10A9E00082E2314A184B11001800FEF78DFB031E5E
:10A9F00002D100F061FF77E22C49134B08221800C6
:10AA000007F0EBFD031E02D100F0E2FE6CE22849E4
:10AA10000D4B0622180007F0E0FD031E00D0B2E047
:10AA2000094B1800FEF77AFB0300062B42D80B4BAC
:10AA3000802200219950094B01229A6754E2C046B6
:10AA4000241E0020E035010818150020E835010813
:10AA50002C1100204813002004360108281600207D
:10AA600018360108EC17002024360108C42F01080D
:10AA70003436010884180020443601085436010891
:10AA8000C8000020643601086C360108C0000020B0
:10AA9000783601088436010890360108A43601088A
:10AAA000AC360108B4360108BC360108C0360108CE
:10AAB000CC360108CE4B1B78012B3FD1CD4B002269
:10AAC0001A60CD4B00221A70CC49CD480123009367
:10AAD00020230A2202F01BFCC84B180007F006FDD9
:10AAE00003001A00C74B1A60C74AB8235B00012154
:10AAF000D15000F00BFAC54B1A68C24B1B689A4242
:10AB00002FD9C34BC3480222190002F011FBC24BDC
:10AB10001800FFF733FDBC4AB6235B000021D1507B
:10AB2000B34B00221A70BD4B33221A70B64ABA23B7
:10AB30005B00FA218900D150FEF78EFBB24B8022D8
:10AB400000219950B04B01229A67B44B1C221A7015
:10AB5000B34B1800FFF712FDAB4AB8235B0002218C
:10AB6000D150A94ABE235B00D358012B00D0BBE1D2
:10AB7000AC4B1800FFF702FDA84B1C221A70AA4B21
:10AB800001221A70B0E1A9499D4B0F22180007F06D
:10AB900024FD031E06D1A14B16221A709A4B0022E7
:10ABA0009A67A1E1A24A964B11001800FEF7ACFA91
:10ABB000031E03D1994B14221A7095E19D4A904BC4
:10ABC00011001800FEF7A0FA031E0ED18E4B802252
:10ABD000002199508C4B01229A67904B1C221A70CD
:10ABE000954B1800FFF7CAFC7EE19449844B07227D
:10ABF000180007F0F2FC031E0DD1834AC0235B004E
:10AC00000121D1508E4BDB78012B00D06CE18C4BB5
:10AC10000222DA7068E18B49794B0622180007F0AE
:10AC2000DCFC031E17D1784B00229A67864B00226A
:10AC30001A60864B1800FFF7A1FC80235B00844854
:10AC40000122190003F084FA744B14221A70734B1A
:10AC500000221A7048E17F49694B0822180007F06A
:10AC6000BCFC031E10D1684B00229A67764B002271
:10AC70001A60794B1800FFF781FC684B14221A7098
:10AC8000664B00221A702FE174495D4B0A221800AE
:10AC900007F0A3FC031E02D100F0F8F924E170498B
:10ACA000574B0A22180007F098FC031E02D100F04F
:10ACB0002DFA19E16B49524B0922180007F08DFC5F
:10ACC000031E03D1554B2A221A700DE166494C4BE5
:10ACD0000822180007F081FC031E03D14F4B2D22E0
:10ACE0001A7001E16149464B0622180007F075FC15
:10ACF000031E03D1494B2E221A70F5E05C49404BEC
:10AD00000622180007F069FC031E02D100F048F982
:10AD1000EAE058493A4B0722180007F05EFC031E90
:10AD200002D100F085F9DFE05349354B06221800C7
:10AD300007F053FC031E03D1384B26221A70D3E0D0
:10AD40004E492F4B0922180007F047FC031E03D180
:10AD5000324B26221A70C7E04949294B0A221800B3
:10AD600007F03BFC031E08D1274AB2235B000021F9
:10AD7000D1502A4B14221A70B6E04049204B0922C8
:10AD8000180007F02AFC031E03D1244B27221A7057
:10AD9000AAE03C491A4B0922180007F01EFC031ECA
:10ADA00003D11E4B14221A709EE03749144B08221F
:10ADB000180007F012FC031E03D1184B14221A705E
:10ADC00092E032490E4B0522180007F006FC031EE4
:10ADD00002D100F041FD87E02D49094B10221800F7
:10ADE00007F0FBFB031E55D1FEF748FA7CE0C04696
:10ADF00088180020C8000020A8180020241E002069
:10AE0000181500208418002028160020CC000020EF
:10AE1000D4360108E4ED0000D8360108C000002057
:10AE2000EC360108FC360108D0000020103701087C
:10AE300020370108303701083C370108483701083E
:10AE40001416002050370108F41400205837010868
:10AE50000004004868370108743701088C3701087E
:10AE600098370108A4370108B0370108BC3701083A
:10AE7000C4370108CC370108D4370108DC37010892
:10AE8000E8370108F4370108003801080C380108D8
:10AE9000143801081649174B0522180007F09DFBCE
:10AEA000031E17D1144B00221A80144B00225A6043
:10AEB000124B0022DA61124A9C235B00D358012B0B
:10AEC00012D10F4A9C235B000021D1500D4B002270
:10AED0001A7009E00A4AAC235B00D358012B03D156
:10AEE000094B1800FFF74AFBC046BD4603B090BDB2
:10AEF0002838010818150020640100202C110020BA
:10AF000028160020C00000207437010880B500AF6B
:10AF10002AE01B4B1A681B4B1B689A4224D01A4B21
:10AF200000221A60174B1A68184B1B681849895C75
:10AF3000184AD154134B1B685A1C124B1A60164BFB
:10AF40001B78012B04D1114B1B685A1C0F4B1A6044
:10AF50000C4B1A6896235B009A4202DD094B0022D3
:10AF60001A600D4B01221A70084B1B681A000B4B1C
:10AF70001B689A42CDD3C046C046BD4680BDC04680
:10AF8000680100206C01002080010020C800002022
:10AF90005C110020EC170020A8180020CC00002035
:10AFA00080B582B002AF1A4B32221A7019491A4882
:10AFB000012300932C230A2202F0A9F9154B180053
:10AFC000FEF7ACF803005A1C124B1448190002F0AB
:10AFD000AFF8104B180007F089FA03001A00104B65
:10AFE0001A600F4B1B6818000E490A230A2202F050
:10AFF00023FA0D4B1800FFF7C1FA0A4B1800FFF7B0
:10B00000BDFA0A4B1800FFF7B9FAC046BD4680BD2D
:10B01000C0000020241E002018150020EEED0000C6
:10B0200000150020A81E002040380108C42F010888
:10B0300080B582B002AF0F490F480123009320234F
:10B040001E2202F064F90B4B1800FFF797FA0B4B26
:10B050001800FFF793FA0A4B30221A70094B0122AD
:10B060001A70094AB6235B000121D150C046BD4683
:10B0700080BDC04690180020181500204C380108EB
:10B08000C0000020881800202816002080B588B055
:10B0900002AF39001748012300933A231E2202F021
:10B0A00036F9154B1800FFF769FA3B001800FFF757
:10B0B00065FA124B1800FFF761FA3B001800FEF723
:10B0C0002DF803007B617B69012B07DC0C4B18001A
:10B0D000FFF754FA0B4B2C221A7006E00A4B1800AB
:10B0E000FFF74CFA074B26221A70C046BD4606B041
:10B0F00080BDC0461815002058380108C42F01082B
:10B1000068380108C00000207838010880B588B090
:10B1100002AF124B1800FFF731FA39001048012333
:10B12000009320231E2202F0F2F83B001800FFF7E4
:10B1300025FA0C4B1800FFF721FA3B001800FDF729
:10B14000EDFF03007B617B69062B02D1064B2C22AD
:10B150001A70C046BD4606B080BDC0468C38010896
:10B1600018150020C42F0108C000002080B582B04F
:10B1700000AF78603960214B1B68002B35D01F4B26
:10B180005B68002B33D01E4A80235B00D358012B11
:10B190002FD01C4B1800FFF7F1F91B4A1B4B100076
:10B1A00019000A231A0007F0D1F97A68164B11002A
:10B1B000180007F0FDF9144B1800FDF7AFFF03006E
:10B1C0001A00114BD218124B1000190004231A0058
:10B1D00007F0BCF90C4B1800FFF77EF93A680D4BED
:10B1E0001100180007F0F1F904E0C04602E0C04683
:10B1F00000E0C046BD4602B080BDC0462C11002014
:10B2000028160020FC300108241E0020A038010868
:10B21000AC3801084813002080B500AF124A134B28
:10B220001100180007F0D1F91149104B072218003E
:10B2300007F0D3F9031E02D10E4B08221A700E4BF1
:10B240001800FFF79BF9094B1800FFF797F90B4B14
:10B250001800FFF793F90A4AA8235B000021D15098
:10B26000C046BD4680BDC046181500204C160020C3
:10B2700064360108C0000020B0380108C42F01085E
:10B280002816002080B582B002AF05490548012389
:10B29000009320231E2202F03AF8C046BD4680BD2E
:10B2A000741600201815002080B584B002AF0F4935
:10B2B0000F48012300932023032202F028F80B4BB0
:10B2C000180007F013F903007B607B685B007B606C
:10B2D0007B687122D31A3B603A680649034B180019
:10B2E00007F046F9C046BD4602B080BD04150020F7
:10B2F00018150020B838010890B589B000AF2B4B65
:10B300002B4A13CA13C31168196012791A71294A9A
:10B3100029493B00180007F02BF93A00234B110094
:10B32000180007F045F9254A25493B00180007F0A9
:10B330001FF93A001D4B1100180007F039F91B4B9B
:10B340001800FDF7EBFE03001A00184BD2181D4B36
:10B350001000190006231A0007F0F8F81A4A134BD8
:10B360001100180007F024F9104B1800FDF7D6FE65
:10B3700003001A000D4BD218144B100019000223C1
:10B380001A0007F0E3F8124A084B1100180007F002
:10B390000FF9064A0F4B1100180007F016F90E4B73
:10B3A00001225A62C046BD4609B090BD4813002034
:10B3B00048390108BC1600205C390108DA16002063
:10B3C000683901087439010828160020743501080D
:10B3D00046160020201400202C11002080B500AF5C
:10B3E000114B1800FFF7CAF8104B1800FDF796FE36
:10B3F0000300012B01D8002312E00C490C4B102252
:10B40000180007F0EAF8031E05D10A4B1800FFF7F1
:10B41000B5F8012304E0084B1800FFF7AFF800234C
:10B420001800BD4680BDC0467C390108DA160020F0
:10B43000281300208C3901089C39010890B58FB081
:10B4400000AF794B1800FFF799F8784B784A13CA88
:10B4500013C33A1D774910243B19180007F088F8E8
:10B460003A19724B1100180007F0AFF8724A73498D
:10B470003B19180007F07CF83A196C4B11001800C2
:10B4800007F096F86E4A98235B00D358012B0ED133
:10B49000664B1800FDF742FE03001A00634BD218FA
:10B4A000684B1000190015231A0007F04FF8644A82
:10B4B00094235B00D358012B0FD15C4B1800FDF790
:10B4C0002DFE03001A00594BD2185F4B10001900D3
:10B4D0000D231A0007F03AF80EE0544B1800FDF760
:10B4E0001DFE03001A00514BD218584B10001900D2
:10B4F0000E231A0007F02AF8514A90235B00D35814
:10B50000012B0FD1494B1800FDF708FE03001A006C
:10B51000464BD2184E4B1000190010231A0007F0AA
:10B5200015F80EE0414B1800FDF7F8FD03001A0076
:10B530003E4BD218474B1000190014231A0007F095
:10B5400005F8454A454910243B19180007F010F842
:10B550003A19364B1100180007F02AF8404A4149C1
:10B560003B19180007F004F83A19304B1100180085
:10B5700007F01EF83C4A3D493B19180006F0F8FF59
:10B580003A192A4B1100180007F012F8384B202204
:10B590001A70374A37493B19180006F0E9FF3A1983
:10B5A000224B1100180007F003F8204B1800FDF79C
:10B5B000B5FD03001A001D4BD2182F4B10001900C7
:10B5C00006231A0006F0C2FF1D4A184B110018008E
:10B5D00006F0EEFF154B1800FDF7A0FD03001A0062
:10B5E000124BD218254B1000190002231A0006F046
:10B5F000ADFF234A0D4B1100180006F0D9FF0B4A8E
:10B60000204B1100180006F0E0FF1E4B1800FEF75B
:10B61000B5FF1D4B1800FEF7B1FF1C4B01225A620B
:10B62000C046BD460FB090BDF83901084813002050
:10B630000C3A0108183A01082C170020203A01089A
:10B6400028160020303A0108483A0108583A010803
:10B65000683A0108783A0108161700208C3A010868
:10B66000BC1600205C390108DA1600206839010890
:10B67000041500209C3A010874390108743501084A
:10B680004616002020140020C42F01082C11002091
:10B6900080B586B000AF454B1868391D0A230A22D1
:10B6A00001F0CAFE424B434A03CA03C31188198002
:10B6B00092789A703E4B1800FDF730FD03001A0097
:10B6C0003B4BD2183C4B1000190007231A0006F020
:10B6D0003DFF3A4A364B1100180006F069FF344B23
:10B6E0001800FDF71BFD03001A00314BD218344B34
:10B6F0001000190002231A0006F028FF2C4B180036
:10B70000FDF70CFD03001A00294BD2182D4B100039
:10B71000190009231A0006F019FF3A1D244B1100E5
:10B72000180006F045FF224B1800FDF7F7FC030058
:10B730001A001F4BD218224B1000190002231A00C6
:10B7400006F004FF204B1868391D0A230A2201F075
:10B7500073FE174B1800FDF7E1FC03001A00144BB1
:10B76000D2181A4B1000190009231A0006F0EEFE39
:10B770003A1D0F4B1100180006F01AFF0C4B180071
:10B78000FDF7CCFC03001A00094BD2180C4B10003B
:10B79000190002231A0006F0D9FE054B1800FEF727
:10B7A000EDFEC046BD4606B080BDC046FC1400207C
:10B7B00020140020A83A0108B43A01084C160020D1
:10B7C000BC3A0108C03A0108A4180020CC3A01088C
:10B7D00080B582B002AF1949194801230093222392
:10B7E0000F2201F094FD154B1800FDF797FC0300A4
:10B7F000032B15D9134B0122DA61124B00229A61F7
:10B80000114B15221A70114B1800FEF7B7FE0B4BA7
:10B810001800FEF7B3FE0E4B1800FEF7AFFE0AE06D
:10B82000084B0022DA610B4B90229B58012B02D16E
:10B83000054B0F221A70C046BD4680BDFC13002088
:10B84000181500202C110020C0000020D83A010853
:10B85000C42F01082816002080B586B002AF124B15
:10B860005B6A012B1BD039001048002300932C2366
:10B870000A2201F04CFD0E493800012300932023D9
:10B88000032201F044FD0B490848032300932223BF
:10B89000142201F03CFD044B01221A6100E0C04675
:10B8A000BD4604B080BDC0462C11002018150020F4
:10B8B000241300202813002080B500AF2B4B00225A
:10B8C0001A602B4B00221A602A4B5B6A012B0AD1AB
:10B8D000284B5B68012B06D1264BDB69002B02D17C
:10B8E000254B0F221A70244B1B780A2B02D1214BB7
:10B8F00001225A611F4B1B6A012B02D11E4B1722DA
:10B900001A701D4B1B781F2B02D11B4B04221A707F
:10B91000194B1B781D2B02D1174B1E221A70174A88
:10B92000B4235B00D358012B0DD1144AB6235B001E
:10B93000D358012B07D1114AB4235B000021D15009
:10B940000D4B31221A700E4B1B78012B0BD10B4A79
:10B95000B6235B00D358012B05D1094B00221A7086
:10B96000054B30221A70C046BD4680BD74010020D0
:10B97000F41400202C110020C00000202816002004
:10B980008818002080B584B000AF78607B6818000C
:10B99000FDF7C4FB0300FB607B681800FEF7EEFDBB
:10B9A000074B1800FEF7EAFD7B681800FEF794FDD0
:10B9B000044B00221A70C046BD4604B080BDC0468C
:10B9C000DC3A010808130020B0B5F8B002AFD84B3C
:10B9D0001800FEF7D3FDD74B1800FEF7CFFDD64B6E
:10B9E0001800FEF7CBFD0023EA2464003A19136027
:10B9F0000023E8225200BA1813600023E622520006
:10BA0000BA181360CB4A2C257B191100180006F0D8
:10BA1000DCFD3B191B68DBB28C225200B918781987
:10BA200000933B23A02201F072FC6FE28C2464009F
:10BA30003B191800FEF7A2FDBF4B1800FEF79EFD54
:10BA4000BE493B190422180006F0C7FD031E2BD186
:10BA5000E42579193819012300933A23282201F0AB
:10BA600056FCB7497819002300932C231E2201F0BD
:10BA70004EFCB4497819012300932C231E2201F0B7
:10BA800046FCAF4B1800FEF779FDAF4B1800FEF7F0
:10BA900075FDAC4B1800FEF771FDA74B1800FEF7C3
:10BAA0006DFDAA4B0122DA67A9498C235B00FB18C4
:10BAB0000522180006F091FD031E1BD1242439191C
:10BAC0002C23F818012300933A23042201F01FFCD1
:10BAD000A0493B190222180006F07FFD9E493B1940
:10BAE0000322180006F079FD031E03D19B4B1800BA
:10BAF000FEF744FD9A498C2464003B190422180087
:10BB000006F06BFD031E30D1964B1800FEF736FD94
:10BB1000E42579193819012300933A23282201F0EA
:10BB2000F6FB91497B190522180006F056FD031E0D
:10BB300004D1864A94235B000021D1508B49E42331
:10BB4000FB180522180006F048FD031E04D17F4AA9
:10BB500094235B000121D150E423FB181800FEF769
:10BB60000DFD754B1800FEF709FD81498C2464001A
:10BB70003B190422180006F030FD031E22D1391DA6
:10BB80003819012300933A23282201F0C0FB391D04
:10BB9000784B1922180006F020FD031E09D1764BC0
:10BBA0001800FEF7EBFC694A98235B000021D15096
:10BBB00008E0724B1800FEF7E1FC644A98235B0032
:10BBC0000121D1506E498C2464003B1906221800D3
:10BBD00006F003FD6B493B190422180006F0FDFC3A
:10BBE000031E2ED1594A8A235B00D358002B20D143
:10BBF000654B1800FEF7C2FC644938190123009315
:10BC00003A23052201F083FB604B0A21180001F062
:10BC10000BFD01004D4A88235B00D1504B4A88231D
:10BC20005B00D35864225A431100484A88235B00C2
:10BC3000D150564B1800FEF7A1FC3F4B1800FEF701
:10BC40009DFC534A534B11001800FDF75DFA031E8B
:10BC50001CD14E494F48012300933A23042201F09E
:10BC600056FB4A4B0A21180001F0DEFC0100374A5E
:10BC700088235B00D150354A88235B00D358642267
:10BC80005A431100314A88235B00D15034498C2437
:10BC900064003B190422180006F09FFC38493B1948
:10BCA0000522180006F099FC031E21D1E42579191C
:10BCB0003819012300933A23042201F028FB7B1951
:10BCC0001A78354B1B78D31A09D1344B1800FEF77C
:10BCD00055FC1E4A90235B000121D15008E01B4A0D
:10BCE00090235B000021D1502D4B1800FEF746FC3D
:10BCF0002C498C2464003B190322180006F06DFCCB
:10BD0000031E57D1E42579193819012300933A23EA
:10BD1000042201F0FCFA7B191A781F4B1B78D31A06
:10BD200044D1214B1800FEF729FCFFF787FB41E0C7
:10BD3000083B010818150020C42F0108143B010816
:10BD4000BC160020DA160020B035010828160020A5
:10BD50001C3B0108E8380108EC380108243B0108C5
:10BD60002C3B0108343B0108443B01084C3B0108D3
:10BD7000543B0108741600205C3B0108683B010835
:10BD8000783B0108803B0108883B01082C17002004
:10BD9000983B010848130020E83A01089C3B010841
:10BDA000AC3B0108C03B0108C43B01086A4B1800CA
:10BDB000FEF7E4FB69498C2464003B190422180057
:10BDC00006F00BFC031E17D1E4257919381901235D
:10BDD00000933A23042201F09AFA7B191A78604BF7
:10BDE0001B78D31A04D15F4B1800FEF7C7FB03E0A2
:10BDF0005D4B1800FEF7C2FB5C498C2464003B19C4
:10BE00000722180006F0E9FB031E21D1E425791969
:10BE10003819012300933A23042201F078FA7B19A0
:10BE20001A784F4B1B78D31A09D1514B1800FEF7E3
:10BE3000A5FB504A96235B000121D15008E04E4BF0
:10BE40001800FEF79BFB4B4A96235B000021D15064
:10BE50004A498C235B00FB180522180006F0BDFB45
:10BE6000031E09D1464B1800FEF788FBFFF744FA82
:10BE7000444B1800FEF782FB43498C2464003B19B5
:10BE80000322180006F0A9FB031E1ED13F493819F2
:10BE9000012300933A23142201F039FA3B4B0A2183
:10BEA000180001F0C1FB0100324AA0235B00D15011
:10BEB000304AA0235B00D25813001B019B1A9B0041
:10BEC00019002C4AA0235B00D15031498C235B0020
:10BED000FB180722180006F080FB031E02D1254B39
:10BEE0000022DA67EA225200BB181B680133B91836
:10BEF0000B60BB181B68DBB28C225200B9182C22D5
:10BF0000B81800933B23A02201F001FA8C235B00B8
:10BF1000FB181800FDF702F90300012B00D985E595
:10BF2000144A92235B000021D1501A4BEC2252009C
:10BF30009446BC44634400221A70174B16221A70B0
:10BF40000C4AAC235B000021D150134B00221A7025
:10BF5000C046BD4676B0B0BDD43B0108C43501082B
:10BF6000E83A01089C3B0108AC3B0108E83B0108AA
:10BF7000F03B010828160020043C01081C3C010885
:10BF8000243C0108403C0108603C01086C1700207B
:10BF9000643C010854FEFFFFC000002080B582B061
:10BFA00000AF0200FB1D1A701D4AB0235B00002188
:10BFB000D1501C4B1B683B2B11DC1A4B1B681A4AD7
:10BFC000F91D0978D154174B1B685A1C154B1A6080
:10BFD00080235B00154A1900100002F0D6F8FB1D03
:10BFE0001B783E2B04D10E4AAE235B000121D150B9
:10BFF0000F4B1B680F4AF91D0978D1540C4B1B6875
:10C000005A1C0B4B1A600A4B1A6896235B009A4223
:10C0100002DD074B00221A60C046BD4602B080BD5B
:10C0200028160020C8000020EC170020000400485B
:10C03000680100205C11002080B588B000AF0200CC
:10C040003960FB1D1A700023FB613B68FB61624B8A
:10C0500000221A71FB1D1B78022B09D15F4B1800BF
:10C06000FEF78CFA5C4B01221A705D4B00225A607D
:10C07000FB1D1B78902B14D15A4B1800FEF77EFA4B
:10C08000574B00225A60544B01221A70524B012226
:10C090005A70554B03221A704F4B03221A72032316
:10C0A000FB61FB1D1B78312B10D14B4B5B78012BB7
:10C0B0000CD1494BDB79002B08D1474B01221A7078
:10C0C000474B00225A60444B0122DA71FB1D1B785A
:10C0D000302B10D1404B5B78012B0CD13E4BDB79E0
:10C0E000002B08D13C4B01221A703D4B00225A60B4
:10C0F000394B0122DA71384B1B78012B67D1384B51
:10C100005B68374AD318FA1D12781A76344B5B688D
:10C11000334AD3181B7E022B12D12F4BDB78022B14
:10C120000ED1324B1800FEF729FA2F4B02221A705B
:10C13000294B02221A72284B0322DA700223FB6178
:10C14000274B5B68012B06D1254B5B68244AD3182B
:10C150001A7E234B1A70224B5B68042B0DD1204BA7
:10C160005B7E1E2B03D81E4BDB7E1E2B05D91A4B84
:10C1700000221A701A4B00225A60194B5B68184A49
:10C18000127893421EDD164B1B7E022B08D1144BF6
:10C190001B78002B04D10223FB610F4B01221A7183
:10C1A0000F4B00225A600C4B0022DA710A4B5B786D
:10C1B000012B07D10A4B1B78032B03D90C4B18001A
:10C1C00000F018F8064B5B685A1C054B5A60024B8E
:10C1D0001800BD4608B080BD141600206C3C010854
:10C1E00088120020783C0108A9180020903C010822
:10C1F000A03C0108B0B59CB002AF7860044B1800B9
:10C20000FEF7BCF904233B6600237B662DE0C046A5
:10C21000A43C01084C243919786E0A230A2201F043
:10C220000BF9EC4B5B68EB4AD3181B7E18002C25EE
:10C2300079190A230A2201F0FFF83B191800FEF7CA
:10C240009DF9E54B1800FEF799F97B191800FEF7E8
:10C2500095F9E24B1800FEF791F9DE4B5B685A1C2A
:10C26000DC4B5A607B6E01337B66DA4B1B781A001D
:10C270007B6E9342CEDBD74B1B78FB653B6EDAB20D
:10C28000FB6DDBB22C243919D54800F0F9FBD54BF6
:10C290001800FEF773F93B191800FEF76FF9D24B3F
:10C2A0001800FEF76BF9CB4B5B7E1A00C94BDA60C6
:10C2B000C84BD8680C2439190A230A2201F0BCF8AB
:10C2C000CA4B1800FEF75AF93B191800FEF756F949
:10C2D000C54B1800FEF752F9BE4BDB7E1A00BD4B72
:10C2E0001A61BC4B186939190A230A2201F0A4F813
:10C2F000BF4B1800FEF742F93B191800FEF73EF954
:10C30000B94B1800FEF73AF9B24BDA68B14B1B692A
:10C31000D31A981E39190A230A2201F08DF8B54B59
:10C320001800FEF72BF93B191800FEF727F9AE4B62
:10C330001800FEF723F9A74B00221A76A54B4A22D4
:10C3400000219954A34B5E2200219954AA4B5B789B
:10C35000012B00D026E29F4B1B69022B00DC21E25F
:10C360009C4BDB68DBB20133DBB239199C480422F9
:10C3700000F086FB974B1B69DBB20333DBB29F49AE
:10C380009748042200F07CFB924B1B69DBB204331C
:10C39000DAB2904BDB68DBB20133DBB298499048EC
:10C3A00000F06EFB3B191800FEF7E8F8954B1800FB
:10C3B000FEF7E4F8914B1800FEF7E0F8914B1800F7
:10C3C000FEF7DCF88E4B1800FEF7D8F8864B180005
:10C3D000FEF7D4F88C498A4B0322180006F0FDF8CA
:10C3E000031E03D1894B1800FEF7C8F88849844B17
:10C3F0000322180006F0F1F8764BDA68754B1B69DA
:10C40000D31A023BBB6583497D4B0222180006F01C
:10C41000E4F8031E3AD1BA6D79490C257B1918004E
:10C4200006F0ECF82C2439197819012300932C23F9
:10C430000A2200F06CFF3B191800FEF79FF86A4BC8
:10C440001800FEF79BF874493B190222180006F009
:10C45000C4F8031E08D100F0E7FA80239B006F4860
:10C460000022190001F074FE6D492C23FB180322F1
:10C47000180006F0B2F8031E08D100F0EBFA802392
:10C480009B0068480122190001F062FE66495C4B7E
:10C490000222180006F0A1F8031E36D1BA6D5849E1
:10C4A0000C257B19180006F0A9F82C2439197819E5
:10C4B000012300932C230A2200F029FF3B191800C6
:10C4C000FEF75CF8484B1800FEF758F852493B1944
:10C4D0000222180006F081F8031E06D18023DB013A
:10C4E0004E480022190001F033FE4D492C23FB1861
:10C4F0000322180006F071F8031E06D18023DB0129
:10C5000046480122190001F023FE48493C4B022213
:10C51000180006F062F8031E36D1BA6D38490C25B2
:10C520007B19180006F06AF82C24391978190123B0
:10C5300000932C230A2200F0EAFE3B191800FEF7B4
:10C540001DF8294B1800FEF719F833493B19022250
:10C55000180006F042F8031E06D180239B012F48E5
:10C560000022190001F0F4FD2D492C23FB180322B1
:10C57000180006F032F8031E06D180239B012748DD
:10C580000122190001F0E4FD29491D4B0222180087
:10C5900006F023F8031E6AD1BA6D19490C257B19E0
:10C5A000180006F02BF82C24391978190123009370
:10C5B0002C230A2200F0ABFE3B191800FDF7DEFF2A
:10C5C000094B1800FDF7DAFF13493B190222180046
:10C5D00030E0C04688120020B83C0108BC3C01088D
:10C5E000A0120020C03C0108CC3C0108D03C01084E
:10C5F000E03C0108EC3C010814160020D212002097
:10C60000E6120020F83C0108FC3C0108003D01084E
:10C610000C3D0108143D0108183D010800080048C0
:10C620001C3D010800040048203D0108243D01088C
:10C63000283D010805F0D1FF031E07D18023D90151
:10C640009023DB050022180001F082FD59492C23BC
:10C65000FB180322180005F0C0FF031E07D180233A
:10C66000D9019023DB050122180001F071FD524928
:10C67000524B0222180005F0B0FF031E38D1BA6DEC
:10C680004E490C257B19180005F0B8FF2C243919E8
:10C690007819012300932C230A2200F038FE3B195D
:10C6A0001800FDF76BFF464B1800FDF767FF454983
:10C6B0003B190222180005F090FF031E07D18023CA
:10C6C00019019023DB050022180001F041FD3949D2
:10C6D0002C23FB180322180005F07FFF031E07D14F
:10C6E000802319019023DB050122180001F030FDA1
:10C6F0003549324B0222180005F06FFF031E36D178
:10C70000BA6D2E490C257B19180005F077FF2C24F3
:10C7100039197819012300932C230A2200F0F7FD20
:10C720003B191800FDF72AFF254B1800FDF726FFDF
:10C7300024493B190222180005F04FFF031E06D1C1
:10C7400080235B0121480022190001F001FD1949F5
:10C750002C23FB180322180005F03FFF031E06D10F
:10C7600080235B0119480122190001F0F1FC1849EE
:10C77000124B0322180005F030FF031E06D1802360
:10C780005B0012480022190001F0E2FC11490B4B3A
:10C790000322180005F021FF0E49084B0322180060
:10C7A00005F01BFF0C4B00221A70C046BD461AB0A4
:10C7B000B0BDC0461C3D01082C3D0108E61200201A
:10C7C000CC3C0108183D0108303D01080004004838
:10C7D000343D0108FC3C01081416002080B500AF70
:10C7E000204B10221A701F4B0E225A701D4B002234
:10C7F0009A701C4B0422DA701A4B4D221A71194B95
:10C8000051225A71174B54229A71164B5422DA71E5
:10C81000144B04221A72134B02225A72114B0A2231
:10C820009A72104B7822DA720E4B00221A730D4B5B
:10C8300002225A730B4B50229A730A4B3322DA733B
:10C84000084B1A221A74074B0D225A74054B1221F9
:10C850001800FDF76DFE044B0122DA70C046BD469C
:10C8600080BDC046C81400201416002080B500AF5B
:10C870001A4B82221A70194B0A225A70174B002247
:10C880009A70164B0022DA70144B00221A71134B67
:10C8900005225A71114B68229A71104B6F22DA717E
:10C8A0000E4B75221A720D4B73225A720B4B652276
:10C8B0009A720A4B0022DA72084B00221A73074B55
:10C8C0001A225A73054B0D229A73044B0F2118003C
:10C8D000FDF72EFEC046BD4680BDC046C8140020F0
:10C8E00090B589B000AF7860384B30221A70374B62
:10C8F0000A225A70354B00229A70344B0522DA70A6
:10C90000324B68221A71314B6F225A712F4B7522AC
:10C910009A712E4B7322DA712C4B65221A722B4BB3
:10C920006F225A72294B66229A72284B6622DA725B
:10C930000923FB610BE07B685A1C7A601978234A53
:10C94000FB69D3180A1C1A70FB690133FB617B6811
:10C950001B78002BEFD108243919F8690A230A2221
:10C9600000F06AFD1A4B1800FDF708FE3B1918008D
:10C97000FDF704FE174B1800FDF700FE134AFB6994
:10C98000D3181A221A70FB690133FB610F4AFB6945
:10C99000D3180D221A70FB690133FB610E4BFA6943
:10C9A0009A60FB69DBB2043BDAB2084B5A70FA6951
:10C9B000064B11001800FDF7BBFD084B1800FDF7F2
:10C9C000DDFDC046BD4609B090BDC046C81400207C
:10C9D0003C3D0108CC3C0108881200204C3D010878
:10C9E00080B500AF0D4B1800FDF7C8FD0C4BC02201
:10C9F0001A700B4B00225A700A4B02229A60084BA5
:10CA00001A229A70064B0D22DA70054B0421180089
:10CA1000FDF78EFDC046BD4680BDC0465C3D0108A9
:10CA2000C81400208812002080B500AF084B0122F6
:10CA30002021180001F08CFB322001F091F8044B0A
:10CA400000222021180001F083FBC046BD4680BDB6
:10CA50000004004880B500AF084B012210211800E7
:10CA600001F076FB322001F07BF8044B002210210C
:10CA7000180001F06DFBC046BD4680BD00040048B3
:10CA800080B588B000AFF860B9601900FB1D1A705E
:10CA9000BB1D0A1C1A7001235B42BB61FA1DBB1D42
:10CAA00012781B789A4206D9234B1800FDF766FDD1
:10CAB00001235B423BE0BA1DFB1D12781B78D31AA1
:10CAC000DAB21723FB1801321A70FB1D1B78FA68C3
:10CAD000D318FB60FB683B61FB1D1B783A69D318D8
:10CAE0003B611F23FB1800221A700FE0FB681A78C5
:10CAF000BB681A70BB680133BB60FB680133FB6025
:10CB00001F217B181A787B1801321A701F23FA181C
:10CB10001723FB1812781B789A42E7D3BB680133BE
:10CB2000BB60BB6800221A700123BB61BB6918009F
:10CB3000BD4608B080BDC046F040010880B584B055
:10CB400000AFF860B9607A60FB68064A1A60BB689B
:10CB5000054A1A607B6880221A60C046BD4604B050
:10CB600080BDC04688010020DC010020B0B58EB039
:10CB700000AF00F005FA00F08FFF00F059F800F068
:10CB80006FF900F0ADF800F0E9F800F017F900F0E7
:10CB900045F9802359009023DB050122180001F09C
:10CBA000D7FAFCF76BFB8023DB011B48012219003D
:10CBB00001F0CEFA80235B0018480122190001F031
:10CBC000C7FA164B01220821180001F0C1FA1C21F6
:10CBD0007B18134A31CA31C331CA31C312681A6093
:10CBE0007B180021180004F0E3FB02000D4B1A60D3
:10CBF0003B000D4A13CA13C313CA13C312681A6049
:10CC00003B000021180004F0D3FB0200074B1A6020
:10CC100004F0C6FBFEE7C0460008004800040048D8
:10CC20003841010878210020544101086422002085
:10CC300090B599B000AF2C243B19180034231A008A
:10CC4000002105F08CFC1C23FB18180010231A008F
:10CC5000002105F084FC3B0018001C231A00002171
:10CC600005F07DFC3B1920221A603B1901221A6253
:10CC70003B1900225A623B19180001F0A1FA031E69
:10CC800001D000F03FFB1C217B1807221A607B18A3
:10CC900003225A607B1800229A607B188022D200FF
:10CCA000DA607B180121180001F010FE031E01D08C
:10CCB00000F028FB3B0003221A603B0000229A6030
:10CCC0003B000022DA603B00180001F079FF031EF0
:10CCD00001D000F017FBC046BD4619B090BD000062
:10CCE00080B500AF1B4B1C4A1A601A4B82225200BF
:10CCF0005A60184B00229A60164BE022D200DA608C
:10CD0000144B00221A61134B00225A61114B8022EE
:10CD100092009A610F4B2022DA610E4B00221A62B8
:10CD20000C4B00225A620B4B00229A62094B0722DD
:10CD3000DA62084B00221A63064B08225A63054B3D
:10CD4000180002F03BF8031E01D000F0DBFAC046E9
:10CD5000BD4680BD7C2100200038004080B500AF7A
:10CD6000144B154A1A60134BE12252025A60114BC0
:10CD700000229A600F4B0022DA600E4B00221A61EB
:10CD80000C4B0C225A610B4B00229A61094B00227A
:10CD9000DA61084B00221A62064B00225A62054BE8
:10CDA000180002F00DFF031E01D000F0ABFAC046E0
:10CDB000BD4680BDE02100200038014080B500AFB5
:10CDC000144B154A1A60134BE12252025A60114B60
:10CDD00000229A600F4B0022DA600E4B00221A618B
:10CDE0000C4B0C225A610B4B00229A61094B00221A
:10CDF000DA61084B00221A62064B00225A62054B88
:10CE0000180002F0DDFE031E01D000F07BFAC046E0
:10CE1000BD4680BD7C2200200044004080B500AFAC
:10CE20000D4B0E4A1A600C4BC02252005A600A4B3E
:10CE30007E229A60084B7F22DA60074B00221A613B
:10CE4000054B180004F060FA031E01D000F05AFAF6
:10CE5000C046BD4680BDC04668220020002C004070
:10CE600090B589B000AF0C243B19180014231A00A8
:10CE7000002105F074FB3E4B5A693D4B80210903AC
:10CE80000A435A613A4B5A6980231B031340BB6023
:10CE9000BB68374B5A69364B802189020A435A6175
:10CEA000334B5A6980239B0213407B607B68304B75
:10CEB0005A692F4B8021C9020A435A612C4B5A6987
:10CEC0008023DB0213403B603B68E0231B022948C0
:10CED0000022190001F03CF92749284B00221800D4
:10CEE00001F036F99223D9019023DB0500221800C6
:10CEF00001F02EF93B19E02212021A603B190122BF
:10CF00005A603B1900229A603B190022DA603B19F3
:10CF1000184A1900100000F0A3FF3B19164A1A60C6
:10CF20003B1901225A603B1900229A603B190022EA
:10CF3000DA603B19114A1900100000F091FF21003E
:10CF40007B189222D2011A607B1801225A607B184A
:10CF500000229A607B180022DA607A189023DB05A1
:10CF60001100180000F07CFFC046BD4609B090BD1E
:10CF700000100240000800483C1300000004004874
:10CF800080B584B000AF80239B05BB600023FB60AD
:10CF90000023FB600EE0FB689B001C4A9446634440
:10CFA0001A00FB689B00B968CB1812681A60FB680E
:10CFB0000133FB60FB682F2BEDD9154B0122524248
:10CFC0009A62134B9A69124B01210A439A61104BE2
:10CFD0009B69012213407B607B680D4B00229A62A3
:10CFE0000C4B1A680B4B03218A431A60094B1A68D1
:10CFF000084B03210A431A6062B6C046064B18006C
:10D00000FDF7BCFAC046BD4604B080BD00900008E4
:10D0100000100240000001407041010890B58DB041
:10D0200000AFF860B9607A603C4B1800FDF7A6FAD3
:10D030003B4B1800FDF7A2FA10243919F8680A23AF
:10D040000A2200F0F9F93B191800FDF797FA354B61
:10D050001800FDF793FA391978680A230A2200F0BC
:10D06000EBF93B191800FDF789FA2F4B1800FDF773
:10D0700085FA00F0F1F8802359009023DB050022A7
:10D08000180001F065F83B1906221A703919274873
:10D090006423012201F04AFF802359009023DB051D
:10D0A0000122180001F054F8012000F059FD8023FE
:10D0B00059009023DB050022180001F049F83B19C4
:10D0C00002221A70FB681B0CDAB23B195A70FB681B
:10D0D0001B0ADAB23B199A70FB68DAB23B19DA70B4
:10D0E000391912486423042201F020FF3B1944221D
:10D0F0001A707B689AB2B9680C48642301F016FF75
:10D10000802359009023DB050122180001F020F84C
:10D1100000F0A2F8C046BD460DB090BD9041010898
:10D12000A0410108A8410108AC4101087C21002070
:10D1300090B587B000AFF860B960BB1D1A801423AA
:10D14000FB18BA1D12881A80FB689BB2FF2213409D
:10D150009AB21623FB18802149008A1A1A8032E0FD
:10D160001423FA1816217B1812881B889A4205D9B5
:10D170001223FB187A1812881A8005E01223FB1874
:10D180001422BA1812881A8012243B191A88B96816
:10D19000FB681800FFF742FF1422BB18B9183A19B0
:10D1A000098812888A1A1A803B191B88BA68D31812
:10D1B000BB603B191B88FA68D318FB601623FB1869
:10D1C000802252001A801423FB181B88002BC7D121
:10D1D000C046C046BD4607B090BD000080B58AB0CD
:10D1E00000AFF860B9607A6000F036F8802359002B
:10D1F0009023DB050022180000F0AAFF14217B1801
:10D2000003221A70FB681B0CDAB27B185A70FB6899
:10D210001B0ADAB27B189A70FB68DAB27B18DA70F4
:10D2200079180C486423042201F080FE7B689AB2CE
:10D23000B9680848642301F0D1FF80235900902386
:10D24000DB050122180000F083FFC046BD460AB08E
:10D2500080BDC0467C21002080B586B000AF3B1D5C
:10D2600005221A70802359009023DB050022180044
:10D2700000F06EFF391D12486423012201F056FEB2
:10D28000391D0F486423012201F0A8FF05E0391D74
:10D290000B486423012201F0A1FF3B1D1B781A00FB
:10D2A00001231340F3D1802359009023DB05012291
:10D2B000180000F04DFFC046BD4606B080BDC04618
:10D2C0007C21002080B582B000AF7860FA239B00FB
:10D2D000180004F0BAF8FCF7DFF8F7E780B582B081
:10D2E00000AF7860322004F0B0F8FDF761F9044B2C
:10D2F0007F22DA60024B180004F02BF8F2E7C046F8
:10D300006822002080B500AF72B6C046FEE780B547
:10D3100086B000AFF860B9601900FB1D1A70BB1D24
:10D320000A1C1A701623FB1800221A801423FB18FB
:10D3300000221A801323FB1800221A70FB1D1A7892
:10D34000FB1D013A1A704AE01623FB1800229B5E6F
:10D35000FA68D3181B78BA1D12789A4211D113219A
:10D360007A182023FB1812781B789A4241D07B1838
:10D370001A787B1801321A701423FB1800221A80C5
:10D3800024E016217B1800229B5EFA68D3181B78D4
:10D390001F2B1BD97B1800229B5EFA68D218142021
:10D3A0003B1800215B5EB968CB1812781A703B18E5
:10D3B00000229A5EFB1D1B789A4207DA3B18002276
:10D3C0009B5E9BB201339AB23B181A8016217B18E0
:10D3D00000229B5E9BB201339AB27B181A801623FF
:10D3E000FB1800229B5EFA68D3181B78002BABD188
:10D3F00000E0C0461323FA182023FB1812781B788C
:10D400009A4208D01423FB1800221A801623FB1816
:10D41000012252421A801423FB1800229B5EBA6834
:10D42000D31800221A701623FB1800229B5E1800E6
:10D43000BD4606B080BD000080B586B000AFF86084
:10D44000B9601900BB1D1A807B1D0A1C1A701221BD
:10D450007B1800221A801123FB1801221A707B1DF1
:10D460001B780A2B5FD16F4B7B61FB68002B56DA70
:10D47000FB685B42FB607B1800229B5EBA68D31896
:10D480002D221A707B1800229B5E9BB201339AB248
:10D490007B181A8043E0FB6879691800FBF750FE9F
:10D4A00003001A0010217B181A707B181B78002BC0
:10D4B00003D01123FB1800221A701123FB181B78CC
:10D4C000002B13D112217B1800229B5EBA68D3185F
:10D4D0001022BA1812783032D2B21A707B18002299
:10D4E0009B5E9BB201339AB27B181A80FA681023B4
:10D4F000FB181B7879694B43D31AFB607B690A21BF
:10D500001800FBF71DFE03007B611223FB180022AD
:10D510009A5EBB1D00215B5E013B9A425DDA7B692E
:10D52000002BB8D15CE07B1D1B78102B58D1202339
:10D530007B614EE07B69043BFA681A411300DAB262
:10D5400010203B180F210A401A703B181B78002B43
:10D5500003D01123FB1800221A701123FB181B782B
:10D56000002B29D110217B181B78092B0BD81223F3
:10D57000FB1800229B5EBA68D3187A1812783032F2
:10D58000D2B21A700FE010217B181B78092B0AD930
:10D590001223FB1800229B5EBA68D3187A181278FF
:10D5A0003732D2B21A7012217B1800229B5E9BB2D6
:10D5B00001339AB27B181A807B69043B7B6112238A
:10D5C000FB1800229A5EBB1D00215B5E013B9A4264
:10D5D00005DA7B69002BADD102E0C04600E0C04611
:10D5E0001123FB181B78012B0FD112217B1800226D
:10D5F0009B5EBA68D31830221A707B1800229B5E9B
:10D600009BB201339AB27B181A801223FB180022B6
:10D610009B5EBA68D31800221A70BB681800BD461A
:10D6200006B080BD00CA9A3B80B584B000AF786078
:10D630000A00FB1C1A700023FB60FB1C1B780A2BE2
:10D6400020D11AE07B681B782F2B0FD97B681B78C1
:10D65000392B0BD8FA6813009B009B185B00FB600A
:10D660007B681B78303BFA68D318FB607B681B78BB
:10D670002D2B02D97B6801337B607B681B78002BE4
:10D68000E0D13EE0FB1C1B78102B3AD135E07B68E3
:10D690001B782F2B2ED9FB681B01FB607B681B7846
:10D6A0002F2B0AD97B681B78392B06D87B681B780F
:10D6B000303BFA681343FB601CE07B681B78602BEF
:10D6C0000AD97B681B78662B06D87B681B78573B8A
:10D6D000FA681343FB600DE07B681B78402B09D987
:10D6E0007B681B78462B05D87B681B78373BFA682C
:10D6F0001343FB607B6801337B607B681B78002BE6
:10D70000C5D1FB681800BD4604B080BD80B582B0AD
:10D7100000AF124B9A69114B01210A439A610F4BDA
:10D720009B69012213407B607B680C4BDA690B4BD1
:10D73000802149050A43DA61084BDA6980235B05D9
:10D7400013403B603B6802235B4200220321180028
:10D7500000F0D6FAC046BD4602B080BD00100240BF
:10D7600090B58BB000AF786014243B1918001423D7
:10D770001A00002104F0F3FE7B681B681C4A9342E8
:10D7800032D11C4BDA691B4B8021C9010A43DA6193
:10D79000184BDA698023DB0113403B613B69154B71
:10D7A0005A69144B8021C9020A435A61114B5A69C4
:10D7B0008023DB021340FB60FB683B19E02212026E
:10D7C0001A6021007B1802225A607B1800229A609E
:10D7D0007B180322DA607B1800221A617B18064A44
:10D7E0001900100000F03CFBC046BD460BB090BDD8
:10D7F00000380040001002400004004890B58DB091
:10D8000000AF78601C243B19180014231A00002173
:10D8100004F0A5FE7B681B68494A934234D1494B0A
:10D820009A69484B8021C9010A439A61454B9A691C
:10D830008023DB011340BB61BB69424B5A69414BFA
:10D84000802189020A435A613E4B5A6980239B0218
:10D8500013407B617B693B19C022D2001A60210012
:10D860007B1802225A607B1800229A607B180322E0
:10D87000DA607B1801221A617A189023DB05110007
:10D88000180000F0EDFA56E07B681B682E4A9342C0
:10D8900051D12C4BDA692B4B802189020A43DA6182
:10D8A000284BDA6980239B0213403B613B69254B7F
:10D8B0005A69244B802189020A435A61214B5A69D3
:10D8C00080239B021340FB60FB681C243B1904224D
:10D8D0001A603B1902225A603B1900229A603B19D8
:10D8E0000322DA603B1901221A613A199023DB0501
:10D8F0001100180000F0B4FA21007B1808221A6009
:10D900007B1802225A607B1801229A607B1803223E
:10D91000DA607B1801221A617A189023DB05110066
:10D92000180000F09DFA002203211C2000F0E8F905
:10D930001C2000F0FAF9C046BD460DB090BDC046AF
:10D9400000380140001002400044004080B584B01F
:10D9500000AF78607B681B680A4A93420DD10A4B7E
:10D96000DA69094B802109010A43DA61064BDA6959
:10D9700080231B011340FB60FB68C046BD4604B01A
:10D9800080BDC046002C00400010024080B500AFB2
:10D99000FEE780B500AFFEE780B500AF00F0C4F849
:10D9A00004F05EFA0300012B01D004F0BDFBC04679
:10D9B000BD4680BD80B500AF034B180002F0E0FA11
:10D9C000C046BD4680BDC0467C22002080B586B0E2
:10D9D00000AF7860144A154BD31A7B617B693B61B9
:10D9E000134B1B68002B02D1114B124A1A60104BCB
:10D9F0001A687B68D3183A699A4207D204F07CFD12
:10DA000003000C221A6001235B4209E0084B1B68EB
:10DA1000FB60074B1A687B68D218054B1A60FB68DD
:10DA20001800BD4606B080BD004000200004000084
:10DA3000DC0300201823002080B500AFC046BD469F
:10DA400080BD00000D4885460D480E490E4A002352
:10DA500002E0D458C4500433C4188C42F9D30B4AA2
:10DA60000B4C002301E013600432A242FBD3FFF70A
:10DA7000E3FF04F047FDFFF779F8FEE700400020E0
:10DA8000C000002048010020244401084801002073
:10DA900014230020FEE7000080B500AF074B1A6892
:10DAA000064B10210A431A60032000F009F8FFF723
:10DAB0002DFE00231800BD4680BDC0460020024058
:10DAC00090B583B000AF7860144B1C68144B1B7882
:10DAD0001900FA239800FBF733FB0300190020001C
:10DAE000FBF72EFB0300180000F02FF9031E01D0F6
:10DAF00001230FE07B68032B0BD8796801235B427D
:10DB00000022180000F0FCF8064B7A681A60002327
:10DB100000E001231800BD4603B090BDD4000020F2
:10DB2000DC000020D800002080B500AF054B1B783A
:10DB30001A00054B1B68D218034B1A60C046BD463D
:10DB400080BDC046DC0000200023002080B500AF6F
:10DB5000024B1B681800BD4680BDC0460023002054
:10DB600080B584B000AF7860FFF7F0FF0300BB60C2
:10DB70007B68FB60FB68013305D00A4B1B781A00F9
:10DB8000FB689B18FB60C046FFF7E0FF0200BB6824
:10DB9000D31AFA689A42F7D8C046C046BD4604B0C8
:10DBA00080BDC046DC00002080B582B000AF02001E
:10DBB000FB1D1A70FB1D1B787F2B09D8FB1D1B78E2
:10DBC0001A001F231A40044B012191400A001A60D9
:10DBD000C046BD4602B080BD00E100E090B583B014
:10DBE00000AF02003960FB1D1A70FB1D1B787F2BF4
:10DBF00028D82F4AFB1D1B785BB29B08C0339B00C3
:10DC00009B58FA1D1278110003220A40D200FF210E
:10DC100091400A00D2431A4011003B689B01FF2249
:10DC20001A40FB1D1B78180003230340DB009A40B9
:10DC30001F48FB1D1B785BB29B080A43C0339B0047
:10DC40001A5031E01B4AFB1D1B7819000F230B40B3
:10DC5000083B9B0806339B00D31804331B68FA1D4E
:10DC60001278110003220A40D200FF2191400A00DD
:10DC7000D2431A4011003B689B01FF221A40FB1D52
:10DC80001B78180003230340DB009A400948FB1D62
:10DC90001B781C000F232340083B9B080A430633D4
:10DCA0009B00C31804331A60C046BD4603B090BD44
:10DCB00000E100E000ED00E080B582B000AF7860E8
:10DCC0007B685A1E80235B049A4201D3012310E033
:10DCD0000A4B7A68013A5A6001235B42032118001B
:10DCE000FFF77CFF054B00229A60044B07221A6065
:10DCF00000231800BD4602B080BDC04610E000E021
:10DD000080B584B000AFB9607A600F217B18021C27
:10DD10001A70BA687B181B785BB211001800FFF705
:10DD20005DFFC046BD4604B080BD80B582B000AF87
:10DD30000200FB1D1A70FB1D1B785BB21800FFF779
:10DD400033FFC046BD4602B080BD80B582B000AF93
:10DD500078607B681800FFF7AFFF03001800BD462E
:10DD600002B080BD80B582B000AF78607B682122B0
:10DD70009B5CDBB2022B08D07B6804229A637B6831
:10DD8000202200219954012320E07B681B681A6837
:10DD90007B681B680E218A431A607B681B681A68BF
:10DDA0007B681B6801218A431A607B681A6C7B6858
:10DDB000DB6B012191400A005A607B68212201211E
:10DDC00099547B6820220021995400231800BD46F5
:10DDD00002B080BD80B584B000AF78600F217B18A1
:10DDE00000221A707B6821229B5CDBB2022B06D0DA
:10DDF0007B6804229A637B1801221A7028E07B68F2
:10DE00001B681A687B681B680E218A431A607B684E
:10DE10001B681A687B681B6801218A431A607B684B
:10DE20001A6C7B68DB6B012191400A005A607B68A9
:10DE30002122012199547B682022002199547B687A
:10DE40005B6B002B04D07B685B6B7A681000984793
:10DE50000F23FB181B781800BD4604B080BD0000DE
:10DE600080B586B000AF7860396000237B6155E1F2
:10DE70003B681B6801217A6991400A001340FB60EE
:10DE8000FB68002B00D146E13B685B68032213402E
:10DE9000012B05D03B685B6803221340022B30D175
:10DEA0007B689B683B617B695B0003229A4013009F
:10DEB000DA433B6913403B613B68DA687B695B008E
:10DEC0009A4013003A6913433B617B683A699A6050
:10DED0007B685B683B6101227B699A401300DA43EF
:10DEE0003B6913403B613B685B681B0901221A4098
:10DEF0007B699A4013003A6913433B617B683A6936
:10DF00005A603B685B6803221340032B17D07B6881
:10DF1000DB683B617B695B0003229A401300DA43B4
:10DF20003B6913403B613B689A687B695B009A40A0
:10DF300013003A6913433B617B683A69DA603B68D6
:10DF40005B6803221340022B23D17B69DA087B68CC
:10DF500008329200D3583B617B69072213409B0033
:10DF60000F229A401300DA433B6913403B613B6840
:10DF70001A697B6907210B409B009A4013003A699C
:10DF800013433B617B69DA087B6808329200396988
:10DF9000D1507B681B683B617B695B0003229A4020
:10DFA0001300DA433B6913403B613B685B68032223
:10DFB0001A407B695B009A4013003A6913433B6146
:10DFC0007B683A691A603B685A68C0239B02134019
:10DFD00000D1A0E0574B9A69564B01210A439A6140
:10DFE000544B9B6901221340BB60BB68524A7B695A
:10DFF0009B0802339B009B583B617B6903221340C3
:10E000009B000F229A401300DA433B6913403B61A7
:10E010007A689023DB059A4219D07B68474A93427D
:10E0200013D07B68464A93420DD07B68454A9342A1
:10E0300007D07B68444A934201D1042308E00523BA
:10E0400006E0032304E0022302E0012300E00023B2
:10E050007A6903210A40920093403A6913433B6175
:10E0600035497B699B0802339B003A695A50374B0C
:10E070001B683B61FB68DA433B6913403B613B68CB
:10E080005A6880235B02134003D03A69FB6813434C
:10E090003B612E4B3A691A602C4B5B683B61FB6815
:10E0A000DA433B6913403B613B685A6880239B021B
:10E0B000134003D03A69FB6813433B61234B3A6931
:10E0C0005A60224B9B683B61FB68DA433B69134013
:10E0D0003B613B685A6880235B03134003D03A6975
:10E0E000FB6813433B61194B3A699A60174BDB6835
:10E0F0003B61FB68DA433B6913403B613B685A680C
:10E1000080239B03134003D03A69FB6813433B61B0
:10E110000E4B3A69DA607B6901337B613B681A68B0
:10E120007B69DA40131E00D0A2E6C046C046BD4659
:10E1300006B080BD0010024000000140000400480D
:10E1400000080048000C004800100048000401408E
:10E1500080B582B000AF786008001100BB1C021CC3
:10E160001A807B1C0A1C1A707B1C1B78002B04D0A5
:10E17000BB1C1A887B689A6103E0BB1C1A887B6809
:10E180009A62C046BD4602B080BD80B584B000AF83
:10E1900078600A00BB1C1A807B685B69FB60BB1C53
:10E1A0001B88FA6813401A04FB68DB43B91C098812
:10E1B0000B401A437B689A61C046BD4604B080BDDF
:10E1C00080B588B000AF78607B68002B02D1012356
:10E1D00000F076FB7B681B680122134000D18EE0C3
:10E1E000C54B5B680C221340042B0ED0C24B5B68FE
:10E1F0000C221340082B17D1BF4B5A68C0235B0277
:10E200001A4080235B029A420ED1BB4B1A688023CE
:10E210009B02134000D171E07B685B68002B00D04B
:10E220006CE0012300F04CFB7B685B68012B07D19D
:10E23000B14B1A68B04B802149020A431A602FE0A3
:10E240007B685B68002B0CD1AB4B1A68AA4BAB49BF
:10E250000A401A60A84B1A68A74BA9490A401A60DD
:10E260001EE07B685B68052B0ED1A34B1A68A24B9E
:10E270008021C9020A431A609F4B1A689E4B802175
:10E2800049020A431A600BE09B4B1A689A4B9B4960
:10E290000A401A60984B1A68974B99490A401A60CD
:10E2A0007B685B68002B14D0FFF750FC0300BB6158
:10E2B00008E0FFF74BFC0200BB69D31A642B01D9BD
:10E2C0000323FDE28C4B1A6880239B021340F0D09D
:10E2D00015E0FFF73BFC0300BB6108E0FFF736FCED
:10E2E0000200BB69D31A642B01D90323E8E2824BF5
:10E2F0001A6880239B021340F0D100E0C0467B687F
:10E300001B680222134000D16CE07B4B5B680C223F
:10E3100013400ED0784B5B680C221340082B1FD1A2
:10E32000754B5A68C0235B021A4080231B029A4235
:10E3300016D1714B1B680222134005D07B68DB6845
:10E34000012B01D00123BBE26B4B1B68F8229343E6
:10E3500019007B681B69DA00674B0A431A6041E0C9
:10E360007B68DB68002B24D0634B1A68624B012169
:10E370000A431A60FFF7EAFB0300BB6108E0FFF7FE
:10E38000E5FB0200BB69D31A022B01D9032397E2F4
:10E39000594B1B6802221340F1D0574B1B68F822DF
:10E3A000934319007B681B69DA00534B0A431A60D8
:10E3B00018E0514B1A68504B01218A431A60FFF74D
:10E3C000C5FB0300BB6108E0FFF7C0FB0200BB69AF
:10E3D000D31A022B01D9032372E2474B1B68022296
:10E3E0001340F1D17B681B680822134036D07B684C
:10E3F000DB69002B19D0404B5A6A3F4B01210A437D
:10E400005A62FFF7A3FB0300BB6108E0FFF79EFB26
:10E410000200BB69D31A022B01D9032350E2364B09
:10E420005B6A02221340F1D018E0334B5A6A324B38
:10E4300001218A435A62FFF789FB0300BB6108E0B0
:10E44000FFF784FB0200BB69D31A022B01D9032317
:10E4500036E2294B5B6A02221340F1D17B681B68CC
:10E460000422134000D1B5E01F203B1800221A708F
:10E47000214BDA6980235B05134010D11E4BDA690A
:10E480001D4B802149050A43DA611B4BDA69802361
:10E490005B051340FB60FB683B1801221A70194BA7
:10E4A0001A6880235B0013401AD1164B1A68154B6B
:10E4B000802149000A431A60FFF748FB0300BB6153
:10E4C00008E0FFF743FB0200BB69D31A642B01D9B4
:10E4D0000323F5E10B4B1A6880235B001340F0D057
:10E4E0007B689B68012B0FD1034B1A6A024B0121F9
:10E4F0000A431A6236E0C04600100240FFFFFEFFEA
:10E50000FFFFFBFF007000407B689B68002B0CD175
:10E51000CA4B1A6AC94B01218A431A62C74B1A6A4D
:10E52000C64B04218A431A621CE07B689B68052B5A
:10E530000CD1C24B1A6AC14B04210A431A62BF4B69
:10E540001A6ABE4B01210A431A620BE0BB4B1A6ADE
:10E55000BA4B01218A431A62B84B1A6AB74B04219D
:10E560008A431A627B689B68002B14D0FFF7EEFA8F
:10E570000300BB6109E0FFF7E9FA0200BB69D31AA7
:10E58000AF4A934201D903239AE1AC4B1B6A0222A2
:10E590001340F0D013E0FFF7D9FA0300BB6109E0A4
:10E5A000FFF7D4FA0200BB69D31AA54A934201D9F6
:10E5B000032385E1A14B1B6A02221340F0D11F23E4
:10E5C000FB181B78012B05D19C4BDA699B4B9D49AD
:10E5D0000A40DA617B681B681022134063D07B68B5
:10E5E0005B69012B2AD1954B5A6B944B04210A434A
:10E5F0005A63924B5A6B914B01210A435A63FFF7BE
:10E60000A5FA0300BB6108E0FFF7A0FA0200BB69AE
:10E61000D31A022B01D9032352E1884B5B6B0222F0
:10E620001340F1D0854B5B6BF822934319007B6854
:10E630009B69DA00814B0A435A6334E07B685B696B
:10E64000053311D17D4B5A6B7C4B04218A435A63AD
:10E650007A4B5B6BF822934319007B689B69DA0065
:10E66000764B0A435A631EE0744B5A6B734B04217A
:10E670000A435A63714B5A6B704B01218A435A63A8
:10E68000FFF764FA0300BB6108E0FFF75FFA0200DE
:10E69000BB69D31A022B01D9032311E1674B5B6BD2
:10E6A00002221340F1D17B681B68202213405CD00A
:10E6B000624B5B680C2213400C2B0ED05F4B5B68E7
:10E6C0000C221340082B14D15C4B5A68C0235B0208
:10E6D0001A40C0235B029A420BD1584B5A6B8023DD
:10E6E0005B02134040D07B681B6A012B3CD00123A6
:10E6F000E6E07B681B6A002B1BD0504B5A6B4F4BDC
:10E70000802149020A435A63FFF720FA0300BB61E4
:10E7100008E0FFF71BFA0200BB69D31A022B01D9EC
:10E720000323CDE0454B5A6B80235B021340F0D0AE
:10E730001BE0424B5A6B414B43490A405A63FFF777
:10E7400005FA0300BB6108E0FFF700FA0200BB69AD
:10E75000D31A022B01D90323B2E0384B5A6B802322
:10E760005B021340F0D100E0C0467B685B6A002B7F
:10E7700000D1A4E0314B5B680C221340082B00D180
:10E7800078E07B685B6A022B4CD12C4B1A682B4BD0
:10E790002E490A401A60FFF7D9F90300BB6108E06F
:10E7A000FFF7D4F90200BB69D31A022B01D9032366
:10E7B00086E0224B1A6880239B041340F0D11F4B44
:10E7C000DB6A0F22934319007B681A6B1B4B0A43C9
:10E7D000DA621A4B5B681E4A134019007B68DA6ADA
:10E7E0007B689B6A1A43154B0A435A60134B1A689D
:10E7F000124B802149040A431A60FFF7A7F903006E
:10E80000BB6108E0FFF7A2F90200BB69D31A022B33
:10E8100001D9032354E0094B1A6880239B04134059
:10E82000F0D04CE0054B1A68044B08490A401A60C6
:10E83000FFF78CF90300BB6115E0C04600100240F1
:10E8400088130000FFFFFFEFFFFFFEFFFFFFFFFE4B
:10E85000FF7FC2FFFFF77AF90200BB69D31A022BD0
:10E8600001D903232CE0184B1A6880239B04134022
:10E87000F0D124E07B685B6A012B01D101231FE00A
:10E88000114B5B687B61104BDB6A3B617A69C0238B
:10E890005B021A407B689B6A9A420ED13B690F2249
:10E8A0001A407B681B6B9A4207D17A69F0239B035D
:10E8B0001A407B68DB6A9A4201D0012300E0002302
:10E8C0001800BD4608B080BD0010024080B584B07D
:10E8D00000AF786039607B68002B01D10123BFE075
:10E8E000614B1B68012213403A689A4211D95E4B72
:10E8F0001B680122934319005B4B3A680A431A6074
:10E90000594B1B68012213403A689A4201D00123F7
:10E91000A6E07B681B680222134015D07B681B6849
:10E920000422134006D0514B5A68504BE021C900D5
:10E930000A435A604D4B5B68F022934319007B6891
:10E940009A684A4B0A435A607B681B68012213404D
:10E950004CD07B685B68012B07D1444B1A6880233D
:10E960009B02134020D101237AE07B685B68022B75
:10E9700007D13E4B1A6880239B04134014D1012316
:10E980006EE07B685B68032B07D1384B5A6B8023A2
:10E990005B02134008D1012362E0344B1B68022262
:10E9A000134001D101235BE0304B5B6803229343AA
:10E9B00019007B685A682D4B0A435A60FFF7C6F866
:10E9C0000300FB6009E0FFF7C1F80200FB68D31AFF
:10E9D000274A934201D9032342E0244B5B680C226F
:10E9E0001A407B685B689B009A42ECD11E4B1B6807
:10E9F000012213403A689A4211D21B4B1B68012234
:10EA000093431900184B3A680A431A60164B1B6867
:10EA1000012213403A689A4201D0012320E07B682A
:10EA20001B680422134009D0104B5B68114A134045
:10EA300019007B68DA680D4B0A435A6000F020F831
:10EA400001000A4B5B681B090F2213400A4AD35C82
:10EA50000A00DA40094B1A600320FFF731F800235F
:10EA60001800BD4604B080BD0020024000100240E6
:10EA700088130000FFF8FFFFD0420108D4000020F7
:10EA800090B58FB000AF1423FB18384A13CA13C3D4
:10EA900012681A603B1D364A13CA13C312681A6003
:10EAA0000023FB620023BB6200237B6300237B62A5
:10EAB00000233B632F4B5B68FB62FB6A0C22134015
:10EAC0000C2B47D049D8042B02D0082B03D044E0AC
:10EAD000294B3B6344E0FB6A9B0C0F22134014223A
