:020000040800F2
:109000000040002075B00008A5AF0008ABAF000815
:109010000000000000000000000000000000000050
:109020000000000000000000000000006140010896
:10903000000000000000000081410108B1AF0008FD
:10904000C5B00008C5B00008C5B00008C5B000082C
:10905000C5B00008C5B00008C5B00008C5B000081C
:10906000C5B00008C5B00008C5B00008C5B000080C
:10907000C5B00008C5B00008C5B00008C5B00008FC
:10908000C5B00008C5B00008C5B00008C5B00008EC
:10909000C5B00008C5B00008C5B00008C5B00008DC
:1090A000C5B00008C5B00008C5B00008C5B00008CC
:1090B000CDAF0008C5B00008C5B00008E5AF000896
:1090C00010B5064C2378002B07D1054B002B02D09E
:1090D000044800E000BF0123237010BD40030020BE
:1090E00000000000A8580108044B10B5002B03D065
:1090F0000349044800E000BF10BDC0460000000066
:1091000044030020A85801080023C25C0133002A50
:10911000FBD1581E7047000003B471464908400057
:109120004900095E49008E4403BC70470022430891
:109130008B4274D303098B425FD3030A8B4244D31F
:10914000030B8B4228D3030C8B420DD3FF22090261
:1091500012BA030C8B4202D31212090265D0030B20
:109160008B4219D300E0090AC30B8B4201D3CB0316
:10917000C01A5241830B8B4201D38B03C01A524158
:10918000430B8B4201D34B03C01A5241030B8B425A
:1091900001D30B03C01A5241C30A8B4201D3CB0245
:1091A000C01A5241830A8B4201D38B02C01A52412A
:1091B000430A8B4201D34B02C01A5241030A8B422D
:1091C00001D30B02C01A5241CDD2C3098B4201D345
:1091D000CB01C01A524183098B4201D38B01C01AC3
:1091E000524143098B4201D34B01C01A524103093A
:1091F0008B4201D30B01C01A5241C3088B4201D3E9
:10920000CB00C01A524183088B4201D38B00C01A95
:10921000524143088B4201D34B00C01A5241411ABC
:1092200000D20146524110467047FFE701B50020C9
:1092300000F006F802BDC0460029F7D076E7704777
:109240007047C04680B584B000AF786039600523B0
:10925000FB603B689AB27968094B180005F0EEF89C
:109260000849074B3222180005F068F9064B002226
:109270001A60064B01221A60C046BD4604B080BD8C
:109280005C270020B01C0020600300206403002045
:1092900080B584B000AF78601923FB607B6818004C
:1092A000FFF732FF0300BB60BB689AB2FB687968C6
:1092B000034805F019F8C046BD4604B080BDC0465D
:1092C000D426002080B582B000AF0200FB1D1A70CA
:1092D0008023DB01204A1900100002F06EFA1F4AB9
:1092E000B0235B000021D1501D4B1B683B2B11DCD0
:1092F0001B4B1B681B4AF91D0978D154184B1B687E
:109300005A1C174B1A6080235B00174A1900100083
:1093100002F053FAFB1D1B783E2B04D10F4AAE23FB
:109320005B000121D150114B1B68114AF91D0978CE
:10933000D1540E4B1B685A1C0C4B1A600B4B1A680D
:1093400096235B009A4202DD084B00221A60C04659
:10935000BD4602B080BDC04600080048241B002066
:10936000C0000020E41C0020000400485C03002032
:109370006C15002080B500AF80239B001E480022A2
:10938000190002F0FDF91C4B01220821180002F01F
:10939000F7F91A4B1800FFF77BFF1949194B2822E0
:1093A000180005F0CBF8FA23DB00180001F0F0FEFE
:1093B000154B00221A70144B00225A70124B0022D7
:1093C0009A70114B0122DA700F4B00221A710F4B69
:1093D0001800FFF75DFF80239B000748012219005A
:1093E00002F0CEF90A4B01229A700A4B00221A664B
:1093F000C046BD4680BDC04600040048C0580108B4
:10940000B01C00205C27002060260020CC580108FA
:109410001C1B00209816002080B500AFD24B1B7893
:10942000112B00D905E29A00D04BD3181B689F4638
:10943000CF4B180000F020FACB4B02221A70CA4B17
:1094400000221A70F5E1CB4B180000F015FAC64B5C
:1094500003221A70C44B05221A70C34B0A221A70D9
:10946000C14B00221A70E4E1C34B180000F004FA6B
:10947000BD4B05221A70DCE1C04B180000F0FCF96E
:10948000BF4B01225A70D4E1BE4B180000F0F4F932
:10949000BB4B0022DA70B44B00221A70C9E1BA4B00
:1094A000180000F0E9F9B04B00221A70C1E1B74A88
:1094B000B74B100019000A231A000BF0A1FDB34BA3
:1094C0001800FFF721FE03001A00B04BD218B14B71
:1094D0001000190002231A000BF092FDAE4AAB4BAC
:1094E000110018000BF0BEFDA84B1800FFF70CFE92
:1094F00003001A00A54BD218A84B10001900042332
:109500001A000BF07DFDA64AA04B110018000BF0CD
:10951000A9FD9E4B1800FFF7F7FD03001A009B4BB7
:10952000D2189C4B1000190002231A000BF068FDA2
:10953000964B1800FFF7E8FD03001A00934BD21872
:10954000984B1000190003231A000BF059FD8F4BA4
:10955000180000F091F9844B00221A7069E1854BE4
:10956000180000F089F9804B00221A7061E18E4BDF
:10957000180000F081F95CE18C4B180000F07CF9D8
:10958000794B0B221A70784B0D221A707C4B1B7989
:10959000002B03D1744B0D221A704AE1724B0B223F
:1095A0001A7046E1824B180000F066F9814B0022E8
:1095B0000821180002F0E4F86B4B00221A7038E121
:1095C0007D4B180000F058F9674B00221A7030E10B
:1095D0007A4B180000F050F9634B00221A7028E112
:1095E000774B1800FFF790FD03001A00754B1A60C7
:1095F000754B9B78012B03D1744B9A68714B1A60A1
:10960000704B186861490A230A2201F041FA5F4A47
:109610006F4B100019000E231A000BF0F1FC6D4A7D
:109620005A4B110018000BF01DFD584B1800FFF7A6
:109630006BFD03001A00554BD218674B1000190040
:1096400002231A000BF0DCFC5E4B186863490A2306
:109650000A2201F01DFA614A4C4B110018000BF070
:1096600001FD4A4B1800FFF74FFD03001A00474B5E
:10967000D2184C4B1000190003231A000BF0C0FC49
:10968000424B180000F0F8F8374B00221A70D0E077
:109690004D4B9B78012B07D14C4B9A68504B1100D6
:1096A0001800FFF7CFFD1CE0454A4D4B1100180094
:1096B0000BF0E5FC4A4B1800FFF726FD03001A00EB
:1096C000474BD218374B1000190003231A000BF038
:1096D00097FC434B1800FFF7DBFD414B180000F0EF
:1096E000CBF8214B00221A70A3E0284A3D4B100012
:1096F00019000F231A000BF083FC364A234B11008C
:1097000018000BF0AFFC214B1800FFF7FDFC030025
:109710001A001E4BD218304B1000190002231A00F9
:109720000BF06EFC274B18682D490A230A2201F022
:10973000AFF92B4A154B110018000BF093FC134B9B
:109740001800FFF7E1FC03001A00104BD218154B6C
:109750001000190003231A000BF052FC0B4B1800E9
:1097600000F08AF865E0C046C4000020F45C0108FF
:10977000D4580108E0580108E8580108F8580108D1
:109780006026002004590108105901081C230020FC
:109790001C59010828590108C80000202C5901084B
:1097A000E8000020305901083459010844590108E3
:1097B00054590108000400486C59010880590108F7
:1097C00008010020682600201C1B0020981600209D
:1097D000AC59010894250020BC590108B01C002098
:1097E000A0230020C05901081C4A1D4B100019007D
:1097F0000D231A000BF004FC1A4A184B1100180034
:109800000BF030FC154B1800FFF77EFC03001A002C
:10981000124BD218144B1000190003231A000BF03E
:10982000EFFB0E4B180000F027F8104B00221A70C7
:10983000C0460F4B5B78022B04D10E4B1B6E5A1C9B
:109840000C4B1A660B4B1B6E5A2B04D100F01EFBFF
:10985000084B00221A66C046BD4680BD1C2300206E
:10986000D05901089425002030590108C400002077
:109870001C1B00209816002080B584B000AF7860D3
:109880001923FB607B681800FFF73EFC0300BB60F8
:10989000BB689AB2FB687968064804F025FD064962
:1098A000044B8C22180004F049FEC046BD4604B0AB
:1098B00080BDC0465C270020B01C002080B500AFF2
:1098C00080239B017D4A1900100001F076FF7C4B3C
:1098D0001A687C4B1B689A4200D1ECE0794B1A68FD
:1098E000794B1B687949895C794AD154754B1B685F
:1098F0005A1C744B1A60734B1B68764A934202DD04
:10990000704B00221A60704B1B685A1C6E4B1A6019
:109910006D4B1B68C82B02DD6B4B00221A606A4B33
:109920001B685A1E6C4B5B686949895C6B4AD15451
:109930006B4BDB78012B0ED1674B5B68674AD35CBE
:10994000022B08D1674B1800FFF7A2FC644B0222E0
:10995000DA7000F055FA624B5B78012B13D15E4B45
:109960005B685E4AD35C902B0DD15F4B1800FFF70C
:109970008FFC5B4B02225A705C4B180000F0CCFA53
:10998000574B01221A70564B5B78022B08D1524B71
:109990005B68524AD35C302B02D1514B01221A70C2
:1099A0004F4B5B78022B08D14B4B5B684B4AD35C27
:1099B000312B02D14A4B01221A70474B5B68474A50
:1099C000D35C092B10D8404B1B68013B404AD35C49
:1099D000102B09D0404B5B68404AD35C18004449C7
:1099E00010230A2201F054F83D4B1B78012B45D17E
:1099F000354B1B685A1E384B5B683549895C374AC2
:109A0000D154354B5B68354AD35C022B03D1394BBB
:109A10001800FFF73DFC304B5B685A1C2E4B5A6018
:109A20002D4B5B68022B06D12B4B5B68013B2B4A0D
:109A3000D25C294B1A70284B5B68042B0DD1274B45
:109A40005B781E2B03D8254BDB781E2B05D9244BC6
:109A500000221A70204B00225A601F4B5A681E4B7E
:109A60001B7801339A4209DD1D4B00221A701A4BF4
:109A700000225A60194B180000F040F8124B1B6886
:109A8000013B134AD35C3E2B02D11B4B0F221A70B1
:109A90000D4B1B68013B0E4AD35C0A2B0BD10A4BC2
:109AA0001B680B4A0021D154074B00221A60084B57
:109AB000180000F0AFFAC046BD4680BD000800485F
:109AC000680300206C03002070030020081E0020A3
:109AD000982500201405000098160020841A002004
:109AE0001C1B0020E0590108F0590108005A010828
:109AF0001C230020085A0108C400002090B589B03A
:109B000002AF7860814B1800FFF7C2FB00237B6136
:109B100023E00824391978690A230A2200F0B8FFE3
:109B20007B685A1C7A601B78180079490A230A223C
:109B300000F0AEFF3B191800FFF7AAFB754B1800A9
:109B4000FFF7A6FB724B1800FFF7A2FB724B180041
:109B5000FFF79EFB7B6901337B61704B1B78013300
:109B60007A699A42D5DD6E4B5B781A006B4BDA60EE
:109B70006A4BD86866490A230A2200F089FF694BBC
:109B80001800FFF785FB624B1800FFF781FB664B5F
:109B90001800FFF77DFB624BDB781A005F4B1A6100
:109BA0005E4B18695A490A230A2200F071FF5F4B85
:109BB0001800FFF76DFB564B1800FFF769FB5A4B77
:109BC0001800FFF765FB554BDA68544B1B69D31A35
:109BD0009A1E524B5A61514B58694D490A230A2229
:109BE00000F056FF524B1800FFF752FB484B18008D
:109BF000FFF74EFB4C4B1800FFF74AFB474B002288
:109C00001A76464B362200219954444B4A220021B1
:109C10009954484B5B78022B3DD1404B1B69032B79
:109C200039DD3E4BDB68DBB20133DBB242493C48F5
:109C3000042200F06BFB394B1B69DBB20333DBB250
:109C40003E493748042200F061FB344B1B69DBB20C
:109C50000433DAB2314BDB68DBB20133DBB23849B3
:109C60002F4800F053FB344B1800FFF711FB354B26
:109C70001800FFF70DFB314B1800FFF709FB314BC4
:109C80001800FFF705FB2E4B1800FFF701FB264BD2
:109C90001800FFF7FDFA2C49294B022218000BF09F
:109CA000F6F9031E2DD129492548012300932C23C1
:109CB0001E2200F058FE2649244B032218000BF008
:109CC000E6F9031E0AD180235B0022480122190015
:109CD00001F056FD204B1800FFF7DAFA1F491B4B25
:109CE000022218000BF0D3F9031E0AD180235B0077
:109CF00018480022190001F043FD174B1800FFF728
:109D0000C7FAC046BD4607B090BDC046145A010808
:109D1000B01C0020245A0108285A01089816002077
:109D2000841A00202C5A0108305901083C5A0108B5
:109D3000485A01081C1B0020B0160020CE16002037
:109D4000E2160020585A01085C5A01081C23002022
:109D5000605A010800040048645A0108705A01085A
:109D600080B500AF214B1800FFF792FA204B10226C
:109D70001A701F4B0E225A701D4B00229A701C4BFA
:109D80000422DA701A4B4D221A71194B51225A7162
:109D9000174B54229A71164B5422DA71144B042239
:109DA0001A72134B02225A72114B00229A72104BF4
:109DB0007822DA720E4B00221A730D4B02225A736C
:109DC0000B4B50229A730A4B3222DA73094B102242
:109DD0009A60094B0E221A70084B0122DA70074B69
:109DE00001221A71C046BD4680BDC046745A0108A2
:109DF000A023002098160020C40000201C1B002077
:109E000080B500AF1C4B1800FFF742FA1B4B8222B3
:109E10001A701A4B0A225A70184B00229A70174B6C
:109E20000022DA70154B00221A71144B05225A7168
:109E3000124B68229A71114B6F22DA710F4B752207
:109E40001A720E4B73225A720C4B65229A720B4B8C
:109E50000022DA72094B00221A73094B0D229A6014
:109E6000084B0E221A70084B01225A70064B012231
:109E70001A71C046BD4680BD885A0108A023002043
:109E800098160020C40000201C1B002080B500AFE5
:109E90001C4B1800FFF7FCF91B4B30221A701A4BB1
:109EA0000B225A70184B00229A70174B0522DA7059
:109EB000154B68221A71144B6F225A71124B75227E
:109EC0009A71114B7322DA710F4B65221A720E4B85
:109ED0006F225A720C4B66229A720B4B6622DA7210
:109EE000094B31221A73094B0D229A60084B0E223E
:109EF0001A70084B01229A71064B01221A71C04652
:109F0000BD4680BDA05A0108A0230020981600205D
:109F1000C40000201C1B002080B584B000AF786016
:109F2000334B1800FFF7B4F9324B30221A70314B23
:109F30000A225A702F4B00229A702E4B0522DA709B
:109F40002C4B68221A712B4B6F225A71294B7522A8
:109F50009A71284B7322DA71264B65221A72254BAF
:109F60006F225A72234B66229A72224B6622DA7251
:109F70000923FB600BE07B685A1C7A6019781D4A44
:109F8000FB68D3180A1C1A70FB680133FB607B68FE
:109F90001B78002BEFD11849F8680A230A2200F039
:109FA00077FD164B1800FFF773F9134B1800FFF7F6
:109FB0006FF9134B1800FFF76BF9124BFA689A60B0
:109FC000114B0E221A70114B01229A710F4B012274
:109FD0001A71FB68DBB2023BDAB2064B5A700C4BCB
:109FE0001800FFF755F9C046BD4604B080BDC04615
:109FF000B45A0108A02300201C230020C45A0108E1
:10A000003059010898160020C40000201C1B0020B5
:10A01000D45A010890B58BB002AF7860A14AA24B28
:10A020001000190004231A000AF0EAFF7A689D4B19
:10A03000110018000BF016F89A4B1800FFF728F9DA
:10A0400098499A48012300932C231E2200F08BFC90
:10A050009749944B072218000BF019F8031E1AD1E8
:10A0600094499248002300932C231E2200F07BFC8D
:10A07000904A91498B4B18000AF0D4FF894B180085
:10A08000FFF706F98D4B01221A708C4B1B79002BC0
:10A0900001D1FFF765FE8A49824B062218000AF0BB
:10A0A000F6FF031E1AD183498048002300932C2316
:10A0B0001E2200F058FC7F4A82497A4B18000AF0B1
:10A0C000B1FF784B1800FFF7E3F87C4B00221A70C1
:10A0D0007D4B00225A707D4B0D221A707C49734BC8
:10A0E0000A2218000AF0D3FF031E06D18023DB01E9
:10A0F000784A1900100001F060FB77496B4B02228F
:10A1000018000AF0C4FF031E01D100F05DF9734985
:10A11000664B0A2218000AF0BAFF031E02D16B4BED
:10A1200004221A706E49614B092218000AF0AFFF31
:10A13000031E02D1654B00221A706A495B4B07224D
:10A1400018000AF0A4FF031E12D1564957480123F4
:10A15000009322231E2200F006FC6349514B052286
:10A1600018000AF094FF031E02D1584B04221A7003
:10A170005E494E4B0C2218000AF089FF031E0DD1D8
:10A180005B494A480123009322231E2200F0EBFB87
:10A190004A4B0122DA70494B01229A705549434BD0
:10A1A000032218000AF073FF031E51D1524B18000E
:10A1B000FFF76EF80923FB610C2439193B48022391
:10A1C00000932C231E2200F0CEFB2200BB185B78EC
:10A1D0003A2B03D1BB1800225A7005E00C23FB1860
:10A1E00000229A700A23FB610C23FB180A21180035
:10A1F00000F046FD0300BB61334B9B78002B08D178
:10A2000028492A48012300933A231E2200F0ABFB81
:10A210000CE0FB69DCB2FB69DAB2BB69DBB2D318D4
:10A22000DBB220492148220000F070F821491F4884
:10A23000012300932C231E2200F095FB2F4B1800C6
:10A24000FFF726F81D4B0022DA701F4B00225A71CF
:10A250002B49164B062218000AF019FF174B012252
:10A26000DA702849114B072218000AF010FF031E6C
:10A2700013D1254B1800FFF70BF8134B1B79012B5B
:10A280000BD1124B02221A700F4B00221A710E4B87
:10A2900001225A710D4B00221A70C046BD4609B00A
:10A2A00090BDC0461C230020F85A010898250020C4
:10A2B000FC5A010894250020045B01086026002058
:10A2C000185B0108205B01081C1B0020C400002053
:10A2D000345B010800080048405B0108445B01084A
:10A2E000505B01085C5B0108C8000020645B01084A
:10A2F000A41D0020745B01087C5B0108885B0108D9
:10A30000985B0108A05B0108A85B010880B588B0D4
:10A3100000AFF860B9601900FB1D1A70BB1D0A1C64
:10A320001A7001235B42BB61FA1DBB1D12781B78BA
:10A330009A4206D9234B1800FEF7AAFF01235B427D
:10A340003BE0BA1DFB1D12781B78D31ADAB2172333
:10A35000FB1801321A70FB1D1B78FA68D318FB60DA
:10A36000FB683B61FB1D1B783A69D3183B611F23D7
:10A37000FB1800221A700FE0FB681A78BB681A708D
:10A38000BB680133BB60FB680133FB601F217B1896
:10A390001A787B1801321A701F23FA181723FB183A
:10A3A00012781B789A42E7D3BB680133BB60BB6865
:10A3B00000221A700123BB61BB691800BD4608B0BA
:10A3C00080BDC046C45B010880B582B002AF1C4BA3
:10A3D0005B78012B05D11A4B00225A70194B0422CD
:10A3E0001A70174B9B78012B27D1154B00229A70BE
:10A3F000154B1800FEF74CFF144B1800FEF748FFF2
:10A4000013491148002300932E231E2200F0ABFABB
:10A410000F4B1A780F4B1B78D31A0AD0084B022225
:10A420009A70084B09221A700B4B1800FEF730FF88
:10A4300003E00A4B1800FEF72BFFC046BD4680BD67
:10A4400060260020C4000020A41D0020305901080F
:10A450001C230020D45B0108D85B0108E45B0108E1
:10A4600080B582B000AF0200FB1D1A700B4B1B6859
:10A470000B4AF91D0978D154084B1B685A1C074B2D
:10A480001A60064B1B68074A934202DD034B002209
:10A490001A60C046BD4602B080BDC04668030020B9
:10A4A000081E00201405000080B584B000AFF860DD
:10A4B000B9607A60FB68064A1A60BB68054A1A6090
:10A4C0007B6880221A60C046BD4604B080BDC0468D
:10A4D00074030020C8030020B0B58EB000AF00F0B8
:10A4E000D7F900F0F1FD00F047F800F03FF900F077
:10A4F0009FF800F0DBF800F009F980235900902361
:10A50000DB050122180001F03BF9FEF733FF802341
:10A51000DB0114480122190001F032F91C217B18DB
:10A52000114A31CA31C331CA31C312681A607B186B
:10A530000021180008F08BFF02000C4B1A603B0052
:10A540000B4A13CA13C313CA13C312681A603B0021
:10A550000021180008F07BFF0200064B1A6008F08B
:10A560006EFFFEE7000800480C5C01086C26002026
:10A57000285C01085827002090B599B000AF2C2422
:10A580003B19180034231A0000210AF042FD1C2355
:10A59000FB18180010231A0000210AF03AFD3B00B6
:10A5A00018001C231A0000210AF033FD3B19202259
:10A5B0001A603B1901221A623B1900225A623B19A8
:10A5C000180002F087FF031E01D000F0C7F91C211C
:10A5D0007B1807221A607B1803225A607B1800221E
:10A5E0009A607B188022D200DA607B180121180063
:10A5F00003F0F6FA031E01D000F0B0F93B000B4A5D
:10A600001A603B0000229A603B000022DA603B00A7
:10A6100000229A613B00180003F05CFC031E01D08D
:10A6200000F09CF9C046BD4619B090BD0300020081
:10A6300080B500AF1B4B1C4A1A601A4B8222520095
:10A640005A60184B00229A60164BE022D200DA6062
:10A65000144B00221A61134B00225A61114B8022C5
:10A6600092009A610F4B2022DA610E4B00221A628F
:10A670000C4B00225A620B4B00229A62094B0722B4
:10A68000DA62084B00221A63064B08225A63054B14
:10A69000180003F01DFD031E01D000F05FF9C04655
:10A6A000BD4680BD702600200038004080B500AF58
:10A6B000144B154A1A60134BE12252025A60114B97
:10A6C00000229A600F4B0022DA600E4B00221A61C2
:10A6D0000C4B0C225A610B4B00229A61094B002251
:10A6E000DA61084B00221A62064B00225A62054BBF
:10A6F000180003F0A5FD031E01D000F02FF9C0469D
:10A70000BD4680BDD42600200038014080B500AF92
:10A71000144B154A1A60134BE12252025A60114B36
:10A7200000229A600F4B0022DA600E4B00221A6161
:10A730000C4B0C225A610B4B00229A61094B0022F0
:10A74000DA61084B00221A62064B00225A62054B5E
:10A75000180003F075FD031E01D000F0FFF8C0469D
:10A76000BD4680BD5C2700200044004090B589B004
:10A7700000AF0C243B19180014231A0000210AF022
:10A7800048FC404B5A693F4B802109030A435A61F8
:10A790003C4B5A6980231B031340BB60BB68394B99
:10A7A0005A69384B802189020A435A61354B5A69EC
:10A7B00080239B0213407B607B68324B5A69314B8C
:10A7C0008021C9020A435A612E4B5A698023DB0259
:10A7D00013403B603B68E0231B022B48002219001A
:10A7E00000F0CEFFCF239B0028480022190000F084
:10A7F000C7FF802359009023DB050022180000F0DA
:10A80000BFFF3B19E02212021A603B1901225A6075
:10A810003B1900229A603B190022DA603B191A4A60
:10A820001900100000F034FE21007B18CF229200A6
:10A830001A600C003B1901225A603B1900229A60F1
:10A840003B190022DA603B19104A1900100000F091
:10A850001FFE21007B18802252001A607B18012203
:10A860005A607B1800229A607B180022DA607A18FE
:10A870009023DB051100180000F00AFEC046BD461B
:10A8800009B090BD001002400008004800040048D4
:10A8900080B584B000AF80239B05BB600023FB60C4
:10A8A0000023FB600EE0FB689B001C4A9446634457
:10A8B0001A00FB689B00B968CB1812681A60FB6825
:10A8C0000133FB60FB682F2BEDD9154B012252425F
:10A8D0009A62134B9A69124B01210A439A61104BF9
:10A8E0009B69012213407B607B680D4B00229A62BA
:10A8F0000C4B1A680B4B03218A431A60094B1A68E8
:10A90000084B03210A431A6062B6C046064B180082
:10A91000FEF7BEFCC046BD4604B080BD00900008F6
:10A920000010024000000140445C010880B582B084
:10A9300000AF786009F02AFEFA239B00180008F0A7
:10A94000D3FDFEF769FDF7E780B582B000AF786010
:10A95000322008F0C9FDFEF7B1FFF9E780B500AF7E
:10A9600072B6C046FEE780B586B000AFF860B96049
:10A970001900FB1D1A70BB1D0A1C1A701623FB1848
:10A9800000221A801423FB1800221A801323FB18BC
:10A9900000221A70FB1D1A78FB1D013A1A704AE05A
:10A9A0001623FB1800229B5EFA68D3181B78BA1D89
:10A9B00012789A4211D113217A182023FB181278A9
:10A9C0001B789A4241D07B181A787B1801321A7092
:10A9D0001423FB1800221A8024E016217B18002281
:10A9E0009B5EFA68D3181B781F2B1BD97B1800229B
:10A9F0009B5EFA68D21814203B1800215B5EB96890
:10AA0000CB1812781A703B1800229A5EFB1D1B7837
:10AA10009A4207DA3B1800229B5E9BB201339AB23E
:10AA20003B181A8016217B1800229B5E9BB20133D3
:10AA30009AB27B181A801623FB1800229B5EFA68D4
:10AA4000D3181B78002BABD100E0C0461323FA18B3
:10AA50002023FB1812781B789A4208D01423FB1885
:10AA600000221A801623FB18012252421A80142356
:10AA7000FB1800229B5EBA68D31800221A701623B6
:10AA8000FB1800229B5E1800BD4606B080BD00008A
:10AA900080B586B000AFF860B9601900BB1D1A80A0
:10AAA0007B1D0A1C1A7012217B1800221A801123A8
:10AAB000FB1801221A707B1D1B780A2B5FD16F4B8C
:10AAC0007B61FB68002B56DAFB685B42FB607B18FE
:10AAD00000229B5EBA68D3182D221A707B180022C0
:10AAE0009B5E9BB201339AB27B181A8043E0FB68ED
:10AAF00079691800FEF71AFB03001A0010217B1871
:10AB00001A707B181B78002B03D01123FB1800222E
:10AB10001A701123FB181B78002B13D112217B18FC
:10AB200000229B5EBA68D3181022BA18127830320D
:10AB3000D2B21A707B1800229B5E9BB201339AB28C
:10AB40007B181A80FA681023FB181B7879694B432D
:10AB5000D31AFB607B690A211800FEF7E7FA0300AD
:10AB60007B611223FB1800229A5EBB1D00215B5EF5
:10AB7000013B9A425DDA7B69002BB8D15CE07B1D1A
:10AB80001B78102B58D120237B614EE07B69043B5E
:10AB9000FA681A411300DAB210203B180F210A405C
:10ABA0001A703B181B78002B03D01123FB180022CE
:10ABB0001A701123FB181B78002B29D110217B1848
:10ABC0001B78092B0BD81223FB1800229B5EBA6856
:10ABD000D3187A1812783032D2B21A700FE01021DE
:10ABE0007B181B78092B0AD91223FB1800229B5EC5
:10ABF000BA68D3187A1812783732D2B21A70122182
:10AC00007B1800229B5E9BB201339AB27B181A809C
:10AC10007B69043B7B611223FB1800229A5EBB1DFB
:10AC200000215B5E013B9A4205DA7B69002BADD1C6
:10AC300002E0C04600E0C0461123FB181B78012B40
:10AC40000FD112217B1800229B5EBA68D3183022E4
:10AC50001A707B1800229B5E9BB201339AB27B185C
:10AC60001A801223FB1800229B5EBA68D3180022B8
:10AC70001A70BB681800BD4606B080BD00CA9A3B7A
:10AC800080B584B000AF78600A00FB1C1A70002306
:10AC9000FB60FB1C1B780A2B20D11AE07B681B7819
:10ACA0002F2B0FD97B681B78392B0BD8FA68130030
:10ACB0009B009B185B00FB607B681B78303BFA684D
:10ACC000D318FB607B681B782D2B02D97B6801337E
:10ACD0007B607B681B78002BE0D13EE0FB1C1B787F
:10ACE000102B3AD135E07B681B782F2B2ED9FB68CF
:10ACF0001B01FB607B681B782F2B0AD97B681B78B4
:10AD0000392B06D87B681B78303BFA681343FB600D
:10AD10001CE07B681B78602B0AD97B681B78662B4C
:10AD200006D87B681B78573BFA681343FB600DE03D
:10AD30007B681B78402B09D97B681B78462B05D88C
:10AD40007B681B78373BFA681343FB607B680133F1
:10AD50007B607B681B78002BC5D1FB681800BD4663
:10AD600004B080BD80B582B000AF124B9A69114B20
:10AD700001210A439A610F4B9B69012213407B60BA
:10AD80007B680C4BDA690B4B802149050A43DA6179
:10AD9000084BDA6980235B0513403B603B68022364
:10ADA0005B4200220321180000F0C2FAC046BD46F3
:10ADB00002B080BD0010024090B58BB000AF78604B
:10ADC00014243B19180014231A0000210AF021F959
:10ADD0007B681B681C4A934232D11C4BDA691B4BBF
:10ADE0008021C9010A43DA61184BDA698023DB014B
:10ADF00013403B613B69154B5A69144B8021C902D2
:10AE00000A435A61114B5A698023DB021340FB60ED
:10AE1000FB683B19E02212021A6021007B18022213
:10AE20005A607B1800229A607B180322DA607B1834
:10AE300000221A617B18064A1900100000F028FB56
:10AE4000C046BD460BB090BD003800400010024027
:10AE50000004004890B58DB000AF78601C243B1909
:10AE6000180014231A0000210AF0D3F87B681B682D
:10AE7000494A934234D1494B9A69484B8021C901D0
:10AE80000A439A61454B9A698023DB011340BB61F9
:10AE9000BB69424B5A69414B802189020A435A617E
:10AEA0003E4B5A6980239B0213407B617B693B19AF
:10AEB000C022D2001A6021007B1802225A607B183F
:10AEC00000229A607B180322DA607B1801221A6143
:10AED0007A189023DB051100180000F0D9FA56E02B
:10AEE0007B681B682E4A934251D12C4BDA692B4B5D
:10AEF000802189020A43DA61284BDA6980239B02A8
:10AF000013403B613B69254B5A69244B80218902E0
:10AF10000A435A61214B5A6980239B021340FB600C
:10AF2000FB681C243B1904221A603B1902225A6058
:10AF30003B1900229A603B190322DA603B19012277
:10AF40001A613A199023DB051100180000F0A0FAED
:10AF500021007B1808221A607B1802225A607B1895
:10AF600001229A607B180322DA607B1801221A61A1
:10AF70007A189023DB051100180000F089FA0022EE
:10AF800003211C2000F0D4F91C2000F0E6F9C04693
:10AF9000BD460DB090BDC0460038014000100240D3
:10AFA0000044004080B500AFFEE780B500AFFEE78B
:10AFB00080B500AF00F0D0F808F0A0FF0300012B2F
:10AFC00001D009F001F9C046BD4680BD80B500AF93
:10AFD000034B180003F014FBC046BD4680BDC046BD
:10AFE0005C27002080B500AF034B180000F036FD51
:10AFF000C046BD4680BDC0467834002080B586B0CE
:10B0000000AF7860144A154BD31A7B617B693B61B2
:10B01000134B1B68002B02D1114B124A1A60104BC4
:10B020001A687B68D3183A699A4207D209F0BEFFC2
:10B0300003000C221A6001235B4209E0084B1B68E5
:10B04000FB60074B1A687B68D218054B1A60FB68D7
:10B050001800BD4606B080BD00400020000400007E
:10B06000C80500208037002080B500AFC046BD462F
:10B0700080BD00000D4885460D480E490E4A00234C
:10B0800002E0D458C4500433C4188C42F9D30B4A9C
:10B090000B4C002301E013600432A242FBD3FFF704
:10B0A000E3FF09F089FFFFF717FAFEE700400020F1
:10B0B000C000002040030020805E01084003002003
:10B0C0007C370020FEE7000080B500AF074B1A6810
:10B0D000064B10210A431A60032000F009F8FFF71D
:10B0E00041FE00231800BD4680BDC046002002403E
:10B0F00090B583B000AF7860144B1C68144B1B787C
:10B100001900FA239800FEF711F803001900200037
:10B11000FEF70CF80300180000F02FF9031E01D011
:10B1200001230FE07B68032B0BD8796801235B4276
:10B130000022180000F0FCF8064B7A681A60002321
:10B1400000E001231800BD4603B090BD5C01002063
:10B15000640100206001002080B500AF054B1B7822
:10B160001A00054B1B68D218034B1A60C046BD4637
:10B1700080BDC04664010020E027002080B500AFFC
:10B18000024B1B681800BD4680BDC046E02700206A
:10B1900080B584B000AF7860FFF7F0FF0300BB60BC
:10B1A0007B68FB60FB68013305D00A4B1B781A00F3
:10B1B000FB689B18FB60C046FFF7E0FF0200BB681E
:10B1C000D31AFA689A42F7D8C046C046BD4604B0C2
:10B1D00080BDC0466401002080B582B000AF02008F
:10B1E000FB1D1A70FB1D1B787F2B09D8FB1D1B78DC
:10B1F0001A001F231A40044B012191400A001A60D3
:10B20000C046BD4602B080BD00E100E090B583B00D
:10B2100000AF02003960FB1D1A70FB1D1B787F2BED
:10B2200028D82F4AFB1D1B785BB29B08C0339B00BC
:10B230009B58FA1D1278110003220A40D200FF2108
:10B2400091400A00D2431A4011003B689B01FF2243
:10B250001A40FB1D1B78180003230340DB009A40B3
:10B260001F48FB1D1B785BB29B080A43C0339B0041
:10B270001A5031E01B4AFB1D1B7819000F230B40AD
:10B28000083B9B0806339B00D31804331B68FA1D48
:10B290001278110003220A40D200FF2191400A00D7
:10B2A000D2431A4011003B689B01FF221A40FB1D4C
:10B2B0001B78180003230340DB009A400948FB1D5C
:10B2C0001B781C000F232340083B9B080A430633CE
:10B2D0009B00C31804331A60C046BD4603B090BD3E
:10B2E00000E100E000ED00E080B582B000AF7860E2
:10B2F0007B685A1E80235B049A4201D3012310E02D
:10B300000A4B7A68013A5A6001235B420321180014
:10B31000FFF77CFF054B00229A60044B07221A605E
:10B3200000231800BD4602B080BDC04610E000E01A
:10B3300080B584B000AFB9607A600F217B18021C21
:10B340001A70BA687B181B785BB211001800FFF7FF
:10B350005DFFC046BD4604B080BD80B582B000AF81
:10B360000200FB1D1A70FB1D1B785BB21800FFF773
:10B3700033FFC046BD4602B080BD80B582B000AF8D
:10B3800078607B681800FFF7AFFF03001800BD4628
:10B3900002B080BD80B582B000AF78607B682122AA
:10B3A0009B5CDBB2022B08D07B6804229A637B682B
:10B3B000202200219954012320E07B681B681A6831
:10B3C0007B681B680E218A431A607B681B681A68B9
:10B3D0007B681B6801218A431A607B681A6C7B6852
:10B3E000DB6B012191400A005A607B682122012118
:10B3F00099547B6820220021995400231800BD46EF
:10B4000002B080BD80B584B000AF78600F217B189A
:10B4100000221A707B6821229B5CDBB2022B06D0D3
:10B420007B6804229A637B1801221A7028E07B68EB
:10B430001B681A687B681B680E218A431A607B6848
:10B440001B681A687B681B6801218A431A607B6845
:10B450001A6C7B68DB6B012191400A005A607B68A3
:10B460002122012199547B682022002199547B6874
:10B470005B6B002B04D07B685B6B7A68100098478D
:10B480000F23FB181B781800BD4604B080BD0000D8
:10B4900080B586B000AF7860396000237B6155E1EC
:10B4A0003B681B6801217A6991400A001340FB60E8
:10B4B000FB68002B00D146E13B685B680322134028
:10B4C000012B05D03B685B6803221340022B30D16F
:10B4D0007B689B683B617B695B0003229A40130099
:10B4E000DA433B6913403B613B68DA687B695B0088
:10B4F0009A4013003A6913433B617B683A699A604A
:10B500007B685B683B6101227B699A401300DA43E8
:10B510003B6913403B613B685B681B0901221A4091
:10B520007B699A4013003A6913433B617B683A692F
:10B530005A603B685B6803221340032B17D07B687B
:10B54000DB683B617B695B0003229A401300DA43AE
:10B550003B6913403B613B689A687B695B009A409A
:10B5600013003A6913433B617B683A69DA603B68D0
:10B570005B6803221340022B23D17B69DA087B68C6
:10B5800008329200D3583B617B69072213409B002D
:10B590000F229A401300DA433B6913403B613B683A
:10B5A0001A697B6907210B409B009A4013003A6996
:10B5B00013433B617B69DA087B6808329200396982
:10B5C000D1507B681B683B617B695B0003229A401A
:10B5D0001300DA433B6913403B613B685B6803221D
:10B5E0001A407B695B009A4013003A6913433B6140
:10B5F0007B683A691A603B685A68C0239B02134013
:10B6000000D1A0E0574B9A69564B01210A439A6139
:10B61000544B9B6901221340BB60BB68524A7B6953
:10B620009B0802339B009B583B617B6903221340BC
:10B630009B000F229A401300DA433B6913403B61A1
:10B640007A689023DB059A4219D07B68474A934277
:10B6500013D07B68464A93420DD07B68454A93429B
:10B6600007D07B68444A934201D1042308E00523B4
:10B6700006E0032304E0022302E0012300E00023AC
:10B680007A6903210A40920093403A6913433B616F
:10B6900035497B699B0802339B003A695A50374B06
:10B6A0001B683B61FB68DA433B6913403B613B68C5
:10B6B0005A6880235B02134003D03A69FB68134346
:10B6C0003B612E4B3A691A602C4B5B683B61FB680F
:10B6D000DA433B6913403B613B685A6880239B0215
:10B6E000134003D03A69FB6813433B61234B3A692B
:10B6F0005A60224B9B683B61FB68DA433B6913400D
:10B700003B613B685A6880235B03134003D03A696E
:10B71000FB6813433B61194B3A699A60174BDB682E
:10B720003B61FB68DA433B6913403B613B685A6805
:10B7300080239B03134003D03A69FB6813433B61AA
:10B740000E4B3A69DA607B6901337B613B681A68AA
:10B750007B69DA40131E00D0A2E6C046C046BD4653
:10B7600006B080BD00100240000001400004004807
:10B7700000080048000C0048001000480004014088
:10B7800080B582B000AF786008001100BB1C021CBD
:10B790001A807B1C0A1C1A707B1C1B78002B04D09F
:10B7A000BB1C1A887B689A6103E0BB1C1A887B6803
:10B7B0009A62C046BD4602B080BD80B584B000AF7D
:10B7C00078600A00BB1C1A807B685B69FB60BB1C4D
:10B7D0001B88FA6813401A04FB68DB43B91C09880C
:10B7E0000B401A437B689A61C046BD4604B080BDD9
:10B7F000F0B58BB006AF78607B68002B01D10123D8
:10B80000FFE07B68814A9B5CDBB2002B08D17A6841
:10B81000AA239B000021D1547B68180009F068F826
:10B820007B687A4A032199547B681B68180004F0EE
:10B83000D3F80F23FB1800221A7058E00F203B1892
:10B840001B7879685A1C13009B009B18DB00CB18EF
:10B85000013301221A703B181B7879685A1C1300B7
:10B860009B009B18DB003A1812785A5404003B18CE
:10B870001A783B191B7898B2796813009B009B18C3
:10B88000DB00CB183633021C1A803B191B78796811
:10B890005A1C13009B009B18DB00CB1803330022BB
:10B8A0001A703B191A78796813009B009B18DB000B
:10B8B000CB18383300221A603B191A7879681300C4
:10B8C0009B009B18DB00CB183C3300221A603B190D
:10B8D0001A78796813009B009B18DB00CB18403363
:10B8E00000221A603B191A783B1901321A700F2195
:10B8F0007B181A787B685B689A429FD37B1800227A
:10B900001A7056E00F243B191A7878686A23FF33BF
:10B91000190013009B009B18DB00C3185B18002262
:10B920001A703B191A787868B423590013009B00E9
:10B930009B18DB00C3185B183A1912781A703B1970
:10B940001A7878686C23FF33190013009B009B184A
:10B95000DB00C3185B1800221A703B191A7878684C
:10B96000BC23590013009B009B18DB00C3185B1815
:10B9700000221A603B191A787868BE235900130018
:10B980009B009B18DB00C3185B1800221A603B1950
:10B990001A787868C023590013009B009B18DB00BD
:10B9A000C3185B1800221A603B191A783B19013240
:10B9B0001A700F23FB181A787B685B689A42A1D330
:10B9C0007B6818687B686A4611001A00103270CADA
:10B9D00070C130CA30C159689A68DB6804F016F843
:10B9E0007B682422002199547B68084A01219954DC
:10B9F0007B68DB69012B03D17B68180001F034FD03
:10BA000000231800BD4605B0F0BDC046A9020000E5
:10BA100080B582B000AF78607A68AA239B00D35CBF
:10BA2000012B01D1022314E07A68AA239B00012193
:10BA3000D1547B681B68180003F0B8FF7B681B6853
:10BA4000180005F013FF7A68AA239B000021D15447
:10BA500000231800BD4602B080BD000080B582B052
:10BA600000AF78607B681B68180005F015FF0200C6
:10BA700080231B021A4080231B029A4203D17B6859
:10BA8000180000F0BBFB7B681B68180005F004FF82
:10BA900002008023DB001A408023DB009A4214D18D
:10BAA0007B681B6844229B5A9AB27B681B68A24938
:10BAB0000A4091B2442299527B68180008F0A3FF13
:10BAC0007B680021180000F045F97B681B681800AE
:10BAD00005F0E2FE02008023DB011A408023DB0137
:10BAE0009A420BD17B681B6844229B5A9AB27B68AE
:10BAF0001B6892490A4091B2442299527B681B68A4
:10BB0000180005F0C9FE020080239B011A40802323
:10BB10009B019A420BD17B681B6844229B5A9AB2C4
:10BB20007B681B6886490A4091B2442299527B681F
:10BB30001B68180005F0B0FE020080235B011A406C
:10BB400080235B019A4237D17B681B6840229B5A55
:10BB50009AB27B681B6804218A4391B240229952B1
:10BB60007B681B6840229B5A9AB27B681B6808213D
:10BB70008A4391B2402299527A68B8239B00D35CE1
:10BB8000012B09D17A68B8239B000021D1547B682E
:10BB90000021180001F092FC7B68180008F074FF87
:10BBA0007B681B6844229B5A9AB27B681B68654974
:10BBB0000A4091B2442299527B681B68180005F034
:10BBC0006BFE020080231B011A4080231B019A4256
:10BBD00027D17B681B6840229B5A9AB27B681B68FE
:10BBE00008210A4391B2402299527B681B68442283
:10BBF0009B5A9AB27B681B6853490A4091B244220F
:10BC000099527B681B6840229B5A9AB27B681B68DA
:10BC100004210A4391B2402299527B68180008F02F
:10BC200017FF7B681B68180005F036FE03008022B2
:10BC30001340802B45D17B681B6844229B5A9AB2E3
:10BC40007B681B6880218A4391B2442299527A68AA
:10BC5000B8239B00D35C002B2FD17B681B6840224C
:10BC60009B5A9AB27B681B6804210A4391B2402216
:10BC700099527B681B6840229B5A9AB27B681B686A
:10BC800008210A4391B2402299527A68B8239B0056
:10BC90000121D1547B681B6854229B5A9BB29B089C
:10BCA0003C22134019007A68B9239B00D1507B686D
:10BCB0000121180001F002FC03E07B68180008F085
:10BCC000C7FE7B681B68180005F0E6FD02008023B4
:10BCD0009B001A4080239B009A420FD17B681B680F
:10BCE00044229B5A9AB27B681B6818490A4091B259
:10BCF000442299527B68180008F076FE7B681B6826
:10BD0000180005F0C9FD020080235B001A40802363
:10BD10005B009A420BD17B681B6844229B5A9AB203
:10BD20007B681B680A490A4091B244229952C04676
:10BD3000BD4602B080BDC046FFFBFFFFFFBFFFFF57
:10BD4000FFDFFFFFFFEFFFFFFFF7FFFFFFFDFFFF3D
:10BD5000FFFEFFFF80B582B000AF78600A00FB1CD9
:10BD60001A707A68AA239B00D35C012B01D10223AD
:10BD700017E07A68AA239B000121D1547B68FA1C42
:10BD8000242112785A547B681A68FB1C1B7819000E
:10BD9000100005F057FD7A68AA239B000021D154BA
:10BDA00000231800BD4602B080BD90B585B000AF3D
:10BDB00078600C0010001900FB1C221C1A703B005C
:10BDC000021C1A80BB1C0A1C1A700B23FB180022D1
:10BDD0001A70FB1C1B785BB2002B0FDAFB1C1B7864
:10BDE000072213405A1C13009B009B18DB007A6843
:10BDF000D318FB60FB6801225A700FE0FB1C1B7814
:10BE000007221A4013009B009B18DB006933FF33A5
:10BE10007A68D318FB60FB6800225A70FB1C1B7801
:10BE200007221340DAB2FB681A703B001A88FB68DD
:10BE30001A61FB68BA1C1278DA70FB685B78002B19
:10BE400004D0FB681B789AB2FB68DA81BB1C1B78B4
:10BE5000022B02D1FB6800221A717A68AA239B0088
:10BE6000D35C012B01D1022313E07A68AA239B0043
:10BE70000121D1547B681B68FA681100180003F097
:10BE8000F1FD7A68AA239B000021D1540B23FB18F3
:10BE90001B781800BD4605B090BD80B584B000AFDA
:10BEA00078600A00FB1C1A70FB1C1B785BB2002B2D
:10BEB0000FDAFB1C1B78072213405A1C13009B004F
:10BEC0009B18DB007A68D318FB60FB6801225A706C
:10BED0000FE0FB1C1B7807221A4013009B009B18E5
:10BEE000DB006933FF337A68D318FB60FB680022FC
:10BEF0005A70FB1C1B7807221340DAB2FB681A70D9
:10BF00007A68AA239B00D35C012B01D1022311E0A4
:10BF10007A68AA239B000121D1547B681B68FA68C8
:10BF20001100180004F012F97A68AA239B0000217E
:10BF3000D15400231800BD4604B080BD80B586B042
:10BF400000AFF8607A603B600B203B180A1C1A7047
:10BF500001007B181B7807221A4013009B009B18D6
:10BF6000DB006933FF33FA68D3187B617B697A6839
:10BF70005A617B693A689A617B690022DA617B6960
:10BF800000225A707B181B7807221340DAB27B69B3
:10BF90001A707B181B780722134007D1FB681B68B7
:10BFA0007A691100180004F091FA06E0FB681B683A
:10BFB0007A691100180004F089FA00231800BD46C0
:10BFC00006B080BD80B582B000AF78600A00FB1C6F
:10BFD0001A70FB1C1B7807221A407868C22359008C
:10BFE00013009B009B18DB00C3185B181B6818002C
:10BFF000BD4602B080BD80B586B000AFF8607A6003
:10C000003B600B203B180A1C1A703B181B78072258
:10C0100013405A1C13009B009B18DB00FA68D318CE
:10C020007B617B697A685A617B693A689A617B694E
:10C030002422012199547B693A681A627B690022A3
:10C04000DA617B6901225A703B181B780722134082
:10C05000DAB27B691A703B181B780722134007D1AC
:10C06000FB681B687A691100180004F02FFA06E0DB
:10C07000FB681B687A691100180004F027FA002396
:10C080001800BD4606B080BD80B584B000AF7860B2
:10C090000A00FB1C1A70FB1C1B7807221A407B68E5
:10C0A0005B689A4201D9012346E0FB1C1B785BB216
:10C0B000002B0FDAFB1C1B78072213405A1C1300BD
:10C0C0009B009B18DB007A68D318FB60FB68012299
:10C0D0005A700DE0FB1C1A7813009B009B18DB00C4
:10C0E0006933FF337A68D318FB60FB6800225A700B
:10C0F000FB6801229A70FB1C1B7807221340DAB2FE
:10C10000FB681A707A68AA239B00D35C012B01D1CB
:10C11000022311E07A68AA239B000121D1547B6895
:10C120001B68FA681100180005F08AFA7A68AA23D9
:10C130009B000021D15400231800BD4604B080BDEF
:10C1400080B584B000AF78600A00FB1C1A70FB1C3D
:10C150001B780F221A407B685B689A4201D9012341
:10C1600048E0FB1C1B785BB2002B0FDAFB1C1B7832
:10C17000072213405A1C13009B009B18DB007A68AF
:10C18000D318FB60FB6801225A700FE0FB1C1B7880
:10C1900007221A4013009B009B18DB006933FF3312
:10C1A0007A68D318FB60FB6800225A70FB68002293
:10C1B0009A70FB1C1B7807221340DAB2FB681A70D6
:10C1C0007A68AA239B00D35C012B01D1022311E0E2
:10C1D0007A68AA239B000121D1547B681B68FA6806
:10C1E0001100180005F07CFA7A68AA239B00002150
:10C1F000D15400231800BD4604B080BDB0B596B040
:10C2000000AF786000F0D8FB7B681A6856203B18B6
:10C210004421525A1A803B181B88DAB255243B1924
:10C220000F210A401A703B191B78002B00D079E1CE
:10C230003B181B881022134054D17B681B681B8855
:10C240009AB20E203B18AF490A401A807B681B68DF
:10C250003A181288AC490A4392B21A807B68283394
:10C26000FB647B681B6850229B5A9BB21A00FB6CD4
:10C270001B78DB00D2187B681B68D318A34A94464E
:10C2800063441B889B059A0DFB6CDA61FB6C5A6951
:10C29000FB6CDB69D218FB6C5A617B6800211800CB
:10C2A00008F084FB7B6824229B5CDBB2002B01D16D
:10C2B00000F082FBFB6C9B69002B01D000F07CFB43
:10C2C0007B6824229B5CDBB2802252421343DAB2A9
:10C2D0007B681B6891B24C2299527B682422002112
:10C2E000995469E37B686933FF33FB647B681A68A0
:10C2F00052217B1812881A807B181A8880231B0110
:10C30000134037D07B681B6850229B5A9BB21A009F
:10C31000FB6C1B78DB00D2187B681B68D3187C4A47
:10C32000944663441B889B059A0DFB6CDA617B681D
:10C3300018687B68AC2292009918FB6CDA88FB6C59
:10C34000DB699BB205F0FAFA7B681B681B889AB21E
:10C3500010203B186F490A401A807B681B683A1806
:10C36000128880210A4392B21A807B68180008F074
:10C37000E7FA21E35223FB1800229B5E002B00DB2F
:10C380001AE37B681B681B889AB21E203B18614920
:10C390000A401A807B681B683A18128880210A4379
:10C3A00092B21A807B681B6850229B5A9BB21A007B
:10C3B000FB6C1B78DB00D2187B681B68D318544ACF
:10C3C000944663441B889B059A0DFB6CDA61FB6CF9
:10C3D000DB69002B1AD0FB6C5B69002B16D07B68E5
:10C3E0001868FB6C5969FB6CDA88FB6CDB699BB2E3
:10C3F00005F0A4FAFB6C5A69FB6CDB69D218FB6C84
:10C400005A617B680021180008F0AFFA7B681B684E
:10C410001B889BB21A0080231B01134000D0CBE283
:10C420007B681B68BB617B681B6850229B5A9BB270
:10C430001A00BB699B18BB61BB69354A94466344CB
:10C440007B61FB6C1B69002B10D17B691B889BB245
:10C45000314A13409AB27B691A807B691B889BB270
:10C46000294A13439AB27B691A802BE0FB6C1B6943
:10C470003E2B12D8FB6C1B695B087B64FB6C1B6951
:10C480000122134002D07B6C01337B647B6C9BB236
:10C490009B029AB27B691A8014E0FB6C1B695B09F2
:10C4A0007B64FB6C1B691F22134002D17B6C013B38
:10C4B0007B647B6C9BB29B029BB2134A13439AB280
:10C4C0007B691A807B681B681B889AB212203B1814
:10C4D00012490A401A803B183A18128880214901F3
:10C4E0004A401A803B183A181288802189014A4034
:10C4F0001A807B681B683A18128809490A4392B26D
:10C500001A8059E20F8FFFFF0080FFFF0204000036
:10C51000060400008F0F0000FF83FFFF8FBFFFFFA7
:10C520008080FFFF7B681B681A0055203B181B7832
:10C530009B00D21852217B1812881A807B18002287
:10C540009B5E002B00DBFAE07B681B681A003B183F
:10C550001B789B00D3181B889AB250243B19CF49F3
:10C560000A401A807B681B681A003B181B789B00E6
:10C57000D3183A19128880210A4392B21A803B18C4
:10C580001A7813009B009B18DB006933FF337A682D
:10C59000D318FB64FB6C1B7B002B25D17B681B68CD
:10C5A00050229B5A9BB21A00FB6C1B78DB00D218FE
:10C5B0007B681B68D318BA4A944663441A88482497
:10C5C0003B199205920D1A803B191B88002B00D154
:10C5D0008DE07B681868FB6C5969FB6CDA883B1945
:10C5E0001B8805F0ABF982E0FB6CDB78022B0CD1E9
:10C5F0004823FC185223FB181A88F96C7B68180032
:10C6000000F0EEF90300238071E07B681B681A00DC
:10C61000FB6C1B789B00D3181B889AB24A203B18EE
:10C62000A0490A401A807B681B681A00FB6C1B78C3
:10C630009B00D3183A1812889B490A4392B21A8079
:10C640007B681B681A00FB6C1B789B00D3181B8847
:10C650009BB21A008023DB01134024D07B681B6847
:10C6600050229B5A9BB21A00FB6C1B78DB00D2183D
:10C670007B681B68D3188D4A944663441A88482403
:10C680003B199205920D1A803B191B88002B2ED066
:10C690007B681868FB6C5969FB6C1A893B191B880D
:10C6A00005F04CF923E07B681B6850229B5A9BB233
:10C6B0001A00FB6C1B78DB00D2187B681B68D31850
:10C6C000774A944663441A8848243B199205920D90
:10C6D0001A803B191B88002B09D07B681868FB6CFB
:10C6E0005969FB6C5A893B191B8805F027F9FB6CCB
:10C6F000DA6948217B181B88D218FB6CDA61FB6C65
:10C700005A697B181B88D218FB6C5A61FB6C9B69B9
:10C71000002B05D07B181A88FB6C1B699A4207D244
:10C72000FB6C1A787B681100180008F01EF906E00F
:10C730007B681B68FA6C1100180003F0C7FE5224D6
:10C740003B191B888022134000D135E155203B184E
:10C750001B785A1C13009B009B18DB007A68D318C7
:10C76000FB647B681B681A003B181B789B00D3187E
:10C770001B889AB242257B194D490A401A807B6872
:10C780001B681A003B181B789B00D3187A19128873
:10C7900048490A4392B21A80FB6CDB78022B00D125
:10C7A000ADE0FB6C00229A613B191B8840221340CC
:10C7B00046D0FB6C5B78002B25D17B681B687B62C5
:10C7C0007B681B6850229B5A9BB21A007B6A9B189D
:10C7D0007B62FB6C1B78DA007B6AD318334A944681
:10C7E00063443B623B6A1B889BB2334A13409AB254
:10C7F0003B6A1A803B6A1B889BB22E4A13439AB24B
:10C800003B6A1A8073E0FB6C5B78012B6FD17B680D
:10C810001B68FB627B681B6850229B5A9BB21A0004
:10C82000FB6A9B18FB62FB6C1B78DA00FB6AD3186F
:10C830001E4A94466344BB62BB6A00221A8056E0DB
:10C840007B681B68FB63FB6C5B78002B36D17B68D5
:10C850001B687B637B681B6850229B5A9BB21A0043
:10C860007B6B9B187B63FB6C1B78DA007B6BD318AC
:10C870000B4A944663443B633B6B1B889BB20E4A56
:10C8800013409AB23B6B1A803B6B1B889BB2094AE0
:10C8900013439AB23B6B1A8029E0C0468F0F000009
:10C8A000060400008F8FFFFFC080FFFF020400001E
:10C8B0000F8FFFFF0080FFFFFF83FFFFFB6C5B78A4
:10C8C000012B14D17B681B6850229B5A9BB21A0023
:10C8D000FB6B9B18FB63FB6C1B78DA00FB6BD318BC
:10C8E0003D4A94466344BB63BB6B00221A80FB6CD9
:10C8F0001A787B681100180008F058F85CE0FB6CAF
:10C90000DB78022B50D15223FB181A8880235B005E
:10C91000134049D17B681B6850229B5A9BB21A0076
:10C92000FB6C1B78DB00D2187B681B68D3182B4A82
:10C93000944663441A8840217B189205920D1A8010
:10C94000FB6C9A697B181B889A4207D9FB6C9A6921
:10C950007B181B88D21AFB6C9A6102E0FB6C0022E8
:10C960009A61FB6C9B69002B07D1FB6C1A787B6882
:10C970001100180008F01AF81EE0FB6C5A694021FB
:10C980007B181B88D218FB6C5A61FB6CDA697B1828
:10C990001B88D218FB6CDA617B681B68FA6C11008B
:10C9A000180003F093FD07E05223FB181A88F96C76
:10C9B0007B68180000F030F97B681B6844229B5AA2
:10C9C0009BB21BB2002B01DAFFF71EFC00231800FC
:10C9D000BD4616B0B0BDC04606040000020400000B
:10C9E00090B589B000AFF860B960BB1D1A80BB1D5F
:10C9F0001A888023DB01134000D17DE0FB681B68AF
:10CA000050229B5A9BB21A00BB681B78DB00D218DD
:10CA1000FB681B68D3187A4A944663441A881A2123
:10CA20007B189205920D1A80BB689A697B181B8847
:10CA30009A4207D3BB689A697B181B88D21ABB68D5
:10CA40009A6102E0BB6800229A61BB689B69002B77
:10CA500021D1FB681B681A00BB681B789B00D318A8
:10CA60001B889AB218203B1866490A401A803B1866
:10CA70003A181288802189014A401A80FB681B6895
:10CA80001A00BB681B789B00D3183A1812885E49BD
:10CA90000A4392B21A80BB1D1B88402213401AD051
:10CAA000FB681B681A00BB681B789B00D3181B88A7
:10CAB0009AB216203B1855490A401A80FB681B6839
:10CAC0001A00BB681B789B00D3183A18128850498B
:10CAD0000A4392B21A801A243B191B88002B00D1FA
:10CAE00086E0FB681868BB685969BB681A893B19FE
:10CAF0001B8804F023FF7BE0FB681B6850229B5AD5
:10CB00009BB21A00BB681B78DB00D218FB681B685D
:10CB1000D318404A944663441A881A217B18920518
:10CB2000920D1A80BB689A697B181B889A4207D3BA
:10CB3000BB689A697B181B88D21ABB689A6102E0AD
:10CB4000BB6800229A61BB689B69002B21D1FB68FE
:10CB50001B681A00BB681B789B00D3181B889AB20D
:10CB60001E203B1827490A401A803B183A181288A1
:10CB7000802189014A401A80FB681B681A00BB6843
:10CB80001B789B00D3183A1812881F490A4392B2A7
:10CB90001A80BB1D1B88402213401AD1FB681B68FA
:10CBA0001A00BB681B789B00D3181B889AB21C2004
:10CBB0003B1816490A401A80FB681B681A00BB68BC
:10CBC0001B789B00D3183A18128811490A4392B275
:10CBD0001A801A243B191B88002B09D0FB6818689F
:10CBE000BB685969BB685A893B191B8804F0A6FECB
:10CBF0001A23FB181B881800BD4609B090BDC0461B
:10CC0000020400008FBFFFFF8080FFFF8F8FFFFFB8
:10CC1000C080FFFF0604000080B5A2B000AFF8603E
:10CC2000B960BB1D1A80BB1D1B884022134000D178
:10CC3000C8E1FB681B6850229B5A9BB21A00BB6874
:10CC40001B78DB00D218FB681B68D318D74A9446C0
:10CC500063441A884E217B189205920D1A80BB6896
:10CC60009A697B181B889A4207D9BB689A697B1816
:10CC70001B88D21ABB689A6102E0BB6800229A61E5
:10CC8000BB689B69002B00D0B5E0BB685B78002BCC
:10CC900025D1FB681B68BB62FB681B6850229B5A4E
:10CCA0009BB21A00BB6A9B18BB62BB681B78DA0098
:10CCB000BB6AD318BD4A944663447B627B6A1B8877
:10CCC0009BB2BB4A13409AB27B6A1A807B6A1B886C
:10CCD0009BB2B84A13439AB27B6A1A801BE0BB68C6
:10CCE0005B78012B17D1FB681B683B63FB681B68F3
:10CCF00050229B5A9BB21A003B6B9B183B63BB684C
:10CD00001B78DA003B6BD318A84A94466344FB6255
:10CD1000FB6A00221A80FB681B683B62BB685B7879
:10CD2000002B25D1FB681B68BB61FB681B68502288
:10CD30009B5A9BB21A00BB699B18BB61BB681B78EE
:10CD4000DA00BB69D3189C4A944663447B617B69D3
:10CD50001B889BB2964A13409AB27B691A807B6902
:10CD60001B889BB2934A13439AB27B691A8018E0DE
:10CD7000BB685B78012B14D1FB681B6850229B5A5F
:10CD80009BB21A003B6A9B183B62BB681B78DA00B7
:10CD90003B6AD318884A94466344FB61FB690022CE
:10CDA0001A80BB681A78FB681100180007F0FEFDB6
:10CDB000BB1D1A888023DB01134000D1D4E2FB683D
:10CDC0001B681A00BB681B789B00D3181B889AB29B
:10CDD00012203B1879490A401A80FB681B681A0028
:10CDE000BB681B789B00D3183A18128874490A4311
:10CDF00092B21A80B8E2BB1D1A888023DB0113406F
:10CE00001AD0FB681B681A00BB681B789B00D318FC
:10CE10001B889AB244203B1868490A401A80FB6874
:10CE20001B681A00BB681B789B00D3183A1812883D
:10CE300063490A4392B21A80BB6824229B5C012B8F
:10CE400000D091E2BB685A694E217B181B88D2182A
:10CE5000BB685A61BB68DA697B181B88D218BB684B
:10CE6000DA61BB681A6ABB681B699A4209D3BB685E
:10CE70001B693B65BB681A6A3B6DD21ABB681A62B4
:10CE800016E0BB681B6A002B08D14E23FB181B88D9
:10CE90003B65BB6824220021995409E0BB68242229
:10CEA00000219954BB681B6A3B65BB6800221A626B
:10CEB000BB685B78002B50D1FB681B68BB63FB68C9
:10CEC0001B6850229B5A9BB21A00BB6B9B18BB631A
:10CED000BB681B78DA00BB6BD318344A94466344B2
:10CEE0007B633B6D002B10D17B6B1B889BB2304A60
:10CEF00013409AB27B6B1A807B6B1B889BB22D4AC6
:10CF000013439AB27B6B1A8044E03B6D3E2B10D8E2
:10CF10003B6D5B08BB643B6D0122134002D0BB6CD0
:10CF20000133BB64BB6C9BB29B029AB27B6B1A80D1
:10CF300030E03B6D5B09BB643B6D1F22134002D1A7
:10CF4000BB6C013BBB64BB6C9BB29B029BB2194A9E
:10CF500013439AB27B6B1A801CE0BB685B78012B91
:10CF600018D1FB681B683B64FB681B6850229B5A06
:10CF70009BB21A003B6C9B183B64BB681B78DA00C1
:10CF80003B6CD318094A94466344FB633B6D9AB2E9
:10CF9000FB6B1A80FB681868BB685969BB681A8903
:10CFA0003B6D9BB204F086FCDEE1C046020400004B
:10CFB000FF83FFFF0080FFFF060400008F8FFFFF4D
:10CFC00080C0FFFFFB681B6850229B5A9BB21A006F
:10CFD000BB681B78DB00D218FB681B68D318CA4AF1
:10CFE000944663441A884E217B189205920D1A804C
:10CFF000BB689A697B181B889A4207D3BB689A69F9
:10D000007B181B88D21ABB689A6102E0BB680022B9
:10D010009A61BB689B69002B00D0C0E0BB685B785D
:10D02000002B25D1FB681B68FB66FB681B68502240
:10D030009B5A9BB21A00FB6E9B18FB66BB681B7861
:10D04000DA00FB6ED318B14A94466344BB66BB6EEC
:10D050001B889BB2AE4A13409AB2BB6E1A80BB6E5D
:10D060001B889BB2AB4A13439AB2BB6E1A801BE07B
:10D07000BB685B78012B17D1FB681B687B67FB687B
:10D080001B6850229B5A9BB21A007B6F9B187B67D0
:10D09000BB681B78DA007B6FD3189C4A94466344C4
:10D0A0003B673B6F00221A80FB681B68BB67BB684D
:10D0B0005B78002B30D1FB681B6880217A181360E5
:10D0C000FB681B6850229B5A9BB21A007B181B6896
:10D0D0009B187A181360BB681B78DA007B181B68F2
:10D0E000D318894A9446634484217A1813607B18C4
:10D0F0001B681B889BB2864A13409AB27B181B6838
:10D100001A807B181B681B889BB2824A13439AB211
:10D110007B181B681A8018E0BB685B78012B14D160
:10D12000FB681B6850229B5A9BB21A00BB6F9B186E
:10D13000BB67BB681B78DA00BB6FD318724A944692
:10D140006344FB67FB6F00221A80BB681A78FB6898
:10D150001100180007F02AFCBB1D1A888023DB0190
:10D16000134000D000E1FB681B681A00BB681B7805
:10D170009B00D3181B889AB246203B1866490A4088
:10D180001A80FB681B681A00BB681B789B00D318C9
:10D190003A18128861490A4392B21A80E4E0BB1D32
:10D1A0001A888023DB0113401AD1FB681B681A0020
:10D1B000BB681B789B00D3181B889AB24C203B1885
:10D1C00055490A401A80FB681B681A00BB681B7827
:10D1D0009B00D3183A18128850490A4392B21A8019
:10D1E000BB6824229B5C012B00D0BDE0BB685A6960
:10D1F0004E217B181B88D218BB685A61BB68DA695C
:10D200007B181B88D218BB68DA61BB681A6ABB68D6
:10D210001B699A4209D3BB681B693B65BB681A6AE4
:10D220003B6DD21ABB681A6216E0BB681B6A002B02
:10D2300008D14E23FB181B883B65BB6824220021C4
:10D24000995409E0BB681B6A3B65BB6800221A62FF
:10D25000BB68242200219954FB681B687B66BB686D
:10D260005B78002B5CD1FB681B68FB65FB681B6867
:10D2700050229B5A9BB21A00FB6D9B18FB65BB6842
:10D280001B78DA00FB6DD3181F4A94466344BB65D4
:10D290003B6D002B10D1BB6D1B889BB21C4A134009
:10D2A0009AB2BB6D1A80BB6D1B889BB2194A13439F
:10D2B0009AB2BB6D1A804DE03B6D3E2B10D83B6D92
:10D2C0005B087B653B6D0122134002D07B6D01330F
:10D2D0007B657B6D9BB29B029AB2BB6D1A8039E075
:10D2E0003B6D5B097B653B6D1F22134002D17B6D5B
:10D2F000013B7B657B6D9BB29B029BB2054A13434E
:10D300009AB2BB6D1A8025E00604000002040000FA
:10D31000FF83FFFF0080FFFF8F8FFFFF80C0FFFFB5
:10D32000BB685B78012B15D1FB681B6850229B5AA8
:10D330009BB21A007B6E9B187B66BB681B78DA0079
:10D340007B6ED3181E4A944663443B663B6D9AB28B
:10D350003B6E1A80FB681868BB685969BB685A89BC
:10D360003B6D9BB204F0A6FAFB681B681A00BB6811
:10D370001B789B00D3181B889AB210203B181149C8
:10D380000A401A803B183A18128810214A401A8025
:10D390003B183A18128820214A401A80FB681B6803
:10D3A0001A00BB681B789B00D3183A1812880649EC
:10D3B0000A4392B21A8000231800BD4622B080BDF5
:10D3C00006040000BF8FFFFF8080FFFF90B587B08D
:10D3D00000AFF860080011007B600A243B19021CB2
:10D3E0001A800823FB180A1C1A8021007B181B884E
:10D3F000802213409BB2002B0CD07B181B88072285
:10D4000013405A1C13009B009B18DB00FA68D318CA
:10D410007B610BE00A23FB181A8813009B009B1802
:10D42000DB006933FF33FA68D3187B610823FB18EC
:10D430001B88002B07D17B6900221A737B689AB284
:10D440007B69DA800BE07B6901221A737B689AB2F0
:10D450007B691A817B681B0C9AB27B695A81002315
:10D460001800BD4607B090BD80B584B000AF7860AD
:10D470007B681B68FB607A68BA239B000121D1504E
:10D480007A68B8239B000021D154FB6854229B5A30
:10D490009BB20122134399B2FB6854229952FB6854
:10D4A00054229B5A9BB20222134399B2FB68542226
:10D4B000995200231800BD4604B080BD80B582B0EB
:10D4C00000AF78600A00FB1C1A70C046BD4602B06F
:10D4D00080BD000080B588B000AF78607B68002B0D
:10D4E00002D1012300F076FB7B681B680122134008
:10D4F00000D18EE0C54B5B680C221340042B0ED08C
:10D50000C24B5B680C221340082B17D1BF4B5A68E3
:10D51000C0235B021A4080235B029A420ED1BB4BB0
:10D520001A6880239B02134000D171E07B685B681E
:10D53000002B00D06CE0012300F04CFB7B685B68A3
:10D54000012B07D1B14B1A68B04B802149020A4325
:10D550001A602FE07B685B68002B0CD1AB4B1A681C
:10D56000AA4BAB490A401A60A84B1A68A74BA949B5
:10D570000A401A601EE07B685B68052B0ED1A34B46
:10D580001A68A24B8021C9020A431A609F4B1A688D
:10D590009E4B802149020A431A600BE09B4B1A689C
:10D5A0009A4B9B490A401A60984B1A68974B9949C5
:10D5B0000A401A607B685B68002B14D0FDF7DEFD23
:10D5C0000300BB6108E0FDF7D9FD0200BB69D31A77
:10D5D000642B01D90323FDE28C4B1A6880239B0244
:10D5E0001340F0D015E0FDF7C9FD0300BB6108E072
:10D5F000FDF7C4FD0200BB69D31A642B01D90323D4
:10D60000E8E2824B1A6880239B021340F0D100E0CD
:10D61000C0467B681B680222134000D16CE07B4B44
:10D620005B680C2213400ED0784B5B680C221340D1
:10D63000082B1FD1754B5A68C0235B021A40802308
:10D640001B029A4216D1714B1B680222134005D06F
:10D650007B68DB68012B01D00123BBE26B4B1B68AD
:10D66000F822934319007B681B69DA00674B0A4371
:10D670001A6041E07B68DB68002B24D0634B1A689A
:10D68000624B01210A431A60FDF778FD0300BB617C
:10D6900008E0FDF773FD0200BB69D31A022B01D924
:10D6A000032397E2594B1B6802221340F1D0574BDA
:10D6B0001B68F822934319007B681B69DA00534BFF
:10D6C0000A431A6018E0514B1A68504B01218A43F3
:10D6D0001A60FDF753FD0300BB6108E0FDF74EFD46
:10D6E0000200BB69D31A022B01D9032372E2474B14
:10D6F0001B6802221340F1D17B681B68082213408B
:10D7000036D07B68DB69002B19D0404B5A6A3F4BFF
:10D7100001210A435A62FDF731FD0300BB6108E0B5
:10D72000FDF72CFD0200BB69D31A022B01D903239C
:10D7300050E2364B5B6A02221340F1D018E0334BC3
:10D740005A6A324B01218A435A62FDF717FD0300E2
:10D75000BB6108E0FDF712FD0200BB69D31A022B82
:10D7600001D9032336E2294B5B6A02221340F1D12F
:10D770007B681B680422134000D1B5E01F203B18D2
:10D7800000221A70214BDA6980235B05134010D107
:10D790001E4BDA691D4B802149050A43DA611B4B98
:10D7A000DA6980235B051340FB60FB683B180122AC
:10D7B0001A70194B1A6880235B0013401AD1164B5C
:10D7C0001A68154B802149000A431A60FDF7D6FC00
:10D7D0000300BB6108E0FDF7D1FC0200BB69D31A6E
:10D7E000642B01D90323F5E10B4B1A6880235B00FE
:10D7F0001340F0D07B689B68012B0FD1034B1A6A52
:10D80000024B01210A431A6236E0C0460010024072
:10D81000FFFFFEFFFFFFFBFF007000407B689B687F
:10D82000002B0CD1CA4B1A6AC94B01218A431A62D8
:10D83000C74B1A6AC64B04218A431A621CE07B68F4
:10D840009B68052B0CD1C24B1A6AC14B04210A43B9
:10D850001A62BF4B1A6ABE4B01210A431A620BE0DF
:10D86000BB4B1A6ABA4B01218A431A62B84B1A6A37
:10D87000B74B04218A431A627B689B68002B14D043
:10D88000FDF77CFC0300BB6109E0FDF777FC0200BB
:10D89000BB69D31AAF4A934201D903239AE1AC4B37
:10D8A0001B6A02221340F0D013E0FDF767FC03006F
:10D8B000BB6109E0FDF762FC0200BB69D31AA54A0F
:10D8C000934201D9032385E1A14B1B6A0222134035
:10D8D000F0D11F23FB181B78012B05D19C4BDA6973
:10D8E0009B4B9D490A40DA617B681B6810221340FC
:10D8F00063D07B685B69012B2AD1954B5A6B944BA3
:10D9000004210A435A63924B5A6B914B01210A43FB
:10D910005A63FDF733FC0300BB6108E0FDF72EFC02
:10D920000200BB69D31A022B01D9032352E1884BB1
:10D930005B6B02221340F1D0854B5B6BF822934363
:10D9400019007B689B69DA00814B0A435A6334E013
:10D950007B685B69053311D17D4B5A6B7C4B04218D
:10D960008A435A637A4B5B6BF822934319007B68B6
:10D970009B69DA00764B0A435A631EE0744B5A6B7C
:10D98000734B04210A435A63714B5A6B704B01214C
:10D990008A435A63FDF7F2FB0300BB6108E0FDF721
:10D9A000EDFB0200BB69D31A022B01D9032311E15D
:10D9B000674B5B6B02221340F1D17B681B6820220E
:10D9C00013405CD0624B5B680C2213400C2B0ED0D2
:10D9D0005F4B5B680C221340082B14D15C4B5A68D8
:10D9E000C0235B021A40C0235B029A420BD1584B02
:10D9F0005A6B80235B02134040D07B681B6A012B6B
:10DA00003CD00123E6E07B681B6A002B1BD0504B07
:10DA10005A6B4F4B802149020A435A63FDF7AEFB14
:10DA20000300BB6108E0FDF7A9FB0200BB69D31A44
:10DA3000022B01D90323CDE0454B5A6B80235B02B7
:10DA40001340F0D01BE0424B5A6B414B43490A4014
:10DA50005A63FDF793FB0300BB6108E0FDF78EFB03
:10DA60000200BB69D31A022B01D90323B2E0384B61
:10DA70005A6B80235B021340F0D100E0C0467B6804
:10DA80005B6A002B00D1A4E0314B5B680C22134091
:10DA9000082B00D178E07B685B6A022B4CD12C4BC1
:10DAA0001A682B4B2E490A401A60FDF767FB0300EA
:10DAB000BB6108E0FDF762FB0200BB69D31A022BD1
:10DAC00001D9032386E0224B1A6880239B0413406C
:10DAD000F0D11F4BDB6A0F22934319007B681A6B4E
:10DAE0001B4B0A43DA621A4B5B681E4A134019004B
:10DAF0007B68DA6A7B689B6A1A43154B0A435A6053
:10DB0000134B1A68124B802149040A431A60FDF72F
:10DB100035FB0300BB6108E0FDF730FB0200BB6989
:10DB2000D31A022B01D9032354E0094B1A6880232E
:10DB30009B041340F0D04CE0054B1A68044B084995
:10DB40000A401A60FDF71AFB0300BB6115E0C046EE
:10DB50000010024088130000FFFFFFEFFFFFFEFFF1
:10DB6000FFFFFFFEFF7FC2FFFDF708FB0200BB695E
:10DB7000D31A022B01D903232CE0184B1A688023F7
:10DB80009B041340F0D124E07B685B6A012B01D138
:10DB900001231FE0114B5B687B61104BDB6A3B612B
:10DBA0007A69C0235B021A407B689B6A9A420ED155
:10DBB0003B690F221A407B681B6B9A4207D17A6936
:10DBC000F0239B031A407B68DB6A9A4201D0012351
:10DBD00000E000231800BD4608B080BD00100240E0
:10DBE00080B584B000AF786039607B68002B01D1CC
:10DBF0000123BFE0614B1B68012213403A689A423F
:10DC000011D95E4B1B680122934319005B4B3A68A4
:10DC10000A431A60594B1B68012213403A689A4222
:10DC200001D00123A6E07B681B680222134015D0B7
:10DC30007B681B680422134006D0514B5A68504B36
:10DC4000E021C9000A435A604D4B5B68F0229343C0
:10DC500019007B689A684A4B0A435A607B681B68C4
:10DC6000012213404CD07B685B68012B07D1444BE9
:10DC70001A6880239B02134020D101237AE07B683D
:10DC80005B68022B07D13E4B1A6880239B0413402C
:10DC900014D101236EE07B685B68032B07D1384BFE
:10DCA0005A6B80235B02134008D1012362E0344B9E
:10DCB0001B680222134001D101235BE0304B5B68FB
:10DCC0000322934319007B685A682D4B0A435A601C
:10DCD000FDF754FA0300FB6009E0FDF74FFA02007C
:10DCE000FB68D31A274A934201D9032342E0244B0D
:10DCF0005B680C221A407B685B689B009A42ECD1FF
:10DD00001E4B1B68012213403A689A4211D21B4BEA
:10DD10001B68012293431900184B3A680A431A60A2
:10DD2000164B1B68012213403A689A4201D0012326
:10DD300020E07B681B680422134009D0104B5B680D
:10DD4000114A134019007B68DA680D4B0A435A6088
:10DD500000F020F801000A4B5B681B090F221340FA
:10DD60000A4AD35C0A00DA40094B1A600320FDF727
:10DD7000BFF900231800BD4604B080BD002002405A
:10DD80000010024088130000FFF8FFFF3C5D01080F
:10DD90005C01002090B58FB000AF1423FB18384A07
:10DDA00013CA13C312681A603B1D364A13CA13C341
:10DDB00012681A600023FB620023BB6200237B63AE
:10DDC00000237B6200233B632F4B5B68FB62FB6A93
:10DDD0000C2213400C2B47D049D8042B02D0082B1F
:10DDE00003D044E0294B3B6344E0FB6A9B0C0F22C9
:10DDF00013401422BA18D35C7B62234BDB6A0F22D8
:10DE000013403A1DD35CBB62FA6AC0235B021A401E
:10DE100080235B029A4209D1B96A1C48FBF786F954
:10DE200003001A007B6A53437B631AE0FA6AC0233B
:10DE30005B021A40C0235B029A4209D1B96A1448B6
:10DE4000FBF774F903001A007B6A53437B6308E015
:10DE5000B96A0E48FBF76AF903001A007B6A53435C
:10DE60007B637B6B3B6305E0094B3B6302E0074B45
:10DE70003B63C0463B6B1800BD460FB090BDC0462B
:10DE8000845C0108945C01080010024000127A00D2
:10DE9000006CDC0280B500AF024B1B681800BD4669
:10DEA00080BDC0465C01002080B500AFFFF7F2FFE7
:10DEB0000100064B5B681B0A07221340044AD35C2F
:10DEC000D9400B001800BD4680BDC046001002407E
:10DED0004C5D010880B586B000AF786000233B61DF
:10DEE0000023FB607B681A6880235B02134000D12B
:10DEF0008EE017203B1800221A706E4BDA698023DF
:10DF00005B05134010D16B4BDA696A4B80214905E0
:10DF10000A43DA61674BDA6980235B051340BB6013
:10DF2000BB683B1801221A70634B1A6880235B00A0
:10DF300013401AD1604B1A685F4B802149000A4395
:10DF40001A60FDF71BF903003B6108E0FDF716F9C5
:10DF500002003B69D31A642B01D90323A6E0564B78
:10DF60001A6880235B001340F0D0524B1A6AC0231A
:10DF70009B001340FB60FB68002B34D07B685A6821
:10DF8000C0239B001340FA689A422CD0494B1B6A6D
:10DF90004A4A1340FB60474B1A6A464B80214902AC
:10DFA0000A431A62434B1A6A424B45490A401A62B5
:10DFB000404BFA681A62FB680122134013D0FDF748
:10DFC000DDF803003B6109E0FDF7D8F802003B698A
:10DFD000D31A3C4A934201D9032367E0354B1B6AAD
:10DFE00002221340F0D0334B1B6A344A134019000D
:10DFF0007B685A682F4B0A431A621723FB181B7859
:10E00000012B05D12B4BDA692A4B2F490A40DA61E3
:10E010007B681B680122134009D0264B1B6B03222F
:10E02000934319007B689A68224B0A431A637B6802
:10E030001B680222134009D01E4B1B6B234A13405E
:10E0400019007B68DA681B4B0A431A637B681B68FC
:10E050002022134009D0174B1B6B10229343190049
:10E060007B681A69134B0A431A637B681A6880231A
:10E070009B02134009D00F4B1B6B80229343190066
:10E080007B689A690B4B0A431A637B681A68802382
:10E09000DB00134009D0074B1B6B40229343190050
:10E0A0007B685A69034B0A431A6300231800BD4674
:10E0B00006B080BD0010024000700040FFFCFFFF72
:10E0C000FFFFFEFF88130000FFFFFFEFFFFFFCFFD5
:10E0D00080B584B000AF78607B68002B01D101234C
:10E0E000A8E07B685B6A002B09D17B685A688223B1
:10E0F0005B009A4209D07B680022DA6105E07B6808
:10E1000000221A617B6800225A617B6800229A62B1
:10E110007B685D229B5CDBB2002B07D17B685C22B5
:10E12000002199547B681800FCF746FE7B685D224D
:10E13000022199547B681B681A687B681B68402120
:10E140008A431A607B68DA68E023DB009A4202D9CE
:10E150000023FB6002E080235B01FB607B68DA68E0
:10E16000F0231B019A4208D07B68DA68E023DB00C9
:10E170009A4202D07B6800229A627B685A688223A6
:10E180005B001A407B68996884231B020B401A438A
:10E190007B681B6902210B401A437B685B69012184
:10E1A0000B401A437B68996980239B000B401A43FC
:10E1B0007B68DB6938210B401A437B681B6A80212E
:10E1C0000B401A4311007B689A6A80239B011A4016
:10E1D0007B681B680A431A607B689B691B0C0422DE
:10E1E0001A407B685B6A10210B401A437B685B6BAB
:10E1F00008210B401A437B68D968F0231B010B40B0
:10E200001A431100FA6880235B011A407B681B687F
:10E210000A435A607B681B68DA697B681B68074998
:10E220000A40DA617B6800221A667B685D22012160
:10E23000995400231800BD4604B080BDFFF7FFFFCE
:10E2400080B582B000AF78607B68002B01D10123DC
:10E2500044E07B689B6F002B07D17B687422002110
:10E2600099547B681800FCF7F5FD7B6824229A67B7
:10E270007B681B681A687B681B6801218A431A60E7
:10E280007B68180000F0B8FC0300012B01D10123CA
:10E2900024E07B685B6A002B03D07B68180000F0E9
:10E2A00033FE7B681B685A687B681B680D490A400F
:10E2B0005A607B681B689A687B681B682A218A43BE
:10E2C0009A607B681B681A687B681B6801210A4397
:10E2D0001A607B68180000F0CBFE03001800BD46F2
:10E2E00002B080BDFFB7FFFF80B58AB002AFF86013
:10E2F000B9603B60BB1D1A80FB689B6F202B00D070
:10E3000096E0BB68002B03D0BB1D1B88002B01D1FE
:10E3100001238EE0FB689A6880235B019A4209D151
:10E32000FB681B69002B05D1BB680122134001D09B
:10E3300001237EE0FB6874229B5C012B01D1022348
:10E3400077E0FB68742201219954FB688022002148
:10E350009950FB6821229A67FCF710FF03007B614C
:10E36000FB68BA1D502112885A52FB68BA1D52210F
:10E3700012885A52FB689A6880235B019A4208D13E
:10E38000FB681B69002B04D10023FB61BB68BB61E8
:10E3900003E0BB68FB610023BB61FB6874220021C2
:10E3A00099542DE07A69F8683B68009313000022C5
:10E3B000802100F0A5FE031E01D0032339E0FB6994
:10E3C000002B0BD1BB691A88FB681B68D205D20DE4
:10E3D00092B21A85BB690233BB6108E0FB691A7807
:10E3E000FB681B6892B21A85FB690133FB61FB680D
:10E3F00052229B5A9BB2013B99B2FB68522299521E
:10E40000FB6852229B5A9BB2002BCBD17A69F868E9
:10E410003B68009313000022402100F071FE031EB0
:10E4200001D0032305E0FB6820229A67002300E067
:10E4300002231800BD4608B080BD000080B588B03A
:10E4400000AFF860B960BB1D1A80FB689B6F202B82
:10E4500000D06AE0BB68002B03D0BB1D1B88002BDB
:10E4600001D1012362E0FB689A6880235B019A4234
:10E4700009D1FB681B69002B05D1BB680122134041
:10E4800001D0012352E0FB6874229B5C012B01D177
:10E4900002234BE0FB68742201219954FB68BA689F
:10E4A000DA64FB68BA1D502112885A52FB68BA1D03
:10E4B000522112885A52FB6800229A66FB68802219
:10E4C00000219950FB6821229A67FB689A68802393
:10E4D0005B019A4207D1FB681B69002B03D1FB68E3
:10E4E000144A9A6602E0FB68134A9A66FB68742233
:10E4F00000219954EFF310833B613B69FB610123D9
:10E500007B617B6983F31088C046FB681B681A68CF
:10E51000FB681B6880210A431A60FB69BB61BB6909
:10E5200083F31088C046002300E002231800BD4694
:10E5300008B080BD8FF50008DBF4000880B588B016
:10E5400000AFF860B960BB1D1A80FB68DB6F202B41
:10E5500050D1BB68002B03D0BB1D1B88002B01D101
:10E56000012348E0FB689A6880235B019A4209D145
:10E57000FB681B69002B05D1BB680122134001D049
:10E58000012338E0FB6874229B5C012B01D102233C
:10E5900031E0FB68742201219954FB6800221A665D
:10E5A000FB681B685A6880231B04134019D0EFF3E3
:10E5B00010833B613B69FB6101237B617B6983F3D2
:10E5C0001088C046FB681B681A68FB681B688021BE
:10E5D000C9040A431A60FB69BB61BB6983F31088F5
:10E5E000C046BB1D1A88B968FB68180000F04CFED5
:10E5F000030000E002231800BD4608B080BD000003
:10E6000090B5ABB000AF78607B681B68DB69A42273
:10E61000B9180B607B681B681B68A02039180B6059
:10E620007B681B689B689C2179180B601100BB18E4
:10E630001B68994A13409822BC182360BB181B68BA
:10E64000002B14D17B181B68202213400FD03B18DD
:10E650001B68202213400AD07B685B6E002B00D120
:10E6600096E27B685B6E7A681000984790E2982388
:10E67000FB181B68002B00D114E19C23FB181B68BE
:10E680000122134006D1A023FB181B68834A1340C4
:10E6900000D107E1A423FB181B680122134012D00C
:10E6A000A023FB181A6880235B0013400BD07B6803
:10E6B0001B6801221A627B6880229B5801221A4340
:10E6C0007B6880215A50A423FB181B680222134048
:10E6D00011D09C23FB181B68012213400BD07B68D0
:10E6E0001B6802221A627B6880229B5804221A430C
:10E6F0007B6880215A50A423FB181B680422134016
:10E7000011D09C23FB181B68012213400BD07B689F
:10E710001B6804221A627B6880229B5802221A43DB
:10E720007B6880215A50A423FB181B6808221340E1
:10E7300017D0A023FB181B682022134005D19C236F
:10E74000FB181B68012213400BD07B681B68082252
:10E750001A627B6880229B5808221A437B688021BA
:10E760005A50A423FB181A6880231B01134013D0AE
:10E77000A023FB181A688023DB0413400CD07B68AD
:10E780001B68802212011A627B6880229B5820221B
:10E790001A437B6880215A507B6880229B58002B4B
:10E7A00000D1F7E1A423FB181B68202213400ED0F0
:10E7B000A023FB181B682022134008D07B685B6EE7
:10E7C000002B04D07B685B6E7A68100098477B68EA
:10E7D00080229B5894217A1813607B681B689B6881
:10E7E00040221340402B04D07B181B682822134082
:10E7F00047D07B68180000F0F7FD7B681B689B68BA
:10E8000040221340402B37D1EFF310833B663B6E21
:10E8100090203A18136001237B667B6E83F3108887
:10E82000C0467B681B689A687B681B6840218A43E6
:10E830009A603B181B68BB66BB6E83F31088C046AA
:10E840007B681B6F002B12D07B681B6F144A5A63C6
:10E850007B681B6F1800FCF7D5FD031E1AD07B6880
:10E860001B6F5A6B7B681B6F1800904712E07B6828
:10E87000180000F0ADF90DE07B68180000F0A8F971
:10E8800008E07B68180000F0A3F97B688022002173
:10E8900099507FE1C0467DE10F080000200100048F
:10E8A000ADF400087B681B6E012B00D031E1A4237E
:10E8B000FB181B681022134000D12AE1A023FB188B
:10E8C0001B681022134000D123E17B681B681022D3
:10E8D0001A627B681B689B6840221340402B00D063
:10E8E0009BE07B681B6F1B685A687E217B181A802F
:10E8F0007B181B88002B00D14EE17B6858229B5A65
:10E900007A1812889A4200D346E17B687A185A2115
:10E9100012885A527B681B6F9B69202B6ED0EFF3D5
:10E9200010833B633B6BBB6701237B637B6B83F390
:10E930001088C0467B681B681A687B681B689A4908
:10E940000A401A60BB6FBB63BB6B83F31088C04681
:10E95000EFF31083FB63FB6B7B6701233B643B6C32
:10E9600083F31088C0467B681B689A687B681B68C5
:10E9700001218A439A607B6F7B647B6C83F31088F0
:10E98000C046EFF31083BB64BB6C3B670123FB64A1
:10E99000FB6C83F31088C0467B681B689A687B68B1
:10E9A0001B6840218A439A603B6F3B653B6D83F354
:10E9B0001088C0467B682022DA677B6800221A66CE
:10E9C000EFF310837B657B6DFB660123BB65BB6D3D
:10E9D00083F31088C0467B681B681A687B681B68D5
:10E9E00010218A431A60FB6EFB65FB6D83F3108870
:10E9F000C0467B681B6F1800FCF7CCFC7B68582274
:10EA00009A5A7B685A215B5A9BB2D31A9AB27B6896
:10EA10001100180000F0E4F8BEE07B685822995A13
:10EA20007B685A229B5A9AB28E203B188A1A1A8007
:10EA30007B685A229B5A9BB2002B00D1AEE03B1858
:10EA40001B88002B00D1A9E0EFF31083FB60FB686B
:10EA500088243A19136001233B613B6983F31088D2
:10EA6000C0467B681B681A687B681B684F490A4070
:10EA70001A603B191B687B617B6983F31088C04671
:10EA8000EFF31083BB61BB6984243A19136001233F
:10EA9000FB61FB6983F31088C0467B681B689A683A
:10EAA0007B681B6801218A439A603B191B683B62A3
:10EAB0003B6A83F31088C0467B682022DA677B6854
:10EAC00000221A667B6800225A66EFF310837B628D
:10EAD0007B6A80243A1913600123BB62BB6A83F30B
