:020000040800F2
:109000000040002085D00008CDCF0008D3CF000855
:109010000000000000000000000000000000000050
:109020000000000000000000000000009D15010885
:109030000000000000000000C1160108D9CF0008A0
:10904000D5D00008D5D00008D5D00008D5D000086C
:10905000D5D00008D5D00008D5D00008D5D000085C
:10906000D5D00008D5D00008D5D00008D5D000084C
:10907000D5D00008D5D00008D5D00008D5D000083C
:10908000D5D00008D5D00008D5D00008D5D000082C
:10909000D5D00008D5D00008D5D00008D5D000081C
:1090A000D5D00008D5D00008D5D00008D5D000080C
:1090B000F5CF0008D5D00008D5D00008D5D00008DD
:1090C00010B5064C2378002B07D1054B002B02D09E
:1090D000044800E000BF0123237010BD48010020B8
:1090E0000000000008250108044B10B5002B03D038
:1090F0000349044800E000BF10BDC0460000000066
:109100004C0100200825010802780B78002A03D0C2
:10911000013001319A42F7D0D01A70470023C25C67
:109120000133002AFBD1581E7047000003B471467A
:10913000490840004900095E49008E4403BC70475D
:10914000002243088B4274D303098B425FD3030A86
:109150008B4244D3030B8B4228D3030C8B420DD399
:10916000FF22090212BA030C8B4202D31212090227
:1091700065D0030B8B4219D300E0090AC30B8B4265
:1091800001D3CB03C01A5241830B8B4201D38B0313
:10919000C01A5241430B8B4201D34B03C01A5241B8
:1091A000030B8B4201D30B03C01A5241C30A8B42FB
:1091B00001D3CB02C01A5241830A8B4201D38B02E6
:1091C000C01A5241430A8B4201D34B02C01A52418A
:1091D000030A8B4201D30B02C01A5241CDD2C309FC
:1091E0008B4201D3CB01C01A524183098B4201D378
:1091F0008B01C01A524143098B4201D34B01C01A63
:10920000524103098B4201D30B01C01A5241C308DA
:109210008B4201D3CB00C01A524183088B4201D349
:109220008B00C01A524143088B4201D34B00C01A35
:109230005241411A00D20146524110467047FFE7A1
:1092400001B5002000F006F802BDC0460029F7D0A5
:1092500076E770477047C046B0B500AF714B180055
:1092600001F0B2F9704AA0235B001E21D1506F4A71
:109270006F4B1000190005231A0008F057FC6B4AC9
:109280006C4B1000190005231A0008F04FFC674AC8
:10929000694B1000190005231A0008F047FC624BC7
:1092A000664A13CA13C303CA03C312781A705E4B0B
:1092B000634A13CA13C31188198092789A70614B5C
:1092C00000221A60604B00221A806049604B142211
:1092D000180006F013F95E4B1B681A685C4B1B689C
:1092E000902149000A431A605A495B4B3222180008
:1092F00006F004F9594B01220821180004F048FA3D
:10930000574B0022DA61484B00229A67534B0122E7
:109310000821180004F03CFA434AB2235B00002104
:10932000D150414AB4235B000021D1503E4AB623BC
:109330005B000021D1503C4AB8235B000021D15092
:10934000394ABA235B00FA218900D150364ABC233E
:109350005B000021D150344ABE235B000121D15073
:10936000404B00221A60404B00221A603E4B1B68A3
:10937000180036490A230A2203F09EFB354A3B4B6C
:10938000100019000E231A0008F0D0FB2F4A314BB1
:109390001100180008F0FCFB2E4B1800FFF7BEFE72
:1093A00003001A002B4BD218314B10001900032375
:1093B0001A0008F0BBFB274B180001F005F9254AFD
:1093C0002C4B100019000C231A0008F0AFFB164AB2
:1093D000BA235B00D0581D490A230A2203F06CFB14
:1093E0001A4A1C4B1100180008F0D2FB194B180048
:1093F000FFF794FE03001A00164BD2181C4B100006
:10940000190003231A0008F091FB124B180001F019
:10941000DBF8054AC4235B000021D150C046BD469D
:10942000B0BDC04620250108201700203E170020AF
:109430002C250108342501083C2501084425010894
:109440005C2501087C0100206401002078150020C3
:10945000901A002034140020081A0020000400484C
:109460002C1100206C150020C40000206C25010880
:109470007C2501088025010890B5C7B000AFF04BEE
:109480001868F0490A230A2203F016FBDC243B1972
:109490001800FFF743FE03001A003B199A18EA4B25
:1094A0001000190002231A0008F040FBE54A3B199E
:1094B0001100180008F06CFBE44B1B78362B01D927
:1094C00000F076FE9A00E24BD3181B689F46E14BF2
:1094D0001B88022B0ED880231B02DF4800221900B4
:1094E00004F056F9DB4B1B8801339AB2D94B1A8032
:1094F00000F061FED94B00220421180004F048F965
:10950000D24B02221A7000F056FED54B180001F023
:109510005BF880231B02D0480122190004F038F9BF
:10952000CC4B00221A80C94B03221A7000F043FE74
:10953000CC4B180001F048F8C64B1B88032B11D800
:10954000C64B01220421180004F022F9C14B1B88EC
:1095500001339AB2BF4B1A80C34B180001F034F8A4
:1095600000F029FEBD4B00220421180004F010F980
:10957000B64B04221A70BD4B180001F025F800F01C
:109580001AFEBB4B180000F0CDFFB04B05221A703D
:1095900000F011FEB74B180000F0C4FFAB4B0022E7
:1095A0001A7000F008FEB44B180001F00DF8B34B30
:1095B000180000F0B7FFB24B01225A60B04B0122F5
:1095C0001A60A24B07221A7000F0F5FDAD4B18008F
:1095D00000F0A8FF9D4B08221A7000F0ECFDAA4B8A
:1095E000180000F09FFFA94AA8235B000521D15075
:1095F000964B09221A70954B0A221A7000F0DBFD77
:10960000A34B180000F08EFF904B0A221A708F4B6C
:1096100011221A7000F0CFFD9E4B180000F082FF5F
:109620008A4B20221A70894B22221A7000F0C3FD47
:10963000994B180000F0C8FF02F022F9974B180070
:1096400000F070FF814B24221A70804B00221A70A8
:109650007E4B22221A7000F0AEFD914B180000F0F4
:1096600061FF7A4B0C221A70784B0E221A7000F0B0
:10967000A2FD8C498C4B0722180008F09EFA031EAD
:1096800004D18A4B180000F04DFF0BE08849864B4F
:109690000322180008F091FA031E03D1854B18002D
:1096A00000F040FF794A9A235B000021D150774AAD
:1096B0009C235B000121D150644B00221A7000F002
:1096C0007AFD7D4B180000F02DFF7C4BF822002125
:1096D00099505E4B18221A7000F06DFD784B1800FF
:1096E00000F020FF594B00221A70684A9A235B0051
:1096F000D358012B01D000F05DFD544B0C221A70A1
:1097000000F058FD5E4B01229A606E4B180000F08D
:109710005BFF01F057FF031E08D16B4B6B4A03CA76
:1097200003C31188198092789A7005E0684A664BE5
:109730001100180008F039FA634B644A03CA03C3E6
:109740001188198092789A70624B180000F03CFFE3
:109750005D4B180000F038FF5F4B180000F034FF3D
:109760005E4A5A4B1100180001F0F4FD474A9A2353
:109770005B000121D150354B00221A7000F01BFD17
:10978000574B180000F020FF564ADC243B1911000B
:10979000180008F00AFA3B191800FFF7BFFC030095
:1097A0001A003B199A18504B1000190003231A0095
:1097B00008F0BCF93B19180000F0B4FE304B002251
:1097C0005A62224B00221A7000F0F5FC474B180039
:1097D00000F0A8FE1D4B00221A701C4B0A221A70C2
:1097E00000F0E9FC424B180000F09CFE244B0122E3
:1097F0009A61264B00229A67144B13221A7000F0CC
:10980000DAFC3C4B180000F08DFE104B00221A7061
:1098100000F0D1FC012003F0C3FC374B180000F02E
:1098200081FE1A4B00229A67154B0022DA61174B12
:10983000802200219950054B00221A7000F0BBFCD9
:1098400070150020781500208C250108C00000202C
:109850003832010864010020000800480004004874
:10986000902501089C250108AC250108BC250108AC
:10987000C8250108D4250108E0250108EC250108C8
:109880002C110020F82501080426010820170020CB
:10989000102601081C2601083C260108482601085C
:1098A0005826010864260108F51700206C260108D7
:1098B00080260108842601089826010898120020B5
:1098C000A8260108B42601089C120020C026010821
:1098D000D2170020CC2601087C2501089413002013
:1098E000D4260108C8140020DC260108E02601085F
:1098F000F02601080027010810270108764B0022F6
:109900001A70764B8022012199503B00744A13CA89
:1099100013C303CA03C33B00724A13CA13C31168BB
:10992000196092889A806D4A3B001100180008F077
:109930002FF93B001800FFF7F1FB03001A003B0072
:109940009A18694B1000190003231A0008F0EEF86A
:10995000664A3B001100180008F01AF93B00180095
:10996000FFF7DCFB03001A003B009A18604B100065
:10997000190003231A0008F0D9F85E4B180000F014
:1099800023FE564B9B6F002B0DD15B4B180000F054
:109990001BFE3B00180000F017FE3B00180000F013
:1099A000C1FD00F008FC4C4B16221A7000F003FCBD
:1099B000524B180000F0B6FD484B80220021995010
:1099C000454B00221A7000F0F6FB3B004C4A03CADC
:1099D00003C312781A704B4A3B001100180008F0BC
:1099E000D7F83B001800FFF799FB03001A003B0073
:1099F0009A183F4B1000190003231A0008F096F83C
:109A00003B00180000F08EFD3F4B00221A62324BE3
:109A100000221A7000F0CFFB304AAA235B0001211C
:109A2000D1503A4B180000F0CFFD2C4ABE235B000A
:109A3000D358002B00D099E1284BDB6F002B77D156
:109A4000334B180000F0C0FD324A334B10001900B0
:109A500006231A0008F06AF8304A2E4B110018004D
:109A600008F096F82E4B1868C82439190A230A22E0
:109A700003F022F8274B1800FFF750FB03001A00F1
:109A8000244BD218274B1000190004231A0008F0A9
:109A90004DF83A191F4B1100180008F079F8224BC5
:109AA000186839190A230A2203F006F8194B18001E
:109AB000FFF734FB03001A00164BD2181B4B1000A3
:109AC000190004231A0008F031F83A19114B11005B
:109AD000180008F05DF839E0C000002020170020D1
:109AE0002027010834270108482701083E170020D5
:109AF0007C2501084C2701085C2701086C27010818
:109B00007C270108981200202C11002088270108CA
:109B100098270108A0140020A82701084417002056
:109B200070150020B027010898190020B4270108FB
:109B3000E54AE64B1000190006231A0007F0F6FF6D
:109B4000E34AE14B1100180008F022F8E14B8422AF
:109B50009B58012B24D1DF4B842200219950DA4AF3
:109B6000DD4B1000190002231A0007F0DFFFD64B6F
:109B70001800FFF7D3FA03001A00D34BD218D34BC7
:109B80001000190006231A0007F0D0FFD04ACE4B70
:109B90001100180007F0FCFFCB4B180001F0EEFF9E
:109BA000CC4B88229B58012B24D1CA4B8822002100
:109BB0009950C54AC84B1000190002231A0007F03B
:109BC000B5FFC14B1800FFF7A9FA03001A00BE4BFE
:109BD000D218C24B1000190008231A0007F0A6FF84
:109BE000BF4AB94B1100180007F0D2FFB64B18005E
:109BF00001F0C4FFB74B8C229B58012B24D1B54BED
:109C00008C2200219950B04AB34B10001900022356
:109C10001A0007F08BFFAC4B1800FFF77FFA030028
:109C20001A00A94BD218AF4B100019000A231A00D2
:109C300007F07CFFAC4AA44B1100180007F0A8FF06
:109C4000A14B180001F09AFFA24A8C235B00D35865
:109C5000012B1FD19F4A8C235B000021D1509A4ACF
:109C60009D4B1000190002231A0007F05FFF964B6E
:109C70001800FFF753FA03001A00934BD2189B4BBE
:109C80001000190007231A0007F050FF8E4B180030
:109C900001F074FF8F4A8A235B00D358012B25D132
:109CA0008C4A8A235B000021D150874A8A4B1000DE
:109CB000190002231A0007F039FF834B1800FFF741
:109CC0002DFA03001A00804BD218894B100019009E
:109CD00005231A0007F02AFF864A7B4B1100180063
:109CE00007F056FF784B180001F048FF794A8E23A1
:109CF0005B00D358012B25D1764A8E235B000021CF
:109D0000D150714A744B1000190002231A0007F059
:109D10000DFF6D4B1800FFF701FA03001A006A4BA4
:109D2000D218754B1000190006231A0007F0FEFE2A
:109D3000724A654B1100180007F02AFF624B1800A9
:109D400001F01CFF604B1800FFF7E8F903001A0050
:109D50005D4BD2186A4B1000190003231A0007F05C
:109D6000E5FE594B180000F0DDFB1EE0594AC02308
:109D70005B000121D150634B1B78042B14D014DC01
:109D8000032B0ED011DC012B02D0022B06D00CE0ED
:109D900000F016FB5C4B00221A6006E000F052FB5C
:109DA00003E000F089FB00E0C046584B00221A7027
:109DB00001E2574B180000F007FC564B180000F06A
:109DC000B1FB524B00221A70F5E1534B180000F022
:109DD000A9FB404AAA235B000021D1504B4B002233
:109DE0001A70E8E14D4B180000F09CFBE3E14C4B8E
:109DF000180000F097FBDEE14A4B180000F0E4FB8E
:109E0000494B180000F08EFBD5E1484B180000F0DC
:109E1000DBFB474B180000F085FB3C4B23221A70FC
:109E2000C9E1444B180000F0CFFB434B180000F091
:109E300079FB364B2A221A70344B00221A70BAE191
:109E40003E4B180000F0C0FB3D4B180000F06AFBD1
:109E50002E4B00221A70AEE13A4B180000F0B4FB12
:109E6000394B180000F05EFB1A4AB2235B00012157
:109E7000D150264B25221A709DE1344B180000F07A
:109E8000A3FB334B180000F04DFB204B00221A704F
:109E900091E1304B180000F097FB2F4B180000F0B9
:109EA00041FB1A4B29221A70184B2A221A7082E1A0
:109EB0002A4B180000F088FB294B180000F032FBF9
:109EC000124B00221A7076E1A0140020B827010876
:109ED000B4170020201700208C250108C027010896
:109EE000D2170020C8270108E6170020D427010850
:109EF000DC27010824180020E42701086C17002043
:109F0000DC260108D000002068150020C0000020D9
:109F1000EC270108FC270108002801080C2801088B
:109F2000142801081C2801082828010830280108E5
:109F3000402801085C2801087028010888280108C9
:109F400098280108B0280108BC280108E028010869
:109F5000F0280108002901080C2901082829010816
:109F600034290108C84B180000F02EFBC74B18001D
:109F700000F0D8FAC64B00221A701CE1C54B18003D
:109F800000F022FBC44B180000F0CCFAC04B2C228E
:109F90001A70BF4B00221A700DE1C04B180000F080
:109FA00013FBBF4B180000F0BDFAB94B00221A702A
:109FB00001E1BC4B180000F0B5FAB54B00221A7055
:109FC000F9E0B94B180000F0ADFAB14B00221A705D
:109FD000F1E0B64B180000F0A5FAAD4B00221A7064
:109FE000E9E0B34B180000F09DFAA94B00221A706B
:109FF000E1E0B04B180000F0E7FA3B00AE4A03CABC
:10A0000003C31188198092789A70AC4A3B00110002
:10A01000180007F0BDFD3B001800FFF77FF80300B4
:10A020001A003B009A18A64B1000190002231A00D0
:10A0300007F07CFDA34B1B681800A3490A230B22E1
:10A0400002F03AFDA04A3B001100180007F0A0FD05
:10A050003B001800FFF762F803001A003B009A1853
:10A060009A4B1000190003231A0007F05FFD3B0014
:10A07000180000F0A9FA3B00180000F053FA944AC7
:10A08000B4235B000121D150814B00221A7092E071
:10A090003B00904A03CA03C31188198092789A70D2
:10A0A000864A3B001100180007F072FD3B001800C3
:10A0B000FFF734F803001A003B009A18804B100099
:10A0C000190002231A0007F031FD834B1B681800AA
:10A0D0007D490A230A2202F0EFFC7B4A3B00110073
:10A0E000180007F055FD3B001800FFF717F80300B4
:10A0F0001A003B009A18754B1000190003231A0030
:10A1000007F014FD3B00180000F00CFA734B01221D
:10A110001A705F4B00221A705D4B2F221A70694B28
:10A120001A686D4B1B68D218664B1A6043E06C4B83
:10A13000180000F049FA3B006A4A13CA13C35F4A89
:10A140003B001100180007F023FD3B001800FEF74C
:10A15000E5FF03001A003B009A185C4B1000190041
:10A1600003231A0007F0E2FC3B00180000F02CFA71
:10A170003B00180000F0D6F9524B00221A60544AF6
:10A18000BC235B000021D150414B33221A7012E0F6
:10A19000554B180000F018FA544B180000F014FA50
:10A1A0003B4B26221A7006E0394B00221A7002E05F
:10A1B000C04600E0C046464B9B6F002B04D14C4B81
:10A1C0001B685A1C4A4B1A60494B1B68132B19DD3C
:10A1D000484B5B68012B15D13D4AB2235B00D35835
:10A1E000002B0FD1424B00221A60434B180000F0A5
:10A1F000EBF9274B0C221A70254B0E221A70244BB8
:10A2000018221A703B4BDB69002B0CD1394B1B68B1
:10A21000012B08D12E4A9E235B00D358591C2C4A8F
:10A220009E235B00D1502A4A9E235B00D2582849C6
:10A23000A0235B00CB589A4267DB154B1B78002BA1
:10A2400063D12C4B9B68002B5FD12A4B1B68012BE1
:10A250005BD11F4AB2235B00D358002B55D11C4A57
:10A260009E235B000021D150224BDB69002B03D1E0
:10A27000074B12221A7048E01E4BDB69012B3DD1BF
:10A28000034B15221A7040E04429010850290108A7
:10A29000C00000207829010884290108A4290108A8
:10A2A000B0290108C0290108D4290108E8290108BA
:10A2B000082A0108302A01083C2A010884190020D4
:10A2C0008C250108C4000020781500207C25010899
:10A2D00020170020482A0108CC0000207C1900200B
:10A2E000542A0108642A0108702A0108842A0108F6
:10A2F0006C1500202C1100208C2A0108284B9B692A
:10A30000012B02D1274B14221A70274AB0235B007D
:10A31000D3583B2B09DD244AB0235B000021D150E8
:10A32000FEF79AFF1F4B01221A70204B1A68E12397
:10A330001B019A4219DB1B4B1B78002B15D11A4BC2
:10A340009B6F002B11D1164B1B68012B0DD1174BA6
:10A3500000221A60164B174A1168196012791A7197
:10A3600001F08EFA0F4B0F221A700F4A9E235B00EA
:10A37000D3581D2B06DD0A4B1B68002B02D10E4B58
:10A380000A221A600D4B1B68012B04D10A4B1B6873
:10A390005A1C094B1A60C046BD4647B090BDC04626
:10A3A0002C110020C0000020201700208019002060
:10A3B00094130020942A01088001002084010020C9
:10A3C00080B500AF1E4B10221A701D4B0E225A7022
:10A3D0001B4B00229A701A4B0422DA70184B4D2244
:10A3E0001A71174B51225A71154B54229A71144B02
:10A3F0005422DA71124B04221A72114B02225A7241
:10A400000F4B00229A720E4B7822DA720C4B00220C
:10A410001A730B4B02225A73094B50229A73084B42
:10A420003222DA73064B1A221A74054B0D225A7423
:10A43000034B1221180000F0A1F8C046BD4680BDB4
:10A44000A014002080B500AF1A4B82221A70194B5D
:10A450000A225A70174B00229A70164B0022DA70AB
:10A46000144B00221A71134B05225A71114B6822AA
:10A470009A71104B3022DA710E4B75221A720D4B05
:10A4800073225A720B4B65229A720A4B0022DA72BF
:10A49000084B00221A73074B1A225A73054B0D22E0
:10A4A0009A73044B0F21180000F068F8C046BD46AF
:10A4B00080BDC046A014002080B500AF184B3022EC
:10A4C0001A70174B0A225A70154B00229A70144BBF
:10A4D0000522DA70124B68221A71114B30225A7120
:10A4E0000F4B75229A710E4B7322DA710C4B652259
:10A4F0001A720B4B6F225A72094B66229A72084BE2
:10A500006622DA72064B1A221A73054B0D225A7311
:10A51000034B0E21180000F031F8C046BD4680BD47
:10A52000A014002080B584B000AF78600523FB60E4
:10A530007B681800FEF7F2FD0300BB60BB689AB2AF
:10A5400079680A4B180004F059FF0949074B322279
:10A55000180004F0D3FF074B00221A60064B0122BB
:10A560001A60C046BD4604B080BDC046901A0020A7
:10A57000AC180020800100208401002080B584B048
:10A5800000AF786039600523FB603B689AB2796858
:10A59000094B180004F032FF0849074B322218001B
:10A5A00004F0ACFF064B00221A60064B01221A6031
:10A5B000C046BD4604B080BD901A0020AC180020F3
:10A5C000800100208401002080B584B000AF786055
:10A5D0000523FB607B681800FEF7A0FD0300BB604D
:10A5E000BB689AB2FB687968034804F05DFEC04618
:10A5F000BD4604B080BDC046081A002080B500AF3B
:10A6000080239B01AB4A1900100003F0DEF8AA4B2F
:10A610001A68AA4B1B689A4200D148E1A84B002255
:10A620001A60A64B1A68A74B1B68A749895CA74A02
:10A63000D154A24B1B685A1CA04B1A609F4B1A683E
:10A6400096235B009A4202DD9C4B00221A609D4BD0
:10A650001B685A1C9B4B1A609A4B1B68E62B02DD49
:10A66000984B00221A60974B1B68013B974AD35CBA
:10A670003E2B0AD1964B9B6F012B03D1954B1B228E
:10A680001A7002E0934B10221A708E4B1B68013B2C
:10A690008E4AD35C022B06D18F4B1800FFF794FF34
:10A6A0008E4B00221A60874B1B68013B874AD35CA4
:10A6B000902B13D18A4B1800FFF786FF874B00229F
:10A6C0001A60834AC0235B000121D150804AC42311
:10A6D0005B000121D150834B03221A707C4AC023B6
:10A6E0005B00D358012B00D07AE0764B1B685A1ED2
:10A6F0007A4B1B687549895C7B4AD154774B186843
:10A700007A490A230A2202F0D7F9794B1800FFF799
:10A710005BFF764B1800FFF757FF764B1800FFF7EB
:10A7200053FF6E4B1B68704AD35C18006F490A23B5
:10A730000A2202F0C1F9704B1800FFF745FF6B4B7E
:10A740001800FFF741FF6B4B1800FFF73DFF634B0D
:10A750001B68654AD35C022B09D1684B1800FFF7D0
:10A7600033FF604B02221A705A4B1C221A705B4B4B
:10A770001B68012B1DD1594B1B685B4AD35C190028
:10A78000534AC2235B00D150514AC2235B00D058C8
:10A7900056490A230A2202F08FF9594B1800FFF795
:10A7A00013FF524B1800FFF70FFF524B1800FFF733
:10A7B0000BFF4A4B1B685A1C484B1A60444AC22381
:10A7C0005B00D3585A1C454B1B689A4208DA404A32
:10A7D000C0235B000021D1504A4B1800FFF7F4FE64
:10A7E0003B4AC4235B00D358012B37D1354B1B6840
:10A7F0005A1E454B1B683549895C3B4AD154424B34
:10A800001B68180039490A230A2202F055F9384B0F
:10A810001800FFF7D9FE354B1800FFF7D5FE3B4B6C
:10A820001800FFF7D1FE384B1B682F4AD35C180085
:10A830002E490A230A2202F03FF92C4B1800FFF799
:10A84000C3FE2C4B1800FFF7BFFE2F4B1B685A1C92
:10A850002D4B1A602E4B1800FFF7B6FE194B1B68E4
:10A86000013B1A4AD35C0A2B08D1164B1B68013BEB
:10A87000164A0021D154134B00221A60114B1B6859
:10A88000013B124AD35C0D2B11D10E4B1B68013BCF
:10A890000E4A0021D1540B4B00221A6000F03AF806
:10A8A00080239B01034A1900100002F08EFFC0466E
:10A8B000BD4680BD00080048680100206C010020F2
:10A8C00084010020700100205C110020A0150020F0
:10A8D00020170020C0000020A02A010874010020D9
:10A8E000A82A0108D0000020881600207815002032
:10A8F000BC2A01087C250108C42A0108CC2A0108C9
:10A90000D82A0108E02A010868150020EC2A01086D
:10A91000F02A010880B584B002AFD54AB8235B00A5
:10A92000D358002B20D1D34AD34B10001900042355
:10A930001A0007F0FBF8D14ACE4B1100180007F0BF
:10A9400027F9CC4B1800FEF7E9FB03001A00C94BAE
:10A95000D218CB4B1000190003231A0007F0E6F8B9
:10A96000C44B1800FFF730FEC44B1B78022B03D1F9
:10A97000C44B1800FFF728FEBD4AC0235B00D35824
:10A98000012B18D1C04B5B781800C0490A230A225A
:10A9900002F092F8BE4B1800FFF716FEBB4B1800F2
:10A9A000FFF712FEB64B1800FFF70EFEB04AC023A9
:10A9B0005B000021D150FB1D00221A70B54B1B69B2
:10A9C000012B11D1B34B00221A61B24B01221A6242
:10A9D000AA4AB14B1100180007F0E7F8AF4B180076
:10A9E000FFF7F2FD00F074FBA14AA8235B00D358E7
:10A9F000012B18DDAA4B1800FFF7E6FD9F4B18004E
:10AA0000FEF78CFB03003B603B68082B01DD00F088
:10AA1000F7FC974AA8235B00D358591E944AA823F1
:10AA20005B00D15054E3924AB8235B00D358012B0A
:10AA300000D081E09B4B1B7818008E490A230A2224
:10AA400002F03AF8984B1800FFF7BEFD894B18004A
:10AA5000FFF7BAFD8A4B1800FFF7B6FD914B5B7804
:10AA6000180084490A230A2202F026F88F4B1800A6
:10AA7000FFF7AAFD7F4B1800FFF7A6FD804B1800DB
:10AA8000FFF7A2FD31E07A4ABA235B00D058884B29
:10AA90001A68844B190001F095FE754ABA235B00D1
:10AAA000D058834B1A68734B190001F0E1FE804BBC
:10AAB0001B687C4A0021D1547D4B1B686D4A0021E4
:10AAC000D1546C4A774B11001800FEF71DFB0100B2
:10AAD000FB1DFA1D12781A70002906D1754B18005B
:10AAE000FFF772FDFB1D01221A70FB1D1B78002B66
:10AAF000C9D0FB1D00221A705D4ABA235B00D358EF
:10AB00001A006B4B1B68D3181900594ABA235B0013
:10AB1000D150574ABC235B00D3581A00644B1B68C2
:10AB2000D3181900524ABC235B00D150504AB823B5
:10AB30005B000021D150CBE25F49504B0722180047
:10AB400007F03BF8031E05D1494AA8235B00052105
:10AB5000D150BDE2464AAC235B00D358012B02D151
:10AB600001F02EF8B4E2424AAC235B00D358012B2B
:10AB700009DD3F4AAC235B00D358591E3C4AAC2345
:10AB80005B00D150A4E24D493C4B0A22180007F06B
:10AB900014F8031E03D14A4B06221A7098E2494961
:10ABA000364B0822180007F008F8031E03D1444B67
:10ABB00006221A708CE24449304B0922180006F034
:10ABC000FCFF031E04D1414B1800FFF7FDFC7FE2A0
:10ABD0003F492A4B0422180006F0EFFF031E02D162
:10ABE00000F056FC74E23B49244B0622180006F0A4
:10ABF000E4FF031E03D1274B00229A6068E2364926
:10AC00001E4B0622180006F0D8FF031E02D100F0EA
:10AC10002DFC5DE2314A194B11001800FEF774FA61
:10AC2000031E02D100F044FF52E22D49134B0822CB
:10AC3000180006F0C2FF031E02D100F0C1FE47E279
:10AC400028490E4B0622180006F0B7FF031E00D05D
:10AC500098E00A4B1800FEF761FA0300062B43D870
:10AC6000034B802200219950014B01229A672FE269
:10AC700020170020341400200C2B0108A015002000
:10AC80007C250108102B0108A01400207815002055
:10AC90002C2B01082C110020BC120020342B0108A1
:10ACA000482B0108E0180020542B0108642B0108F0
:10ACB00078190020742B0108842B01088C2B0108C3
:10ACC000C0000020982B0108A42B0108B02B01081C
:10ACD000C42B0108CC2B0108D42B0108DC2B010864
:10ACE000E02B0108EC2B0108BF4B1B78012B3AD15C
:10ACF000BE4B00221A60BE4B00221A70BD49BE48EE
:10AD00000123009320230A2201F041FEB94B1800D1
:10AD100006F0DCFE03001A00B84B1A60B84AB823EC
:10AD20005B000121D15000F0E5F9B64B1A68B34B36
:10AD30001B689A4200D8CBE1B349E1239B00022271
:10AD4000180001F03FFDB14B1800FFF73DFCAC4A85
:10AD5000B6235B000021D150A34B00221A70AC4BEC
:10AD600032221A70B4E1A64B802200219950A44BE4
:10AD700001229A67A64B1C221A70A64B1800FFF7F7
:10AD800023FCA5E1A4499C4B0F22180006F015FFF7
:10AD9000031E06D19E4B16221A70994B00229A6709
:10ADA00096E19E4A944B11001800FEF7ADF9031E80
:10ADB00003D1974B14221A708AE1994A8E4B1100E5
:10ADC0001800FEF7A1F9031E0ED18D4B8022002141
:10ADD00099508B4B01229A678D4B1C221A70914B14
:10ADE0001800FFF7F1FB73E18F49834B072218002E
:10ADF00006F0E3FE031E05D1814AC0235B0001215A
:10AE0000D15065E1894A7C4B11001800FEF77CF9AE
:10AE1000031E10D17A4B00229A67854B00221A60DC
:10AE2000844B1800FFF7D0FB794B14221A70784B33
:10AE300000221A704CE180496F4B0822180006F07E
:10AE4000BCFE031E10D16E4B00229A67784B002285
:10AE50001A607A4B1800FFF7B7FB6D4B14221A707B
:10AE60006B4B00221A7033E17549634B0A221800BC
:10AE700006F0A3FE031E02D100F0FCF928E171499F
:10AE80005D4B0A22180006F098FE031E02D100F066
:10AE900031FA1DE16C49584B0922180006F08DFE6D
:10AEA000031E03D15A4B2A221A7011E16749524BF3
:10AEB0000822180006F081FE031E03D1544B2722FE
:10AEC0001A7005E162494C4B0822180006F075FE25
:10AED000031E03D14E4B2C221A70F9E05D49464BFC
:10AEE0000622180006F069FE031E03D1484B2D22EE
:10AEF0001A70EDE05849404B0622180006F05DFE3E
:10AF0000031E02D100F040F9E2E054493A4B072217
:10AF1000180006F052FE031E02D100F07DF9D7E0C2
:10AF20004F49354B0622180006F047FE031E03D199
:10AF3000374B26221A70CBE04A492F4B09221800C2
:10AF400006F03BFE031E03D1314B26221A70BFE0F0
:10AF50004549294B0A22180006F02FFE031E08D18E
:10AF6000274AB2235B000021D150294B14221A70CA
:10AF7000AEE03C49204B0922180006F01EFE031EDD
:10AF800003D1234B27221A70A2E038491A4B092219
:10AF9000180006F012FE031E03D11D4B14221A7076
:10AFA00096E03349144B0822180006F006FE031EF3
:10AFB00003D1174B14221A708AE02E490E4B05223A
:10AFC000180006F0FAFD031E02D100F041FD7FE0FB
:10AFD0002949094B1022180006F0EFFD031E4DD140
:10AFE000FEF73AF974E0C0467C190020C800002042
:10AFF0009C19002034140020A0150020781900208E
:10B0000020170020CC000020F42B0108F82B0108A9
:10B01000C00000200C2C01081C2C01082C2C01085D
:10B020003C2C0108482C0108542C01085C2C010818
:10B030006C150020642C0108742C0108802C010878
:10B04000982C0108A42C0108B02C0108BC2C010884
:10B05000C82C0108D42C0108DC2C0108E42C0108C0
:10B06000EC2C0108F42C0108002D01080C2D01081E
:10B07000182D0108242D01082C2D01081649174B05
:10B080000522180006F099FD031E17D1144B00226B
:10B090001A80144B00225A60124B0022DA61124AC5
:10B0A0009C235B00D358012B12D10F4A9C235B00D9
:10B0B0000021D1500D4B00221A7009E00A4AAC233E
:10B0C0005B00D358012B03D1094B1800FFF77CFA22
:10B0D000C046BD4602B080BD402D0108A01500202D
:10B0E000640100202C11002020170020C000002047
:10B0F000802C010880B500AF2AE01B4B1A681B4B5F
:10B100001B689A4224D01A4B00221A60174B1A6807
:10B11000184B1B681849895C184AD154134B1B689B
:10B120005A1C124B1A60164B1B78012B04D1114B81
:10B130001B685A1C0F4B1A600C4B1A6896235B0055
:10B140009A4202DD094B00221A600D4B01221A704F
:10B15000084B1B681A000B4B1B689A42CDD3C046A4
:10B16000C046BD4680BDC046680100206C0100207D
:10B1700084010020C80000205C110020E01800209D
:10B180009C190020CC00002080B582B002AF1A4B81
:10B1900031221A7019491A48012300932C230A22DC
:10B1A00001F0F5FB154B1800FDF7B8FF03005A1C22
:10B1B000124B1448190001F005FB104B180006F063
:10B1C00085FC03001A00104B1A600F4B1B68180017
:10B1D0000E490A230A2201F06FFC0D4B1800FFF7FD
:10B1E000F3F90A4B1800FFF7EFF90A4B1800FFF7C5
:10B1F000EBF9C046BD4680BDC000002034140020DD
:10B20000A01500208E030000741500207815002082
:10B21000482D01087C25010880B582B002AF0F4996
:10B220000F480123009320231E2201F0B0FB0B4B9B
:10B230001800FFF7C9F90B4B1800FFF7C5F90A4BC7
:10B240002F221A70094B01221A70094AB6235B009B
:10B250000121D150C046BD4680BDC04684190020A2
:10B26000A0150020542D0108C00000207C190020EA
:10B270002017002080B588B002AF3900174801239D
:10B2800000933A231E2201F082FB154B1800FFF7B2
:10B290009BF93B001800FFF797F9124B1800FFF7D6
:10B2A00093F93B001800FDF739FF03007B617B69D0
:10B2B000012B07DC0C4B1800FFF786F90B4B2B22F8
:10B2C0001A7006E00A4B1800FFF77EF9074B26229A
:10B2D0001A70C046BD4606B080BDC046A01500200D
:10B2E000602D01087C250108702D0108C000002098
:10B2F000802D010880B588B002AF124B1800FFF70F
:10B3000063F9390010480123009320231E2201F025
:10B310003EFB3B001800FFF757F90C4B1800FFF7F6
:10B3200053F93B001800FDF7F9FE03007B617B69D0
:10B33000062B02D1064B2B221A70C046BD4606B022
:10B3400080BDC046942D0108A01500207C25010871
:10B35000C000002080B582B000AF78603960214B1A
:10B360001B68002B35D01F4B5B68002B33D01E4A67
:10B3700080235B00D358012B2FD01C4B1800FFF704
:10B3800023F91B4A1B4B100019000A231A0006F070
:10B39000CDFB7A68164B1100180006F0F9FB144B30
:10B3A0001800FDF7BBFE03001A00114BD218124B18
:10B3B0001000190004231A0006F0B8FB0C4B18000B
:10B3C000FFF7B0F83A680D4B1100180006F0EDFBDE
:10B3D00004E0C04602E0C04600E0C046BD4602B000
:10B3E00080BDC0462C11002020170020B426010883
:10B3F00034140020A82D0108B42D0108C814002021
:10B4000080B500AF124A134B1100180006F0CDFBB7
:10B410001149104B0722180006F0CFFB031E02D182
:10B420000E4B08221A700E4B1800FFF7CDF8094B8F
:10B430001800FFF7C9F80B4B1800FFF7C5F80A4AC8
:10B44000A8235B000021D150C046BD4680BDC04648
:10B45000A015002044170020842B0108C000002004
:10B46000B82D01087C2501082017002080B582B086
:10B4700002AF054905480123009320231E2201F055
:10B4800086FAC046BD4680BD6C170020A01500207E
:10B4900080B584B002AF0F490F48012300932023E9
:10B4A000032201F074FA0B4B180006F00FFB0300A7
:10B4B0007B607B685B007B607B687122D31A3B609A
:10B4C0003A680649034B180006F042FBC046BD46E9
:10B4D00002B080BD8C150020A0150020C02D0108F1
:10B4E00080B588B000AF2B4A2B4B100019001123F8
:10B4F0001A0006F01BFB294A29493B00180006F0F8
:10B5000027FB3A00234B1100180006F041FB254AA7
:10B5100025493B00180006F01BFB3A001D4B1100AB
:10B52000180006F035FB1B4B1800FDF7F7FD030074
:10B530001A00184BD2181D4B1000190006231A00D0
:10B5400006F0F4FA1A4A134B1100180006F020FB1B
:10B55000104B1800FDF7E2FD03001A000D4BD21846
:10B56000144B1000190002231A0006F0DFFA124AE9
:10B57000084B1100180006F00BFB064A0F4B110098
:10B58000180006F012FB0E4B01225A62C046BD465F
:10B5900008B080BDC8140020502E0108B417002048
:10B5A000642E0108D2170020702E01087C2E01089D
:10B5B00020170020842E01083E170020941300203D
:10B5C0002C11002080B500AF114B1800FEF7FCFFD6
:10B5D000104B1800FDF7A2FD0300012B01D800233A
:10B5E00012E00C490C4B1022180006F0E6FA031E7C
:10B5F00005D10A4B1800FEF7E7FF012304E0084BD2
:10B600001800FEF7E1FF00231800BD4680BDC046CC
:10B61000882E0108D21700209C120020982E0108C5
:10B62000A82E010890B58FB000AF7B4B1800FEF735
:10B63000CBFF7A4A7A4B100019000C231A0006F04F
:10B6400075FA3A1D774910243B19180006F080FA64
:10B650003A19724B1100180006F0A7FA724A7349A2
:10B660003B19180006F074FA3A196C4B11001800D7
:10B6700006F08EFA6E4A98235B00D358012B0ED148
:10B68000664B1800FDF74AFD03001A00634BD21801
:10B69000684B1000190015231A0006F047FA644A97
:10B6A00094235B00D358012B0FD15C4B1800FDF79E
:10B6B00035FD03001A00594BD2185F4B10001900DA
:10B6C0000D231A0006F032FA0EE0544B1800FDF775
:10B6D00025FD03001A00514BD218584B10001900D9
:10B6E0000E231A0006F022FA514A90235B00D35829
:10B6F000012B0FD1494B1800FDF710FD03001A0074
:10B70000464BD2184E4B1000190010231A0006F0B9
:10B710000DFA0EE0414B1800FDF700FD03001A0082
:10B720003E4BD218474B1000190014231A0006F0A4
:10B73000FDF9454A454910243B19180006F008FA5E
:10B740003A19364B1100180006F022FA404A4149D6
:10B750003B19180006F0FCF93A19304B110018009B
:10B7600006F016FA3C4A3D493B19180006F0F0F97C
:10B770003A192A4B1100180006F00AFA384B202219
:10B780001A70374A37493B19180006F0E1F93A199F
:10B79000224B1100180006F0FBF9204B1800FDF7B2
:10B7A000BDFC03001A001D4BD2182F4B10001900CE
:10B7B00006231A0006F0BAF91D4A184B11001800AA
:10B7C00006F0E6F9154B1800FDF7A8FC03001A0077
:10B7D000124BD218254B1000190002231A0006F054
:10B7E000A5F9234A0D4B1100180006F0D1F90B4AB8
:10B7F000204B1100180006F0D8F91E4B1800FEF778
:10B80000E3FE1D4B1800FEF7DFFE1C4B01225A62BF
:10B81000C046BD460FB090BD042F0108C8140020DB
:10B82000182F0108242F0108241800202C2F0108AC
:10B83000201700203C2F0108542F0108642F010815
:10B84000742F0108842F01080E180020982F01087A
:10B85000B4170020642E0108D2170020702E0108B2
:10B860008C150020A82F01087C2E0108842E0108C9
:10B870003E170020941300207C2501082C11002085
:10B8800080B586B000AF454B1868391D0A230A22DF
:10B8900001F012F9424B434A03CA03C311881980CD
:10B8A00092789A703E4B1800FDF738FC03001A009E
:10B8B0003B4BD2183C4B1000190007231A0006F02E
:10B8C00035F93A4A364B1100180006F061F9344B4D
:10B8D0001800FDF723FC03001A00314BD218344B3B
:10B8E0001000190002231A0006F020F92C4B180052
:10B8F000FDF714FC03001A00294BD2182D4B100041
:10B90000190009231A0006F011F93A1D244B110001
:10B91000180006F03DF9224B1800FDF7FFFB03006D
:10B920001A001F4BD218224B1000190002231A00D4
:10B9300006F0FCF8204B1868391D0A230A2201F092
:10B94000BBF8174B1800FDF7E9FB03001A00144B76
:10B95000D2181A4B1000190009231A0006F0E6F855
:10B960003A1D0F4B1100180006F012F90C4B18008D
:10B97000FDF7D4FB03001A00094BD2180C4B100042
:10B98000190002231A0006F0D1F8054B1800FEF743
:10B990001BFEC046BD4606B080BDC04670150020E7
:10B9A00094130020B42F0108C02F01084417002071
:10B9B000C82F0108CC2F010898190020D82F0108A2
:10B9C00080B582B002AF1B491B480123009322239C
:10B9D0000F2200F0DCFF174B1800FDF79FFB030060
:10B9E000032B18D9154B0122DA61144B00229A61FE
:10B9F000134B15221A70124B24221A70114B180087
:10BA0000FEF7E2FD0B4B1800FEF7DEFD0E4B1800B3
:10BA1000FEF7DAFD0AE0094B0022DA610B4B9022B7
:10BA20009B58012B02D1064B0F221A70C046BD460F
:10BA300080BDC04670130020A01500202C110020EE
:10BA4000C0000020E42F01087C25010820170020F9
:10BA500080B586B002AF124B5B6A012B1BD0390058
:10BA60001048002300932C230A2200F090FF0E4977
:10BA70003800012300932023032200F088FF0B49A4
:10BA80000848032300932223142200F080FF044B74
:10BA900001221A6100E0C046BD4604B080BDC04628
:10BAA0002C110020A0150020981200209C120020CC
:10BAB00080B500AF2B4B00221A602B4B00221A607E
:10BAC0002A4B5B6A012B0AD1284B5B68012B06D1FC
:10BAD000264BDB69002B02D1254B0F221A70244B19
:10BAE0001B780A2B02D1214B01225A611F4B1B6A82
:10BAF000012B02D11E4B17221A701D4B1B781F2BD6
:10BB000002D11B4B04221A70194B1B781D2B02D13A
:10BB1000174B1E221A70174AB4235B00D358012B0F
:10BB20000DD1144AB6235B00D358012B07D1114A1B
:10BB3000B4235B000021D1500D4B30221A700E4B04
:10BB40001B78012B0BD10B4AB6235B00D358012B7A
:10BB500005D1094B00221A70054B2F221A70C046DE
:10BB6000BD4680BD780100206C1500202C110020FE
:10BB7000C0000020201700207C19002080B584B070
:10BB800000AF78607B681800FDF7C8FA0300FB601F
:10BB90007B681800FEF718FD074B1800FEF714FD30
:10BBA0007B681800FEF7BEFC044B00221A70C046EA
:10BBB000BD4604B080BDC046E82F010890120020A9
:10BBC000B0B5F8B002AFD84B1800FEF7FDFCD74B6C
:10BBD0001800FEF7F9FCD64B1800FEF7F5FC002321
:10BBE000EA2464003A1913600023E8225200BA18CC
:10BBF00013600023E6225200BA181360CB4A2C25AA
:10BC00007B191100180005F0D0FF3B191B68DBB24F
:10BC10008C225200B918781900933B23A02200F01F
:10BC2000B6FE6FE28C2464003B191800FEF7CCFCD2
:10BC3000BF4B1800FEF7C8FCBE493B190422180090
:10BC400005F0BBFF031E2BD1E42579193819012318
:10BC500000933A23282200F09AFEB749781900236E
:10BC600000932C231E2200F092FEB4497819012380
:10BC700000932C231E2200F08AFEAF4B1800FEF723
:10BC8000A3FCAF4B1800FEF79FFCAC4B1800FEF76F
:10BC90009BFCA74B1800FEF797FCAA4B0122DA6722
:10BCA000A9498C235B00FB180522180005F085FFCD
:10BCB000031E1BD1242439192C23F81801230093C7
:10BCC0003A23042200F063FEA0493B190222180027
:10BCD00005F073FF9E493B190322180005F06DFF24
:10BCE000031E03D19B4B1800FEF76EFC9A498C246F
:10BCF00064003B190422180005F05FFF031E30D1D9
:10BD0000964B1800FEF760FCE425791938190123D9
:10BD100000933A23282200F03AFE91497B1905222C
:10BD2000180005F04AFF031E04D1864A94235B00E5
:10BD30000021D1508B49E423FB180522180005F09F
:10BD40003CFF031E04D17F4A94235B000121D150A4
:10BD5000E423FB181800FEF737FC754B1800FEF7BC
:10BD600033FC81498C2464003B190422180005F03F
:10BD700024FF031E22D1391D3819012300933A23D1
:10BD8000282200F004FE391D784B1922180005F016
:10BD900014FF031E09D1764B1800FEF715FC694A03
:10BDA00098235B000021D15008E0724B1800FEF789
:10BDB0000BFC644A98235B000121D1506E498C240E
:10BDC00064003B190622180005F0F7FE6B493B1989
:10BDD0000422180005F0F1FE031E2ED1594A8A23D1
:10BDE0005B00D358002B20D1654B1800FEF7ECFB0D
:10BDF00064493819012300933A23052200F0C7FD56
:10BE0000604B0A21180000F04FFF01004D4A8823C3
:10BE10005B00D1504B4A88235B00D35864225A43BD
:10BE20001100484A88235B00D150564B1800FEF79A
:10BE3000CBFB3F4B1800FEF7C7FB534A534B110097
:10BE40001800FDF761F9031E1CD14E494F4801232C
:10BE500000933A23042200F09AFD4A4B0A2118006D
:10BE600000F022FF0100374A88235B00D150354A99
:10BE700088235B00D35864225A431100314A882337
:10BE80005B00D15034498C2464003B190422180013
:10BE900005F093FE38493B190522180005F08DFE88
:10BEA000031E21D1E42579193819012300933A237F
:10BEB000042200F06CFD7B191A78354B1B78D31ADD
:10BEC00009D1344B1800FEF77FFB1E4A90235B001C
:10BED0000121D15008E01B4A90235B000021D15082
:10BEE0002D4B1800FEF770FB2C498C2464003B1985
:10BEF0000322180005F061FE031E57D1E4257919CD
:10BF00003819012300933A23042200F040FD7B19E5
:10BF10001A781F4B1B78D31A44D1214B1800FEF717
:10BF200053FBFFF77FFB41E014300108A015002010
:10BF30007C25010820300108B4170020D21700200A
:10BF4000EC2A01082017002028300108F02D0108F4
:10BF5000F42D010830300108383001084030010864
:10BF60005030010858300108603001086C1700207B
:10BF70006830010874300108843001088C300108F1
:10BF80009430010824180020A4300108BC120020BD
:10BF9000F42F0108A8300108B8300108CC3001089E
:10BFA000D03001086A4B1800FEF70EFB69498C245B
:10BFB00064003B190422180005F0FFFD031E17D191
:10BFC000E42579193819012300933A23042200F05B
:10BFD000DEFC7B191A78604B1B78D31A04D15F4BB7
:10BFE0001800FEF7F1FA03E05D4B1800FEF7ECFADB
:10BFF0005C498C2464003B190722180005F0DDFD24
:10C00000031E21D1E42579193819012300933A231D
:10C01000042200F0BCFC7B191A784F4B1B78D31A12
:10C0200009D1514B1800FEF7CFFA504A96235B0016
:10C030000121D15008E04E4B1800FEF7C5FA4B4ADB
:10C0400096235B000021D1504A498C235B00FB18EA
:10C050000522180005F0B1FD031E09D1464B18005A
:10C06000FEF7B2FAFFF73CFA444B1800FEF7ACFAC1
:10C0700043498C2464003B190322180005F09DFD00
:10C08000031E1ED13F493819012300933A2314227D
:10C0900000F07DFC3B4B0A21180000F005FE01007A
:10C0A000324AA0235B00D150304AA0235B00D25813
:10C0B00013001B019B1A9B0019002C4AA0235B0054
:10C0C000D15031498C235B00FB180722180005F082
:10C0D00074FD031E02D1254B0022DA67EA225200CA
:10C0E000BB181B680133B9180B60BB181B68DBB2A7
:10C0F0008C225200B9182C22B81800933B23A0229E
:10C1000000F045FC8C235B00FB181800FDF706F8D7
:10C110000300012B00D985E5144A92235B0000211E
:10C12000D1501A4BEC2252009446BC446344002286
:10C130001A70174B16221A700C4AAC235B000021B0
:10C14000D150134B00221A70C046BD4676B0B0BD28
:10C15000E0300108F4300108F42F0108A83001088C
:10C16000B8300108FC300108043101082017002014
:10C170001831010830310108383101085431010803
:10C1800074310108641800207831010854FEFFFF63
:10C19000C000002080B582B000AF0200FB1D1A7005
:10C1A0008023DB01204A1900100001F00EFB1F4A1A
:10C1B000B0235B000021D1501D4B1B683B2B11DCD1
:10C1C0001B4B1B681B4AF91D0978D154184B1B687F
:10C1D0005A1C174B1A6080235B00174A1900100085
:10C1E00001F0F3FAFB1D1B783E2B04D10F4AAE235E
:10C1F0005B000121D150114B1B68114AF91D0978D0
:10C20000D1540E4B1B685A1C0C4B1A600B4B1A680E
:10C2100096235B009A4202DD084B00221A60C0465A
:10C22000BD4602B080BDC04600080048201700206F
:10C23000C8000020E0180020000400486801002029
:10C240005C11002080B584B000AFF860B9607A60FE
:10C25000FB68064A1A60BB68054A1A607B68802240
:10C260001A60C046BD4604B080BDC04688010020AB
:10C27000DC010020B0B58EB000AF00F0CBF900F0CB
:10C280002BFF00F03FF800F033F900F093F800F0D6
:10C29000CFF800F0FDF8802359009023DB05012240
:10C2A000180001F075FAFCF7D7FF1C217B18114A22
:10C2B00031CA31C331CA31C312681A607B180021F8
:10C2C000180004F062FB02000B4B1A603B000B4AA3
:10C2D00013CA13C313CA13C312681A603B000021A8
:10C2E000180004F052FB0200054B1A6004F045FBF5
:10C2F000FEE7C04698310108A0190020B4310108BA
:10C300008C1A002090B599B000AF2C243B1918006E
:10C3100034231A00002105F012FC1C23FB1818001E
:10C3200010231A00002105F00AFC3B0018001C2312
:10C330001A00002105F003FC3B1920221A603B196A
:10C3400001221A623B1900225A623B19180001F0BF
:10C3500057FA031E01D000F015FB1C217B180722A1
:10C360001A607B1803225A607B1800229A607B189F
:10C370008022D200DA607B180121180001F0C6FD8E
:10C38000031E01D000F0FEFA3B0003221A603B00BE
:10C3900000229A603B000022DA603B00180001F0A6
:10C3A0002FFF031E01D000F0EDFAC046BD4619B0C4
:10C3B00090BD000080B500AF1B4B1C4A1A601A4BA1
:10C3C000822252005A60184B00229A60164BE022DB
:10C3D000D200DA60144B00221A61134B00225A611A
:10C3E000114B802292009A610F4B2022DA610E4B92
:10C3F00000221A620C4B00225A620B4B00229A62F6
:10C40000094B0722DA62084B00221A63064B082206
:10C410005A63054B180001F0F1FF031E01D000F034
:10C42000B1FAC046BD4680BDA419002000380040C6
:10C4300080B500AF144B154A1A60134BE12252022B
:10C440005A60114B00229A600F4B0022DA600E4BAB
:10C4500000221A610C4B0C225A610B4B00229A618C
:10C46000094B0022DA61084B00221A62064B0022B7
:10C470005A62054B180002F0C3FE031E01D000F003
:10C4800081FAC046BD4680BD081A00200038014030
:10C4900080B500AF144B154A1A60134BE1225202CB
:10C4A0005A60114B00229A600F4B0022DA600E4B4B
:10C4B00000221A610C4B0C225A610B4B00229A612C
:10C4C000094B0022DA61084B00221A62064B002257
:10C4D0005A62054B180002F093FE031E01D000F0D3
:10C4E00051FAC046BD4680BD901A0020004400406D
:10C4F00090B589B000AF0C243B19180014231A0022
:10C50000002105F01CFB404B5A693F4B8021090379
:10C510000A435A613C4B5A6980231B031340BB609A
:10C52000BB68394B5A69384B802189020A435A61EA
:10C53000354B5A6980239B0213407B607B68324BEA
:10C540005A69314B8021C9020A435A612E4B5A69FC
:10C550008023DB0213403B603B68E0231B022B4837
:10C560000022190001F014F9C3239B00284800227F
:10C57000190001F00DF9802359009023DB050022FA
:10C58000180001F005F93B19E02212021A603B196C
:10C5900001225A603B1900229A603B190022DA609E
:10C5A0003B191A4A1900100000F07AFF21007B188D
:10C5B000C32292001A600C003B1901225A603B19F9
:10C5C00000229A603B190022DA603B19104A1900D8
:10C5D000100000F065FF21007B18802252001A60D5
:10C5E0007B1801225A607B1800229A607B18002277
:10C5F000DA607A189023DB051100180000F050FF74
:10C60000C046BD4609B090BD001002400008004879
:10C610000004004880B584B000AF80239B05BB6058
:10C620000023FB600023FB600EE0FB689B001C4ABC
:10C63000944663441A00FB689B00B968CB181268E3
:10C640001A60FB680133FB60FB682F2BEDD9154B9B
:10C65000012252429A62134B9A69124B01210A43FA
:10C660009A61104B9B69012213407B607B680D4BE4
:10C6700000229A620C4B1A680B4B03218A431A6002
:10C68000094B1A68084B03210A431A6062B6C04678
:10C69000064B1800FDF798FFC046BD4604B080BDAC
:10C6A000009000080010024000000140D031010855
:10C6B00090B58DB000AFF860B9607A603C4B18005F
:10C6C000FDF782FF3B4B1800FDF77EFF1024391960
:10C6D000F8680A230A2200F0EFF93B191800FDF769
:10C6E00073FF354B1800FDF76FFF391978680A237F
:10C6F0000A2200F0E1F93B191800FDF765FF2F4B06
:10C700001800FDF761FF00F0F1F880235900902335
:10C71000DB050022180001F03BF83B1906221A70D5
:10C72000391927486423012201F020FF8023590092
:10C730009023DB050122180001F02AF8012000F007
:10C740002FFD802359009023DB050022180001F003
:10C750001FF83B1902221A70FB681B0CDAB23B1956
:10C760005A70FB681B0ADAB23B199A70FB68DAB29E
:10C770003B19DA70391912486423042201F0F6FEDD
:10C780003B1944221A707B689AB2B9680C4864233A
:10C7900001F0ECFE802359009023DB0501221800F4
:10C7A00000F0F6FF00F0A2F8C046BD460DB090BD07
:10C7B000F031010800320108083201080C3201088A
:10C7C000A419002090B587B000AFF860B960BB1D18
:10C7D0001A801423FB18BA1D12881A80FB689BB2BA
:10C7E000FF2213409AB21623FB18802149008A1AAF
:10C7F0001A8032E01423FA1816217B1812881B883D
:10C800009A4205D91223FB187A1812881A8005E07B
:10C810001223FB181422BA1812881A8012243B190A
:10C820001A88B968FB681800FFF742FF1422BB188A
:10C83000B9183A19098812888A1A1A803B191B8874
:10C84000BA68D318BB603B191B88FA68D318FB6021
:10C850001623FB18802252001A801423FB181B8811
:10C86000002BC7D1C046C046BD4607B090BD0000F2
:10C8700080B58AB000AFF860B9607A6000F036F831
:10C88000802359009023DB050022180000F080FF70
:10C8900014217B1803221A70FB681B0CDAB27B1878
:10C8A0005A70FB681B0ADAB27B189A70FB68DAB21E
:10C8B0007B18DA7079180C486423042201F056FEC4
:10C8C0007B689AB2B9680848642301F0A7FF802307
:10C8D00059009023DB050122180000F059FFC046E3
:10C8E000BD460AB080BDC046A419002080B586B000
:10C8F00000AF3B1D05221A70802359009023DB05F1
:10C900000022180000F044FF391D12486423012260
:10C9100001F02CFE391D0F486423012201F07EFF37
:10C9200005E0391D0B486423012201F077FF3B1D10
:10C930001B781A0001231340F3D180235900902360
:10C94000DB050122180000F023FFC046BD4606B0FB
:10C9500080BDC046A419002080B582B000AF7860C9
:10C96000FA239B00180004F05DF8FCF785FDF7E75B
:10C9700080B582B000AF78600A2004F053F8FDF76C
:10C980003DFEF9E780B500AF72B6C046FEE780B560
:10C9900086B000AFF860B9601900FB1D1A70BB1DAE
:10C9A0000A1C1A701623FB1800221A801423FB1885
:10C9B00000221A801323FB1800221A70FB1D1A781C
:10C9C000FB1D013A1A704AE01623FB1800229B5EF9
:10C9D000FA68D3181B78BA1D12789A4211D1132124
:10C9E0007A182023FB1812781B789A4241D07B18C2
:10C9F0001A787B1801321A701423FB1800221A804F
:10CA000024E016217B1800229B5EFA68D3181B785D
:10CA10001F2B1BD97B1800229B5EFA68D2181420AA
:10CA20003B1800215B5EB968CB1812781A703B186E
:10CA300000229A5EFB1D1B789A4207DA3B180022FF
:10CA40009B5E9BB201339AB23B181A8016217B1869
:10CA500000229B5E9BB201339AB27B181A80162388
:10CA6000FB1800229B5EFA68D3181B78002BABD111
:10CA700000E0C0461323FA182023FB1812781B7815
:10CA80009A4208D01423FB1800221A801623FB18A0
:10CA9000012252421A801423FB1800229B5EBA68BE
:10CAA000D31800221A701623FB1800229B5E180070
:10CAB000BD4606B080BD000080B586B000AFF8600E
:10CAC000B9601900BB1D1A807B1D0A1C1A70122147
:10CAD0007B1800221A801123FB1801221A707B1D7B
:10CAE0001B780A2B5FD16F4B7B61FB68002B56DAFA
:10CAF000FB685B42FB607B1800229B5EBA68D31820
:10CB00002D221A707B1800229B5E9BB201339AB2D1
:10CB10007B181A8043E0FB6879691800FCF710FB6A
:10CB200003001A0010217B181A707B181B78002B49
:10CB300003D01123FB1800221A701123FB181B7855
:10CB4000002B13D112217B1800229B5EBA68D318E8
:10CB50001022BA1812783032D2B21A707B18002222
:10CB60009B5E9BB201339AB27B181A80FA6810233D
:10CB7000FB181B7879694B43D31AFB607B690A2148
:10CB80001800FCF7DDFA03007B611223FB1800227A
:10CB90009A5EBB1D00215B5E013B9A425DDA7B69B8
:10CBA000002BB8D15CE07B1D1B78102B58D12023C3
:10CBB0007B614EE07B69043BFA681A411300DAB2EC
:10CBC00010203B180F210A401A703B181B78002BCD
:10CBD00003D01123FB1800221A701123FB181B78B5
:10CBE000002B29D110217B181B78092B0BD812237D
:10CBF000FB1800229B5EBA68D3187A18127830327C
:10CC0000D2B21A700FE010217B181B78092B0AD9B9
:10CC10001223FB1800229B5EBA68D3187A18127888
:10CC20003732D2B21A7012217B1800229B5E9BB25F
:10CC300001339AB27B181A807B69043B7B61122313
:10CC4000FB1800229A5EBB1D00215B5E013B9A42ED
:10CC500005DA7B69002BADD102E0C04600E0C0469A
:10CC60001123FB181B78012B0FD112217B180022F6
:10CC70009B5EBA68D31830221A707B1800229B5E24
:10CC80009BB201339AB27B181A801223FB18002240
:10CC90009B5EBA68D31800221A70BB681800BD46A4
:10CCA00006B080BD00CA9A3B80B584B000AF786002
:10CCB0000A00FB1C1A700023FB60FB1C1B780A2B6C
:10CCC00020D11AE07B681B782F2B0FD97B681B784B
:10CCD000392B0BD8FA6813009B009B185B00FB6094
:10CCE0007B681B78303BFA68D318FB607B681B7845
:10CCF0002D2B02D97B6801337B607B681B78002B6E
:10CD0000E0D13EE0FB1C1B78102B3AD135E07B686C
:10CD10001B782F2B2ED9FB681B01FB607B681B78CF
:10CD20002F2B0AD97B681B78392B06D87B681B7898
:10CD3000303BFA681343FB601CE07B681B78602B78
:10CD40000AD97B681B78662B06D87B681B78573B13
:10CD5000FA681343FB600DE07B681B78402B09D910
:10CD60007B681B78462B05D87B681B78373BFA68B5
:10CD70001343FB607B6801337B607B681B78002B6F
:10CD8000C5D1FB681800BD4604B080BD80B582B037
:10CD900000AF124B9A69114B01210A439A610F4B64
:10CDA0009B69012213407B607B680C4BDA690B4B5B
:10CDB000802149050A43DA61084BDA6980235B0563
:10CDC00013403B603B6802235B42002203211800B2
:10CDD00000F0B6FAC046BD4602B080BD0010024069
:10CDE00090B58BB000AF786014243B191800142361
:10CDF0001A00002104F0A3FE7B681B681C4A9342C2
:10CE000032D11C4BDA691B4B8021C9010A43DA611C
:10CE1000184BDA698023DB0113403B613B69154BFA
:10CE20005A69144B8021C9020A435A61114B5A694D
:10CE30008023DB021340FB60FB683B19E0221202F7
:10CE40001A6021007B1802225A607B1800229A6027
:10CE50007B180322DA607B1800221A617B18064ACD
:10CE60001900100000F01CFBC046BD460BB090BD81
:10CE700000380040001002400004004890B58DB01A
:10CE800000AF78601C243B19180014231A000021FD
:10CE900004F055FE7B681B68494A934234D1494BE4
:10CEA0009A69484B8021C9010A439A61454B9A69A6
:10CEB0008023DB011340BB61BB69424B5A69414B84
:10CEC000802189020A435A613E4B5A6980239B02A2
:10CED00013407B617B693B19C022D2001A6021009C
:10CEE0007B1802225A607B1800229A607B1803226A
:10CEF000DA607B1801221A617A189023DB05110091
:10CF0000180000F0CDFA56E07B681B682E4A934269
:10CF100051D12C4BDA692B4B802189020A43DA610B
:10CF2000284BDA6980239B0213403B613B69254B08
:10CF30005A69244B802189020A435A61214B5A695C
:10CF400080239B021340FB60FB681C243B190422D6
:10CF50001A603B1902225A603B1900229A603B1961
:10CF60000322DA603B1901221A613A199023DB058A
:10CF70001100180000F094FA21007B1808221A60B2
:10CF80007B1802225A607B1801229A607B180322C8
:10CF9000DA607B1801221A617A189023DB051100F0
:10CFA000180000F07DFA002203211C2000F0C8F9CF
:10CFB0001C2000F0DAF9C046BD460DB090BDC04659
:10CFC00000380140001002400044004080B500AF2E
:10CFD000FEE780B500AFFEE780B500AF00F0C4F813
:10CFE00004F02AFA0300012B01D004F08DFBC046A7
:10CFF000BD4680BD80B500AF034B180002F0E0FADB
:10D00000C046BD4680BDC046901A002080B586B09F
:10D0100000AF7860144A154BD31A7B617B693B6182
:10D02000134B1B68002B02D1114B124A1A60104B94
:10D030001A687B68D3183A699A4207D204F04CFD0B
:10D0400003000C221A6001235B4209E0084B1B68B5
:10D05000FB60074B1A687B68D218054B1A60FB68A7
:10D060001800BD4606B080BD00400020000400004E
:10D07000DC030020281B002080B500AFC046BD4661
:10D0800080BD00000D4885460D480E490E4A00231C
:10D0900002E0D458C4500433C4188C42F9D30B4A6C
:10D0A0000B4C002301E013600432A242FBD3FFF7D4
:10D0B000E3FF04F017FDFFF7DDF8FEE70040002076
:10D0C000C000002048010020683401084801002009
:10D0D000281B0020FEE7000080B500AF074B1A6850
:10D0E000064B10210A431A60032000F009F8FFF7ED
:10D0F0004DFE00231800BD4680BDC0460020024002
:10D1000090B583B000AF7860144B1C68144B1B784B
:10D110001900FA239800FCF713F803001900200007
:10D12000FCF70EF80300180000F02FF9031E01D0E1
:10D1300001230FE07B68032B0BD8796801235B4246
:10D140000022180000F0FCF8064B7A681A600023F1
:10D1500000E001231800BD4603B090BDD4000020BC
:10D16000DC000020D800002080B500AF054B1B7804
:10D170001A00054B1B68D218034B1A60C046BD4607
:10D1800080BDC046DC000020141B002080B500AF2D
:10D19000024B1B681800BD4680BDC046141B002012
:10D1A00080B584B000AF7860FFF7F0FF0300BB608C
:10D1B0007B68FB60FB68013305D00A4B1B781A00C3
:10D1C000FB689B18FB60C046FFF7E0FF0200BB68EE
:10D1D000D31AFA689A42F7D8C046C046BD4604B092
:10D1E00080BDC046DC00002080B582B000AF0200E8
:10D1F000FB1D1A70FB1D1B787F2B09D8FB1D1B78AC
:10D200001A001F231A40044B012191400A001A60A2
:10D21000C046BD4602B080BD00E100E090B583B0DD
:10D2200000AF02003960FB1D1A70FB1D1B787F2BBD
:10D2300028D82F4AFB1D1B785BB29B08C0339B008C
:10D240009B58FA1D1278110003220A40D200FF21D8
:10D2500091400A00D2431A4011003B689B01FF2213
:10D260001A40FB1D1B78180003230340DB009A4083
:10D270001F48FB1D1B785BB29B080A43C0339B0011
:10D280001A5031E01B4AFB1D1B7819000F230B407D
:10D29000083B9B0806339B00D31804331B68FA1D18
:10D2A0001278110003220A40D200FF2191400A00A7
:10D2B000D2431A4011003B689B01FF221A40FB1D1C
:10D2C0001B78180003230340DB009A400948FB1D2C
:10D2D0001B781C000F232340083B9B080A4306339E
:10D2E0009B00C31804331A60C046BD4603B090BD0E
:10D2F00000E100E000ED00E080B582B000AF7860B2
:10D300007B685A1E80235B049A4201D3012310E0FC
:10D310000A4B7A68013A5A6001235B4203211800E4
:10D32000FFF77CFF054B00229A60044B07221A602E
:10D3300000231800BD4602B080BDC04610E000E0EA
:10D3400080B584B000AFB9607A600F217B18021CF1
:10D350001A70BA687B181B785BB211001800FFF7CF
:10D360005DFFC046BD4604B080BD80B582B000AF51
:10D370000200FB1D1A70FB1D1B785BB21800FFF743
:10D3800033FFC046BD4602B080BD80B582B000AF5D
:10D3900078607B681800FFF7AFFF03001800BD46F8
:10D3A00002B080BD80B582B000AF78607B6821227A
:10D3B0009B5CDBB2022B08D07B6804229A637B68FB
:10D3C000202200219954012320E07B681B681A6801
:10D3D0007B681B680E218A431A607B681B681A6889
:10D3E0007B681B6801218A431A607B681A6C7B6822
:10D3F000DB6B012191400A005A607B6821220121E8
:10D4000099547B6820220021995400231800BD46BE
:10D4100002B080BD80B584B000AF78600F217B186A
:10D4200000221A707B6821229B5CDBB2022B06D0A3
:10D430007B6804229A637B1801221A7028E07B68BB
:10D440001B681A687B681B680E218A431A607B6818
:10D450001B681A687B681B6801218A431A607B6815
:10D460001A6C7B68DB6B012191400A005A607B6873
:10D470002122012199547B682022002199547B6844
:10D480005B6B002B04D07B685B6B7A68100098475D
:10D490000F23FB181B781800BD4604B080BD0000A8
:10D4A00080B586B000AF7860396000237B6155E1BC
:10D4B0003B681B6801217A6991400A001340FB60B8
:10D4C000FB68002B00D146E13B685B6803221340F8
:10D4D000012B05D03B685B6803221340022B30D13F
:10D4E0007B689B683B617B695B0003229A40130069
:10D4F000DA433B6913403B613B68DA687B695B0058
:10D500009A4013003A6913433B617B683A699A6019
:10D510007B685B683B6101227B699A401300DA43B8
:10D520003B6913403B613B685B681B0901221A4061
:10D530007B699A4013003A6913433B617B683A69FF
:10D540005A603B685B6803221340032B17D07B684B
:10D55000DB683B617B695B0003229A401300DA437E
:10D560003B6913403B613B689A687B695B009A406A
:10D5700013003A6913433B617B683A69DA603B68A0
:10D580005B6803221340022B23D17B69DA087B6896
:10D5900008329200D3583B617B69072213409B00FD
:10D5A0000F229A401300DA433B6913403B613B680A
:10D5B0001A697B6907210B409B009A4013003A6966
:10D5C00013433B617B69DA087B6808329200396952
:10D5D000D1507B681B683B617B695B0003229A40EA
:10D5E0001300DA433B6913403B613B685B680322ED
:10D5F0001A407B695B009A4013003A6913433B6110
:10D600007B683A691A603B685A68C0239B021340E2
:10D6100000D1A0E0574B9A69564B01210A439A6109
:10D62000544B9B6901221340BB60BB68524A7B6923
:10D630009B0802339B009B583B617B69032213408C
:10D640009B000F229A401300DA433B6913403B6171
:10D650007A689023DB059A4219D07B68474A934247
:10D6600013D07B68464A93420DD07B68454A93426B
:10D6700007D07B68444A934201D1042308E0052384
:10D6800006E0032304E0022302E0012300E000237C
:10D690007A6903210A40920093403A6913433B613F
:10D6A00035497B699B0802339B003A695A50374BD6
:10D6B0001B683B61FB68DA433B6913403B613B6895
:10D6C0005A6880235B02134003D03A69FB68134316
:10D6D0003B612E4B3A691A602C4B5B683B61FB68DF
:10D6E000DA433B6913403B613B685A6880239B02E5
:10D6F000134003D03A69FB6813433B61234B3A69FB
:10D700005A60224B9B683B61FB68DA433B691340DC
:10D710003B613B685A6880235B03134003D03A693E
:10D72000FB6813433B61194B3A699A60174BDB68FE
:10D730003B61FB68DA433B6913403B613B685A68D5
:10D7400080239B03134003D03A69FB6813433B617A
:10D750000E4B3A69DA607B6901337B613B681A687A
:10D760007B69DA40131E00D0A2E6C046C046BD4623
:10D7700006B080BD001002400000014000040048D7
:10D7800000080048000C0048001000480004014058
:10D7900080B582B000AF786008001100BB1C021C8D
:10D7A0001A807B1C0A1C1A707B1C1B78002B04D06F
:10D7B000BB1C1A887B689A6103E0BB1C1A887B68D3
:10D7C0009A62C046BD4602B080BD80B584B000AF4D
:10D7D00078600A00BB1C1A807B685B69FB60BB1C1D
:10D7E0001B88FA6813401A04FB68DB43B91C0988DC
:10D7F0000B401A437B689A61C046BD4604B080BDA9
:10D8000080B588B000AF78607B68002B02D101231F
:10D8100000F076FB7B681B680122134000D18EE08C
:10D82000C54B5B680C221340042B0ED0C24B5B68C7
:10D830000C221340082B17D1BF4B5A68C0235B0240
:10D840001A4080235B029A420ED1BB4B1A68802398
:10D850009B02134000D171E07B685B68002B00D015
:10D860006CE0012300F04CFB7B685B68012B07D167
:10D87000B14B1A68B04B802149020A431A602FE06D
:10D880007B685B68002B0CD1AB4B1A68AA4BAB4989
:10D890000A401A60A84B1A68A74BA9490A401A60A7
:10D8A0001EE07B685B68052B0ED1A34B1A68A24B68
:10D8B0008021C9020A431A609F4B1A689E4B80213F
:10D8C00049020A431A600BE09B4B1A689A4B9B492A
:10D8D0000A401A60984B1A68974B99490A401A6097
:10D8E0007B685B68002B14D0FFF750FC0300BB6122
:10D8F00008E0FFF74BFC0200BB69D31A642B01D987
:10D900000323FDE28C4B1A6880239B021340F0D066
:10D9100015E0FFF73BFC0300BB6108E0FFF736FCB6
:10D920000200BB69D31A642B01D90323E8E2824BBE
:10D930001A6880239B021340F0D100E0C0467B6848
:10D940001B680222134000D16CE07B4B5B680C2209
:10D9500013400ED0784B5B680C221340082B1FD16C
:10D96000754B5A68C0235B021A4080231B029A42FF
:10D9700016D1714B1B680222134005D07B68DB680F
:10D98000012B01D00123BBE26B4B1B68F8229343B0
:10D9900019007B681B69DA00674B0A431A6041E093
:10D9A0007B68DB68002B24D0634B1A68624B012133
:10D9B0000A431A60FFF7EAFB0300BB6108E0FFF7C8
:10D9C000E5FB0200BB69D31A022B01D9032397E2BE
:10D9D000594B1B6802221340F1D0574B1B68F822A9
:10D9E000934319007B681B69DA00534B0A431A60A2
:10D9F00018E0514B1A68504B01218A431A60FFF717
:10DA0000C5FB0300BB6108E0FFF7C0FB0200BB6978
:10DA1000D31A022B01D9032372E2474B1B6802225F
:10DA20001340F1D17B681B680822134036D07B6815
:10DA3000DB69002B19D0404B5A6A3F4B01210A4346
:10DA40005A62FFF7A3FB0300BB6108E0FFF79EFBF0
:10DA50000200BB69D31A022B01D9032350E2364BD3
:10DA60005B6A02221340F1D018E0334B5A6A324B02
:10DA700001218A435A62FFF789FB0300BB6108E07A
:10DA8000FFF784FB0200BB69D31A022B01D90323E1
:10DA900036E2294B5B6A02221340F1D17B681B6896
:10DAA0000422134000D1B5E01F203B1800221A7059
:10DAB000214BDA6980235B05134010D11E4BDA69D4
:10DAC0001D4B802149050A43DA611B4BDA6980232B
:10DAD0005B051340FB60FB683B1801221A70194B71
:10DAE0001A6880235B0013401AD1164B1A68154B35
:10DAF000802149000A431A60FFF748FB0300BB611D
:10DB000008E0FFF743FB0200BB69D31A642B01D97D
:10DB10000323F5E10B4B1A6880235B001340F0D020
:10DB20007B689B68012B0FD1034B1A6A024B0121C2
:10DB30000A431A6236E0C04600100240FFFFFEFFB3
:10DB4000FFFFFBFF007000407B689B68002B0CD13F
:10DB5000CA4B1A6AC94B01218A431A62C74B1A6A17
:10DB6000C64B04218A431A621CE07B689B68052B24
:10DB70000CD1C24B1A6AC14B04210A431A62BF4B33
:10DB80001A6ABE4B01210A431A620BE0BB4B1A6AA8
:10DB9000BA4B01218A431A62B84B1A6AB74B042167
:10DBA0008A431A627B689B68002B14D0FFF7EEFA59
:10DBB0000300BB6109E0FFF7E9FA0200BB69D31A71
:10DBC000AF4A934201D903239AE1AC4B1B6A02226C
:10DBD0001340F0D013E0FFF7D9FA0300BB6109E06E
:10DBE000FFF7D4FA0200BB69D31AA54A934201D9C0
:10DBF000032385E1A14B1B6A02221340F0D11F23AE
:10DC0000FB181B78012B05D19C4BDA699B4B9D4976
:10DC10000A40DA617B681B681022134063D07B687E
:10DC20005B69012B2AD1954B5A6B944B04210A4313
:10DC30005A63924B5A6B914B01210A435A63FFF787
:10DC4000A5FA0300BB6108E0FFF7A0FA0200BB6978
:10DC5000D31A022B01D9032352E1884B5B6B0222BA
:10DC60001340F1D0854B5B6BF822934319007B681E
:10DC70009B69DA00814B0A435A6334E07B685B6935
:10DC8000053311D17D4B5A6B7C4B04218A435A6377
:10DC90007A4B5B6BF822934319007B689B69DA002F
:10DCA000764B0A435A631EE0744B5A6B734B042144
:10DCB0000A435A63714B5A6B704B01218A435A6372
:10DCC000FFF764FA0300BB6108E0FFF75FFA0200A8
:10DCD000BB69D31A022B01D9032311E1674B5B6B9C
:10DCE00002221340F1D17B681B68202213405CD0D4
:10DCF000624B5B680C2213400C2B0ED05F4B5B68B1
:10DD00000C221340082B14D15C4B5A68C0235B02D1
:10DD10001A40C0235B029A420BD1584B5A6B8023A6
:10DD20005B02134040D07B681B6A012B3CD001236F
:10DD3000E6E07B681B6A002B1BD0504B5A6B4F4BA5
:10DD4000802149020A435A63FFF720FA0300BB61AE
:10DD500008E0FFF71BFA0200BB69D31A022B01D9B6
:10DD60000323CDE0454B5A6B80235B021340F0D078
:10DD70001BE0424B5A6B414B43490A405A63FFF741
:10DD800005FA0300BB6108E0FFF700FA0200BB6977
:10DD9000D31A022B01D90323B2E0384B5A6B8023EC
:10DDA0005B021340F0D100E0C0467B685B6A002B49
:10DDB00000D1A4E0314B5B680C221340082B00D14A
:10DDC00078E07B685B6A022B4CD12C4B1A682B4B9A
:10DDD0002E490A401A60FFF7D9F90300BB6108E039
:10DDE000FFF7D4F90200BB69D31A022B01D9032330
:10DDF00086E0224B1A6880239B041340F0D11F4B0E
:10DE0000DB6A0F22934319007B681A6B1B4B0A4392
:10DE1000DA621A4B5B681E4A134019007B68DA6AA3
:10DE20007B689B6A1A43154B0A435A60134B1A6866
:10DE3000124B802149040A431A60FFF7A7F9030037
:10DE4000BB6108E0FFF7A2F90200BB69D31A022BFD
:10DE500001D9032354E0094B1A6880239B04134023
:10DE6000F0D04CE0054B1A68044B08490A401A6090
:10DE7000FFF78CF90300BB6115E0C04600100240BB
:10DE800088130000FFFFFFEFFFFFFEFFFFFFFFFE15
:10DE9000FF7FC2FFFFF77AF90200BB69D31A022B9A
:10DEA00001D903232CE0184B1A6880239B041340EC
:10DEB000F0D124E07B685B6A012B01D101231FE0D4
:10DEC000114B5B687B61104BDB6A3B617A69C02355
:10DED0005B021A407B689B6A9A420ED13B690F2213
:10DEE0001A407B681B6B9A4207D17A69F0239B0327
:10DEF0001A407B68DB6A9A4201D0012300E00023CC
:10DF00001800BD4608B080BD0010024080B584B046
:10DF100000AF786039607B68002B01D10123BFE03E
:10DF2000614B1B68012213403A689A4211D95E4B3B
:10DF30001B680122934319005B4B3A680A431A603D
:10DF4000594B1B68012213403A689A4201D00123C1
:10DF5000A6E07B681B680222134015D07B681B6813
:10DF60000422134006D0514B5A68504BE021C9009F
:10DF70000A435A604D4B5B68F022934319007B685B
:10DF80009A684A4B0A435A607B681B680122134017
:10DF90004CD07B685B68012B07D1444B1A68802307
:10DFA0009B02134020D101237AE07B685B68022B3F
:10DFB00007D13E4B1A6880239B04134014D10123E0
:10DFC0006EE07B685B68032B07D1384B5A6B80236C
:10DFD0005B02134008D1012362E0344B1B6802222C
:10DFE000134001D101235BE0304B5B680322934374
:10DFF00019007B685A682D4B0A435A60FFF7C6F830
:10E000000300FB6009E0FFF7C1F80200FB68D31AC8
:10E01000274A934201D9032342E0244B5B680C2238
:10E020001A407B685B689B009A42ECD11E4B1B68D0
:10E03000012213403A689A4211D21B4B1B680122FD
:10E0400093431900184B3A680A431A60164B1B6831
:10E05000012213403A689A4201D0012320E07B68F4
:10E060001B680422134009D0104B5B68114A13400F
:10E0700019007B68DA680D4B0A435A6000F020F8FB
:10E0800001000A4B5B681B090F2213400A4AD35C4C
:10E090000A00DA40094B1A600320FFF731F8002329
:10E0A0001800BD4604B080BD0020024000100240B0
:10E0B00088130000FFF8FFFF14330108D40000208C
:10E0C00090B58FB000AF1423FB18384A13CA13C39E
:10E0D00012681A603B1D364A13CA13C312681A60CD
:10E0E0000023FB620023BB6200237B6300237B626F
:10E0F00000233B632F4B5B68FB62FB6A0C221340DF
:10E100000C2B47D049D8042B02D0082B03D044E075
:10E11000294B3B6344E0FB6A9B0C0F221340142203
:10E12000BA18D35C7B62234BDB6A0F2213403A1D83
:10E13000D35CBB62FA6AC0235B021A4080235B0295
:10E140009A4209D1B96A1C48FAF7FAFF03001A008B
:10E150007B6A53437B631AE0FA6AC0235B021A406E
:10E16000C0235B029A4209D1B96A1448FAF7E8FF62
:10E1700003001A007B6A53437B6308E0B96A0E48C8
:10E18000FAF7DEFF03001A007B6A53437B637B6B65
:10E190003B6305E0094B3B6302E0074B3B63C04632
:10E1A0003B6B1800BD460FB090BDC0461032010851
:10E1B000203201080010024000127A00006CDC02DC
:10E1C00080B500AF024B1B681800BD4680BDC0463D
:10E1D000D400002080B500AFFFF7F2FF0100064B2E
:10E1E0005B681B0A07221340044AD35CD9400B002A
:10E1F0001800BD4680BDC04600100240243301080F
:10E2000080B586B000AF786000233B610023FB60DF
:10E210007B681A6880235B02134000D18EE01720D0
:10E220003B1800221A706E4BDA6980235B0513409D
:10E2300010D16B4BDA696A4B802149050A43DA61D8
:10E24000674BDA6980235B051340BB60BB683B18F2
:10E2500001221A70634B1A6880235B0013401AD1A5
:10E26000604B1A685F4B802149000A431A60FEF731
:10E270008DFF03003B6108E0FEF788FF02003B6969
:10E28000D31A642B01D90323A6E0564B1A688023C6
:10E290005B001340F0D0524B1A6AC0239B0013401E
:10E2A000FB60FB68002B34D07B685A68C0239B005E
:10E2B0001340FA689A422CD0494B1B6A4A4A1340D1
:10E2C000FB60474B1A6A464B802149020A431A6297
:10E2D000434B1A6A424B45490A401A62404BFA685E
:10E2E0001A62FB680122134013D0FEF74FFF0300B0
:10E2F0003B6109E0FEF74AFF02003B69D31A3C4A42
:10E30000934201D9032367E0354B1B6A0222134075
:10E31000F0D0334B1B6A344A134019007B685A68AB
:10E320002F4B0A431A621723FB181B78012B05D1C8
:10E330002B4BDA692A4B2F490A40DA617B681B684C
:10E340000122134009D0264B1B6B03229343190073
:10E350007B689A68224B0A431A637B681B68022217
:10E36000134009D01E4B1B6B234A134019007B68D6
:10E37000DA681B4B0A431A637B681B682022134030
:10E3800009D0174B1B6B1022934319007B681A6945
:10E39000134B0A431A637B681A6880239B0213405D
:10E3A00009D00F4B1B6B8022934319007B689A693D
:10E3B0000B4B0A431A637B681A688023DB00134007
:10E3C00009D0074B1B6B4022934319007B685A69A5
:10E3D000034B0A431A6300231800BD4606B080BDF4
:10E3E0000010024000700040FFFCFFFFFFFFFEFF37
:10E3F00088130000FFFFFFEFFFFFFCFF80B584B034
:10E4000000AF78607B68002B01D10123A8E07B6816
:10E410005B6A002B09D17B685A6882235B009A42B1
:10E4200009D07B680022DA6105E07B6800221A616E
:10E430007B6800225A617B6800229A627B685D22B9
:10E440009B5CDBB2002B07D17B685C2200219954D6
:10E450007B681800FEF7C4FC7B685D22022199549A
:10E460007B681B681A687B681B6840218A431A60B6
:10E470007B68DA68E023DB009A4202D90023FB6064
:10E4800002E080235B01FB607B68DA68F0231B01FC
:10E490009A4208D07B68DA68E023DB009A4202D017
:10E4A0007B6800229A627B685A6882235B001A406C
:10E4B0007B68996884231B020B401A437B681B69A5
:10E4C00002210B401A437B685B6901210B401A4310
:10E4D0007B68996980239B000B401A437B68DB694A
:10E4E00038210B401A437B681B6A80210B401A437A
:10E4F00011007B689A6A80239B011A407B681B6825
:10E500000A431A607B689B691B0C04221A407B68D3
:10E510005B6A10210B401A437B685B6B08210B4040
:10E520001A437B68D968F0231B010B401A43110082
:10E53000FA6880235B011A407B681B680A435A60B3
:10E540007B681B68DA697B681B6807490A40DA61E7
:10E550007B6800221A667B685D22012199540023A2
:10E560001800BD4604B080BDFFF7FFFF80B588B03E
:10E5700000AFF860B9603B60BB1D1A801F23FB1819
:10E5800000221A70FB685C229B5C012B01D10223E4
:10E5900040E1FB685C2201219954FEF7F7FD03007E
:10E5A000BB611623FB18BA1D12881A80FB685D2216
:10E5B0009B5CDBB2012B04D01F23FB1802221A70D4
:10E5C0001DE1BB68002B03D0BB1D1B88002B04D1B1
:10E5D0001F23FB1801221A7011E1FB685D22032141
:10E5E0009954FB6800221A66FB68BA689A63FB6854
:10E5F000BA1D12889A87FB68BA1D1288DA87FB68F1
:10E6000000221A64FB68442200219952FB684622CA
:10E6100000219952FB6800221A65FB680022DA6427
:10E62000FB689A6880231B029A4210D1FB681B6822
:10E630001A68FB681B6840218A431A60FB681B68E4
:10E640001A68FB681B688021C9010A431A60FB68CD
:10E650001B681B6840221340402B07D0FB681B68D7
:10E660001A68FB681B6840210A431A60FB68DA6875
:10E67000E023DB009A424ED9FB685B68002B04D094
:10E680001623FB181B88012B3FD1FB689B6B1A8854
:10E69000FB681B68DA60FB689B6B9A1CFB689A63DB
:10E6A000FB68DB8F9BB2013B9AB2FB68DA872CE0F8
:10E6B000FB681B689B6802221340022B12D1FB6887
:10E6C0009B6B1A88FB681B68DA60FB689B6B9A1C63
:10E6D000FB689A63FB68DB8F9BB2013B9AB2FB68D5
:10E6E000DA8712E0FEF752FD0200BB69D31A3A68DE
:10E6F0009A4202D83B68013302D13B68002B04D117
:10E700001F23FB1803221A7079E0FB68DB8F9BB292
:10E71000002BCDD14FE0FB685B68002B04D01623A3
:10E72000FB181B88012B41D1FB689A6BFB681B68A7
:10E730000C3312781A70FB689B6B5A1CFB689A6347
:10E74000FB68DB8F9BB2013B9AB2FB68DA872DE056
:10E75000FB681B689B6802221340022B13D1FB68E5
:10E760009A6BFB681B680C3312781A70FB689B6B02
:10E770005A1CFB689A63FB68DB8F9BB2013B9AB221
:10E78000FB68DA8712E0FEF701FD0200BB69D31ACD
:10E790003A689A4202D83B68013302D13B68002BA9
:10E7A00004D11F23FB1803221A7028E0FB68DB8FBB
:10E7B0009BB2002BCCD1BA693968FB68180000F015
:10E7C000D9FC031E02D0FB6820221A66FB689B68F6
:10E7D000002B0AD100233B61FB681B68DB683B61AF
:10E7E000FB681B689B683B613B69FB681B6E002BE9
:10E7F00004D01F23FB1801221A7000E0C046FB68FA
:10E800005D2201219954FB685C22002199541F2349
:10E81000FB181B781800BD4608B080BD90B589B0C4
:10E8200002AFF860B9603B60BB1D1A801723FB186C
:10E8300000221A70FB685A6882235B009A4213D147
:10E84000FB689B68002B0FD1FB685D220421995463
:10E85000BB1D1C88BA68B968F8683B680093230040
:10E8600000F028F903001CE1FB685C229B5C012B93
:10E8700001D1022315E1FB685C2201219954FEF7C6
:10E8800085FC03003B61FB685D229B5CDBB2012BD6
:10E8900004D01723FB1802221A70F7E0BB68002B84
:10E8A00003D0BB1D1B88002B04D11723FB180122AA
:10E8B0001A70EBE0FB685D2204219954FB6800228A
:10E8C0001A66FB68BA681A64FB68BA1D442112888C
:10E8D0005A52FB68BA1D462112885A52FB68002220
:10E8E0009A63FB6800229A87FB680022DA87FB683C
:10E8F0000022DA64FB6800221A65FB68DA68E0230C
:10E90000DB009A4208D9FB681B685A68FB681B68E1
:10E9100066490A405A6008E0FB681B685A68FB6851
:10E920001B68802149010A435A60FB689A6880236A
:10E930001B029A420FD1FB681B681A68FB681B68B0
:10E9400040218A431A60FB681B681A68FB681B68D1
:10E9500057490A401A60FB681B681B684022134035
:10E96000402B07D0FB681B681A68FB681B684021B6
:10E970000A431A60FB68DA68E023DB009A4200D998
:10E9800069E031E0FB681B689B6801221340012BA2
:10E9900017D1FB681B680C331A00FB681B6C1278DC
:10E9A000D2B21A70FB681B6C5A1CFB681A64FB68B5
:10E9B00046229B5A9BB2013B99B2FB684622995270
:10E9C00012E0FEF7E3FB02003B69D31A3A689A4271
:10E9D00002D83B68013302D13B68002B04D11723D6
:10E9E000FB1803221A7051E0FB6846229B5A9BB227
:10E9F000002BC7D135E0FB681B689B6801221340E0
:10EA0000012B15D1FB681B68DA68FB681B6C92B29E
:10EA10001A80FB681B6C9A1CFB681A64FB68462210
:10EA20009B5A9BB2013B99B2FB684622995212E075
:10EA3000FEF7ACFB02003B69D31A3A689A4202D84F
:10EA40003B68013302D13B68002B04D11723FB182C
:10EA500003221A701AE0FB6846229B5A9BB2002BD5
:10EA6000C9D13A693968FB68180000F025FB031E1C
:10EA700002D0FB6820221A66FB681B6E002B04D0B4
:10EA80001723FB1801221A7000E0C046FB685D22C4
:10EA900001219954FB685C22002199541723FB182B
:10EAA0001B781800BD4607B090BDC046FFEFFFFFC2
:10EAB000FFBFFFFF80B58AB000AFF860B9607A6031
:10EAC0001A00BB1C1A8001237B622323FB1800223F
:10EAD0001A70FB685C229B5C012B01D10223B5E11B
